:100000000C9440010C945C140C9435140C9468010D
:100010000C9468010C9468010C9468010C946801BC
:100020000C9468010C9468010C9468010C946801AC
:100030000C9468010C9468010C9468010C9468019C
:100040000C94EB130C9468010C94A9140C94831475
:100050000C9468010C9468010C9468010C9468017C
:100060000C94CC120C946801036EDB363D9A99997E
:10007000993DABAAAA2A3E000000803F084AD73B20
:100080003BCE016E84BCBFFDC12F3D6C74319ABD67
:1000900056833DDA3D00C77F11BED9E4BB4C3E918B
:1000A0006BAAAABE000000803F072C7AA5BA6CC5D7
:1000B00090DA3B9365FC8BBC53F810FD3C56928361
:1000C0004DBD879D3AB63DCBC9BF5BBE73DA0FC944
:1000D0003F00090009005472696D204779726F0969
:1000E00000090009005472696D20416363656C0961
:1000F00000090009004779726F204F6666736574C6
:10010000090009000900416363656C204F6666734E
:10011000657409004E4557202020202020202020F3
:1001200009580959095A00090009005472696D20DB
:100130004779726F0900090009005472696D204106
:100140006363656C0900090009004779726F204FED
:100150006666736574090009000900416363656C94
:10016000204F66667365740900454550524F4D2017
:100170002009580959095A000920636F7272656392
:1001800074696F6E56616C756520000920416E6759
:100190006C6520494D552000524157204779726FB8
:1001A000205A200053746162696C697A6174696FC6
:1001B0006E204D6F646520000000000024002700C1
:1001C0002A0000000000230026002900000000088B
:1001D000000201000003040700000000000000000E
:1001E0005E01011F01030301008A02010A010202EC
:1001F000010064001E47040B0906007C0101060192
:1002000003030100F401060E0102020100C20117FE
:100210000101020201019600023E0106060100C82A
:100220000003820710031000C800820710071003A4
:10023000016D01120103010103010E0124010102FC
:10024000020101400124010102020101010204082E
:100250001020408001020408102001020408102030
:1002600000000000250028002B00040404040404FE
:100270000404020202020202030303030303DB1469
:1002800011241FBECFEFD8E0DEBFCDBF13E0A0E04A
:10029000B1E0EAEFF5E602C005900D92AA3FB10782
:1002A000D9F727E0AAEFB3E001C01D92AA34B20744
:1002B000E1F711E0C0E4D1E004C02197FE010E9403
:1002C000632FCF33D107C9F70E941C160C94FB3261
:1002D0000C940000CF92DF92EF92FF926B017C01B1
:1002E00020E030E0A9010E941D32181624F0F7FA30
:1002F000F094F7F8F09424EB32EA41E959E3C701AE
:10030000B6010E941D32181644F084EBC82E82EA12
:10031000D82E81E9E82E89E3F82EC0923A07D092D0
:100320003B07E0923C07F0923D0780914207909195
:100330004307892B51F020E030E040EA50E4C70148
:10034000B6010E94633087FF12C0A701960160E0EA
:1003500074E284E799E40E9468300E94E13060937F
:100360000B0770930C0780930D0790930E07C7013E
:10037000B6010E94DA309B01770F440B550B285EC3
:10038000334041095109A0E5B9EC0E94122F28E33E
:100390003AE440E050E00E94E52E2856354C4F4F9D
:1003A0005F4F28393A4358F088EE93E09093100756
:1003B00080930F07FF90EF90DF90CF90089588E92A
:1003C0009AE3F4CF20917F05260F3327331F213284
:1003D0003105ECF42091CA05FC0190E080E0243066
:1003E00069F082E00895A0917F052191AC01435A04
:1003F0005A4FA40FB52FB11D2C930196861798F371
:1004000080917F05680F60937F0580E0089581E00B
:100410000895089508950895E0915B0580915A0527
:10042000E81730F4F0E0E65CFA4F808190E0089540
:100430008FEF9FEF089590915B0580915A052FEF04
:100440003FEF981748F4E92FF0E0E65CFA4F20817F
:1004500030E09F5F90935B05C901089580915A0534
:1004600090915B05891B990B0895CF92DF92EF92D3
:10047000FF920F931F93CF93DF937C01CB018A01EF
:100480002091D005222389F0EB016B01C40ED51E0B
:10049000CC15DD0569F06991D701ED91FC910190D2
:1004A000F081E02DC7010995F3CF642F0E94E2018E
:1004B000C801DF91CF911F910F91FF90EF90DF90D6
:1004C000CF900895CF93DF931F92CDB7DEB76983A6
:1004D0002091D0052223F9F02091F305203258F025
:1004E00021E030E0FC013383228390E080E00F9034
:1004F000DF91CF9108958091D105E82FF0E0EE5281
:10050000FA4F998190838F5F8093D1058093F30593
:1005100081E090E0ECCF61E0CE0101960E94E20123
:10052000F7CF833081F028F4813099F08230A9F040
:1005300008958730A9F08830C9F08430B1F48091F3
:1005400080008F7D03C0809180008F778093800032
:10055000089584B58F7784BD089584B58F7DFBCFD2
:100560008091B0008F778093B00008958091B000A3
:100570008F7DF9CFCF93DF93282F30E0F901E4533B
:10058000FE4F8491F901E45BFD4FD491F901E659E6
:10059000FD4FC491CC23A1F081110E949102EC2F58
:1005A000F0E0EE0FFF1FEE53FE4FA591B491EC91DA
:1005B000ED2381E090E009F480E0DF91CF91089590
:1005C00080E090E0FACF1F93CF93DF93282F30E0A5
:1005D000F901E453FE4F8491F901E45BFD4FD4919E
:1005E000F901E659FD4FC491CC23A9F0162F8111D2
:1005F0000E949102EC2FF0E0EE0FFF1FE05AFD4F3A
:10060000A591B4918FB7F894EC91111108C0D095D1
:10061000DE23DC938FBFDF91CF911F910895DE2BF6
:10062000F8CF1092CA0581E08093C9051092A40505
:1006300061E082E10E94E30261E083E10E94E30263
:10064000E9EBF0E080818E7F808380818D7F8083E5
:1006500088E48093B80085E48093BC000895CF932C
:10066000DF9391E090935C058823B9F0C091B800C6
:10067000D091BA008091BC008A7B8093BC0060E07E
:1006800082E10E94E30260E083E10E94E3020E94B3
:100690001103D093BA00C093B800DF91CF910895B1
:1006A000CF93DF9390E0FC01E45BFD4F24918659EA
:1006B0009D4FFC0184918823D1F090E0880F991F11
:1006C000FC01E854FE4FA591B491FC01E05AFD4FA6
:1006D000C591D491623071F49FB7F8943C91822F08
:1006E000809583238C93E8812E2B28839FBFDF91F5
:1006F000CF9108958FB7F894EC912E2B2C938FBF48
:10070000F6CF3FB7F8948091360590913705A091C8
:100710003805B091390526B5A89B05C02F3F19F0C3
:100720000196A11DB11D3FBFBA2FA92F982F882771
:10073000BC01CD01620F711D811D911D42E0660F4C
:10074000771F881F991F4A95D1F70895CF93DF939C
:10075000C7EFD6E081E08DAF1092360710923707D1
:1007600010923807109239070E9481036DA77EA767
:100770008FA798AB6CA37DA38EA39FA368A379A337
:100780008AA39BA36E818D81DF91CF910C94E302AC
:100790004F925F926F927F928F929F92AF92BF9291
:1007A000CF92DF92EF92FF926B017C018090F7066F
:1007B0009090F806A090F906B090FA06452B21F02B
:1007C000C80CD91CEA1CFB1CC0922C07D0922D0728
:1007D000E0922E07F0922F07C814D904EA04FB0414
:1007E00009F441C040903A0750903B0760903C07A5
:1007F00070903D078091420790914307892B51F0FB
:1008000020E030E040EA50E4C301B2010E946330CE
:1008100087FF1BC0A301920160E074E284E799E4C2
:100820000E9468300E94E13060930B0770930C07C0
:1008300080930D0790930E0781E08C149D04AE0405
:10084000BF040CF08FEF8093FB06FF90EF90DF90DA
:10085000CF90BF90AF909F908F907F906F905F9060
:100860004F900C94A603FF90EF90DF90CF90BF9035
:10087000AF909F908F907F906F905F904F90089572
:100880008F929F92AF92BF92CF92DF92EF92FF92A0
:100890000F931F93CF93DF93D091F305D13208F0DC
:1008A000D7C0182FC091F2050E9481036B017C0113
:1008B0008091CA0581116BC082E08093CA051093B4
:1008C000C9058FEF8093C8051092C705D093C60560
:1008D000A2EDB5E0E6EAF5E080E0D81391C0109211
:1008E000A5058091A505CC0FC82BC093A5058091C7
:1008F000A405813009F088C01092A4050E948103EC
:100900006B017C018091A5058093BB008091CC0593
:100910009091CD05A091CE05B091CF05892B8A2B62
:100920008B2BA1F00E9481030091CC051091CD0585
:100930002091CE053091CF056C197D098E099F0954
:10094000061717072807390708F442C08091BC0032
:1009500083FDD8CF85EC8093BC000E9481036B019E
:100960007C018091CA05823009F450C08091C8058D
:100970008F3F09F46FC08091C805803209F46CC0C4
:100980008091C805803309F469C084E026C0809155
:10099000CC059091CD05A091CE05B091CF05892BC6
:1009A0008A2B8B2B09F484CF0E9481038090CC0585
:1009B0009090CD05A090CE05B090CF056C197D0923
:1009C0008E099F0986169706A806B90608F070CF0B
:1009D0008091CB050E942F0385E01092D1051092E3
:1009E000F3051092D005DF91CF911F910F91FF90E9
:1009F000EF90DF90CF90BF90AF909F908F90089531
:100A00009D9191938F5F69CF85EEA5CF8091CC05A5
:100A10009091CD05A091CE05B091CF05892B8A2B61
:100A20008B2B09F49ECF0E9481030091CC0510917D
:100A3000CD052091CE053091CF056C197D098E0929
:100A40009F09061717072807390708F08ACFC0CF74
:100A500081E0C3CF80E0C1CF82E0BFCF83E0BDCFD4
:100A60008F929F92AF92BF92CF92DF92EF92FF92BE
:100A70004B015C010E9481036B017C010E94810398
:100A80006C197D098E099F09683E734081059105A7
:100A9000A8F321E0821A9108A108B10888EEC80ED7
:100AA00083E0D81EE11CF11C81149104A104B1045F
:100AB00029F7FF90EF90DF90CF90BF90AF909F907D
:100AC0008F9008958F929F92BF92CF92DF92EF9274
:100AD000FF920F931F93CF93DF936B017C01042F41
:100AE00083E10E94BA024C01BB24B394892B09F420
:100AF000B12CD0E0C0E010E0C017D107B4F461E041
:100B00008114910409F060E083E10E94E302C701CF
:100B1000B6010E9430056B2D83E10E94E302C701FC
:100B2000B6010E9430052196E7CFDF91CF911F914A
:100B30000F91FF90EF90DF90CF90BF909F908F909C
:100B400008952FB7F8946091320570913305809124
:100B50003405909135052FBF0895CF92DF92EF9223
:100B6000FF920F931F93CF93DF9300D000D000D05C
:100B70001F92CDB7DEB797E0E4E1F1E0DE01119618
:100B800001900D929A95E1F721E030E02C0F3D1F86
:100B9000280F311DF90110810E94A105C0900106A6
:100BA000D0900206E0900306F09004066C197D09CF
:100BB0008E099F096739710581059105F0F00E9442
:100BC000A10560930106709302068093030690933B
:100BD000040600910006812F90E0202F277002C0AC
:100BE000959587952A95E2F761E080FF60E083E1C3
:100BF0000E94E3020F5F0093000627960FB6F89459
:100C0000DEBF0FBECDBFDF91CF911F910F91FF903F
:100C1000EF90DF90CF9008950895AF92BF92CF925A
:100C2000DF92EF92FF920F931F93CF93DF936C01AC
:100C30007B018B01040F151FEB015E01AE18BF088D
:100C4000C017D10759F06991D601ED91FC9101903F
:100C5000F081E02DC6010995892B79F7C501DF9157
:100C6000CF911F910F91FF90EF90DF90CF90BF90A9
:100C7000AF90089590E080E00895FC01538D448D7D
:100C8000252F30E0842F90E0821B930B541710F037
:100C9000CF96089501970895FC01918D828D981744
:100CA00061F0A28DAE0FBF2FB11D5D968C91928D1C
:100CB0009F5F9F73928F90E008958FEF9FEF08954D
:100CC000FC01918D828D981731F0828DE80FF11D16
:100CD000858D90E008958FEF9FEF0895FC01918D31
:100CE000228D892F90E0805C9F4F821B91098F732A
:100CF0009927089581E196E00E946E0621E0892BF4
:100D000009F420E0822F089580E090E0892B29F0FB
:100D10000E947A0681110C9400000895FC01A48DB4
:100D2000A80FB92FB11DA35ABF4F2C91848D90E00D
:100D300001968F739927848FA689B7892C93A089F0
:100D4000B1898C91837080648C93938D848D98137A
:100D500006C00288F389E02D80818F7D808308950D
:100D6000EF92FF920F931F93CF93DF93EC0181E0FB
:100D7000888F9B8D8C8D98131AC0E889F9898081A2
:100D800085FF15C09FB7F894EE89FF896083E889D5
:100D9000F98980818370806480839FBF81E090E0C7
:100DA000DF91CF911F910F91FF90EF900895F62E54
:100DB0000B8D10E00F5F1F4F0F731127E02E8C8DEE
:100DC0008E110CC00FB607FCFACFE889F989808133
:100DD00085FFF5CFCE010E948E06F1CFEB8DEC0F93
:100DE000FD2FF11DE35AFF4FF0829FB7F8940B8F50
:100DF000EA89FB8980818062CFCF0F931F93CF93C5
:100E0000DF938C01D0E0C0E0F801EC0FFD1F64918E
:100E1000662341F081E196E00E94B006892B11F033
:100E20002196F2CFCE01DF91CF911F910F910895BE
:100E3000CF93DF93EC01888D8823B9F0AA89BB8911
:100E4000E889F9898C9185FD03C0808186FD0DC0FC
:100E50000FB607FCF7CF8C9185FFF2CF808185FF1D
:100E6000EDCFCE010E948E06E9CFDF91CF9108959C
:100E7000DC01ED91FC910480F581E02D0994CF9384
:100E8000DF93CDB7DEB72C970FB6F894DEBF0FBE59
:100E9000CDBF8CE089832CE030E041E050E0BE0122
:100EA0006F5F7F4F8EEA96E00E94380749815A8132
:100EB0002B813C818D819E81AF81B885E985FA8542
:100EC0006B857C85B093FF05A093FE05F093FD052F
:100ED000E093FC057093FB056093FA055093F905C8
:100EE0004093F8053093F7052093F6059093F505A8
:100EF0008093F4052C960FB6F894DEBF0FBECDBFDD
:100F0000DF91CF910895CF93DF931F92CDB7DEB7D6
:100F1000698321E030E041E050E0BE016F5F7F4F28
:100F20000E94380789810F90DF91CF910895CF9368
:100F3000DF9366E78EEA96E00E948307C82FD0E031
:100F400067E78EEA96E00E94830790E024E095959B
:100F500087952A95E1F783709E01382BC90131FDF1
:100F60009C6FDF91CF910895CF93DF9365E78EEA71
:100F700096E00E948307C82FD0E067E78EEA96E0EC
:100F80000E94830790E09595879595958795837046
:100F90009E01382BC90131FD9C6FDF91CF910895DF
:100FA000CF93DF9364E78EEA96E00E948307C82F11
:100FB000D0E067E78EEA96E00E94830783709E0187
:100FC000382BC90131FD9C6FDF91CF9108956BE102
:100FD0008EEA96E00E94830783FD07C061E070E01F
:100FE00080E090E00E943005F2CF0895CF93DF9328
:100FF00000D0CDB7DEB769834A8330E020E042E01D
:1010000050E0BE016F5F7F4F0E9438070F900F9036
:10101000DF91CF91089590E080E00895EF92FF92E4
:101020000F931F93CF93DF937C01D62FC42F122FE2
:101030000E94830741E050E002C0440F551F0A950B
:10104000E2F741505109012E01C0440F0A94EAF71A
:101050002C2F01C0220F1A95EAF7942F909589231F
:101060002423422F482B6D2FC701DF91CF911F9171
:101070000F91FF90EF900C94F6070F931F93CF936F
:10108000DF9300D0CDB7DEB78C01CB01BA012AE9DE
:1010900039E949E750E40E9468300E94DA3060384C
:1010A000710514F06FE770E0AB0160387F4F14F406
:1010B00040E85FEF0115110519F561E78EEA96E04A
:1010C0000E94F60782E1898322E030E041E050E0AF
:1010D000BE016F5F7F4F8EEA96E00E94380701E005
:1010E00010E026E030E041E067E78EEA96E00E94FB
:1010F0000E080F900F90DF91CF911F910F910895DF
:101100000130110539F462E78EEA96E00E94F60795
:1011100084E1D9CF63E78EEA96E00E94F60786E184
:10112000D2CFCF93CFB7F89480918C04811127C090
:10113000E4E7F2E08491E6E5F2E09491E82FF0E054
:10114000EE0FFF1FE854FE4FA591B491EC91E923F7
:1011500021F461E08AE00E94E30261E08AE00E94FB
:1011600050038CB580618CBD8CB580648CBD61E012
:101170008DE00E94500361E08BE00E94500380915B
:101180008C048F5F80938C04CFBFCF9108958F9292
:101190009F92AF92BF92CF92DF92EF92FF926B013C
:1011A0007C0120E030E040E05FE30E942A324B0106
:1011B0005C01D701C601B595A795979587953FED39
:1011C000C32E39E5D32E37E3E32E3FE5F32EC81ABD
:1011D000D90AEA0AFB0AA5019401C701B6010E94D7
:1011E0002A32A70196010E942A329B01AC0160E0DD
:1011F00070E080EC9FE30E94692FA70196010E9496
:101200002A326B017C01A50194010E942A32A701B8
:1012100096010E942A329B01AC0160E070E080ECF4
:101220009FE30E94692FA70196010E942A32FF9036
:10123000EF90DF90CF90BF90AF909F908F900895E8
:10124000FC01668121E0622785810C94E302109203
:101250003407109236071092370710923807109211
:101260003907109228071092290710922A07109226
:101270002B0780913507882321F087EF96E00C94A7
:10128000200908954F925F926F927F928F929F9262
:10129000AF92BF92CF92DF92EF92FF92CF93DF9304
:1012A000CDB7DEB728970FB6F894DEBF0FBECDBF1F
:1012B00080913407882309F443C20E94810360931C
:1012C0003007709331078093320790933307209152
:1012D0004807309149078091420790914307232B9B
:1012E00009F037C2892B09F467C140903A07509042
:1012F0003B0760903C0770903D0720E030E040EAFB
:1013000050E4C301B2010E941D3287FD55C1809097
:10131000300790903107A0903207B0903307C0900B
:101320001B07D0901C07E0901D07F0901E076091EE
:101330000F077091100790E080E08C189D08AE08B0
:10134000BF0886169706A806B90608F435C1C60E6A
:10135000D71EE81EF91EC0921B07D0921C07E09210
:101360001D07F0921E0780902C0790902D07A090EB
:101370002E07B0902F07C090F706D090F806E090A7
:10138000F906F090FA068C189D08AE08BF08C090C8
:101390002807D0902907E0902A07F0902B070E9499
:1013A000103120911107309112074091130750918D
:1013B00014070E942A3269837A838B839C83A70156
:1013C0009601C701B6010E942A322091440730914C
:1013D000450740914607509147070E942A326D8386
:1013E0007E838F839887C501B401B7FE07C0662747
:1013F0007727CB01681979098A099B090E94123164
:101400009B01AC016D817E818F8198850E941D3288
:1014100087FD0EC020E030E0A901C701B6010E949F
:101420001D3287FD07C020E030E040E85FEB06C0DA
:10143000B7FCF9CF20E030E040E85FE369817A81D2
:101440008B819C810E942A32A70196010E946A2FFB
:101450006B017C018090360790903707A090380789
:10146000B090390720E030E0A901C501B4010E9425
:10147000633081114AC053014201B7FAB094B7F802
:10148000B094A5019401B601C7010E94633087FDA5
:101490000CC09601A701C301B2010E946330530141
:1014A000420187FD02C046015701809228079092B1
:1014B0002907A0922A07B0922B07C0902807D09046
:1014C0002907E0902A07F0902B0720E030E0A901DF
:1014D000C701B6010E941D321816D4F520E030E095
:1014E00040EA50E4C701B6010E941D321816D4F13B
:1014F00080E49DE0A3E0B0E080930B0790930C079D
:10150000A0930D07B0930E074BC02401350177FA65
:10151000709477F87094A3019201B601C7010E94FC
:10152000633087FD0CC0A5019401B601C7010E947C
:101530001D3224013501181614F02601370140929E
:1015400028075092290760922A0770922B07B5CF7F
:1015500020E030E040EA50ECC701B6010E94633061
:1015600087FFC6CFA701960160E074E284E799E4A3
:101570000E9468304B015C0120E030E0A9010E942C
:101580001D3218160CF083C0C501B4010E94E13071
:1015900060930B0770930C0780930D0790930E07D1
:1015A00020E030E0A901C701B6010E941D3287FD8D
:1015B00072C081E08093FB0640910B0750910C07AD
:1015C00060910D0770910E07411551056105710578
:1015D00009F4B6C08091300790913107A09132078D
:1015E000B0913307C0902407D0902507E0902607DC
:1015F000F09027078C199D09AE09BF09841795073C
:10160000A607B70708F49CC0809130079091310776
:10161000A0913207B0913307809324079093250758
:10162000A0932607B0932707C090F706D090F8063E
:10163000E090F906F090FA068091480790914907EA
:10164000892BE1F580912C0790912D07A0912E0711
:10165000B0912F078C159D05AE05BF0579F50E9449
:10166000270980E028960FB6F894DEBF0FBECDBFE5
:10167000DF91CF91FF90EF90DF90CF90BF90AF9030
:101680009F908F907F906F905F904F900895C501CD
:10169000B40190587BCF8FEF8DCF8FEFD8C0C501AD
:1016A000B4019058EAC024EB32EA41E959EBC70192
:1016B000B6010E941D3287FD7FCF03C18091FB06DA
:1016C000482F082E000C550B660B770B4C0D5D1D3B
:1016D0006E1D7F1D4093F7065093F8066093F90640
:1016E0007093FA069091FF06891799F08093FF0690
:1016F000E0910707F091080791E018160CF090E0D0
:101700008091FE069817F9F080910A079081892B45
:10171000808380910907E0910507F0910607908189
:10172000892B80838BE090E00197F1F78091090786
:10173000E0910507F09106079081809589238083C9
:10174000809134078FCF80910A07908180958923FB
:10175000DFCF892B09F430CFC0903007D09031070C
:10176000E0903207F09033076091150770911607EB
:101770008091170790911807A0911907B0911A0747
:10178000C81AD90AEA0AFB0A90E080E0C616D70612
:10179000E806F90608F410CFC0903007D090310762
:1017A000E0903207F0903307C0921707D0921807E5
:1017B000E0921907F0921A07C0902807D0902907E5
:1017C000E0902A07F0902B070E941031209111071A
:1017D0003091120740911307509114070E942A324A
:1017E0004B015C01A701960160913E0770913F0794
:1017F00080914007909141070E94692F20E030E0DE
:10180000A9010E941D3220E030E040E85FE387FF3D
:1018100004C020E030E040E85FEBC501B4010E9465
:101820002A32A70196010E946A2F6B017C01C092A7
:101830002807D0922907E0922A07F0922B0720E090
:1018400030E0A9010E941D3287FD27CF81E08093FF
:10185000FB06A701960160E074E284E799E40E9428
:1018600068304B015C0120E030E0A9010E941D328C
:1018700018160CF014CFC501B4010E94E13060933A
:101880000B0770930C0780930D0790930E078091C0
:101890001F07882309F490CE20E030E0A901C7019A
:1018A000B6010E941D3218160CF0FDCE24EB32EA70
:1018B00041E959E3C701B6010E94633018160CF4E0
:1018C0007BCE0E94270978CEFC018681A82FB0E04C
:1018D000AA0FBB1FAE0FBF1F6D937C938F5F83302A
:1018E000D0F4868320813181428153816481758166
:1018F000FA01461757070CF4FB01C90124173507F5
:101900000CF4CA01E817F90741F4C9012617370793
:101910006CF4CB0108951682E5CFC90162177307F5
:101920000CF4CB01841795070CF4CA0108958EBD01
:1019300000000DB407FEFDCF8EB508952F923F92A3
:101940004F925F926F927F928F929F92AF92BF92CF
:10195000CF92DF92EF92FF920F931F93CF93DF937B
:10196000CDB7DEB765970FB6F894DEBF0FBECDBF1B
:101970000E9481036B017C0180918804909189040D
:101980002601481A590A4DEC441640E1540608F461
:10199000E0C08091860490918704009789F020919F
:1019A0000004309101041201221A330A910137FE1A
:1019B00003C0319521953109283C31050CF0C5C093
:1019C00001969093870480938604029709F0BDC026
:1019D00090EE692E91E0792E01E010E02090FE0358
:1019E0003090FF033B862A8649E050E0B301CE01E8
:1019F00001960E94C62E8B816C81681708F4682FAF
:101A000070E080910004909101040E94482F9B0196
:101A10004091120150911301649FC001659F900D88
:101A2000749F900D112464E670E00E94482F898510
:101A3000A1E0B0E0882311F0A2E0B0E08D81829FA8
:101A4000A001839F500D11245D874C878E81829F5A
:101A50001001839F300C11243F862E868F81829F38
:101A6000A001839F500D1124598B488B8885829F3C
:101A70001001839F300C11243B8A2A8AFD01EE0F4E
:101A8000FF1FE050FC4F812C912C54014A855B854F
:101A9000415051095D8B4C8B8C899D89A817B907E2
:101AA00008F040C0880C991CAA1CBB1C8081918145
:101AB000AC012C843D844219530957FF03C0519552
:101AC000419551094617570770F4428153812E847E
:101AD0003F844219530957FF03C05195419551095D
:101AE00046175707E0F048895989841B950B97FFE3
:101AF00003C091958195910986179707C8F4828153
:101B000093812A883B888219930997FF03C0919596
:101B1000819591098617970758F4689480F8129672
:101B20003496BACF4A855B854830510508F053C0DA
:101B30000F5F1F4F59E0650E711C0D30110509F044
:101B40004DCF10928704109286041092FF031092DA
:101B5000FE038091FE039091FF038334910540F0D2
:101B60001092FF031092FE031092870410928604D5
:101B70008091FE039091FF039C012F5F3F4F3093B4
:101B8000FF032093FE03880F991FFC01E050FC4FD8
:101B900051824082C0928804D0928904E0928A04E3
:101BA000F0928B0465960FB6F894DEBF0FBECDBFE2
:101BB000DF91CF911F910F91FF90EF90DF90CF9029
:101BC000BF90AF909F908F907F906F905F904F905D
:101BD0003F902F9008958092BA069092BB06A092F3
:101BE000BC06B092BD062C883D883694279430926E
:101BF0008E0420928D043093FD032093FC031093F8
:101C0000FB030093FA039DCFFC0101900020E9F74C
:101C10003197AF01481B590BBC0181E196E00C9450
:101C20000D0689E491E00C94040E8F929F92AF927E
:101C3000BF920F931F93CF93DF93CDB7DEB7A197DA
:101C40000FB6F894DEBF0FBECDBF19A2423008F424
:101C50004AE08E010F5D1F4F842E912CB12CA12CD8
:101C6000A50194010E94172FE62FB901CA01EA309D
:101C7000F4F4E05DD801EE938D01232B242B252B6A
:101C800079F790E080E0109719F0CD010E94040EE2
:101C9000A1960FB6F894DEBF0FBECDBFDF91CF91F6
:101CA0001F910F91BF90AF909F908F900895E95C26
:101CB000E1CFCF93DF930E94040EEC010E94110E3E
:101CC0008C0F9D1FDF91CF910895CF93DF93EC018F
:101CD0008A859B858130910529F0029751F1DF912A
:101CE000CF91089510925B0510925A051092D1057C
:101CF0001092F3050E94110389E092E090937E0513
:101D000080937D058AE092E090938205809381051F
:101D10008E8191E09093D0058093F20581E00E943E
:101D200040048823E1F28CE491E0DF91CF910C94A0
:101D3000590E0E9491088885998597FD05C061E03C
:101D4000DF91CF910C94500384E791E0EECF0F9395
:101D50001F93CF93DF93EFEBF4E0A7EAB4E0C3EB7C
:101D6000D4E00191119121913191061717072807AD
:101D7000390791F00991199129913991061717079F
:101D80002807390749F00D911D912D913D910617B6
:101D900017072807390789F487EB91E00E94590E4D
:101DA00045E064E670E080E090E00E94620580E03B
:101DB000DF91CF911F910F91089524E0EB3CF20742
:101DC00081F681E0F5CFCF93DF93682F70E090E04C
:101DD00080E04AE00E94150EEC010E94110E8C0F6B
:101DE0009D1FDF91CF910895CF93DF934AE00E942A
:101DF000150EEC010E94110E8C0F9D1FDF91CF91EB
:101E00000895CF92DF92EF92FF92CF93DF936C0110
:101E1000990FEE08FF08F7FE19C06DE281E196E028
:101E20000E94B006EC0166277727CB016C197D096B
:101E30008E099F094AE00E94150E8C0F9D1FDF91AD
:101E4000CF91FF90EF90DF90CF9008954AE0C701C7
:101E5000B601DF91CF91FF90EF90DF90CF900C947F
:101E6000150ECF93DF930E94010FEC010E94110E1B
:101E70008C0F9D1FDF91CF9108954F925F926F92CB
:101E80007F928F929F92AF92BF92CF92DF92EF920A
:101E9000FF920F931F93CF936B017C01742EAC01C3
:101EA0009B010E94E132882399F087EC91E0CF9169
:101EB0001F910F91FF90EF90DF90CF90BF90AF9068
:101EC0009F908F907F906F905F904F900C94040E36
:101ED00046015701E894B7F82FEF3FEF4FE75FE770
:101EE000C501B4010E94E13281110DC02FEF3FEF17
:101EF0004FE75FE7C501B4010E94633018161CF478
:101F00008BEC91E0D4CF2FEF3FEF4FE75FE4C701B9
:101F1000B6010E941D3218161CF48FEC91E0C7CF59
:101F20002FEF3FEF4FE75FECC701B6010E94633030
:101F300087FDF3CF20E030E0A901C701B6010E9480
:101F4000633010E000E087FF0AC06DE281E196E0B7
:101F50000E94B0068C01F7FAF094F7F8F094C0E014
:101F600060E070E080E09FE37C1641F020E030E02C
:101F700040E251E40E946830CF5FF6CFA70196019E
:101F80000E946A2F2B013C010E94E1304B015C0151
:101F90004AE00E94150E7C01E00EF11ECC23C1F137
:101FA000C501B4010E9410319B01AC01C301B20113
:101FB0000E94692F4B015C016EE281E196E00E9474
:101FC000B006E80EF91EC15018F120E030E040E202
:101FD00051E4C501B4010E942A322B013C010E9448
:101FE000E1304B01B12CA12C4AE0C501B4010E94A3
:101FF000150EE80EF91EC501B4010E9410319B01B7
:10200000AC01C301B2010E94692F4B015C01DBCF1F
:10201000C701CF911F910F91FF90EF90DF90CF906C
:10202000BF90AF909F908F907F906F905F904F90F8
:102030000895CF93DF9342E00E943D0FEC010E9490
:10204000110E8C0F9D1FDF91CF9108954F925F92DB
:102050006F927F928F929F92AF92BF92CF92DF92B8
:10206000EF92FF920F931F93CF93DF938C01EB01BD
:102070005A017901FC018285938581309105B1F087
:10208000029709F40CC190E080E0DF91CF911F919D
:102090000F91FF90EF90DF90CF90BF90AF909F9007
:1020A0008F907F906F905F904F900895868191E020
:1020B0009093D0058093F2051092D1051092F3050C
:1020C0006B01A60EB71E4B018A149B0441F0F4016C
:1020D00061914F0185E096E00E946202F5CF81E0B8
:1020E0000E944004882321F083ED91E00E94590E64
:1020F000E114F10441F2F80106810E9481034B01D1
:102100005C018091CA05811169C01E2D113208F051
:1021100010E281E08093CA058093C9059FEF9093F8
:10212000C8051092C705910F9093C6058093A50529
:102130008091A505000F082B0093A5058091A405AB
:10214000813009F088C01092A4050E9481034B01E0
:102150005C018091A5058093BB008091CC05909196
:10216000CD05A091CE05B091CF05892B8A2B8B2B65
:10217000A1F00E9481034090CC055090CD05609065
:10218000CE057090CF05681979098A099B09461612
:1021900057066806790608F442C08091BC0083FDAA
:1021A000D8CF85EC8093BC000E9481034B015C0179
:1021B0008091CA05813009F450C08091C70581170C
:1021C00010F41091C705A6EAB5E0EAE3F5E080E077
:1021D000811751F19D9191938F5FFACF8091CC053A
:1021E0009091CD05A091CE05B091CF05892B8A2B7A
:1021F0008B2B09F486CF0E9481034090CC05509030
:10220000CD056090CE057090CF05681979098A09CF
:102210009B09461657066806790608F072CF80912A
:10222000CB050E942F0310E010925B0510935A0516
:10223000CE0DDF1D80915B05181709F424CFCC1556
:10224000DD0509F420CF85E096E00E941B02F6012F
:1022500081936F01EFCF85EEA5CF8091CC05909152
:10226000CD05A091CE05B091CF05892B8A2B8B2B64
:1022700009F49ECF0E9481034090CC055090CD057B
:102280006090CE057090CF05681979098A099B097D
:10229000461657066806790608F08ACFC0CF232B6A
:1022A00019F0888180688883F8018085918597FD81
:1022B00003C060E00E94E3026E01AC0EBD1E4E0141
:1022C000A814B90461F4CE0DDF1DCC15DD0569F04D
:1022D00080E00E94970CF60181936F01F6CFF40124
:1022E00081914F010E94970CEBCFF8018085918579
:1022F00097FDC9CE61E00E94E302C5CE85ED8093D3
:10230000BC008091CC059091CD05A091CE05B091F7
:10231000CF050796A11DB11D23E0B695A79597950A
:1023200087952A95D1F72091BC0024FD03C0109217
:10233000CA0508954091CC055091CD056091CE0518
:102340007091CF05452B462B472B69F30097A105CC
:10235000B10541F02AE22A95F1F700C00197A109E1
:10236000B109E1CF8091CB050C942F03FF920F931D
:102370001F93CF93DF93EC01F62E08811981C801DA
:102380000E94CF2EF81621F06F2DC8010E94D72E83
:10239000CE01DF91CF911F910F91FF9008950F9380
:1023A0001F93CF93DF9300D0CDB7DEB78B019A8315
:1023B0008983FB016081CE0101960E94B611C8019C
:1023C0000F900F90DF91CF911F910F910895AF92D1
:1023D000BF92CF92DF92EF92FF920F931F93CF9312
:1023E000DF9300D0CDB7DEB78B016B0124E0C20EC6
:1023F000D11C7B015C01A61AB70AC5018E0D9F1D79
:102400009A838983F70161917F01CE0101960E9431
:10241000B611EC14FD0489F7C8010F900F90DF91FD
:10242000CF911F910F91FF90EF90DF90CF90BF90D1
:10243000AF900895AF92BF92CF92DF92EF92FF924A
:102440000F931F93CF93DF9300D0CDB7DEB78B01EF
:102450006B012CE0C20ED11C7B015C01A61AB70AED
:10246000C5018E0D9F1D9A838983F70161917F01BC
:10247000CE0101960E94B611EC14FD0489F7C80143
:102480000F900F90DF91CF911F910F91FF90EF90E0
:10249000DF90CF90BF90AF900895EF92FF920F938F
:1024A0001F93CF93DF9300D0CDB7DEB78C017B01B4
:1024B0009A838983FB016081CE0101960E94B61147
:1024C0000F5F1F4F1A830983F7016181CE010196C7
:1024D0000E94B611C7010F900F90DF91CF911F910D
:1024E0000F91FF90EF900895CF93DF93EB010E943F
:1024F000CF2E8883CE01DF91CF910895CF92DF92C6
:10250000EF92FF920F931F93CF93DF93EB017B0129
:1025100024E0E20EF11C8B016C01C61AD70AC60139
:10252000800F911F0E94CF2EF80181938F01EE152D
:10253000FF05A9F7CE01DF91CF911F910F91FF9079
:10254000EF90DF90CF900895CF92DF92EF92FF92BD
:102550000F931F93CF93DF93EB017B012CE0E20EEF
:10256000F11C8B016C01C61AD70AC601800F911F9E
:102570000E94CF2EF80181938F01EE15FF05A9F778
:10258000CE01DF91CF911F910F91FF90EF90DF90DF
:10259000CF9008950C94CF2E1F920F920FB60F92EA
:1025A00011242F933F934F935F936F937F938F9358
:1025B0009F93AF93BF93EF93FF938091B900887F70
:1025C000803609F44AC0F0F5883209F4A7C018F53E
:1025D000803109F49BC0B8F4882309F4F9C088302D
:1025E00009F494C0FF91EF91BF91AF919F918F91AA
:1025F0007F916F915F914F913F912F910F900FBEFF
:102600000F901F901895883109F488C0803251F7D7
:102610008093C80514C0803409F49DC040F4803311
:10262000B9F38833F9F68093C80585ECB0C08035DE
:1026300009F485C0883509F496C0883499F60E945B
:102640007E11D0CF883909F48CC038F5883729F04D
:1026500050F4883611F0803729F683E08093CA055C
:102660001092A30557C0883809F47BC0803919F04F
:10267000803809F0B7CF8091A305803208F071C08F
:10268000E091A30581E08E0F8093A3058091BB00AC
:10269000F0E0ED57FA4F80833DC0803B39F0E0F425
:1026A000803A09F479C0883A09F09CCF84E080939D
:1026B000CA051092800510927F05E0917D05F0918A
:1026C0007E05099580917F0581110FC081E080937F
:1026D0007F0510925D0509C0803C09F4A6CF883CB7
:1026E00009F4A3CF883B09F07DCFE091800581E01C
:1026F0008E0F80938005F0E0E35AFA4F808180933B
:10270000BB009091800580917F0529C08091A5052F
:102710008093BB0085EC8093BC0064CF9091C7058B
:102720008091C605981758F5E091C70581E08E0F96
:102730008093C705F0E0EA55FA4F8081E9CFE09138
:10274000C70581E08E0F8093C7058091BB00F0E044
:10275000EA55FA4F80839091C7058091C605981776
:10276000C8F285E8D8CFE091C70581E08E0F80934D
:10277000C7058091BB00F0E0EA55FA4F8083809155
:10278000C90581115CCF81E08093A40584EA809320
:10279000BC001092CA0526CF85EC8093BC00109235
:1027A000CA058091A305803230F4E091A305F0E0E2
:1027B000ED57FA4F10826091A30570E0E09181051A
:1027C000F091820583E895E009951092A3050ACF60
:1027D0001092C80534CF1F920F920FB60F9211249A
:1027E0002F933F938F939F93AF93BF938091320525
:1027F00090913305A0913405B091350530913105A4
:1028000023E0230F2D3758F50196A11DB11D20930C
:1028100031058093320590933305A0933405B0932E
:1028200035058091360590913705A0913805B09116
:1028300039050196A11DB11D80933605909337058A
:10284000A0933805B0933905BF91AF919F918F91B7
:102850003F912F910F900FBE0F901F90189526E873
:10286000230F0296A11DB11DD2CF1F920F920FB65A
:102870000F9211242F933F934F935F936F937F9306
:102880008F939F93AF93BF93EF93FF93E0910201D8
:10289000F09103010995FF91EF91BF91AF919F9145
:1028A0008F917F916F915F914F913F912F910F90F9
:1028B0000FBE0F901F9018951F920F920FB60F9298
:1028C00011242F933F934F935F936F937F938F9335
:1028D0009F93AF93BF93EF93FF93E0910001F0912B
:1028E00001010995FF91EF91BF91AF919F918F9158
:1028F0007F916F915F914F913F912F910F900FBEFC
:102900000F901F9018951F920F920FB60F921124DF
:102910002F933F934F935F936F937F938F939F93E7
:10292000AF93BF93EF93FF9381E196E00E948E06F1
:10293000FF91EF91BF91AF919F918F917F916F9197
:102940005F914F913F912F910F900FBE0F901F906D
:1029500018951F920F920FB60F9211242F938F93F9
:102960009F93EF93FF93E0912106F09122068081DF
:10297000E0912706F091280682FD1BC0908180918E
:102980002A068F5F8F7320912B06821741F0E0910A
:102990002A06F0E0EF5EF94F958F80932A06FF91AB
:1029A000EF919F918F912F910F900FBE0F901F90DD
:1029B00018958081F4CFCF92DF92EF92FF920F9320
:1029C0001F93CF93DF93E5E0F6E01382128288EE47
:1029D00093E0A0E0B0E084839583A683B7832FE1E2
:1029E00031E031832083E1E1F6E0138212828483B7
:1029F0009583A683B78381E391E09183808385ECFF
:102A000090E09587848784EC90E09787868780ECB8
:102A100090E0918B808B81EC90E0938B828B82ECA9
:102A200090E0958B848B86EC90E0978B868B118E53
:102A3000128E138E148EEEEAF6E083E491E0918319
:102A400080830FEF1FEF158304831783068311879D
:102A50000087C7EFD6E0188219821A821B8281E0B4
:102A60008C838FEF8D831E821F82188619861B86AA
:102A70001A861D861C8661E086E00E945003E0E70E
:102A8000F2E0E491F0E0EE0FFF1FE05AFD4F859178
:102A900094919F878E87E2E5F2E0E491EA8B61E012
:102AA00087E00E945003E1E7F2E0E491F0E0EE0FEE
:102AB000FF1FE05AFD4F85919491998B888BE3E538
:102AC000F2E0E491EB8B88E08D8361E00E9450039B
:102AD00080E197E2A0E0B0E08C8B9D8BAE8BBF8B4A
:102AE00088E99AE3998F888F1A8E1B8E1C8E1D8E13
:102AF0009F8F8E8F18A219A21AA21BA21CA21DA220
:102B00001EA21FA218A61DA61EA61FA618AA19AAB5
:102B10001AAA1BAA1CAA1DAA1EAA1FAA18AE19AE81
:102B20001AAE1BAE1CAE1DAE1EAE10923607109232
:102B30003707109238071092390780E090E0A6E935
:102B4000B3E480933A0790933B07A0933C07B0937C
:102B50003D0710923E0710923F07109240071092D7
:102B6000410722E4C22E27E0D22EF6011182108204
:102B700034E4E32E37E0F32EF70110821182128243
:102B800013821092490710924807BC01CD010E94A0
:102B90006A018CE291E0F601918380838EE094E7F4
:102BA000AAEDBAE3F70180839183A283B38382E520
:102BB00099E4ADE9B9E38A8F9B8FAC8FBD8F84EE2A
:102BC00098E3AEE8B1E489A79AA7ABA7BCA7C8EE83
:102BD000D6E01B830A838AE090E09D838C8349E0E2
:102BE00050E060EE71E08EEE96E00E94C62E1983F2
:102BF00008838CE390E0909313018093120110926C
:102C0000BA061092BB061092BC061092BD06109236
:102C1000E7061092E0061092D9061092D2061092A2
:102C2000CB061092C406DF91CF911F910F91FF90B8
:102C3000EF90DF90CF900895CF93DF93CDB7DEB7BD
:102C4000C855D1090FB6F894DEBF0FBECDBF78943A
:102C500084B5826084BD84B5816084BD85B58260A1
:102C600085BD85B5816085BD80916E008160809352
:102C70006E001092810080918100826080938100BB
:102C800080918100816080938100809180008160CB
:102C9000809380008091B10084608093B100809126
:102CA000B00081608093B00080917A00846080934E
:102CB0007A0080917A00826080937A0080917A0015
:102CC000816080937A0080917A00806880937A0096
:102CD0001092C100E0912106F091220682E08083EB
:102CE000E0911D06F0911E061082E0911F06F09102
:102CF000200680E1808310922906E0912506F0915C
:102D0000260686E08083E0912306F09124068081E8
:102D100080618083E0912306F091240680818860A1
:102D20008083E0912306F09124068081806880836F
:102D3000E0912306F091240680818F7D808362E0FC
:102D40008EE00E94500362E08FE00E94500362E038
:102D500080E10E94500362E081E10E94500361E043
:102D600083E10E94500361E08AE00E94500361E029
:102D70008AE00E94E30265E070E080E090E00E945B
:102D8000300585E292E00E94040E0E94910880E0E6
:102D90000E94970C60E08AE00E94E30280E80E94B3
:102DA000970C80E00E94970C182F9FB7F8948091A1
:102DB0008C04882319F0815080938C0480918C04BA
:102DC000811103C08CB58F7B8CBD9FBF61E08AE011
:102DD0000E94E302113D09F03DC281E0809330057D
:102DE0008BE392E00E94590E80913005882309F40C
:102DF000F2C082E090E09093B9068093B8068AE032
:102E000090E09093B7068093B6061092B3061092A6
:102E1000B2068EEA96E00E94650E8FE7898321E074
:102E200030E041E050E0BE016F5F7F4F8EEA96E0F8
:102E30000E94380746EB6EE78EEA96E00E94F6079E
:102E400061E070E080E090E00E9430056FE78EEA7C
:102E500096E00E94830761E070E080E090E00E94CD
:102E6000300541E16EE78EEA96E00E94F60761E0E8
:102E700070E080E090E00E94300563E08EEA96E02A
:102E80000E94830790E014E0959587951A95E1F7E5
:102E90008370813061F745E16EE78EEA96E00E942B
:102EA000F60761E070E080E090E00E94300563E0AA
:102EB0008EEA96E00E94830790E095958795959518
:102EC00087958370813069F703E010E030E020E0FF
:102ED00043E063E48EEA96E00E940E0804E010E00E
:102EE00030E020E043E061E48EEA96E00E940E08C4
:102EF0004FEF65E58EEA96E00E94F60740EF66E543
:102F00008EEA96E00E94F60740E067E58EEA96E0DA
:102F10000E94F60760E08EEA96E00E94830730E0A8
:102F200020E046E060E48EEA96E00E940E0830E081
:102F300020E043E061E48EEA96E00E940E0803E0A0
:102F400010E024E030E040E060E48EEA96E00E9489
:102F50000E088DE492E00E94040E60E48EEA96E092
:102F60000E94830790E0F4E095958795FA95E1F744
:102F700087700E94E30E04E010E030E020E046E0BD
:102F800062E48EEA96E00E940E0803E010E030E072
:102F900020E043E063E48EEA96E00E940E0802E03F
:102FA00010E024E030E040E062E48EEA96E00E9427
:102FB0000E088EE592E00E94040E62E48EEA96E02E
:102FC0000E94830790E0A4E095958795AA95E1F784
:102FD00083700E94E30E9091110181E08927809314
:102FE0003507992309F444C10E94A60310924307B0
:102FF000109242071092440710924507109246071C
:10300000109247071092110710921207109213079F
:103010001092140760E070E088EC94E40E946A016A
:1030200087EF96E00E9420091092E9061092E806C8
:103030001092BA061092BB061092BC061092BD0602
:1030400010928E0410928D048EE99CE09093010101
:1030500080930001809169008C7F8160809369007A
:10306000E89A6FEB74E090E080E00E94A41263EBBA
:1030700074E08CE090E00E94A41267EA74E088E1BA
:1030800090E00E94A41281E10E94BA02892B09F00B
:103090000AC180E10E94BA02892B09F404C181E0CF
:1030A000809324050E94A10569877A878B879C8776
:1030B0000E94A1054B015C0183E080931F058EE611
:1030C00092E00E94590E8EE792E00E94590E412C28
:1030D000512C3201C12CD12C760110E0312C0E94F0
:1030E000A10529853A854B855C85621B730B840B92
:1030F000950B603375478105910508F0BEC011112D
:10310000BCC080911F050E94AD0581E10E94BA02FA
:10311000892B09F412C181E10E94BA02892B09F0BE
:1031200041C0209024052220E9F10E94A1052091B0
:103130002005309121054091220550912305621B05
:10314000730B840B950B693873418105910550F120
:10315000109224050E94A10560932005709321051B
:10316000809322059093230561E083E10E94E302AE
:1031700010E000E01A821982BE016F5F7F4FC80124
:103180000E944D120F5F1F4F0432110599F78FEA0D
:1031900092E00E94590E68EB7BE080E090E00E9494
:1031A0003005122D81E10E94BA02892B19F180911C
:1031B00024058823F9F00E94A10520912005309173
:1031C00021054091220550912305621B730B840B4E
:1031D000950B653671058105910560F01092240507
:1031E0000E94A1056093200570932105809322051C
:1031F000909323050E94A105681979098A099B0902
:10320000673971058105910508F469CF0E94A10510
:103210004B015C018091BA069091BB06A091BC065F
:10322000B091BD06892B8A2B8B2B59F081E0381683
:1032300009F4D0C0381608F4A6C092E0391609F493
:10324000FEC01092BA061092BB061092BC061092F5
:10325000BD0645CF1092300586E492E00E94590EDB
:103260004AE066E470E080E090E00E946205BCCD38
:1032700087EF96E00E942009B9CE60E083E10E94CA
:10328000E3026FEB74E090E080E00E94A41263EB35
:1032900074E08CE090E00E94A41267EA74E088E198
:1032A00090E00E94A41281E10E94BA0210913005C0
:1032B000892B09F078C480E10E94BA02892B09F0B9
:1032C00072C4112309F46FC481E10E94BA02892BF0
:1032D00009F485C18AE093E00E94590E4AE064EF48
:1032E00071E080E090E00E94620561E083E10E946D
:1032F000E3028CE193E00E94590E68EE73E080E0F7
:1033000090E00E94300540E469E68EEA96E00E9473
:10331000F60743E06EE78EEA96E00E94F6076BE15F
:103320008EEA96E00E94830783FD63C161E070E04E
:1033300080E090E00E943005F2CF80912405811159
:10334000EACE0E94A10520912005309121054091EF
:10335000220550912305621B730B840B950B653678
:1033600071058105910508F4D6CE41E0409324050E
:103370000E94A1056093200570932105809322058A
:1033800090932305C8CE6091BA067091BB068091D8
:10339000BC069091BD060E94A70E882309F451CF68
:1033A000C090BA06D090BB06E090BC06F090BD0677
:1033B0008DEB92E00E94040EC701B6010E94F40E4C
:1033C0008CEC92E00E94590EA4E0A0931F053324D8
:1033D000339437CF6091BA067091BB068091BC06DA
:1033E0009091BD060E94A70E882309F42ACF8091F0
:1033F000BA069091BB06A091BC06B091BD068C1593
:103400009D05AE05BF0509F41CCF4090BA0650904B
:10341000BB066090BC067090BD068CED92E00E94E9
:10342000040EC301B2010E94F40E8BEE92E00E94E2
:10343000590EB5E0B0931F05E2E03E2E02CF609139
:10344000BA067091BB068091BC069091BD060E94A1
:10345000A70E082F882309F4F4CE8091BA06909124
:10346000BB06A091BC06B091BD068C159D05AE05AE
:10347000BF0509F4E6CE8091BA069091BB06A091F3
:10348000BC06B091BD0684159505A605B70509F4DF
:10349000D8CE2091BA063091BB064091BC0650911F
:1034A000BD062D833E834F8358878BEF92E00E94A9
:1034B000040E6D817E818F8198850E94F40E80912B
:1034C000C3049091C404A091C504B091C604809334
:1034D000C7049093C804A093C904B093CA04809110
:1034E000B7049091B804A091B904B091BA04809344
:1034F000BB049093BC04A093BD04B093BE04809120
:10350000AB049091AC04A091AD04B091AE04809353
:10351000AF049093B004A093B104B093B20480912F
:10352000BF049091C004A091C104B091C2048093E3
:10353000C3049093C404A093C504B093C6048091BF
:10354000B3049091B404A091B504B091B6048093F3
:10355000B7049093B804A093B904B093BA048091CF
:10356000A7049091A804A091A904B091AA04809303
:10357000AB049093AC04A093AD04B093AE04C0929E
:10358000BF04D092C004E092C104F092C204409201
:10359000B3045092B4046092B5047092B6048D8165
:1035A0009E81AF81B8858093A7049093A804A093CF
:1035B000A904B093AA046FEB74E090E080E00E944D
:1035C0001A1263EB74E08CE090E00E941A1267EA32
:1035D00074E088E190E00E941A12102F32CE80E150
:1035E0000E94BA02892B09F075CE86E00E94AD05D3
:1035F0006BCE01E010E027E030E041E067E78EEAC3
:1036000096E00E940E088BE593E00E94590E81E639
:1036100093E00E94590E40E369E68EEA96E00E942C
:10362000F60743E06EE78EEA96E00E94F6070E94F6
:10363000E70726E030E041E067E78EEA96E00E9487
:103640000E084CE069E68EEA96E00E94F60743E039
:103650006EE78EEA96E00E94F6070E94E70726E0F2
:1036600030E041E067E78EEA96E00E940E0841E014
:1036700069E68EEA96E00E94F60743E06EE78EEA7E
:1036800096E00E94F6070E94E70726E030E041E05E
:1036900067E78EEA96E00E940E088CE593E00E94B0
:1036A000590E87EA93E00E94590E02E310E00E944F
:1036B0003F0768E270E080E090E00E943005015032
:1036C0001109A9F704E610E019861A861B861C86E4
:1036D0001D821E821F821886198A1A8A1B8A1C8ADA
:1036E0001D861E861F86188A412C512C3201812C82
:1036F000912C54010E943F078091FE059091FF0597
:10370000092E000CAA0BBB0B880E991EAA1EBB1E0D
:103710008091FC059091FD05092E000CAA0BBB0BB6
:10372000480E591E6A1E7B1E8091FA059091FB057A
:103730009054092E000CAA0BBB0B2D853E854F859E
:103740005889280F391F4A1F5B1F2D873E874F87D7
:10375000588B8091F8059091F905092E000CAA0B61
:10376000BB0B29893A894B895C89280F391F4A1F6D
:103770005B1F298B3A8B4B8B5C8B8091F60590916C
:10378000F705092E000CAA0BBB0B2D813E814F8142
:103790005885280F391F4A1F5B1F2D833E834F8397
:1037A00058878091F4059091F505092E000CAA0B1D
:1037B000BB0B29853A854B855C85280F391F4A1F2D
:1037C0005B1F29873A874B875C8768E270E080E05F
:1037D00090E00E9430058EEB93E00E94040E0150B1
:1037E000110909F087CF74E6C72ED12CE12CF12CFA
:1037F000C501B401A70196010E94E52E2093FC04A7
:10380000C301B201A70196010E94E52E2093FB049B
:103810006D857E858F859889A70196010E94E52E8A
:103820002093FA0469897A898B899C89A70196017A
:103830000E94E52E2093F9046D817E818F81988509
:10384000A70196010E94E52E2093F80469857A85E8
:103850008B859C85A70196010E94E52E2093F70495
:1038600061E78EEA96E00E948307682F880F770B46
:10387000880B990B0E9412312AE939E949E750E493
:103880000E942A3269837A838B839C83BE016F5F97
:103890007F4F84E290E00E94E71162E78EEA96E0B3
:1038A0000E948307682F880F770B880B990B0E9463
:1038B00012312AE939E949E750E40E942A32698342
:1038C0007A838B839C83BE016F5F7F4F88E290E099
:1038D0000E94E71163E78EEA96E00E948307682F53
:1038E000880F770B880B990B0E9412312AE939E96E
:1038F00049E750E40E942A3269837A838B839C8350
:10390000BE016F5F7F4F8CE290E00E94E7110E9442
:10391000D007BC01990F880B990B0E94123123E24A
:103920003BED49E75DE30E942A3269837A838B830A
:103930009C83BE016F5F7F4F80E390E00E94E711A0
:103940000E94B407BC01990F880B990B0E94123199
:1039500023E23BED49E75DE30E942A3269837A83E3
:103960008B839C83BE016F5F7F4F84E390E00E9456
:10397000E7110E949707BC01990F880B990B0E94D1
:10398000123123E23BED49E75DE30E942A3269836D
:103990007A838B839C83BE016F5F7F4F88E390E0C7
:1039A0000E94E7116CEF74E081E490E00E94CF1177
:1039B0006BEF74E082E490E00E94CF116AEF74E054
:1039C00083E490E00E94CF1169EF74E084E490E01A
:1039D0000E94CF1168EF74E085E490E00E94CF115F
:1039E00067EF74E086E490E00E94CF110E94110E10
:1039F00084E191E00E94FD060E94110E86E091E0B4
:103A00000E94FD0661E78EEA96E00E948307682F18
:103A1000880F770B880B990B0E9412312AE939E93C
:103A200049E750E40E942A3242E00E943D0F84E0C0
:103A300091E00E94FD0662E78EEA96E00E9483070D
:103A4000682F880F770B880B990B0E9412312AE997
:103A500039E949E750E40E942A3242E00E943D0FD2
:103A600082E091E00E94FD0663E78EEA96E00E9404
:103A70008307682F880F770B880B990B0E941231F0
:103A80002AE939E949E750E40E942A320E941910D4
:103A900085EF90E00E94FD060E94D007BC01990FBF
:103AA000880B990B0E94123123E23BED49E75DE35D
:103AB0000E942A3242E00E943D0F83EF90E00E9474
:103AC000FD060E94B407BC01990F880B990B0E9458
:103AD000123123E23BED49E75DE30E942A3242E0E6
:103AE0000E943D0F81EF90E00E94FD060E94970723
:103AF000BC01990F880B990B0E94123123E23BED18
:103B000049E75DE30E942A320E94191085EE90E099
:103B10000E94FD068091FC04082E000C990B0E9467
:103B2000010F83EE90E00E94FD068091FB04082EB9
:103B3000000C990B0E94010F81EE90E00E94FD069F
:103B40008091FA04082E000C990B0E94310F86ED2B
:103B500090E00E94FD068091F904082E000C990B5C
:103B60000E94010F84ED90E00E94FD068091F80410
:103B7000082E000C990B0E94010F82ED90E00E942C
:103B8000FD068091F704082E000C990B0E94310F5E
:103B900060E083E10E94E30245E066E970E080E0D6
:103BA00090E00E94620563EA74E084E290E00E9483
:103BB0007E126FE974E088E290E00E947E126BE969
:103BC00074E08CE290E00E947E1267E974E080E38A
:103BD00090E00E947E1263E974E084E390E00E942A
:103BE0007E126FE874E088E390E00E947E126CEF32
:103BF00074E081E490E00E9474126BEF74E082E460
:103C000090E00E9474126AEF74E083E490E00E94F6
:103C1000741269EF74E084E490E00E94741268EF1B
:103C200074E085E490E00E94741267EF74E086E42B
:103C300090E00E94741280913005882309F4C2C17B
:103C40004091A3045091A4046091A5047091A6042E
:103C500090E080E00E943D0840919F045091A004B4
:103C60006091A1047091A20481E090E00E943D085F
:103C700040919B0450919C0460919D0470919E041E
:103C800082E090E00E943D0823E23BED49E75DE3DE
:103C900060919704709198048091990490919A048E
:103CA0000E9468300E94DA30611532E0730714F028
:103CB0006FEF71E07B0161157E4F1CF4E12C6EEF1C
:103CC000F62E4E2D64E78EEA96E00E94F60702E09B
:103CD00010E030E020E04F2D67E78EEA96E00E948A
:103CE0000E088CE0898322E030E041E050E0BE0124
:103CF0006F5F7F4F8EEA96E00E94380701E010E088
:103D000027E030E041E067E78EEA96E00E940E0887
:103D100023E23BED49E75DE36091930470919404E5
:103D200080919504909196040E9468300E94DA3048
:103D3000611552E0750714F06FEF71E07B016115BA
:103D40007E4F1CF4E12C5EEFF52E4E2D65E78EEADA
:103D500096E00E94F60702E010E022E030E04F2DEE
:103D600067E78EEA96E00E940E088EE0898322E0E3
:103D700030E041E050E0BE016F5F7F4F8EEA96E099
:103D80000E94380701E010E027E030E041E067E7FB
:103D90008EEA96E00E940E0823E23BED49E75DE3E0
:103DA00060918F047091900480919104909192049D
:103DB0000E9468300E94DA30611592E0790714F0B1
:103DC0006FEF71E07B0161157E4F1CF4E12C4EEF2B
:103DD000F42E4E2D66E78EEA96E00E94F60702E08A
:103DE00010E024E030E04F2D67E78EEA96E00E9475
:103DF0000E0880E1898322E030E041E050E0BE011E
:103E00006F5F7F4F8EEA96E00E94380701E010E076
:103E100027E030E041E067E78EEA96E00E940E0876
:103E20000E94110E89E691E00E94FD060E94110E8B
:103E30008BE591E00E94FD0661E78EEA96E00E9424
:103E40008307682F880F770B880B990B0E9412311C
:103E50002AE939E949E750E40E942A3242E00E9407
:103E60003D0F89E591E00E94FD0662E78EEA96E04B
:103E70000E948307682F880F770B880B990B0E948D
:103E800012312AE939E949E750E40E942A3242E036
:103E90000E943D0F87E591E00E94FD0663E78EEAF0
:103EA00096E00E948307682F880F770B880B990B89
:103EB0000E9412312AE939E949E750E40E942A3286
:103EC0000E9419108AE491E00E94FD060E94D0072A
:103ED000BC01990F880B990B0E94123123E23BED34
:103EE00049E75DE30E942A3242E00E943D0F88E4E8
:103EF00091E00E94FD060E94B407BC01990F880B57
:103F0000990B0E94123123E23BED49E75DE30E94E9
:103F10002A3242E00E943D0F86E491E00E94FD06B5
:103F20000E949707BC01990F880B990B0E941231D0
:103F300023E23BED49E75DE30E942A320E9419101B
:103F40008AE391E00E94FD068091FC04082E000C9B
:103F5000990B0E94010F88E391E00E94FD06809179
:103F6000FB04082E000C990B0E94010F86E391E0E0
:103F70000E94FD068091FA04082E000C990B0E9405
:103F8000310F8BE291E00E94FD068091F904082E2A
:103F9000000C990B0E94010F89E291E00E94FD063E
:103FA0008091F804082E000C990B0E94010F87E203
:103FB00091E00E94FD068091F704082E000C990BF9
:103FC0000E94310F80913005882311F40C94242A2B
:103FD0008CE390E00E94CA1291E0811101C090E050
:103FE000909329058091110190912905992311F051
:103FF000811182E080931F058DE390E00E94CA1238
:10400000833011F00C94282A83E290E0A0E0B0E025
:1040100080930C0190930D01A0930E01B0930F01BA
:104020000E94110E80EC93E00E94590E33243394C9
:1040300032E0232E0E9442090E94A1050091CB0488
:104040001091CC042091CD043091CE04601B710BF3
:10405000820B930B673971058105910508F441C006
:104060000E94A1056093CB047093CC048093CD048F
:104070009093CE048091BA069091BB06A091BC06A5
:10408000B091BD06892B8A2B8B2B11F40C946A2AD4
:10409000EFEBF4E087EA94E023EBE22E24E0F22E4B
:1040A0004091BA065091BB066091BC067091BD0666
:1040B00001911191219131910417150726073707B6
:1040C00011F00C942E2A30921605109214051092BD
:1040D00013051092BA061092BB061092BC061092FD
:1040E000BD0680913005882311F40C941329C090EB
:1040F0000105D0900205E0900305F09004050E94B0
:10410000A10597018601085D1F4F2F4F3F4F0617EE
:1041100017072807390710F00C9413290E94A105EE
:104120006C197D098E099F090E9410316093FD046E
:104130007093FE048093FF04909300050E94A105F4
:104140006093010570930205809303059093040525
:104150000E943F078091FC046091FE057091FF056D
:10416000681B710987FD739581EE96E00E94640CCF
:10417000BC01990F880B990B0E941231698B7A8BC5
:104180008B8B9C8B8091FB046091FC057091FD05ED
:10419000681B710987FD73958AED96E00E94640C97
:1041A000BC01990F880B990B0E9412316D8B7E8B8D
:1041B0008F8B988F8091FA046091FA057091FB05BE
:1041C000681B710987FD739583ED96E00E94640C6E
:1041D000BC01990F880B990B0E941231698F7A8F5D
:1041E0008B8F9C8F8091F9046091F8057091F9058F
:1041F000681B710987FD73958CEC96E00E94640C36
:104200008C018091F8046091F6057091F705681BA8
:10421000710987FD739585EC96E00E94640C7C0122
:104220008091F7046091F4057091F505681B7109A0
:1042300087FD73958EEB96E00E94640C6C012091D3
:10424000F9048091F8059091F905821B910927FDE9
:1042500093950396079710F40C94722AB801110FE6
:10426000880B990B0E94123125E33AEF4EE85CE38C
:104270000E942A3220E030E043E053E40E9468309C
:104280006D837E838F8398872091F8048091F60553
:104290009091F705821B910927FD93950396079747
:1042A00010F40C94782AB701FF0C880B990B0E942C
:1042B000123125E33AEF4EE85CE30E942A3220E017
:1042C00030E043E053E40E94683069877A878B8747
:1042D0009C872091F7048091F4059091F505821B4D
:1042E000910927FD93950396079710F40C947E2A65
:1042F000B601DD0C880B990B0E94123125E33AEFD1
:104300004EE85CE30E942A3220E030E043E053E4D0
:104310000E9468306D877E878F87988B20E030E021
:104320004AE754E46091FD047091FE048091FF041B
:10433000909100050E9468306D8F7E8F8F8F98A3BB
:104340006091E3047091E4048091E5049091E604A7
:104350004090DF045090E0046090E1047090E2042B
:10436000C090DB04D090DC04E090DD04F090DE042B
:1043700090582D813E814F8158850E942A324B01F1
:104380005C01A301920169857A858B859C850E94D9
:104390002A329B01AC01C501B4010E94692F4B0177
:1043A0005C01A70196016D857E858F8598890E94A5
:1043B0002A329B01AC01C501B4010E94692F20E0A3
:1043C00030E040E05FE30E942A3269A37AA38BA326
:1043D0009CA3209108013091090140910A0150915C
:1043E0000B014090DF045090E0046090E104709075
:1043F000E204C090DB04D090DC04E090DD04F09097
:10440000DE046D817E818F8198850E942A324B0166
:104410005C01A30192016D857E858F8598890E943C
:104420002A329B01AC01C501B4010E946A2F4B01E5
:104430005C01A701960169857A858B859C850E9420
:104440002A329B01AC01C501B4010E94692F20E012
:1044500030E040E05FE30E942A326DA37EA38FA389
:1044600098A7209108013091090140910A015091CB
:104470000B014090E3045090E4046090E5047090D8
:10448000E604C090DB04D090DC04E090DD04F09002
:10449000DE0469857A858B859C850E942A324B01D2
:1044A0005C01A30192016D857E858F8598890E94AC
:1044B0002A329B01AC01C501B4010E94692F4B0156
:1044C0005C01A70196016D817E818F8198850E9494
:1044D0002A329B01AC01C501B4010E946A2F20E081
:1044E00030E040E05FE30E942A3269A77AA78BA7F9
:1044F0009CA7209108013091090140910A01509137
:104500000B018090E3049090E404A090E504B09047
:10451000E604C090DF04D090E004E090E104F09065
:10452000E2046D857E858F8598890E942A322B0151
:104530003C01A501940169857A858B859C850E9443
:104540002A329B01AC01C301B2010E946A2F4B01C8
:104550005C01A70196016D817E818F8198850E9403
:104560002A329B01AC01C501B4010E94692F20E0F1
:1045700030E040E05FE30E942A326DA77EA78FA75C
:1045800098AB20E030E0A90169897A898B899C8900
:104590000E946330811117C020E030E0A9016D89CD
:1045A0007E898F89988D0E94633081110CC020E034
:1045B00030E0A901698D7A8D8B8D9C8D0E946330CE
:1045C000882309F4D0C329893A894B895C89CA01B7
:1045D000B9010E942A326B017C012D893E894F89E5
:1045E000588DCA01B9010E942A329B01AC01C70152
:1045F000B6010E946A2F6B017C01298D3A8D4B8D8B
:104600005C8DCA01B9010E942A329B01AC01C7012D
:10461000B6010E946A2F0E94C7086B017C01AC01A1
:104620009B0169897A898B899C890E942A326D83D2
:104630007E838F839887A70196016D897E898F89F4
:10464000988D0E942A322B013C01A7019601698DA9
:104650007A8D8B8D9C8D0E942A326DAB7EAB8FAB99
:1046600098AF609108017091090180910A019091C1
:104670000B019B01AC010E946A2F69AF7AAF8BAF2F
:104680009CAF6091E3047091E4048091E504909103
:10469000E6049B01AC010E946A2F21966CAF7DAFAE
:1046A0008EAF9FAF21976091DF047091E0048091FD
:1046B000E1049091E2049B01AC010E946A2F2596CF
:1046C0006CAF7DAF8EAF9FAF25976091DB0470918B
:1046D000DC048091DD049091DE049B01AC010E941A
:1046E0006A2F29966CAF7DAF8EAF9FAF29976091EF
:1046F00008017091090180910A0190910B0120E05D
:1047000030E040E850E40E942A326B017C01609165
:10471000E3047091E4048091E5049091E60420E0C4
:1047200030E040E850E40E942A32698B7A8B8B8B10
:104730009C8B6091DF047091E0048091E104909182
:10474000E20420E030E040E850E40E942A326D8B21
:104750007E8B8F8B988F6091E3047091E40480913D
:10476000E5049091E60420E030E040E051E40E944E
:104770002A322D966CAF7DAF8EAF9FAF2D97609193
:10478000DF047091E0048091E1049091E20420E064
:1047900030E040E051E40E942A3261966CAF7DAF78
:1047A0008EAF9FAF61970091080110910901209190
:1047B0000A0130910B0109AB1AAB2BAB3CAB20913A
:1047C00008013091090140910A0150910B0169964D
:1047D0002CAF3DAF4EAF5FAF69976091E30470912E
:1047E000E4048091E5049091E6042091E304309183
:1047F000E4044091E5045091E6040E942A3269875E
:104800007A878B879C876091DF047091E0048091A8
:10481000E1049091E2042091DF043091E0044091A2
:10482000E1045091E2040E942A326D877E878F87CF
:10483000988B6091DB047091DC048091DD04909191
:10484000DE042091DB043091DC044091DD045091C2
:10485000DE040E942A3265966CAF7DAF8EAF9FAFAB
:1048600065972D853E854F855889C701B6010E9401
:104870002A324B015C0125962CAD3DAD4EAD5FADAE
:1048800025976D817E818F8198850E942A329B01B8
:10489000AC01C501B4010E946A2F4B015C0129855E
:1048A0003A854B855C85C701B6010E942A329B017F
:1048B000AC01C501B4010E946A2F6B017C012196F5
:1048C0002CAD3DAD4EAD5FAD2197C301B2010E944D
:1048D0002A329B01AC01C701B6010E94692F698F82
:1048E0007A8F8B8F9C8F69962CAD3DAD4EAD5FADB1
:1048F000699769A97AA98BA99CA90E942A3220E00C
:1049000030E040E850E40E942A326B017C01809143
:10491000E3049091E404A091E504B091E60489AB2E
:104920009AABABABBCAB65962CAD3DAD4EAD5FADC0
:10493000659769897A898B899C890E942A324B0103
:104940005C0129962CAD3DAD4EAD5FAD29976D81D3
:104950007E818F8198850E942A329B01AC01C5011E
:10496000B4010E94692F4B015C0129A93AA94BA906
:104970005CA9C701B6010E942A329B01AC01C501A6
:10498000B4010E946A2F4B015C0129AD3AAD4BADD9
:104990005CADC301B2010E942A329B01AC01C5018A
:1049A000B4010E94692F29893A894B895C890E9448
:1049B000692F4B015C0129853A854B855C852D96D5
:1049C0006CAD7DAD8EAD9FAD2D970E942A329B01BF
:1049D000AC01C501B4010E946A2F4B015C012D8519
:1049E0003E854F8558892D966CAD7DAD8EAD9FADC2
:1049F0002D970E942A329B01AC01C501B4010E948F
:104A00006A2F4B015C0129893A894B895C896DA920
:104A10007EA98FA998AD0E942A329B01AC01C501E5
:104A2000B4010E946A2F698B7A8B8B8B9C8B2091AF
:104A3000DF043091E0044091E1045091E204C701A9
:104A4000B6010E942A326B017C0129AD3AAD4BAD13
:104A50005CAD6D817E818F8198850E942A329B0199
:104A6000AC01C701B6010E946A2F6B017C016596FB
:104A70002CAD3DAD4EAD5FAD65976D897E898F895B
:104A8000988D0E942A329B01AC01C701B6010E9499
:104A90006A2F6B017C0129962CAD3DAD4EAD5FAD0B
:104AA0002997C301B2010E942A329B01AC01C701C0
:104AB000B6010E94692F2D893E894F89588D0E9429
:104AC000692F6B017C0129853A854B855C85619650
:104AD0006CAD7DAD8EAD9FAD61970E942A329B017A
:104AE000AC01C701B6010E946A2F6B017C012D85C4
:104AF0003E854F85588961966CAD7DAD8EAD9FAD7D
:104B000061970E942A329B01AC01C701B6010E9445
:104B10006A2F6B017C012D893E894F89588D6DA9C3
:104B20007EA98FA998AD0E942A329B01AC01C701D2
:104B3000B6010E946A2F6D8B7E8B8F8B988FC090F1
:104B4000DB04D090DC04E090DD04F090DE04809083
:104B5000DB049090DC04A090DD04B090DE0420E043
:104B600030E040E850E469857A858B859C850E9419
:104B70002A32A70196010E942A326B017C012196FC
:104B80002CAD3DAD4EAD5FAD21976D817E818F81A6
:104B900098850E942A329B01AC01C701B6010E9490
:104BA000692F6B017C0120E030E040E850E46D8526
:104BB0007E858F8598890E942A32A50194010E94E2
:104BC0002A329B01AC01C701B6010E946A2F6B011A
:104BD0007C0125962CAD3DAD4EAD5FAD2597C30153
:104BE000B2010E942A329B01AC01C701B6010E94AA
:104BF000692F4B015C01298D3A8D4B8D5C8DCA016B
:104C0000B9010E942A326B017C0129893A894B89BA
:104C10005C89CA01B9010E942A329B01AC01C7011B
:104C2000B6010E946A2F6B017C012D893E894F8954
:104C3000588DCA01B9010E942A329B01AC01C701FB
:104C4000B6010E946A2F6B017C01A5019401C50188
:104C5000B4010E942A329B01AC01C701B6010E9437
:104C60006A2F0E94C7086B017C014090040150909C
:104C700005016090060170900701AC019B01698DF0
:104C80007A8D8B8D9C8D0E942A32A30192010E9405
:104C90002A329B01AC0169A17AA18BA19CA10E943F
:104CA000692F69A37AA38BA39CA340900401509021
:104CB00005016090060170900701A70196016989BE
:104CC0007A898B899C890E942A32A30192010E94D1
:104CD0002A329B01AC016DA17EA18FA198A50E94F3
:104CE000692F6DA37EA38FA398A7409004015090D5
:104CF00005016090060170900701A70196016D897A
:104D00007E898F89988D0E942A32A30192010E9488
:104D10002A329B01AC0169A57AA58BA59CA50E94AE
:104D2000692F69A77AA78BA79CA740900401509090
:104D300005016090060170900701A7019601C50169
:104D4000B4010E942A32A30192010E942A329B01DF
:104D5000AC016DA57EA58FA598A90E94692F6DA7AE
:104D60007EA78FA798ABC0900801D0900901E09072
:104D70000A01F0900B0129A13AA14BA15CA16D8D14
:104D80007E8D8F8D98A10E942A32A70196010E94E4
:104D90006A2F609308017093090180930A01909330
:104DA0000B01C090E304D090E404E090E504F0909F
:104DB000E6042DA13EA14FA158A56D8D7E8D8F8D4E
:104DC00098A10E942A32A70196010E946A2F60933F
:104DD000E3047093E4048093E5049093E604C090A8
:104DE000DF04D090E004E090E104F090E20429A513
:104DF0003AA54BA55CA56D8D7E8D8F8D98A10E94E7
:104E00002A32A70196010E946A2F6093DF047093F3
:104E1000E0048093E1049093E204C090DB04D0901E
:104E2000DC04E090DD04F090DE042DA53EA54FA546
:104E300058A96D8D7E8D8F8D98A10E942A32A70171
:104E400096010E946A2F6093DB047093DC048093C8
:104E5000DD049093DE046091080170910901809156
:104E60000A0190910B0120910801309109014091B4
:104E70000A0150910B018090E3049090E404A0900B
:104E8000E504B090E6044090E3045090E4046090A0
:104E9000E5047090E604E090DF04F090E0040091F7
:104EA000E1041091E204ED82FE820F831887E09006
:104EB000DF04F090E0040091E1041091E204E9863F
:104EC000FA860B871C87E090DB04F090DC040091ED
:104ED000DD041091DE04ED86FE860F87188BE090CE
:104EE000DB04F090DC040091DD041091DE04E98A1B
:104EF000FA8A0B8B1C8B0E942A326B017C01A30166
:104F00009201C501B4010E942A329B01AC01C70184
:104F1000B6010E946A2F6B017C0129853A854B8579
:104F20005C856D817E818F8198850E942A329B01EC
:104F3000AC01C701B6010E946A2F6B017C0129896F
:104F40003A894B895C896D857E858F8598890E9419
:104F50002A329B01AC01C701B6010E946A2F0E9450
:104F6000C7086B017C012091080130910901409133
:104F70000A0150910B010E942A326093080170933C
:104F8000090180930A0190930B012091E304309171
:104F9000E4044091E5045091E604C701B6010E9483
:104FA0002A326093E3047093E4048093E5049093C1
:104FB000E6042091DF043091E0044091E104509137
:104FC000E204C701B6010E942A326093DF047093A5
:104FD000E0048093E1049093E2042091DB0430919B
:104FE000DC044091DD045091DE04C701B6010E944B
:104FF0002A326093DB047093DC048093DD04909389
:10500000DE04E0900801F090090100910A0110917E
:105010000B01ED82FE820F831887E092E704F09285
:10502000E8040093E9041093EA044090E3045090EC
:10503000E4046090E5047090E6044092EB04509222
:10504000EC046092ED047092EE048090DF04909086
:10505000E004A090E104B090E2048092EF0490920A
:10506000F004A092F104B092F204C090DB04D0905E
:10507000DC04E090DD04F090DE04C092F304D092F2
:10508000F404E092F504F092F604A5019401C50140
:10509000B4010E942A3269877A878B879C87A30193
:1050A0009201C301B2010E942A3229853A854B85BB
:1050B0005C850E946A2F9B01AC010E946A2F9B01B4
:1050C000AC0160E070E080E89FE30E94692F6D878B
:1050D0007E878F87988BA7019601C501B4010E9436
:1050E0002A32698B7A8B8B8B9C8BA30192016D8109
:1050F0007E818F8198850E942A329B01AC0169894B
:105100007A898B899C890E946A2F9B01AC010E943D
:105110006A2F2D853E854F8558890E940430609303
:10512000CF047093D0048093D1049093D204A7014C
:105130009601C301B2010E942A326D877E878F8754
:10514000988BA50194016D817E818F8198850E9445
:105150002A329B01AC016D857E858F8598890E94DE
:10516000692F20E030E040E050EC0E942A320E949B
:10517000D62F6093D3047093D4048093D504909376
:10518000D604A7019601C701B6010E942A322985DB
:105190003A854B855C850E946A2F9B01AC010E9479
:1051A0006A2F9B01AC0160E070E080E89FE30E9401
:1051B000692F69877A878B879C87A5019401C30132
:1051C000B2010E942A324B015C01A70196016D8158
:1051D0007E818F8198850E942A329B01AC01C50196
:1051E000B4010E946A2F9B01AC010E946A2F29859D
:1051F0003A854B855C850E9404306093D704709398
:10520000D8048093D9049093DA0425E33AEF4EE86A
:105210005CE30E94683060931B0570931C058093CB
:105220001D0590931E050E94A10500912C0510916B
:105230002D0520912E0530912F05601B710B820BDF
:10524000930B653671058105910508F488C00E94AD
:10525000A10560932C0570932D0580932E059093E6
:105260002F0597E4F92EF0927C0080917A008064FB
:1052700080937A0080917A0086FDFCCFA09178001F
:10528000B0917900B0932B05A0932A0510912805C1
:1052900080912905882339F080911101882319F024
:1052A000112309F45CC02EE036E00E945C2F2FEF42
:1052B00033E040E050E00E94E52ECA01B9016E5C87
:1052C0007F4F8F4F9F4F0E9412310E946A0111231E
:1052D00009F445C080912A0590912B05209126055F
:1052E00030912705821B930B97FF03C09195819501
:1052F0009109069764F03092250584EC93E00E94B2
:10530000040E80912A0590912B050E94310F809107
:105310002505A0912A05B0912B0581110CC08EE3C3
:1053200090E00E94CF2E89838FE390E00E94CF2EE1
:105330008A83A981BA812EE036E00E945C2F2FEF8C
:1053400033E040E050E00E94E52ECA01B9016E5CF6
:105350007F4F8F4F9F4F0E9412310E946A0181E15F
:105360000E94BA02892BD1F480912405811116C0C4
:1053700080912805811112C0309224050E94A10558
:105380006093200570932105809322059093230557
:1053900062E370E080E090E00E94300581E10E94CD
:1053A000BA02892BD1F480912805811116C00E9480
:1053B000A105009120051091210520912205309131
:1053C0002305601B710B820B930B613D77408105B8
:1053D000910518F016E010931F0581E10E94BA02B2
:1053E000892B09F4BCC080912405882309F4B7C037
:1053F000809128058111B3C0109224050E94A10557
:10540000009120051091210520912205309123055E
:10541000601B710B820B930B613D774081059105F9
:1054200020F08091300581116FC080911101182FFB
:10543000132510931101809335071111DAC187EFFD
:1054400096E00E942009D7C1109229050C94F21F02
:1054500080E590E0A0E0B0E00C9408204091BA060E
:105460005091BB066091BC067091BD06D7010D91AD
:105470001D912D913D917D010417150726073707D2
:1054800031F410921605309214050C946720409167
:10549000BA065091BB066091BC067091BD06DC0156
:1054A0000D911D912D913D91CD01041715072607F2
:1054B000370741F410921605109214053092130527
:1054C0000C946920B4E0EB3CFB0711F00C945020E5
:1054D0000C94692010921605109214051092130571
:1054E0000C9471201D821E821F8218860C94442108
:1054F00019861A861B861C860C9469211D861E86B9
:105500001F86188A0C948E218CE390E00E94CA12A8
:1055100061E0811160E0609329058CE390E00E94D6
:10552000D72E8CE390E00E94CA1291E0811101C055
:1055300090E09093290590911101882309F456C1B8
:10554000992309F453C120921F0584EA91E00E9437
:10555000FD068CE390E00E94CA120E94E30E8EE0EA
:105560000E94BA02892B29F080911605882309F43C
:1055700040C08091150581113CC0309215051092F4
:10558000290580912805882381F0809125058823AD
:1055900061F06AE275E08EE390E00E944D12109295
:1055A000250582ED93E00E94590E10922805109275
:1055B0004307109242071092440710924507109239
:1055C0004607109247071092110710921207109287
:1055D00013071092140762E370E080E090E00E94ED
:1055E000300541E050E06FEF76EE8FEF9FEF0E94C5
:1055F000C8038EE00E94BA02892B09F443C080914F
:10560000160581113FC08091140581113BC0809126
:105610001305811137C080911505882399F11092E7
:1056200015058091280581112DC00E9427098091C0
:105630003005882309F407C18CE390E00E94CA1268
:1056400091E0811101C090E09093290580911101B2
:1056500090912905992309F4F9C0882309F4F6C02B
:1056600020921F0580911B0590911C05A0911D059E
:10567000B0911E058093170590931805A093190506
:10568000B0931A058FE00E94BA02892B29F080910D
:105690001405882309F440C08091120581113CC093
:1056A000309212051092290580912805882381F0F7
:1056B00080912505882361F06AE275E08EE390E031
:1056C0000E944D121092250582ED93E00E94590E22
:1056D0001092280510924307109242071092440737
:1056E0001092450710924607109247071092110733
:1056F00010921207109213071092140762E370E0E1
:1057000080E090E00E94300541E050E061E079E106
:1057100080E090E00E94C8038FE00E94BA02892BCB
:1057200009F443C08091160581113FC08091140592
:1057300081113BC080911305811137C08091120502
:10574000882399F1109212058091280581112DC0AE
:105750000E94270980913005882309F47AC08CE3E0
:1057600090E00E94CA1291E0811101C090E09093F4
:1057700029058091110190912905992309F46CC0A4
:10578000882309F469C020921F0580911B05909120
:105790001C05A0911D05B0911E05809317059093DF
:1057A0001805A0931905B0931A058EE00E94BA025D
:1057B000892B09F454C080E10E94BA02892B09F4B4
:1057C00054C080911305811150C08EE00E94BA022E
:1057D000892B09F4A8C080E10E94BA02892B09F440
:1057E000A8C0809113058111A4C0B7C090931F0574
:1057F000ACCE0E94A603109228050E942709809132
:105800002905882339F0112329F020921F0582EF02
:1058100091E006C010931F058EEF91E01111F7CFB4
:105820000E94590E80911B0590911C05A0911D05A9
:10583000B0911E058093170590931805A093190544
:10584000B0931A058CCE1092290500CF80931F05C6
:1058500009CF109229058DCF80931F0596CF8FE039
:105860000E94BA02892B09F0A6CF809111058111FF
:10587000ACCF309211050E94A10560930D05709385
:105880000E0580930F0590931005109229050E9434
:105890002709109243071092420710924407109272
:1058A0004507109246071092470710921107109271
:1058B000120710921307109214078091280588236D
:1058C00029F10E9427091092F7061092F80610920B
:1058D000F9061092FA0610922807109229071092E2
:1058E0002A0710922B0782EE93E00E94590E8DE357
:1058F00090E00E94CA1280931F053092100164EF5D
:1059000071E080E090E00E9430055FCF3092280582
:1059100080912A0590912B05909327058093260569
:105920008DEE93E0E2CF8FE00E94BA02892B09F05E
:1059300052CF0E94A10500910D0510910E052091F6
:105940000F0530911005601B710B820B930B613DAD
:1059500077408105910508F017C18EE00E94BA02D8
:10596000892B09F45AC08FE00E94BA02892B09F4EE
:1059700054C080E10E94BA02892B09F44EC0809184
:10598000130581114AC080911105882309F445C08F
:10599000109211050E94A10500910D0510910E05B0
:1059A00020910F0530911005601B710B820B930B3A
:1059B000613D77408105910580F18DE390E00E9483
:1059C000CA1264E0833009F063E08DE390E00E9446
:1059D000D72E8DE390E00E94CA12833009F0D8C020
:1059E00083E290E0A0E0B0E080930C0190930D0181
:1059F000A0930E01B0930F018DE390E00E94CA12B4
:105A000080931F058DE390E00E94CA12833009F055
:105A1000CDC08BE092E00E94590E8091280588232A
:105A200009F445C00E944209811141C01091100142
:105A300013251093100164E070E080E090E00E9474
:105A40003005612F87E00E94E30264E070E080E0AF
:105A500090E00E94300560910C0170910D018091E1
:105A60000E0190910F01112309F4A8C00E94123178
:105A700021E73DE34EE851E40E942A326B017C01AC
:105A800020E030E0A9010E941D3220E030E040E03B
:105A90005FE387FD8EC0C701B6010E946A2F0E9496
:105AA000DA3050E040E00E94C8030E944209809131
:105AB0002905882309F44DC180911101882309F437
:105AC00048C180913005882309F443C1C09009057D
:105AD000D0900A05E0900B05F0900C050AEFC00E7F
