:100000000C94CD000C949F110C9478110C94F50075
:100010000C94F5000C94F5000C94F5000C94F5008C
:100020000C94F5000C94F5000C94F5000C94F5007C
:100030000C94F5000C94F5000C94F5000C94F5006C
:100040000C942E110C94F5000C94EC110C94C61128
:100050000C94F5000C94F5000C94F5000C94F5004C
:100060000C940F100C94F500036EDB363D9A9999B1
:10007000993DABAAAA2A3E000000803F084AD73B20
:100080003BCE016E84BCBFFDC12F3D6C74319ABD67
:1000900056833DDA3D00C77F11BED9E4BB4C3E918B
:1000A0006BAAAABE000000803F072C7AA5BA6CC5D7
:1000B00090DA3B9365FC8BBC53F810FD3C56928361
:1000C0004DBD879D3AB63DCBC9BF5BBE73DA0FC944
:1000D0003F0000000000240027002A00000000006C
:1000E0002300260029000000000800020100000390
:1000F000040700000000000000005E01011F010372
:100100000301008A02010A010202010064001E4785
:10011000040B0906007C0101060103030100F40140
:10012000060E0102020100C20117010102020101D3
:100130009600023E0106060100C800038207100374
:100140001000C800820710071003016D011201039F
:10015000010103010E0124010102020101400124F9
:100160000101020201010102040810204080010285
:1001700004081020010204081020000000002500DF
:1001800028002B00040404040404040402020202F4
:1001900002020303030303031E1211241FBECFEF49
:1001A000D8E0DEBFCDBF11E0A0E0B1E0EEE3FDE5B9
:1001B00002C005900D92A63DB107D9F725E0A6ED46
:1001C000B1E001C01D92A832B207E1F710E0CDEC1A
:1001D000D0E004C02197FE010E940A2BCC3CD1073D
:1001E000C9F70E945F130C949D2E0C940000CF92CF
:1001F000DF92EF92FF926B017C0120E030E0A901D9
:100200000E94C42D181624F0F7FAF094F7F8F09431
:1002100024EB32EA41E959E3C701B6010E94C42D3B
:10022000181644F084EBC82E82EAD82E81E9E82E15
:1002300089E3F82EC0921805D0921905E0921A05AC
:10024000F0921B058091200590912105892B51F09A
:1002500020E030E040EA50E4C701B6010E940A2CD9
:1002600087FF12C0A701960160E074E284E799E479
:100270000E940F2C0E94882C6093E9047093EA047A
:100280008093EB049093EC04C701B6010E94812C8B
:100290009B01770F440B550B285E334041095109F0
:1002A000A0E5B9EC0E94B92A28E33AE440E050E026
:1002B0000E948C2A2856354C4F4F5F4F28393A43BD
:1002C00058F088EE93E09093EE048093ED04FF9055
:1002D000EF90DF90CF90089588E99AE3F4CF2091D2
:1002E0005D03260F3327331F21323105ECF42091B3
:1002F000A803FC0190E080E0243069F082E00895DA
:10030000A0915D032191AC01455C5C4FA40FB52F1A
:10031000B11D2C930196861798F380915D03680FA9
:1003200060935D0380E0089581E008950895089545
:100330000895E091390380913803E81730F4F0E034
:10034000E85EFC4F808190E008958FEF9FEF089565
:1003500090913903809138032FEF3FEF981748F4BD
:10036000E92FF0E0E85EFC4F208130E09F5F909342
:100370003903C90108958091380390913903891B8D
:10038000990B0895CF92DF92EF92FF920F931F93F4
:10039000CF93DF937C01CB018A012091AE0322230E
:1003A00089F0EB016B01C40ED51ECC15DD0569F09B
:1003B0006991D701ED91FC910190F081E02DC70189
:1003C0000995F3CF642F0E946F01C801DF91CF918F
:1003D0001F910F91FF90EF90DF90CF900895CF93F2
:1003E000DF931F92CDB7DEB769832091AE0322233E
:1003F000F9F02091D103203258F021E030E0FC01E7
:100400003383228390E080E00F90DF91CF910895B5
:100410008091AF03E82FF0E0E055FC4F9981908385
:100420008F5F8093AF038093D10381E090E0ECCFA6
:1004300061E0CE0101960E946F01F7CFFC01538D60
:10044000448D252F30E0842F90E0821B930B5417AE
:1004500010F0CF96089501970895FC01918D828D3B
:10046000981761F0A28DAE0FBF2FB11D5D968C91D4
:10047000928D9F5F9F73928F90E008958FEF9FEF13
:100480000895FC01918D828D981731F0828DE80FCF
:10049000F11D858D90E008958FEF9FEF0895FC0189
:1004A000918D228D892F90E0805C9F4F821B910956
:1004B0008F7399270895FC01A48DA80FB92FB11D42
:1004C000A35ABF4F2C91848D90E001968F7399278A
:1004D000848FA689B7892C93A089B1898C91837068
:1004E00080648C93938D848D981306C00288F38961
:1004F000E02D80818F7D80830895EF92FF920F938E
:100500001F93CF93DF93EC0181E0888F9B8D8C8DBF
:1005100098131AC0E889F989808185FF15C09FB7B3
:10052000F894EE89FF896083E889F9898081837076
:10053000806480839FBF81E090E0DF91CF911F9125
:100540000F91FF90EF900895F62E0B8D10E00F5F46
:100550001F4F0F731127E02E8C8D8E110CC00FB61C
:1005600007FCFACFE889F989808185FFF5CFCE01B4
:100570000E945B02F1CFEB8DEC0FFD2FF11DE35AD2
:10058000FF4FF0829FB7F8940B8FEA89FB89808137
:100590008062CFCFCF93DF93EC01888D8823B9F0B1
:1005A000AA89BB89E889F9898C9185FD03C080817E
:1005B00086FD0DC00FB607FCF7CF8C9185FFF2CFFB
:1005C000808185FFEDCFCE010E945B02E9CFDF91F4
:1005D000CF9108958FEE93E00E944F0221E0892B86
:1005E00009F420E0822F089580E090E0892B29F023
:1005F0000E94EA0281110C9400000895833081F07A
:1006000028F4813099F08230A9F008958730A9F05C
:100610008830C9F08430B1F4809180008F7D03C0B0
:10062000809180008F7780938000089584B58F77C4
:1006300084BD089584B58F7DFBCF8091B0008F7706
:100640008093B00008958091B0008F7DF9CFCF9353
:10065000DF93282F30E0F901EA51FF4F8491F9012F
:10066000EA59FE4FD491F901EC57FE4FC491CC23C7
:10067000A1F081110E94FE02EC2FF0E0EE0FFF1FAF
:10068000E452FF4FA591B491EC91ED2381E090E00D
:1006900009F480E0DF91CF91089580E090E0FACFF7
:1006A0001F93CF93DF93282F30E0F901EA51FF4FDA
:1006B0008491F901EA59FE4FD491F901EC57FE4FAC
:1006C000C491CC23A9F0162F81110E94FE02EC2FB9
:1006D000F0E0EE0FFF1FE658FE4FA591B4918FB7E3
:1006E000F894EC91111108C0D095DE23DC938FBFF4
:1006F000DF91CF911F910895DE2BF8CF1092A803C0
:1007000081E08093A7031092820361E082E10E945E
:10071000500361E083E10E945003E9EBF0E0808147
:100720008E7F808380818D7F808388E48093B80072
:1007300085E48093BC000895CF93DF9391E090937C
:100740003A038823B9F0C091B800D091BA008091E3
:10075000BC008A7B8093BC0060E082E10E94500371
:1007600060E083E10E9450030E947E03D093BA00B0
:10077000C093B800DF91CF910895CF93DF9390E0BD
:10078000FC01EA59FE4F24918C579E4FFC01849145
:100790008823D1F090E0880F991FFC01EE52FF4FA3
:1007A000A591B491FC01E658FE4FC591D4916230F9
:1007B00071F49FB7F8943C91822F809583238C939A
:1007C000E8812E2B28839FBFDF91CF9108958FB7AB
:1007D000F894EC912E2B2C938FBFF6CF3FB7F89463
:1007E0008091140390911503A0911603B091170303
:1007F00026B5A89B05C02F3F19F00196A11DB11D7C
:100800003FBFBA2FA92F982F8827BC01CD01620FB7
:10081000711D811D911D42E0660F771F881F991F72
:100820004A95D1F70895CF93DF93C5EDD4E081E0E9
:100830008DAF1092140510921505109216051092A6
:1008400017050E94EE036DA77EA78FA798AB6CA338
:100850007DA38EA39FA368A379A38AA39BA36E8184
:100860008D81DF91CF910C9450034F925F926F92E4
:100870007F928F929F92AF92BF92CF92DF92EF9230
:10088000FF926B017C018090D5049090D604A090DB
:10089000D704B090D804452B21F0C80CD91CEA1C11
:1008A000FB1CC0920A05D0920B05E0920C05F09259
:1008B0000D05C814D904EA04FB0409F441C04090B2
:1008C00018055090190560901A0570901B058091CD
:1008D000200590912105892B51F020E030E040EA7D
:1008E00050E4C301B2010E940A2C87FF1BC0A30180
:1008F000920160E074E284E799E40E940F2C0E9468
:10090000882C6093E9047093EA048093EB0490933D
:10091000EC0481E08C149D04AE04BF040CF08FEF56
:100920008093D904FF90EF90DF90CF90BF90AF906D
:100930009F908F907F906F905F904F900C941304D6
:10094000FF90EF90DF90CF90BF90AF909F908F90EF
:100950007F906F905F904F9008958F929F92AF928B
:10096000BF92CF92DF92EF92FF920F931F93CF939C
:10097000DF93D091D103D13208F0D7C0182FC091A6
:10098000D0030E94EE036B017C018091A8038111CA
:100990006BC082E08093A8031093A7038FEF80932E
:1009A000A6031092A503D093A403A0EBB3E0E4E860
:1009B000F3E080E0D81391C0109283038091830309
:1009C000CC0FC82BC093830380918203813009F040
:1009D00088C0109282030E94EE036B017C0180911B
:1009E00083038093BB008091AA039091AB03A091F5
:1009F000AC03B091AD03892B8A2B8B2BA1F00E9405
:100A0000EE030091AA031091AB032091AC03309147
:100A1000AD036C197D098E099F0906171707280772
:100A2000390708F442C08091BC0083FDD8CF85EC23
:100A30008093BC000E94EE036B017C018091A803AF
:100A4000823009F450C08091A6038F3F09F46FC033
:100A50008091A603803209F46CC08091A603803394
:100A600009F469C084E026C08091AA039091AB0389
:100A7000A091AC03B091AD03892B8A2B8B2B09F489
:100A800084CF0E94EE038090AA039090AB03A090C5
:100A9000AC03B090AD036C197D098E099F098616D1
:100AA0009706A806B90608F070CF8091A9030E94A6
:100AB0009C0385E01092AF031092D1031092AE0315
:100AC000DF91CF911F910F91FF90EF90DF90CF902A
:100AD000BF90AF909F908F9008959D9191938F5F5D
:100AE00069CF85EEA5CF8091AA039091AB03A09129
:100AF000AC03B091AD03892B8A2B8B2B09F49ECFCD
:100B00000E94EE030091AA031091AB032091AC0365
:100B10003091AD036C197D098E099F0906171707DF
:100B20002807390708F08ACFC0CF81E0C3CF80E023
:100B3000C1CF82E0BFCF83E0BDCF8F929F92AF92B3
:100B4000BF92CF92DF92EF92FF924B015C010E9425
:100B5000EE036B017C010E94EE036C197D098E0986
:100B60009F09683E734081059105A8F321E0821A30
:100B70009108A108B10888EEC80E83E0D81EE11CD8
:100B8000F11C81149104A104B10429F7FF90EF90A6
:100B9000DF90CF90BF90AF909F908F9008958F92ED
:100BA0009F92BF92CF92DF92EF92FF920F931F938B
:100BB000CF93DF936B017C01042F83E10E94270315
:100BC0004C01BB24B394892B09F4B12CD0E0C0E0D4
:100BD00010E0C017D107B4F461E08114910409F06A
:100BE00060E083E10E945003C701B6010E949D05A9
:100BF0006B2D83E10E945003C701B6010E949D0541
:100C00002196E7CFDF91CF911F910F91FF90EF9049
:100C1000DF90CF90BF909F908F9008952FB7F8945A
:100C2000609110037091110380911203909113034E
:100C30002FBF0895CF92DF92EF92FF920F931F93F1
:100C4000CF93DF9300D000D000D01F92CDB7DEB796
:100C500097E0E4E1F1E0DE01119601900D929A95A2
:100C6000E1F721E030E02C0F3D1F280F311DF90185
:100C700010810E940E06C090DF03D090E003E09048
:100C8000E103F090E2036C197D098E099F09673931
:100C9000710581059105F0F00E940E066093DF0357
:100CA0007093E0038093E1039093E2030091DE03ED
:100CB000812F90E0202F277002C0959587952A9567
:100CC000E2F761E080FF60E083E10E9450030F5F84
:100CD0000093DE0327960FB6F894DEBF0FBECDBF9C
:100CE000DF91CF911F910F91FF90EF90DF90CF9008
:100CF00008950895AF92BF92CF92DF92EF92FF9244
:100D00000F931F93CF93DF936C017B018B01040F33
:100D1000151FEB015E01AE18BF08C017D10759F0CF
:100D20006991D601ED91FC910190F081E02DC60111
:100D30000995892B79F7C501DF91CF911F910F910B
:100D4000FF90EF90DF90CF90BF90AF90089590E02C
:100D500080E00895DC01ED91FC910480F581E02DA7
:100D60000994CF93DF93CDB7DEB72C970FB6F894E5
:100D7000DEBF0FBECDBF8CE089832CE030E041E0C8
:100D800050E0BE016F5F7F4F8CE894E00E94AA069E
:100D900049815A812B813C818D819E81AF81B885AB
:100DA000E985FA856B857C85B093DD03A093DC0330
:100DB000F093DB03E093DA037093D9036093D803D5
:100DC0005093D7034093D6033093D5032093D40395
:100DD0009093D3038093D2032C960FB6F894DEBF82
:100DE0000FBECDBFDF91CF910895CF93DF931F92B8
:100DF000CDB7DEB7698321E030E041E050E0BE01CD
:100E00006F5F7F4F0E94AA0689810F90DF91CF917B
:100E100008956BE18CE894E00E94F50683FD07C01D
:100E200061E070E080E090E00E949D05F2CF0895BF
:100E3000CF93DF9300D0CDB7DEB769834A8330E02C
:100E400020E042E050E0BE016F5F7F4F0E94AA06A3
:100E50000F900F90DF91CF91089590E080E008957A
:100E6000EF92FF920F931F93CF93DF937C01D62FC6
:100E7000C42F122F0E94F50641E050E002C0440F3B
:100E8000551F0A95E2F741505109012E01C0440F48
:100E90000A94EAF72C2F01C0220F1A95EAF7942F33
:100EA000909589232423422F482B6D2FC701DF9172
:100EB000CF911F910F91FF90EF900C941807CF9353
:100EC000CFB7F89480916A02811127C0EEE8F1E073
:100ED0008491E0E7F1E09491E82FF0E0EE0FFF1F3E
:100EE000EE52FF4FA591B491EC91E92321F461E01A
:100EF0008AE00E94500361E08AE00E94BD038CB545
:100F000080618CBD8CB580648CBD61E08DE00E94F9
:100F1000BD0361E08BE00E94BD0380916A028F5F98
:100F200080936A02CFBFCF9108958F929F92AF9224
:100F3000BF92CF92DF92EF92FF926B017C0120E093
:100F400030E040E05FE30E94D12D4B015C01D7010E
:100F5000C601B595A795979587953FEDC32E39E5C1
:100F6000D32E37E3E32E3FE5F32EC81AD90AEA0A57
:100F7000FB0AA5019401C701B6010E94D12DA7016A
:100F800096010E94D12D9B01AC0160E070E080ECE5
:100F90009FE30E94102BA70196010E94D12D6B01A7
:100FA0007C01A50194010E94D12DA70196010E9408
:100FB000D12D9B01AC0160E070E080EC9FE30E94CA
:100FC000102BA70196010E94D12DFF90EF90DF908A
:100FD000CF90BF90AF909F908F900895FC01668155
:100FE00021E0622785810C94500310921205109223
:100FF00014051092150510921605109217051092FF
:1010000006051092070510920805109209058091B7
:101010001305882321F085ED94E00C94EE070895E4
:101020004F925F926F927F928F929F92AF92BF92F8
:10103000CF92DF92EF92FF92CF93DF93CDB7DEB7DF
:1010400028970FB6F894DEBF0FBECDBF8091120572
:10105000882309F443C20E94EE0360930E05709347
:101060000F0580931005909311052091260530916E
:1010700027058091200590912105232B09F037C287
:10108000892B09F467C140901805509019056090AC
:101090001A0570901B0520E030E040EA50E4C301DF
:1010A000B2010E94C42D87FD55C180900E0590901D
:1010B0000F05A0901005B0901105C090F904D090D4
:1010C000FA04E090FB04F090FC046091ED04709150
:1010D000EE0490E080E08C189D08AE08BF088616EC
:1010E0009706A806B90608F435C1C60ED71EE81E35
:1010F000F91EC092F904D092FA04E092FB04F09237
:10110000FC0480900A0590900B05A0900C05B0900F
:101110000D05C090D504D090D604E090D704F0908F
:10112000D8048C189D08AE08BF08C0900605D09062
:101130000705E0900805F09009050E94B72C209162
:10114000EF043091F0044091F1045091F2040E94B8
:10115000D12D69837A838B839C83A7019601C70174
:10116000B6010E94D12D2091220530912305409196
:101170002405509125050E94D12D6D837E838F8398
:101180009887C501B401B7FE07C066277727CB0152
:10119000681979098A099B090E94B92C9B01AC0145
:1011A0006D817E818F8198850E94C42D87FD0EC040
:1011B00020E030E0A901C701B6010E94C42D87FDDF
:1011C00007C020E030E040E85FEB06C0B7FCF9CF95
:1011D00020E030E040E85FE369817A818B819C8187
:1011E0000E94D12DA70196010E94112B6B017C0159
:1011F0008090140590901505A0901605B0901705E5
:1012000020E030E0A901C501B4010E940A2C81113F
:101210004AC053014201B7FAB094B7F8B094A5019F
:101220009401B601C7010E940A2C87FD0CC09601EB
:10123000A701C301B2010E940A2C5301420187FD9C
:1012400002C0460157018092060590920705A092C0
:101250000805B0920905C0900605D0900705E090FA
:101260000805F090090520E030E0A901C701B601AA
:101270000E94C42D1816D4F520E030E040EA50E476
:10128000C701B6010E94C42D1816D4F180E49DE078
:10129000A3E0B0E08093E9049093EA04A093EB0408
:1012A000B093EC044BC02401350177FA709477F8C1
:1012B0007094A3019201B601C7010E940A2C87FD18
:1012C0000CC0A5019401B601C7010E94C42D2401E0
:1012D0003501181614F02601370140920605509288
:1012E00007056092080570920905B5CF20E030E04F
:1012F00040EA50ECC701B6010E940A2C87FFC6CF16
:10130000A701960160E074E284E799E40E940F2C43
:101310004B015C0120E030E0A9010E94C42D1816A9
:101320000CF083C0C501B4010E94882C6093E904CD
:101330007093EA048093EB049093EC0420E030E097
:10134000A901C701B6010E94C42D87FD72C081E0CA
:101350008093D9044091E9045091EA046091EB0430
:101360007091EC04411551056105710509F4B6C091
:1013700080910E0590910F05A0911005B091110577
:10138000C0900205D0900305E0900405F09005059B
:101390008C199D09AE09BF0984179507A607B707E1
:1013A00008F49CC080910E0590910F05A091100546
:1013B000B09111058093020590930305A093040555
:1013C000B0930505C090D504D090D604E090D70422
:1013D000F090D8048091260590912705892BE1F59E
:1013E00080910A0590910B05A0910C05B0910D0517
:1013F0008C159D05AE05BF0579F50E94F50780E0C7
:1014000028960FB6F894DEBF0FBECDBFDF91CF9107
:10141000FF90EF90DF90CF90BF90AF909F908F9014
:101420007F906F905F904F900895C501B4019058E0
:101430007BCF8FEF8DCF8FEFD8C0C501B40190580F
:10144000EAC024EB32EA41E959EBC701B6010E9438
:10145000C42D87FD7FCF03C18091D904482F082E6A
:10146000000C550B660B770B4C0D5D1D6E1D7F1D23
:101470004093D5045093D6046093D7047093D80456
:101480009091DD04891799F08093DD04E091E504E3
:10149000F091E60491E018160CF090E08091DC04E5
:1014A0009817F9F08091E8049081892B80838091CE
:1014B000E704E091E304F091E4049081892B8083B8
:1014C0008BE090E00197F1F78091E704E091E3046D
:1014D000F091E404908180958923808380911205A6
:1014E0008FCF8091E804908180958923DFCF892B6D
:1014F00009F430CFC0900E05D0900F05E090100594
:10150000F09011056091F3047091F4048091F5045A
:101510009091F604A091F704B091F804C81AD90A82
:10152000EA0AFB0A90E080E0C616D706E806F9064C
:1015300008F410CFC0900E05D0900F05E090100574
:10154000F0901105C092F504D092F604E092F704F1
:10155000F092F804C0900605D0900705E0900805C9
:10156000F09009050E94B72C2091EF043091F0040F
:101570004091F1045091F2040E94D12D4B015C0185
:10158000A701960160911C0570911D0580911E05B3
:1015900090911F050E94102B20E030E0A9010E94CD
:1015A000C42D20E030E040E85FE387FF04C020E086
:1015B00030E040E85FEBC501B4010E94D12DA701E6
:1015C00096010E94112B6B017C01C0920605D092FE
:1015D0000705E0920805F092090520E030E0A90136
:1015E0000E94C42D87FD27CF81E08093D904A701F5
:1015F000960160E074E284E799E40E940F2C4B01AD
:101600005C0120E030E0A9010E94C42D18160CF006
:1016100014CFC501B4010E94882C6093E904709333
:10162000EA048093EB049093EC048091FD048823FA
:1016300009F490CE20E030E0A901C701B6010E9474
:10164000C42D18160CF0FDCE24EB32EA41E959E323
:10165000C701B6010E940A2C18160CF47BCE0E941A
:10166000F50778CEFC018681A82FB0E0AA0FBB1F3A
:10167000AE0FBF1F6D937C938F5F8330D0F4868352
:10168000208131814281538164817581FA0146173D
:1016900057070CF4FB01C901241735070CF4CA01E4
:1016A000E817F90741F4C901261737076CF4CB0195
:1016B00008951682E5CFC901621773070CF4CB01B8
:1016C000841795070CF4CA0108950F931F93CF93C5
:1016D000DF93EDE9F2E0A5E8B2E0C1E9D2E00191E3
:1016E000119121913191061717072807390791F0B9
:1016F0000991199129913991061717072807390778
:1017000049F00D911D912D913D910617170728075E
:10171000390769F445E064E670E080E090E00E94FB
:10172000CF0580E0DF91CF911F910F91089522E0C6
:10173000E93AF207A1F681E0F5CF8EBD00000DB4C5
:1017400007FEFDCF8EB508952F923F924F925F9284
:101750006F927F928F929F92AF92BF92CF92DF92C1
:10176000EF92FF920F931F93CF93DF93CDB7DEB726
:1017700065970FB6F894DEBF0FBECDBF0E94EE0393
:101780006B017C0180916402909165022601481AE8
:10179000590A4DEC441640E1540608F4E0C080912B
:1017A000620290916302009789F02091DC013091F0
:1017B000DD011201221A330A910137FE03C031956F
:1017C00021953109283C31050CF0C5C00196909354
:1017D000630280936202029709F0BDC09AEF692EFE
:1017E00090E0792E01E010E02090DA013090DB01EA
:1017F0003B862A8649E050E0B301CE0101960E9463
:101800006D2A8B816C81681708F4682F70E08091D5
:10181000DC019091DD010E94EF2A9B0140911201B1
:1018200050911301649FC001659F900D749F900DAE
:10183000112464E670E00E94EF2A8985A1E0B0E0FF
:10184000882311F0A2E0B0E08D81829FA001839FE8
:10185000500D11245D874C878E81829F1001839FDC
:10186000300C11243F862E868F81829FA001839F9A
:10187000500D1124598B488B8885829F1001839FBE
:10188000300C11243B8A2A8AFD01EE0FFF1FE4521F
:10189000FE4F812C912C54014A855B8541505109A2
:1018A0005D8B4C8B8C899D89A817B90708F040C0C7
:1018B000880C991CAA1CBB1C80819181AC012C84D2
:1018C0003D844219530957FF03C051954195510971
:1018D0004617570770F4428153812E843F84421982
:1018E000530957FF03C051954195510946175707B2
:1018F000E0F048895989841B950B97FF03C09195A7
:101900008195910986179707C8F4828193812A8867
:101910003B888219930997FF03C09195819591099E
:101920008617970758F4689480F812963496BACFC1
:101930004A855B854830510508F053C00F5F1F4F43
:1019400059E0650E711C0D30110509F04DCF109254
:101950006302109262021092DB011092DA01809110
:10196000DA019091DB018334910540F01092DB01A4
:101970001092DA0110926302109262028091DA01F1
:101980009091DB019C012F5F3F4F3093DB0120934F
:10199000DA01880F991FFC01E452FE4F5182408208
:1019A000C0926402D0926502E0926602F0926702F1
:1019B00065960FB6F894DEBF0FBECDBFDF91CF9115
:1019C0001F910F91FF90EF90DF90CF90BF90AF905D
:1019D0009F908F907F906F905F904F903F902F904F
:1019E00008958092980490929904A0929A04B092DB
:1019F0009B042C883D883694279430926C02209268
:101A00006B023093D9012093D8011093D701009332
:101A1000D6019DCFCF93DF93FC0101900020E9F721
:101A20003197AF01481B590BBC018FEE93E00E9428
:101A30007A06EC0142E050E069E471E08FEE93E059
:101A40000E947A068C0F9D1FDF91CF910895CF934E
:101A5000DF93EC018A859B858130910529F00297FF
:101A600051F1DF91CF91089510923903109238030C
:101A70001092AF031092D1030E947E0386E991E099
:101A800090935C0380935B0387E991E090936003FC
:101A900080935F038E8191E09093AE038093D00397
:101AA00081E00E94AD048823E1F28CE491E0DF91B3
:101AB000CF910C940A0D0E945F078885998597FD48
:101AC00005C061E0DF91CF910C94BD0384E791E004
:101AD000EECF85ED8093BC008091AA039091AB037B
:101AE000A091AC03B091AD030796A11DB11D23E0F9
:101AF000B695A795979587952A95D1F72091BC0023
:101B000024FD03C01092A80308954091AA035091A8
:101B1000AB036091AC037091AD03452B462B472B73
:101B200069F30097A105B10541F02AE22A95F1F782
:101B300000C00197A109B109E1CF8091A9030C94DC
:101B40009C03FF920F931F93CF93DF93EC01F62E2C
:101B500008811981C8010E94762AF81621F06F2D9C
:101B6000C8010E947E2ACE01DF91CF911F910F9173
:101B7000FF9008950F931F93CF93DF9300D0CDB7BD
:101B8000DEB78B019A838983FB016081CE010196C8
:101B90000E94A10DC8010F900F90DF91CF911F916E
:101BA0000F910895AF92BF92CF92DF92EF92FF9282
:101BB0000F931F93CF93DF9300D0CDB7DEB78B0188
:101BC0006B0124E0C20ED11C7B015C01A61AB70A8E
:101BD000C5018E0D9F1D9A838983F70161917F0155
:101BE000CE0101960E94A10DEC14FD0489F7C801F5
:101BF0000F900F90DF91CF911F910F91FF90EF9079
:101C0000DF90CF90BF90AF900895AF92BF92CF92E8
:101C1000DF92EF92FF920F931F93CF93DF9300D049
:101C2000CDB7DEB78B016B012CE0C20ED11C7B015E
:101C30005C01A61AB70AC5018E0D9F1D9A83898380
:101C4000F70161917F01CE0101960E94A10DEC1474
:101C5000FD0489F7C8010F900F90DF91CF911F917C
:101C60000F91FF90EF90DF90CF90BF90AF900895CD
:101C7000EF92FF920F931F93CF93DF9300D0CDB7D6
:101C8000DEB78C017B019A838983FB016081CE01E1
:101C900001960E94A10D0F5F1F4F1A830983F70160
:101CA0006181CE0101960E94A10DC7010F900F9096
:101CB000DF91CF911F910F91FF90EF900895CF93F7
:101CC000DF93EB010E94762A8883CE01DF91CF91CA
:101CD0000895CF92DF92EF92FF920F931F93CF93CD
:101CE000DF93EB017B0124E0E20EF11C8B016C0120
:101CF000C61AD70AC601800F911F0E94762AF801E2
:101D000081938F01EE15FF05A9F7CE01DF91CF91E9
:101D10001F910F91FF90EF90DF90CF900895CF9299
:101D2000DF92EF92FF920F931F93CF93DF93EB011C
:101D30007B012CE0E20EF11C8B016C01C61AD70A64
:101D4000C601800F911F0E94762AF80181938F01AE
:101D5000EE15FF05A9F7CE01DF91CF911F910F91ED
:101D6000FF90EF90DF90CF9008950C94762A4F92D9
:101D70005F926F927F928F929F92AF92BF92CF921B
:101D8000DF92EF92FF920F931F93CF93DF938C011B
:101D9000EB015A017901FC0182859385813091051F
:101DA000B1F0029709F40CC190E080E0DF91CF918F
:101DB0001F910F91FF90EF90DF90CF90BF90AF9069
:101DC0009F908F907F906F905F904F900895868145
:101DD00091E09093AE038093D0031092AF031092E2
:101DE000D1036B01A60EB71E4B018A149B0441F070
:101DF000F40161914F0183EE93E00E94EF01F5CF72
:101E000081E00E94AD04882321F087EB91E00E94DD
:101E10000A0DE114F10441F2F80106810E94EE037B
:101E20004B015C018091A803811169C01E2D113204
:101E300008F010E281E08093A8038093A7039FEF4E
:101E40009093A6031092A503910F9093A4038093FF
:101E5000830380918303000F082B009383038091F9
:101E60008203813009F088C0109282030E94EE0341
:101E70004B015C01809183038093BB008091AA0396
:101E80009091AB03A091AC03B091AD03892B8A2B49
:101E90008B2BA1F00E94EE034090AA035090AB035D
:101EA0006090AC037090AD03681979098A099B09A9
:101EB000461657066806790608F442C08091BC00B1
:101EC00083FDD8CF85EC8093BC000E94EE034B01CC
:101ED0005C018091A803813009F450C08091A50372
:101EE000811710F41091A503A4E8B3E0E8E1F3E052
:101EF00080E0811751F19D9191938F5FFACF80918E
:101F0000AA039091AB03A091AC03B091AD03892BD0
:101F10008A2B8B2B09F486CF0E94EE034090AA03F4
:101F20005090AB036090AC037090AD0368197909D1
:101F30008A099B09461657066806790608F072CF8B
:101F40008091A9030E949C0310E010923903109322
:101F50003803CE0DDF1D80913903181709F424CF03
:101F6000CC15DD0509F420CF83EE93E00E94A80193
:101F7000F60181936F01EFCF85EEA5CF8091AA0383
:101F80009091AB03A091AC03B091AD03892B8A2B48
:101F90008B2B09F49ECF0E94EE034090AA03509031
:101FA000AB036090AC037090AD03681979098A099E
:101FB0009B09461657066806790608F08ACFC0CFF7
:101FC000232B19F0888180688883F80180859185AA
:101FD00097FD03C060E00E9450036E01AC0EBD1E71
:101FE0004E01A814B90461F4CE0DDF1DCC15DD053A
:101FF00069F080E00E949D0BF60181936F01F6CF9E
:10200000F40181914F010E949D0BEBCFF801808577
:10201000918597FDC9CE61E00E945003C5CE1F9205
:102020000F920FB60F9211242F933F934F935F930C
:102030006F937F938F939F93AF93BF93EF93FF9390
:102040008091B900887F803609F44AC0F0F5883263
:1020500009F4A7C018F5803109F49BC0B8F48823AF
:1020600009F4F9C0883009F494C0FF91EF91BF9151
:10207000AF919F918F917F916F915F914F913F9120
:102080002F910F900FBE0F901F901895883109F473
:1020900088C0803251F78093A60314C0803409F4BD
:1020A0009DC040F48033B9F38833F9F68093A603DA
:1020B00085ECB0C0803509F485C0883509F496C038
:1020C000883499F60E94690DD0CF883909F48CC004
:1020D00038F5883729F050F4883611F0803729F622
:1020E00083E08093A8031092810357C0883809F4D5
:1020F0007BC0803919F0803809F0B7CF8091810317
:10210000803208F071C0E091810381E08E0F8093EE
:1021100081038091BB00F0E0EF59FC4F80833DC00C
:10212000803B39F0E0F4803A09F479C0883A09F04C
:102130009CCF84E08093A80310925E0310925D030D
:10214000E0915B03F0915C03099580915D0381113F
:102150000FC081E080935D0310923B0309C0803C77
:1021600009F4A6CF883C09F4A3CF883B09F07DCFC2
:10217000E0915E0381E08E0F80935E03F0E0E55C0A
:10218000FC4F80818093BB0090915E0380915D0342
:1021900029C0809183038093BB0085EC8093BC00B1
:1021A00064CF9091A5038091A403981758F5E0910E
:1021B000A50381E08E0F8093A503F0E0EC57FC4F60
:1021C0008081E9CFE091A50381E08E0F8093A50384
:1021D0008091BB00F0E0EC57FC4F80839091A50309
:1021E0008091A4039817C8F285E8D8CFE091A503A1
:1021F00081E08E0F8093A5038091BB00F0E0EC5747
:10220000FC4F80838091A70381115CCF81E0809394
:10221000820384EA8093BC001092A80326CF85EC49
:102220008093BC001092A80380918103803230F427
:10223000E0918103F0E0EF59FC4F1082609181033F
:1022400070E0E0915F03F091600381E693E009950F
:10225000109281030ACF1092A60334CF1F920F92DF
:102260000FB60F9211242F933F938F939F93AF93A9
:10227000BF938091100390911103A0911203B0912C
:10228000130330910F0323E0230F2D3758F50196E8
:10229000A11DB11D20930F03809310039093110390
:1022A000A0931203B093130380911403909115032C
:1022B000A0911603B09117030196A11DB11D809343
:1022C000140390931503A0931603B0931703BF91C3
:1022D000AF919F918F913F912F910F900FBE0F90D3
:1022E0001F90189526E8230F0296A11DB11DD2CF8D
:1022F0001F920F920FB60F9211242F933F934F937B
:102300005F936F937F938F939F93AF93BF93EF935D
:10231000FF93E0910201F09103010995FF91EF9184
:10232000BF91AF919F918F917F916F915F914F91ED
:102330003F912F910F900FBE0F901F9018951F92F5
:102340000F920FB60F9211242F933F934F935F93E9
:102350006F937F938F939F93AF93BF93EF93FF936D
:10236000E0910001F09101010995FF91EF91BF917A
:10237000AF919F918F917F916F915F914F913F911D
:102380002F910F900FBE0F901F9018951F920F92D4
:102390000FB60F9211242F933F934F935F936F9338
:1023A0007F938F939F93AF93BF93EF93FF938FEEA2
:1023B00093E00E945B02FF91EF91BF91AF919F91DB
:1023C0008F917F916F915F914F913F912F910F90DE
:1023D0000FBE0F901F9018951F920F920FB60F927D
:1023E00011242F938F939F93EF93FF93E091FF031B
:1023F000F09100048081E0910504F091060482FDD3
:102400001BC09081809108048F5F8F732091090415
:10241000821741F0E0910804F0E0E151FC4F958F04
:1024200080930804FF91EF919F918F912F910F90CE
:102430000FBE0F901F9018958081F4CFCF92DF923E
:10244000EF92FF920F931F93CF93DF93E3EEF3E0AE
:102450001382128288EE93E0A0E0B0E0848395833B
:10246000A683B7832FE131E031832083EFEEF3E0E1
:102470001382128284839583A683B78381E391E0DC
:102480009183808385EC90E09587848784EC90E04D
:102490009787868780EC90E0918B808B81EC90E031
:1024A000938B828B82EC90E0958B848B86EC90E012
:1024B000978B868B118E128E138E148EECE8F4E0BF
:1024C00083E491E0918380830FEF1FEF15830483F2
:1024D0001783068311870087C5EDD4E0188219821F
:1024E0001A821B8281E08C838FEF8D831E821F8274
:1024F000188619861B861A861D861C8661E086E072
:102500000E94BD03EAE8F1E0E491F0E0EE0FFF1F66
:10251000E658FE4F859194919F878E87ECE6F1E017
:10252000E491EA8B61E087E00E94BD03EBE8F1E013
:10253000E491F0E0EE0FFF1FE658FE4F8591949175
:10254000998B888BEDE6F1E0E491EB8B88E08D834D
:1025500061E00E94BD0380E197E2A0E0B0E08C8BD7
:102560009D8BAE8BBF8B88E99AE3998F888F1A8EEB
:102570001B8E1C8E1D8E9F8F8E8F18A219A21AA2E1
:102580001BA21CA21DA21EA21FA218A61DA61EA64B
:102590001FA618AA19AA1AAA1BAA1CAA1DAA1EAA13
:1025A0001FAA18AE19AE1AAE1BAE1CAE1DAE1EAEE3
:1025B0001092140510921505109216051092170529
:1025C00080E090E0A6E9B3E48093180590931905A4
:1025D000A0931A05B0931B0510921C0510921D05BF
:1025E00010921E0510921F0520E2C22E25E0D22E69
:1025F000F6011182108232E2E32E35E0F32EF7016C
:1026000010821182128213821092270510922605E1
:10261000BC01CD010E94F7008CE291E0F6019183AC
:1026200080838EE094E7AAEDBAE3F701808391837B
:10263000A283B38382E599E4ADE9B9E38A8F9B8FE6
:10264000AC8FBD8F84EE98E3AEE8B1E489A79AA77A
:10265000ABA7BCA7C6ECD4E01B830A838AE090E05A
:102660009D838C8349E050E06AEF70E08CEC94E04D
:102670000E946D2A198308838CE390E090931301E4
:1026800080931201109298041092990410929A0467
:1026900010929B041092C5041092BE041092B704CD
:1026A0001092B0041092A9041092A204DF91CF916D
:1026B0001F910F91FF90EF90DF90CF900895CF93EF
:1026C000DF93CDB7DEB7C855D1090FB6F894DEBF9A
:1026D0000FBECDBF789484B5826084BD84B581601F
:1026E00084BD85B5826085BD85B5816085BD8091DD
:1026F0006E00816080936E00109281008091810055
:10270000826080938100809181008160809381004C
:10271000809180008160809380008091B10084600E
:102720008093B1008091B00081608093B00080916F
:102730007A00846080937A0080917A00826080932E
:102740007A0080917A00816080937A0080917A008B
:10275000806880937A001092C10062E08EE00E944F
:10276000BD0362E08FE00E94BD0362E080E10E9451
:10277000BD0362E081E10E94BD0361E083E10E944C
:10278000BD0361E08AE00E94BD0360E08AE00E9430
:10279000500362E370E080E090E00E949D0561E0FC
:1027A0008AE00E9450036AE070E080E090E00E94BE
:1027B0009D050E945F0780916902882369F08FB7A9
:1027C000F89490916902913009F06DC29DB3909395
:1027D00068029DB39DBB8FBF83E58CBD1DBC60E0CF
:1027E0008AE00E9450038FEF0E949D0B80E00E94C0
:1027F0009D0B83E290E00197F1F78EE70E949D0B1D
:1028000086EB0E949D0B61E08AE00E94500361E02C
:1028100070E080E090E00E949D0560E08AE00E9408
:10282000500380E80E949D0B80E00E949D0B182FB2
:1028300061E08AE00E94500361E070E080E090E097
:102840000E949D0580916902882359F09FB7F894F2
:102850002091690280916802213009F027C28DBB66
:102860009FBF9FB7F89480916A02882319F0815026
:1028700080936A0280916A02811105C08CB58F7BBA
:102880008CBD109269029FBF113D39F04AE066E4A9
:1028900070E080E090E00E94CF0581E080930E031D
:1028A00082E090E090939704809396048AE090E011
:1028B0009093950480939404109291041092900444
:1028C0008CE894E00E94270D8FE7898321E030E0B7
:1028D00041E050E0BE016F5F7F4F8CE894E00E94C2
:1028E000AA0646EB6EE78CE894E00E94180761E0C8
:1028F00070E080E090E00E949D056FE78CE894E036
:102900000E94F50661E070E080E090E00E949D0585
:1029100041E16EE78CE894E00E94180761E070E006
:1029200080E090E00E949D0563E08CE894E00E94C6
:10293000F50690E014E0959587951A95E1F7837078
:10294000813061F745E16EE78CE894E00E9418075A
:1029500061E070E080E090E00E949D0563E08CE81B
:1029600094E00E94F50690E095958795959587955A
:10297000082F0370F02E11E00113EACF03E010E0FE
:1029800030E020E043E063E48CE894E00E9430070C
:1029900004E010E030E020E043E061E48CE894E003
:1029A0000E9430074FEF65E58CE894E00E9418071D
:1029B00040EF66E58CE894E00E94180740E067E588
:1029C0008CE894E00E94180760E08CE894E00E9494
:1029D000F50630E020E046E060E48CE894E00E94F8
:1029E000300730E020E043E061E48CE894E00E94AE
:1029F000300703E010E024E030E040E060E48CE8E1
:102A000094E00E94300704E010E030E020E046E06F
:102A100062E48CE894E00E94300703E010E030E0CC
:102A200020E043E063E48CE894E00E94300702E099
:102A300010E024E030E040E062E48CE894E00E94A2
:102A4000300790911101892F8F25809313059923C9
:102A500009F42EC10E941304109221051092200542
:102A6000109222051092230510922405109225053C
:102A70001092EF041092F0041092F1041092F204FC
:102A800060E070E088EC94E40E94F70085ED94E04B
:102A90000E94EE071092C7041092C6041092980488
:102AA0001092990410929A0410929B0410926C0256
:102AB00010926B0284EA9BE09093010180930001E5
:102AC000809169008C7F816080936900E89A6DE94C
:102AD00072E090E080E00E948F0E61E972E08CE08D
:102AE00090E00E948F0E65E872E088E190E00E941D
:102AF0008F0E81E10E942703892B09F0F4C080E149
:102B00000E942703892B09F4EEC081E08093020321
:102B10000E940E066D837E838F8398870E940E0627
:102B20004B015C0183E08093FD02412C512C32016A
:102B3000C12CD12C760110E0312C0E940E062D8183
:102B40003E814F815885621B730B840B950B60335C
:102B500075478105910508F0B0C01111AEC0809194
:102B6000FD020E941A0681E10E942703892B09F4C5
:102B7000FCC081E10E942703892BE9F52090020324
:102B80002220C9F10E940E062091FE023091FF0220
:102B90004091000350910103621B730B840B950B52
:102BA000693873418105910530F1109202030E944A
:102BB0000E066093FE027093FF02809300039093D1
:102BC000010361E083E10E94500310E000E01A82FB
:102BD0001982BE016F5F7F4FC8010E94380E0F5FE0
:102BE0001F4F0432110599F768EB7BE080E090E01D
:102BF0000E949D05122D81E10E942703892B19F166
:102C0000809102038823F9F00E940E062091FE02B3
:102C10003091FF024091000350910103621B730B3E
:102C2000840B950B653671058105910560F0109256
:102C300002030E940E066093FE027093FF028093CF
:102C40000003909301030E940E06681979098A090E
:102C50009B09693771058105910508F46ECF0E94C3
:102C60000E064B015C018091980490919904A0910B
:102C70009A04B0919B04892B8A2B8B2B59F081E00D
:102C8000381609F4B3C0381608F495C092E0391626
:102C900009F4D5C0109298041092990410929A04E5
:102CA00010929B044ACF8093680296CD8FBFD9CDF6
:102CB00085ED94E00E94EE07CFCE60E083E10E94B4
:102CC00050036DE972E090E080E00E948F0E61E9B0
:102CD00072E08CE090E00E948F0E65E872E088E17F
:102CE00090E00E948F0E81E10E94270310910E0355
:102CF000892B09F098C380E10E942703892B09F0F2
:102D000092C3112309F48FC381E10E942703892B09
:102D100009F453C14AE064EF71E080E090E00E9462
:102D2000CF0561E083E10E94500368EE73E080E02C
:102D300090E00E949D0540E469E68CE894E00E94E2
:102D4000180743E06EE78CE894E00E9418076BE1F7
:102D50008CE894E00E94F50683FD39C161E070E0E3
:102D600080E090E00E949D05F2CF809102038111E6
:102D700000CF0E940E062091FE023091FF0240918A
:102D8000000350910103621B730B840B950B653696
:102D900071058105910508F4ECCE41E040930203F2
:102DA0000E940E066093FE027093FF028093000360
:102DB00090930103DECE6091980470919904809104
:102DC0009A0490919B040E94650B882309F462CFBA
:102DD000C0909804D0909904E0909A04F0909B04DD
:102DE000A4E0A093FD023324339454CF609198045F
:102DF0007091990480919A0490919B040E94650BB4
:102E0000882309F447CF8091980490919904A09168
:102E10009A04B0919B048C159D05AE05BF0509F47D
:102E200039CF409098045090990460909A04709023
:102E30009B04B5E0B093FD02A2E03A2E2BCF609147
:102E400098047091990480919A0490919B040E9437
:102E5000650B082F882309F41DCF80919804909169
:102E60009904A0919A04B0919B048C159D05AE0520
:102E7000BF0509F40FCF8091980490919904A09117
:102E80009A04B0919B0484159505A605B70509F42D
:102E900001CF8091980490919904A0919A04B091E7
:102EA0009B044091A1025091A2026091A3027091F3
:102EB000A4024093A5025093A6026093A7027093C8
:102EC000A8024091950250919602609197027091EC
:102ED00098024093990250939A0260939B027093D8
:102EE0009C024091890250918A0260918B027091FC
:102EF0008C0240938D0250938E0260938F027093E8
:102F0000900240919D0250919E0260919F027091AB
:102F1000A0024093A1025093A2026093A302709377
:102F2000A40240919102509192026091930270919B
:102F30009402409395025093960260939702709387
:102F400098024091850250918602609187027091AB
:102F500088024093890250938A0260938B02709397
:102F60008C02C0929D02D0929E02E0929F02F0924B
:102F7000A00240929102509292026092930270924B
:102F800094028093850290938602A0938702B09367
:102F900088026DE972E090E080E00E94050E61E930
:102FA00072E08CE090E00E94050E65E872E088E136
:102FB00090E00E94050E102F6DCE80E10E94270345
:102FC000892B09F0A7CE86E00E941A069DCE01E06B
:102FD00010E027E030E041E067E78CE894E00E94F1
:102FE000300740E369E68CE894E00E94180743E06C
:102FF0006EE78CE894E00E9418070E94090726E01B
:1030000030E041E067E78CE894E00E9430074CE054
:1030100069E68CE894E00E94180743E06EE78CE8CC
:1030200094E00E9418070E94090726E030E041E082
:1030300067E78CE894E00E94300741E069E68CE89D
:1030400094E00E94180743E06EE78CE894E00E9449
:1030500018070E94090726E030E041E067E78CE8A6
:1030600094E00E94300702E310E00E94B10668E29B
:1030700070E080E090E00E949D0501501109A9F7E1
:1030800004E610E01D821E821F8218861D861E86A1
:103090001F86188A198A1A8A1B8A1C8A19861A8618
:1030A0001B861C86412C512C3201812C912C540101
:1030B0000E94B1068091DC039091DD03092E000C83
:1030C000AA0BBB0B880E991EAA1EBB1E8091DA03A9
:1030D0009091DB03092E000CAA0BBB0B480E591E66
:1030E0006A1E7B1E8091D8039091D9039054092EBB
:1030F000000CAA0BBB0B29853A854B855C85280FF4
:10310000391F4A1F5B1F29873A874B875C8780914D
:10311000D6039091D703092E000CAA0BBB0B29896B
:103120003A894B895C89280F391F4A1F5B1F298BFD
:103130003A8B4B8B5C8B8091D4039091D503092EF5
:10314000000CAA0BBB0B2D853E854F855889280F97
:10315000391F4A1F5B1F2D873E874F87588B8091F1
:10316000D2039091D303092E000CAA0BBB0B2D8127
:103170003E814F815885280F391F4A1F5B1F2D83C1
:103180003E834F83588768E270E080E090E00E94C1
:103190009D050150110909F08BCFF4E6CF2ED12CFB
:1031A000E12CF12CC501B401A70196010E948C2AE3
:1031B0002093DA02C301B201A70196010E948C2A72
:1031C0002093D90269857A858B859C85A701960114
:1031D0000E948C2A2093D80269897A898B899C89DC
:1031E000A70196010E948C2A2093D7026D857E85C7
:1031F0008F859889A70196010E948C2A2093D60278
:103200006D817E818F819885A70196010E948C2A0D
:103210002093D50261E78CE894E00E94F506682FC0
:10322000880F770B880B990B0E94B92C2AE939E992
:1032300049E750E40E94D12D69837A838B839C8374
:10324000BE016F5F7F4F84E290E00E94D20D62E783
:103250008CE894E00E94F506682F880F770B880BA6
:10326000990B0E94B92C2AE939E949E750E40E94F8
:10327000D12D69837A838B839C83BE016F5F7F4FDF
:1032800088E290E00E94D20D63E78CE894E00E940F
:10329000F506682F880F770B880B990B0E94B92CC5
:1032A0002AE939E949E750E40E94D12D69837A83FC
:1032B0008B839C83BE016F5F7F4F8CE290E00E9406
:1032C000D20D64E78CE894E00E94F506082F10E028
:1032D00067E78CE894E00E94F5068370B801782BCC
:1032E00071FD7C6F072E000C880B990B0E94B92C86
:1032F00023E23BED49E75DE30E94D12D69837A83A8
:103300008B839C83BE016F5F7F4F80E390E00E94C0
:10331000D20D65E78CE894E00E94F506082F10E0D6
:1033200067E78CE894E00E94F50690E09595879514
:10333000959587958370B801782B71FD7C6F072E6A
:10334000000C880B990B0E94B92C23E23BED49E756
:103350005DE30E94D12D69837A838B839C83BE01B8
:103360006F5F7F4F84E390E00E94D20D66E78CE8A8
:1033700094E00E94F506082F10E067E78CE894E0DF
:103380000E94F50690E074E0959587957A95E1F7AF
:103390008370B801782B71FD7C6F072E000C880BB1
:1033A000990B0E94B92C23E23BED49E75DE30E94B3
:1033B000D12D69837A838B839C83BE016F5F7F4F9E
:1033C00088E390E00E94D20D6AED72E081E490E023
:1033D0000E94BA0D69ED72E082E490E00E94BA0D9D
:1033E00068ED72E083E490E00E94BA0D67ED72E050
:1033F00084E490E00E94BA0D66ED72E085E490E00E
:103400000E94BA0D65ED72E086E490E00E94BA0D6C
:1034100060E083E10E94500345E066E970E080E0EF
:1034200090E00E94CF0561E872E084E290E00E94A3
:10343000690E6DE772E088E290E00E94690E69E72C
:1034400072E08CE290E00E94690E65E772E080E332
:1034500090E00E94690E61E772E084E390E00E94D0
:10346000690E6DE672E088E390E00E94690E6AEDF5
:1034700072E081E490E00E945F0E69ED72E082E408
:1034800090E00E945F0E68ED72E083E490E00E949D
:103490005F0E67ED72E084E490E00E945F0E66EDDF
:1034A00072E085E490E00E945F0E65ED72E086E4D4
:1034B00090E00E945F0E80910E03882309F474C18E
:1034C0002AE939E949E750E460918102709182026A
:1034D00080918302909184020E940F2C0E94812C83
:1034E0006038710514F06FE770E060383FEF7307E4
:1034F00014F460E87FEF462F61E78CE894E00E94C7
:10350000180782E1898322E030E041E050E0BE010B
:103510006F5F7F4F8CE894E00E94AA0601E010E004
:1035200026E030E041E067E78CE894E00E94300755
:103530002AE939E949E750E460917D0270917E0201
:1035400080917F02909180020E940F2C0E94812C1A
:103550006038710514F06FE770E060384FEF740762
:1035600014F460E87FEF462F62E78CE894E00E9455
:10357000180784E1898322E030E041E050E0BE0199
:103580006F5F7F4F8CE894E00E94AA0601E010E094
:1035900026E030E041E067E78CE894E00E943007E5
:1035A0002AE939E949E750E46091790270917A0299
:1035B00080917B0290917C020E940F2C0E94812CB2
:1035C0006038710514F06FE770E060385FEF7507E1
:1035D00014F460E87FEF462F63E78CE894E00E94E4
:1035E000180786E1898322E030E041E050E0BE0127
:1035F0006F5F7F4F8CE894E00E94AA0601E010E024
:1036000026E030E041E067E78CE894E00E94300774
:1036100023E23BED49E75DE360917502709176022C
:1036200080917702909178020E940F2C0E94812C49
:10363000611582E0780714F06FEF71E07B0161158E
:103640007E4F1CF4E12C6EEFF62E4E2D64E78CE8D5
:1036500094E00E94180702E010E030E020E04F2DD7
:1036600067E78CE894E00E9430078CE0898322E0D1
:1036700030E041E050E0BE016F5F7F4F8CE894E0A6
:103680000E94AA0601E010E027E030E041E067E791
:103690008CE894E00E94300723E23BED49E75DE3CC
:1036A0006091710270917202809173029091740224
:1036B0000E940F2C0E94812C6115A2E07A0714F061
:1036C0006FEF71E07B0161157E4F1CF4E12C5EEF22
:1036D000F52E4E2D65E78CE894E00E94180702E075
:1036E00010E022E030E04F2D67E78CE894E00E9484
:1036F00030078EE0898322E030E041E050E0BE01F7
:103700006F5F7F4F8CE894E00E94AA0601E010E012
:1037100027E030E041E067E78CE894E00E94300762
:1037200023E23BED49E75DE360916D0270916E022B
:1037300080916F02909170020E940F2C0E94812C48
:10374000611502E0700714F06FEF71E07B01611505
:103750007E4F1CF4E12C4EEFF42E4E2D66E78CE8E4
:1037600094E00E94180702E010E024E030E04F2DC2
:1037700067E78CE894E00E94300780E1898322E0CB
:1037800030E041E050E0BE016F5F7F4F8CE894E095
:103790000E94AA0601E010E027E030E041E067E780
:1037A0008CE894E00E94300780910E03882311F486
:1037B0000C9403268CE390E00E94B50E91E08111F9
:1037C00001C090E09093070380911101909107034D
:1037D000992311F0811182E08093FD028DE390E046
:1037E0000E94B50E833011F00C94072683E290E01E
:1037F000A0E0B0E080930C0190930D01A0930E0126
:10380000B0930F013324339432E0232E0E9410082A
:103810000E940E060091A9021091AA022091AB020B
:103820003091AC02601B710B820B930B67397105F1
:103830008105910508F441C00E940E066093A9021B
:103840007093AA028093AB029093AC02809198048B
:1038500090919904A0919A04B0919B04892B8A2B92
:103860008B2B11F40C944A26EDE9F2E085E892E006
:1038700021E9E22E22E0F22E409198045091990421
:1038800060919A0470919B04019111912191319161
:10389000041715072607370711F00C940D263092F0
:1038A000F4021092F2021092F10210929804109217
:1038B000990410929A0410929B0480910E0388231D
:1038C00011F40C94FF24C090DF02D090E002E0904D
:1038D000E102F090E2020E940E0697018601085D67
:1038E0001F4F2F4F3F4F061717072807390710F0B4
:1038F0000C94FF240E940E066C197D098E099F0905
:103900000E94B72C6093DB027093DC028093DD028F
:103910009093DE020E940E066093DF027093E00235
:103920008093E1029093E2020E94B1068091DA0254
:103930006091DC037091DD03681B710987FD73954D
:103940008FEB94E00E94320BBC01990F880B990B0E
:103950000E94B92C698B7A8B8B8B9C8B8091D902BE
:103960006091DA037091DB03681B710987FD739521
:1039700088EB94E00E94320BBC01990F880B990BE5
:103980000E94B92C6D8B7E8B8F8B988F8091D80283
:103990006091D8037091D903681B710987FD7395F5
:1039A00081EB94E00E94320BBC01990F880B990BBC
:1039B0000E94B92C698F7A8F8B8F9C8F8091D70250
:1039C0006091D6037091D703681B710987FD7395C9
:1039D0008AEA94E00E94320B8C018091D6026091B9
:1039E000D4037091D503681B710987FD739583EA31
:1039F00094E00E94320B7C018091D5026091D20349
:103A00007091D303681B710987FD73958CE994E06D
:103A10000E94320B6C012091D7028091D6039091C5
:103A2000D703821B910927FD93950396079710F4FE
:103A30000C945226B801110F880B990B0E94B92CD7
:103A400025E33AEF4EE85CE30E94D12D20E030E020
:103A500043E053E40E940F2C6D837E838F8398870D
:103A60002091D6028091D4039091D503821B9109B5
:103A700027FD93950396079710F40C945826B701E9
:103A8000FF0C880B990B0E94B92C25E33AEF4EE806
:103A90005CE30E94D12D20E030E043E053E40E943B
:103AA0000F2C69877A878B879C872091D50280911C
:103AB000D2039091D303821B910927FD939503961E
:103AC000079710F40C945E26B601DD0C880B990B59
:103AD0000E94B92C25E33AEF4EE85CE30E94D12D19
:103AE00020E030E043E053E40E940F2C6D877E8796
:103AF0008F87988B20E030E04AE754E46091DB0246
:103B00007091DC028091DD029091DE020E940F2C08
:103B10006D8F7E8F8F8F98A36091C1027091C202CA
:103B20008091C3029091C4024090BD025090BE02A9
:103B30006090BF027090C002C090B902D090BA02EB
:103B4000E090BB02F090BC0290582D813E814F81E5
:103B500058850E94D12D4B015C01A301920169851A
:103B60007A858B859C850E94D12D9B01AC01C50176
:103B7000B4010E94102B4B015C01A70196016D85D9
:103B80007E858F8598890E94D12D9B01AC01C5014E
:103B9000B4010E94102B20E030E040E05FE30E947F
:103BA000D12D69A37AA38BA39CA320910801309106
:103BB000090140910A0150910B014090BD025090C3
:103BC000BE026090BF027090C002C090B902D09057
:103BD000BA02E090BB02F090BC026D817E818F81C1
:103BE00098850E94D12D4B015C01A30192016D8546
:103BF0007E858F8598890E94D12D9B01AC01C501DE
:103C0000B4010E94112B4B015C01A701960169854B
:103C10007A858B859C850E94D12D9B01AC01C501C5
:103C2000B4010E94102B20E030E040E05FE30E94EE
:103C3000D12D6DA37EA38FA398A720910801309169
:103C4000090140910A0150910B014090C10250902E
:103C5000C2026090C3027090C402C090B902D090BA
:103C6000BA02E090BB02F090BC0269857A858B8530
:103C70009C850E94D12D4B015C01A30192016D85B1
:103C80007E858F8598890E94D12D9B01AC01C5014D
:103C9000B4010E94102B4B015C01A70196016D81BC
:103CA0007E818F8198850E94D12D9B01AC01C50139
:103CB000B4010E94112B20E030E040E05FE30E945D
:103CC000D12D69A77AA78BA79CA7209108013091D5
:103CD000090140910A0150910B018090C10290901E
:103CE000C202A090C302B090C402C090BD02D090A6
:103CF000BE02E090BF02F090C0026D857E858F8588
:103D000098890E94D12D2B013C01A5019401698560
:103D10007A858B859C850E94D12D9B01AC01C301C6
:103D2000B2010E94112B4B015C01A70196016D812C
:103D30007E818F8198850E94D12D9B01AC01C501A8
:103D4000B4010E94102B20E030E040E05FE30E94CD
:103D5000D12D6DA77EA78FA798AB20E030E0A901F9
:103D600069897A898B899C890E940A2C811117C0E4
:103D700020E030E0A9016D897E898F89988D0E94AD
:103D80000A2C81110CC020E030E0A901698D7A8DE8
:103D90008B8D9C8D0E940A2C882309F4D0C329891D
:103DA0003A894B895C89CA01B9010E94D12D6B0106
:103DB0007C012D893E894F89588DCA01B9010E9425
:103DC000D12D9B01AC01C701B6010E94112B6B01E3
:103DD0007C01298D3A8D4B8D5C8DCA01B9010E9401
:103DE000D12D9B01AC01C701B6010E94112B0E948D
:103DF00095076B017C01AC019B0169897A898B89EC
:103E00009C890E94D12D6D837E838F839887A70123
:103E100096016D897E898F89988D0E94D12D2B0105
:103E20003C01A7019601698D7A8D8B8D9C8D0E9436
:103E3000D12D6DAB7EAB8FAB98AF609108017091C7
:103E4000090180910A0190910B019B01AC010E9434
:103E5000112B69AF7AAF8BAF9CAF6091C1027091AB
:103E6000C2028091C3029091C4029B01AC010E94E6
:103E7000112B21966CAF7DAF8EAF9FAF21976091D4
:103E8000BD027091BE028091BF029091C0029B0161
:103E9000AC010E94112B25966CAF7DAF8EAF9FAF0A
:103EA00025976091B9027091BA028091BB029091FE
:103EB000BC029B01AC010E94112B29966CAF7DAF17
:103EC0008EAF9FAF29976091080170910901809191
:103ED0000A0190910B0120E030E040E850E40E949C
:103EE000D12D6B017C016091C1027091C202809161
:103EF000C3029091C40220E030E040E850E40E9408
:103F0000D12D698B7A8B8B8B9C8B6091BD027091CC
:103F1000BE028091BF029091C00220E030E040E8F4
:103F200050E40E94D12D6D8B7E8B8F8B988F60918A
:103F3000C1027091C2028091C3029091C40220E03C
:103F400030E040E051E40E94D12D2D966CAF7DAF62
:103F50008EAF9FAF2D976091BD027091BE02809190
:103F6000BF029091C00220E030E040E051E40E94A6
:103F7000D12D61966CAF7DAF8EAF9FAF61972091D1
:103F800008013091090140910A0150910B0129ABC0
:103F90003AAB4BAB5CAB8091080190910901A091C9
:103FA0000A01B0910B0169968CAF9DAFAEAFBFAF68
:103FB00069976091C1027091C2028091C302909191
:103FC000C4022091C1023091C2024091C3025091BB
:103FD000C4020E94D12D69877A878B879C87609164
:103FE000BD027091BE028091BF029091C0022091EB
:103FF000BD023091BE024091BF025091C0020E94AA
:10400000D12D6D877E878F87988B6091B9027091D3
:10401000BA028091BB029091BC022091B90230910A
:10402000BA024091BB025091BC020E94D12D65960C
:104030006CAF7DAF8EAF9FAF65972D853E854F8569
:104040005889C701B6010E94D12D4B015C0125960C
:104050002CAD3DAD4EAD5FAD25976D817E818F81DD
:1040600098850E94D12D9B01AC01C501B4010E942D
:10407000112B4B015C0129853A854B855C85C70175
:10408000B6010E94D12D9B01AC01C501B4010E9473
:10409000112B6B017C0121962CAD3DAD4EAD5FAD7A
:1040A0002197C301B2010E94D12D9B01AC01C70130
:1040B000B6010E94102B698F7A8F8B8F9C8F699627
:1040C0002CAD3DAD4EAD5FAD699769A97AA98BA9BD
:1040D0009CA90E94D12D20E030E040E850E40E94ED
:1040E000D12D6B017C010091C1021091C20220917F
:1040F000C3023091C40209AB1AAB2BAB3CAB659643
:104100002CAD3DAD4EAD5FAD659769897A898B89E0
:104110009C890E94D12D4B015C0129962CAD3DADAF
:104120004EAD5FAD29976D817E818F8198850E940C
:10413000D12D9B01AC01C501B4010E94102B4B0194
:104140005C0129A93AA94BA95CA9C701B6010E9443
:10415000D12D9B01AC01C501B4010E94112B4B0173
:104160005C0129AD3AAD4BAD5CADC301B2010E941B
:10417000D12D9B01AC01C501B4010E94102B2989EE
:104180003A894B895C890E94102B4B015C0129857F
:104190003A854B855C852D966CAD7DAD8EAD9FAD22
:1041A0002D970E94D12D9B01AC01C501B4010E9445
:1041B000112B4B015C012D853E854F8558892D962D
:1041C0006CAD7DAD8EAD9FAD2D970E94D12D9B0125
:1041D000AC01C501B4010E94112B4B015C0129897E
:1041E0003A894B895C896DA97EA98FA998AD0E94F7
:1041F000D12D9B01AC01C501B4010E94112B698B2B
:104200007A8B8B8B9C8B2091BD023091BE024091AA
:10421000BF025091C002C701B6010E94D12D6B01AF
:104220007C0129AD3AAD4BAD5CAD6D817E818F8156
:1042300098850E94D12D9B01AC01C701B6010E9457
:10424000112B6B017C0165962CAD3DAD4EAD5FAD84
:1042500065976D897E898F89988D0E94D12D9B01EC
:10426000AC01C701B6010E94112B6B017C0129969C
:104270002CAD3DAD4EAD5FAD2997C301B2010E949B
:10428000D12D9B01AC01C701B6010E94102B2D89D5
:104290003E894F89588D0E94102B6B017C01298526
:1042A0003A854B855C8561966CAD7DAD8EAD9FADDD
:1042B00061970E94D12D9B01AC01C701B6010E94FC
:1042C000112B6B017C012D853E854F8558896196A8
:1042D0006CAD7DAD8EAD9FAD61970E94D12D9B01E0
:1042E000AC01C701B6010E94112B6B017C012D8925
:1042F0003E894F89588D6DA97EA98FA998AD0E94DE
:10430000D12D9B01AC01C701B6010E94112B6D8B11
:104310007E8B8F8B988FC090B902D090BA02E090BC
:10432000BB02F090BC028090B9029090BA02A090BB
:10433000BB02B090BC0220E030E040E850E4698568
:104340007A858B859C850E94D12DA70196010E94BC
:10435000D12D6B017C0121962CAD3DAD4EAD5FADF5
:1043600021976D817E818F8198850E94D12D9B013F
:10437000AC01C701B6010E94102B6B017C0120E04B
:1043800030E040E850E46D857E858F8598890E94F5
:10439000D12DA50194010E94D12D9B01AC01C70133
:1043A000B6010E94112B6B017C0125962CAD3DAD11
:1043B0004EAD5FAD2597C301B2010E94D12D9B0187
:1043C000AC01C701B6010E94102B4B015C01298D85
:1043D0003A8D4B8D5C8DCA01B9010E94D12D6B01C4
:1043E0007C0129893A894B895C89CA01B9010E94FB
:1043F000D12D9B01AC01C701B6010E94112B6B01AD
:104400007C012D893E894F89588DCA01B9010E94CE
:10441000D12D9B01AC01C701B6010E94112B6B018C
:104420007C01A5019401C501B4010E94D12D9B011D
:10443000AC01C701B6010E94112B0E9495076B01C8
:104440007C0140900401509005016090060170903D
:104450000701AC019B01698D7A8D8B8D9C8D0E942B
:10446000D12DA30192010E94D12D9B01AC0169A124
:104470007AA18BA19CA10E94102B69A37AA38BA384
:104480009CA340900401509005016090060170903B
:104490000701A701960169897A898B899C890E9405
:1044A000D12DA30192010E94D12D9B01AC016DA1E0
:1044B0007EA18FA198A50E94102B6DA37EA38FA330
:1044C00098A74090040150900501609006017090FB
:1044D0000701A70196016D897E898F89988D0E94B9
:1044E000D12DA30192010E94D12D9B01AC0169A5A0
:1044F0007AA58BA59CA50E94102B69A77AA78BA7EC
:104500009CA74090040150900501609006017090B6
:104510000701A7019601C501B4010E94D12DA30195
:1045200092010E94D12D9B01AC016DA57EA58FA5A6
:1045300098A90E94102B6DA77EA78FA798ABC0905B
:104540000801D0900901E0900A01F0900B0129A127
:104550003AA14BA15CA16D8D7E8D8F8D98A10E949B
:10456000D12DA70196010E94112B60930801709331
:10457000090180930A0190930B01C090C102D09071
:10458000C202E090C302F090C4022DA13EA14FA14F
:1045900058A56D8D7E8D8F8D98A10E94D12DA7017C
:1045A00096010E94112B6093C1027093C202809306
:1045B000C3029093C402C090BD02D090BE02E090AE
:1045C000BF02F090C00229A53AA54BA55CA56D8D50
:1045D0007E8D8F8D98A10E94D12DA70196010E94FA
:1045E000112B6093BD027093BE028093BF02909323
:1045F000C002C090B902D090BA02E090BB02F09025
:10460000BC022DA53EA54FA558A96D8D7E8D8F8D21
:1046100098A10E94D12DA70196010E94112B6093B1
:10462000B9027093BA028093BB029093BC0260916E
:1046300008017091090180910A0190910B0120916C
:1046400008013091090140910A0150910B018090BD
:10465000C1029090C202A090C302B090C4024090E8
:10466000C1025090C2026090C3027090C402E090F8
:10467000BD02F090BE020091BF021091C002ED8217
:10468000FE820F831887E090BD02F090BE02009179
:10469000BF021091C002E986FA860B871C87E09062
:1046A000B902F090BA020091BB021091BC02ED86F3
:1046B000FE860F87188BE090B902F090BA02009145
:1046C000BB021091BC02E98AFA8A0B8B1C8B0E94F8
:1046D000D12D6B017C01A3019201C501B4010E949F
:1046E000D12D9B01AC01C701B6010E94112B6B01BA
:1046F0007C0129853A854B855C856D817E818F8122
:1047000098850E94D12D9B01AC01C701B6010E9482
:10471000112B6B017C0129893A894B895C896D8554
:104720007E858F8598890E94D12D9B01AC01C701A0
:10473000B6010E94112B0E9495076B017C0120910C
:1047400008013091090140910A0150910B010E942A
:10475000D12D609308017093090180930A01909311
:104760000B012091C1023091C2024091C3025091CD
:10477000C402C701B6010E94D12D6093C10270939B
:10478000C2028093C3029093C4022091BD02309173
:10479000BE024091BF025091C002C701B6010E9403
:1047A000D12D6093BD027093BE028093BF0290939F
:1047B000C0022091B9023091BA024091BB025091DF
:1047C000BC02C701B6010E94D12D6093B90270935B
:1047D000BA028093BB029093BC02E0900801F09073
:1047E000090100910A0110910B01ED82FE820F83F5
:1047F0001887E092C502F092C6020093C702109398
:10480000C8024090C1025090C2026090C3027090F2
:10481000C4024092C9025092CA026092CB027092C6
:10482000CC028090BD029090BE02A090BF02B090DA
:10483000C0028092CD029092CE02A092CF02B0929E
:10484000D002C090B902D090BA02E090BB02F090C2
:10485000BC02C092D102D092D202E092D302F09276
:10486000D402A5019401C501B4010E94D12D69872C
:104870007A878B879C87A3019201C301B2010E94B2
:10488000D12D29853A854B855C850E94112B9B0192
:10489000AC010E94112B9B01AC0160E070E080E84C
:1048A0009FE30E94102B6D877E878F87988BA701CF
:1048B0009601C501B4010E94D12D698B7A8B8B8B37
:1048C0009C8BA30192016D817E818F8198850E94CE
:1048D000D12D9B01AC0169897A898B899C890E94C1
:1048E000112B9B01AC010E94112B2D853E854F851C
:1048F00058890E94AB2B6093AD027093AE028093F7
:10490000AF029093B002A7019601C301B2010E94C9
:10491000D12D6D877E878F87988BA50194016D813E
:104920007E818F8198850E94D12D9B01AC016D8580
:104930007E858F8598890E94102B20E030E040E032
:1049400050EC0E94D12D0E947D2B6093B102709398
:10495000B2028093B3029093B402A7019601C701FB
:10496000B6010E94D12D29853A854B855C850E9430
:10497000112B9B01AC010E94112B9B01AC0160E04B
:1049800070E080E89FE30E94102B69877A878B870D
:104990009C87A5019401C301B2010E94D12D4B0156
:1049A0005C01A70196016D817E818F8198850E94AF
:1049B000D12D9B01AC01C501B4010E94112B9B01BB
:1049C000AC010E94112B29853A854B855C850E949C
:1049D000AB2B6093B5027093B6028093B7029093AD
:1049E000B80225E33AEF4EE85CE30E940F2C609397
:1049F000F9027093FA028093FB029093FC020E94EA
:104A00000E0600910A0310910B0320910C033091C4
:104A10000D03601B710B820B930B653671058105CD
:104A2000910508F47BC00E940E0660930A03709300
:104A30000B0380930C0390930D0397E4F92EF092EF
:104A40007C0080917A00806480937A0080917A0063
:104A500086FDFCCFA0917800B0917900B093090356
:104A6000A09308031091060380910703882339F06F
:104A700080911101882319F0112309F44FC02EE011
:104A800036E00E94032B2FEF33E040E050E00E941D
:104A90008C2ACA01B9016E5C7F4F8F4F9F4F0E94D5
:104AA000B92C0E94F7001123C9F1A0910803B0911D
:104AB000090380910403909105038D01081B190BD4
:104AC000C80117FF03C0919581959109069714F0CD
:104AD000309203038091030381110CC08EE390E0B8
:104AE0000E94762A89838FE390E00E94762A8A8347
:104AF000A981BA812EE036E00E94032B2FEF33E02C
:104B000040E050E00E948C2ACA01B9016E5C7F4FE0
:104B10008F4F9F4F0E94B92C0E94F70081E10E94A5
:104B20002703892BD1F480910203811116C0809153
:104B30000603811112C0309202030E940E06609398
:104B4000FE027093FF02809300039093010364E1DF
:104B500070E080E090E00E949D0581E10E942703C3
:104B6000892BD1F480910603811116C00E940E0694
:104B70000091FE021091FF02209100033091010389
:104B8000601B710B820B930B613D77408105910592
:104B900018F026E02093FD0281E10E942703892B73
:104BA00009F4B3C080910203882309F4AEC0809158
:104BB00006038111AAC0109202030E940E06009102
:104BC000FE021091FF022091000330910103601B4F
:104BD000710B820B930B613D77408105910520F0AD
:104BE00080910E03811170C08091110111E018278E
:104BF00010931101809313051111A9C185ED94E063
:104C00000E94EE07A6C1109207030C94E41B80E5F6
:104C100090E0A0E0B0E00C94FA1B40919804509111
:104C2000990460919A0470919B04D7010D911D9194
:104C30002D913D917D01041715072607370731F4A3
:104C40001092F4023092F2020C94531C409198049A
:104C50005091990460919A0470919B04DC010D912C
:104C60001D912D913D91CD0104171507260737079A
:104C700041F41092F4021092F2023092F1020C947C
:104C8000551C09EA12E00E171F0711F00C943C1C8A
:104C90000C94551C1092F4021092F2021092F10240
:104CA0000C945D1C1D821E821F8218860C94301D80
:104CB00019861A861B861C860C94551D1D861E8619
:104CC0001F86188A0C947A1D8CE390E00E94B50E22
:104CD00061E0811160E0609307038CE390E00E9443
:104CE0007E2A8CE390E00E94B50E91E0811101C014
:104CF00090E09093070390911101882309F424C157
:104D0000992309F421C12092FD028EE00E9427031D
:104D1000892B21F08091F402882369F18091F302BC
:104D2000811129C03092F30210920703809106038B
:104D3000882361F080910303882341F068E073E0E9
:104D40008EE390E00E94380E1092030380910603D8
:104D5000882309F41EC1109206030E94F507809172
:104D6000110141E084278093130564E170E080E045
:104D700090E00E949D058EE00E942703892B09F494
:104D800043C08091F40281113FC08091F2028111F1
:104D90003BC08091F102811137C08091F3028823DA
:104DA00099F11092F3028091060381112DC00E94A7
:104DB000F50780910E03882309F408C18CE390E085
:104DC0000E94B50E91E0811101C090E0909307031D
:104DD0008091110190910703992309F4FAC0882367
:104DE00009F4F7C02092FD028091F9029091FA0235
:104DF000A091FB02B091FC028093F5029093F60221
:104E0000A093F702B093F8028FE00E942703892B4A
:104E100021F08091F202882369F18091F0028111E2
:104E200029C03092F0021092070380910603882374
:104E300061F080910303882341F068E073E08EE322
:104E400090E00E94380E109203038091060388239D
:104E500009F4C2C0109206030E94F5078091110167
:104E600051E085278093130564E170E080E090E0D5
:104E70000E949D058FE00E942703892B09F443C0FF
:104E80008091F40281113FC08091F20281113BC0F8
:104E90008091F102811137C08091F002882399F14D
:104EA0001092F0028091060381112DC00E94F50737
:104EB00080910E03882309F4ACC08CE390E00E943B
:104EC000B50E91E0811101C090E0909307038091AD
:104ED000110190910703992309F49EC0882309F4D6
:104EE0009BC02092FD028091F9029091FA02A0915C
:104EF000FB02B091FC028093F5029093F602A0931E
:104F0000F702B093F8028EE00E942703892B09F480
:104F100086C080E10E942703892B09F486C0809116
:104F2000F102811182C08EE00E942703892B09F4CF
:104F3000D6C080E10E942703892B09F4D6C0809156
:104F4000F1028111D2C0E5C09093FD02DECE0E9435
:104F50001304109206030E94F5078091070388232B
:104F6000A9F0112399F02092FD028091F90290910D
:104F7000FA02A091FB02B091FC028093F50290939B
:104F8000F602A093F702B093F802BFCE1093FD0291
:104F9000ECCF10922105109220051092220510925C
:104FA000230510922405109225051092EF0410920B
:104FB000F0041092F1041092F20441E050E06FEF1F
:104FC00076EE8FEF9FEF0E943504CFCE109207034D
:104FD000FFCE8093FD0208CF10922105109220058C
:104FE0001092220510922305109224051092250597
:104FF0001092EF041092F0041092F1041092F20457
:1050000041E050E061E079E180E090E00E94350409
:105010002BCF109207035BCF8093FD0264CF8FE00C
:105020000E942703892B09F074CF8091EF02811130
:105030007ACF3092EF020E940E066093EB027093DB
:10504000EC028093ED029093EE02109207030E940F
:10505000F50710922105109220051092220510925A
:10506000230510922405109225051092EF0410924A
:10507000F0041092F1041092F20480910603882348
:1050800009F10E94F5071092D5041092D6041092EF
:10509000D7041092D80410920605109207051092BA
:1050A0000805109209058DE390E00E94B50E8093EB
:1050B000FD023092100164EF71E080E090E00E9408
:1050C0009D0531CF3092060310921305809108039D
:1050D000909109039093050380930403E4CF8FE03C
:1050E0000E942703892B09F024CF0E940E0600910D
:1050F000EB021091EC022091ED023091EE02601B68
:10510000710B820B930B613D77408105910508F08F
:105110000CC18EE00E942703892B09F44EC08FE05A
:105120000E942703892B09F448C080E10E942703CD
:10513000892B09F442C08091F10281113EC0809117
:10514000EF028823D1F11092EF020E940E06009127
:10515000EB021091EC022091ED023091EE02601B07
:10516000710B820B930B613D77408105910528F10E
:105170008DE390E00E94B50E64E0833009F063E0B7
:105180008DE390E00E947E2A8DE390E00E94B50EB0
:10519000833009F0CEC023E230E040E050E02093BD
:1051A0000C0130930D0140930E0150930F018DE3DC
:1051B00090E00E94B50E8093FD0280910603882343
:1051C00009F446C00E941008811142C010911001DC
:1051D00091E019271093100164E070E080E090E006
:1051E0000E949D05612F87E00E94500364E070E0FB
:1051F00080E090E00E949D0560910C0170910D018E
:1052000080910E0190910F01112309F4A4C00E9416
:10521000B92C21E73DE34EE851E40E94D12D6B010A
:105220007C0120E030E0A9010E94C42D20E030E0A4
:1052300040E05FE387FD8AC0C701B6010E94112BE1
:105240000E94812C50E040E00E9435040E9410082A
:1052500080910703882309F421C1809111018823DB
:1052600009F41CC180910E03882309F417C1C09072
:10527000E702D090E802E090E902F090EA02AAEF9B
:10528000CA0ED11CE11CF11C0E940E06C616D706E0
:10529000E806F90608F002C10E940E066093E702D4
:1052A0007093E8028093E9029093EA028090F902F9
:1052B0009090FA02A090FB02B090FC024090F502A0
:1052C0005090F6026090F7027090F802A3019201EC
:1052D000C501B4010E94102B6B017C0120E030E07D
:1052E000A9010E94C42D18160CF05DC026E636E612
:1052F00046EE5EE3C701B6010E94C42D18160CF0FD
:105300005CC020E030E044E353E4C701B6010E94F2
:10531000C42D18160CF464C0C092E302D092E402CB
:10532000E092E502F092E60274C0B6E0B093FD02AE
:10533000F0CE80E590E0A0E0B0E080930C01909387
:105340000D01A0930E01B0930F0131CFC701B6013B
:105350000E94102B75CF0E94B92C21E73DE34EE847
:1053600051E40E94D12D6B017C0120E030E0A901C5
:105370000E94C42D20E030E040E05FE387FD0EC0D6
:10538000C701B6010E94112B0E94812C9095809537
:10539000709561957F4F8F4F9F4F54CFC701B601D6
:1053A0000E94102BF1CF26E636E646EE5EEBC701F3
:1053B000B6010E940A2C87FD09C01092E3021092E8
:1053C000E4021092E5021092E60268C020E030E0AC
:1053D00044E353ECC701B6010E940A2C87FF9CCF1F
:1053E000A3019201C501B4010E94C42D20E030E068
:1053F00044EB53E418160CF067C0C701B6010E94D5
:10540000102B6093E3027093E4028093E502909383
:10541000E6028092F5029092F602A092F702B09214
:10542000F802109221051092200510922205109288
:10543000230510922405109225051092EF04109276
:10544000F0041092F1041092F20421E73DE34EE8DB
:1054500051E46091E3027091E4028091E502909141
:10546000E6020E94D12D6B017C0120E030E0A90111
:105470000E94C42D20E030E040E950E418164CF5BD
:10548000C701B6010E94D12D0E94F700C701B601E5
:105490000E94812C41E050E00E9435048091FD0281
:1054A0000E941A0680E0E82E80E0F82EEF2811F422
:1054B0000C94061C0E94EA02882311F40C94041C2C
:1054C0000E9400000C94041CC701B6010E94112B1D
:1054D00098CFC701B6019058D5CFFB01DC0102C0BF
:1054E00005900D9241505040D8F70895F999FECF9C
:1054F00092BD81BDF89A992780B50895262FF99914
:10550000FECF1FBA92BD81BD20BD0FB6F894FA9AA6
:10551000F99A0FBE01960895052E97FB1EF400948C
:105520000E94A32A57FD07D00E94BE2A07FC03D081
:105530004EF40C94A32A50954095309521953F4FF9
:105540004F4F5F4F089590958095709561957F4F6F
:105550008F4F9F4F08950E94E02AA59F900DB49F02
:10556000900DA49F800D911D11240895B7FF0C94F8
:10557000AB2A0E94AB2A821B930B0895A1E21A2E3C
:10558000AA1BBB1BFD010DC0AA1FBB1FEE1FFF1FE7
:10559000A217B307E407F50720F0A21BB30BE40B37
:1055A000F50B661F771F881F991F1A9469F760957E
:1055B0007095809590959B01AC01BD01CF01089538
:1055C000A29FB001B39FC001A39F700D811D112444
:1055D000911DB29F700D811D1124911D0895AA1B6C
:1055E000BB1B51E107C0AA1FBB1FA617B70710F0CE
:1055F000A61BB70B881F991F5A95A9F78095909500
:10560000BC01CD0108950E94E02AB7FF0895821BD6
:10561000930B0895EE0FFF1F0590F491E02D099470
:105620005058BB27AA270E94282B0C948A2D0E9431
:105630007C2D38F00E94832D20F039F49F3F19F41F
:1056400026F40C943E2D0EF4E095E7FB0C94382DD7
:10565000E92F0E949B2D58F3BA176207730784073E
:10566000950720F079F4A6F50C94BD2D0EF4E09585
:105670000B2EBA2FA02D0B01B90190010C01CA010C
:10568000A0011124FF27591B99F0593F50F4503EB7
:1056900068F11A16F040A22F232F342F4427585FA9
:1056A000F3CF469537952795A795F0405395C9F7C1
:1056B0007EF41F16BA0B620B730B840BBAF0915079
:1056C000A1F0FF0FBB1F661F771F881FC2F70EC018
:1056D000BA0F621F731F841F48F4879577956795EB
:1056E000B795F7959E3F08F0B0CF9395880F08F0D7
:1056F0009927EE0F9795879508959F939F77EEE3EF
:1057000089379E0728F4E8E6F0E00E94682D0CC077
:105710000E94F42C9058A2EA2AED3FE049EC5FE3A6
:105720000E94282B0E948A2D0F9007FC9058089504
:105730000E947C2D60F080E891E009F49EEF0E94C9
:10574000832D28F040E851E071F45EEF0CC00C941A
:105750003E2D0C94BD2DE92FE0780E949B2D40F347
:10576000092E052AB1F3261737074807590738F0DD
:105770000E2E07F8E02569F0E025E0640AC0EF632B
:1057800007F8009407FADB01B9019D01DC01CA01A9
:10579000AD01EF930E94262C0E948A2D0E94DB2BE4
:1057A0005F91552339F02BED3FE049E450FD49EC82
:1057B0000C94112B0895DF93DD27B92FBF7740E8B4
:1057C0005FE31616170648075B0718F4D92F0E94E7
:1057D000C92D9F938F937F936F930E94842EECE744
:1057E000F0E00E94412D0E948A2D2F913F914F9110
:1057F0005F910E94E42DDD2351F09058A2EA2AED3A
:105800003FE049EC5FE3D0785D270E94282BDF91D1
:105810000C948A2D0E94142D08F481E008950E94B2
:10582000232C0C948A2D0E94832D58F00E947C2DED
:1058300040F029F45F3F29F00C94382D51110C945D
:10584000BE2D0C943E2D0E949B2D68F39923B1F33D
:10585000552391F3951B550BBB27AA276217730796
:10586000840738F09F5F5F4F220F331F441FAA1F2A
:10587000A9F335D00E2E3AF0E0E832D091505040E6
:10588000E695001CCAF72BD0FE2F29D0660F771F94
:10589000881FBB1F261737074807AB07B0E809F07A
:1058A000BB0B802DBF01FF2793585F4F3AF09E3FFF
:1058B000510578F00C94382D0C94BE2D5F3FE4F325
:1058C000983ED4F3869577956795B795F7959F5F42
:1058D000C9F7880F911D9695879597F90895E1E08E
:1058E000660F771F881FBB1F621773078407BA07ED
:1058F00020F0621B730B840BBA0BEE1F88F7E09548
:1059000008950E94882C6894B1110C94BE2D0895BE
:105910000E94A32D88F09F5798F0B92F9927B7516F
:10592000B0F0E1F0660F771F881F991F1AF0BA9543
:10593000C9F714C0B13091F00E94BD2DB1E00895B7
:105940000C94BD2D672F782F8827B85F39F0B93FA9
:10595000CCF3869577956795B395D9F73EF49095F6
:105960008095709561957F4F8F4F9F4F0895E89474
:1059700009C097FB3EF490958095709561957F4F97
:105980008F4F9F4F9923A9F0F92F96E9BB27939545
:10599000F695879577956795B795F111F8CFFAF455
:1059A000BB0F11F460FF1BC06F5F7F4F8F4F9F4F86
:1059B00016C0882311F096E911C0772321F09EE8E4
:1059C000872F762F05C0662371F096E8862F70E04A
:1059D00060E02AF09A95660F771F881FDAF7880F24
:1059E0009695879597F90895DF93CF931F930F931B
:1059F0008B01EC01E9EAF0E00E94412D0E948A2D22
:105A00009801AE018B01EC0160E070E080E89FE35B
:105A10000E94102B0E94442E9801AE010F911F91FD
:105A2000CF91DF910C94E42D990F0008550FAA0B2C
:105A3000E0E8FEEF16161706E807F907C0F01216A1
:105A40001306E407F50798F0621B730B840B950BA4
:105A500039F40A2661F0232B242B252B21F40895F9
:105A60000A2609F4A140A6958FEF811D811D089596
:105A700097F99F6780E870E060E008959FEF80EC01
:105A80000895DF93CF931F930F93FF92EF92DF92CE
:105A90007B018C01689406C0DA2EEF010E94E42D90
:105AA000FE01E894A5912591359145915591A6F374
:105AB000EF010E94282BFE019701A801DA9469F7F3
:105AC000DF90EF90FF900F911F91CF91DF9108959C
:105AD0009F938F937F936F93FF93EF939B01AC0101
