:100000000C94CD000C949F110C9478110C94F50075
:100010000C94F5000C94F5000C94F5000C94F5008C
:100020000C94F5000C94F5000C94F5000C94F5007C
:100030000C94F5000C94F5000C94F5000C94F5006C
:100040000C942E110C94F5000C94EC110C94C61128
:100050000C94F5000C94F5000C94F5000C94F5004C
:100060000C940F100C94F500036EDB363D9A9999B1
:10007000993DABAAAA2A3E000000803F084AD73B20
:100080003BCE016E84BCBFFDC12F3D6C74319ABD67
:1000900056833DDA3D00C77F11BED9E4BB4C3E918B
:1000A0006BAAAABE000000803F072C7AA5BA6CC5D7
:1000B00090DA3B9365FC8BBC53F810FD3C56928361
:1000C0004DBD879D3AB63DCBC9BF5BBE73DA0FC944
:1000D0003F0000000000240027002A00000000006C
:1000E0002300260029000000000800020100000390
:1000F000040700000000000000005E01011F010372
:100100000301008A02010A010202010064001E4785
:10011000040B0906007C0101060103030100F40140
:10012000060E0102020100C20117010102020101D3
:100130009600023E0106060100C800038207100374
:100140001000C800820710071003016D011201039F
:10015000010103010E0124010102020101400124F9
:100160000101020201010102040810204080010285
:1001700004081020010204081020000000002500DF
:1001800028002B00040404040404040402020202F4
:1001900002020303030303031E1211241FBECFEF49
:1001A000D8E0DEBFCDBF11E0A0E0B1E0E2E6FCE5C3
:1001B00002C005900D92A63DB107D9F725E0A6ED46
:1001C000B1E001C01D92A632B207E1F710E0CDEC1C
:1001D000D0E004C02197FE010E949C2ACC3CD107AC
:1001E000C9F70E945F130C942F2E0C940000CF923D
:1001F000DF92EF92FF926B017C0120E030E0A901D9
:100200000E94562D181624F0F7FAF094F7F8F0949F
:1002100024EB32EA41E959E3C701B6010E94562DA9
:10022000181644F084EBC82E82EAD82E81E9E82E15
:1002300089E3F82EC0921605D0921705E0921805B2
:10024000F092190580911E0590911F05892B51F0A0
:1002500020E030E040EA50E4C701B6010E949C2B48
:1002600087FF12C0A701960160E074E284E799E479
:100270000E94A12B0E941A2C6093E7047093E8045B
:100280008093E9049093EA04C701B6010E94132CFD
:100290009B01770F440B550B285E334041095109F0
:1002A000A0E5B9EC0E944B2A28E33AE440E050E094
:1002B0000E941E2A2856354C4F4F5F4F28393A432B
:1002C00058F088EE93E09093EC048093EB04FF9059
:1002D000EF90DF90CF90089588E99AE3F4CF2091D2
:1002E0005B03260F3327331F21323105ECF42091B5
:1002F000A603FC0190E080E0243069F082E00895DC
:10030000A0915B032191AC01475C5C4FA40FB52F1A
:10031000B11D2C930196861798F380915B03680FAB
:1003200060935B0380E0089581E008950895089547
:100330000895E091370380913603E81730F4F0E038
:10034000EA5EFC4F808190E008958FEF9FEF089563
:1003500090913703809136032FEF3FEF981748F4C1
:10036000E92FF0E0EA5EFC4F208130E09F5F909340
:100370003703C90108958091360390913703891B93
:10038000990B0895CF92DF92EF92FF920F931F93F4
:10039000CF93DF937C01CB018A012091AC03222310
:1003A00089F0EB016B01C40ED51ECC15DD0569F09B
:1003B0006991D701ED91FC910190F081E02DC70189
:1003C0000995F3CF642F0E946F01C801DF91CF918F
:1003D0001F910F91FF90EF90DF90CF900895CF93F2
:1003E000DF931F92CDB7DEB769832091AC03222340
:1003F000F9F02091CF03203258F021E030E0FC01E9
:100400003383228390E080E00F90DF91CF910895B5
:100410008091AD03E82FF0E0E255FC4F9981908385
:100420008F5F8093AD038093CF0381E090E0ECCFAA
:1004300061E0CE0101960E946F01F7CFFC01538D60
:10044000448D252F30E0842F90E0821B930B5417AE
:1004500010F0CF96089501970895FC01918D828D3B
:10046000981761F0A28DAE0FBF2FB11D5D968C91D4
:10047000928D9F5F9F73928F90E008958FEF9FEF13
:100480000895FC01918D828D981731F0828DE80FCF
:10049000F11D858D90E008958FEF9FEF0895FC0189
:1004A000918D228D892F90E0805C9F4F821B910956
:1004B0008F7399270895FC01A48DA80FB92FB11D42
:1004C000A35ABF4F2C91848D90E001968F7399278A
:1004D000848FA689B7892C93A089B1898C91837068
:1004E00080648C93938D848D981306C00288F38961
:1004F000E02D80818F7D80830895EF92FF920F938E
:100500001F93CF93DF93EC0181E0888F9B8D8C8DBF
:1005100098131AC0E889F989808185FF15C09FB7B3
:10052000F894EE89FF896083E889F9898081837076
:10053000806480839FBF81E090E0DF91CF911F9125
:100540000F91FF90EF900895F62E0B8D10E00F5F46
:100550001F4F0F731127E02E8C8D8E110CC00FB61C
:1005600007FCFACFE889F989808185FFF5CFCE01B4
:100570000E945B02F1CFEB8DEC0FFD2FF11DE35AD2
:10058000FF4FF0829FB7F8940B8FEA89FB89808137
:100590008062CFCFCF93DF93EC01888D8823B9F0B1
:1005A000AA89BB89E889F9898C9185FD03C080817E
:1005B00086FD0DC00FB607FCF7CF8C9185FFF2CFFB
:1005C000808185FFEDCFCE010E945B02E9CFDF91F4
:1005D000CF9108958DEE93E00E944F0221E0892B88
:1005E00009F420E0822F089580E090E0892B29F023
:1005F0000E94EA0281110C9400000895833081F07A
:1006000028F4813099F08230A9F008958730A9F05C
:100610008830C9F08430B1F4809180008F7D03C0B0
:10062000809180008F7780938000089584B58F77C4
:1006300084BD089584B58F7DFBCF8091B0008F7706
:100640008093B00008958091B0008F7DF9CFCF9353
:10065000DF93282F30E0F901EA51FF4F8491F9012F
:10066000EA59FE4FD491F901EC57FE4FC491CC23C7
:10067000A1F081110E94FE02EC2FF0E0EE0FFF1FAF
:10068000E452FF4FA591B491EC91ED2381E090E00D
:1006900009F480E0DF91CF91089580E090E0FACFF7
:1006A0001F93CF93DF93282F30E0F901EA51FF4FDA
:1006B0008491F901EA59FE4FD491F901EC57FE4FAC
:1006C000C491CC23A9F0162F81110E94FE02EC2FB9
:1006D000F0E0EE0FFF1FE658FE4FA591B4918FB7E3
:1006E000F894EC91111108C0D095DE23DC938FBFF4
:1006F000DF91CF911F910895DE2BF8CF1092A603C2
:1007000081E08093A5031092800361E082E10E9462
:10071000500361E083E10E945003E9EBF0E0808147
:100720008E7F808380818D7F808388E48093B80072
:1007300085E48093BC000895CF93DF9391E090937C
:1007400038038823B9F0C091B800D091BA008091E5
:10075000BC008A7B8093BC0060E082E10E94500371
:1007600060E083E10E9450030E947E03D093BA00B0
:10077000C093B800DF91CF910895CF93DF9390E0BD
:10078000FC01EA59FE4F24918C579E4FFC01849145
:100790008823D1F090E0880F991FFC01EE52FF4FA3
:1007A000A591B491FC01E658FE4FC591D4916230F9
:1007B00071F49FB7F8943C91822F809583238C939A
:1007C000E8812E2B28839FBFDF91CF9108958FB7AB
:1007D000F894EC912E2B2C938FBFF6CF3FB7F89463
:1007E0008091120390911303A0911403B09115030B
:1007F00026B5A89B05C02F3F19F00196A11DB11D7C
:100800003FBFBA2FA92F982F8827BC01CD01620FB7
:10081000711D811D911D42E0660F771F881F991F72
:100820004A95D1F70895CF93DF93C3EDD4E081E0EB
:100830008DAF1092120510921305109214051092AC
:1008400015050E94EE036DA77EA78FA798AB6CA33A
:100850007DA38EA39FA368A379A38AA39BA36E8184
:100860008D81DF91CF910C9450034F925F926F92E4
:100870007F928F929F92AF92BF92CF92DF92EF9230
:10088000FF926B017C018090D3049090D404A090DF
:10089000D504B090D604452B21F0C80CD91CEA1C15
:1008A000FB1CC0920805D0920905E0920A05F0925F
:1008B0000B05C814D904EA04FB0409F441C04090B4
:1008C00016055090170560901805709019058091D5
:1008D0001E0590911F05892B51F020E030E040EA81
:1008E00050E4C301B2010E949C2B87FF1BC0A301EF
:1008F000920160E074E284E799E40E94A12B0E94D7
:100900001A2C6093E7047093E8048093E9049093B1
:10091000EA0481E08C149D04AE04BF040CF08FEF58
:100920008093D704FF90EF90DF90CF90BF90AF906F
:100930009F908F907F906F905F904F900C941304D6
:10094000FF90EF90DF90CF90BF90AF909F908F90EF
:100950007F906F905F904F9008958F929F92AF928B
:10096000BF92CF92DF92EF92FF920F931F93CF939C
:10097000DF93D091CF03D13208F0D7C0182FC091A8
:10098000CE030E94EE036B017C018091A6038111CE
:100990006BC082E08093A6031093A5038FEF809332
:1009A000A4031092A303D093A203AEEAB3E0E2E85B
:1009B000F3E080E0D81391C010928103809181030D
:1009C000CC0FC82BC093810380918003813009F044
:1009D00088C0109280030E94EE036B017C0180911D
:1009E00081038093BB008091A8039091A903A091FB
:1009F000AA03B091AB03892B8A2B8B2BA1F00E9409
:100A0000EE030091A8031091A9032091AA0330914D
:100A1000AB036C197D098E099F0906171707280774
:100A2000390708F442C08091BC0083FDD8CF85EC23
:100A30008093BC000E94EE036B017C018091A603B1
:100A4000823009F450C08091A4038F3F09F46FC035
:100A50008091A403803209F46CC08091A403803398
:100A600009F469C084E026C08091A8039091A9038D
:100A7000A091AA03B091AB03892B8A2B8B2B09F48D
:100A800084CF0E94EE038090A8039090A903A090C9
:100A9000AA03B090AB036C197D098E099F098616D5
:100AA0009706A806B90608F070CF8091A7030E94A8
:100AB0009C0385E01092AD031092CF031092AC031B
:100AC000DF91CF911F910F91FF90EF90DF90CF902A
:100AD000BF90AF909F908F9008959D9191938F5F5D
:100AE00069CF85EEA5CF8091A8039091A903A0912D
:100AF000AA03B091AB03892B8A2B8B2B09F49ECFD1
:100B00000E94EE030091A8031091A9032091AA036B
:100B10003091AB036C197D098E099F0906171707E1
:100B20002807390708F08ACFC0CF81E0C3CF80E023
:100B3000C1CF82E0BFCF83E0BDCF8F929F92AF92B3
:100B4000BF92CF92DF92EF92FF924B015C010E9425
:100B5000EE036B017C010E94EE036C197D098E0986
:100B60009F09683E734081059105A8F321E0821A30
:100B70009108A108B10888EEC80E83E0D81EE11CD8
:100B8000F11C81149104A104B10429F7FF90EF90A6
:100B9000DF90CF90BF90AF909F908F9008958F92ED
:100BA0009F92BF92CF92DF92EF92FF920F931F938B
:100BB000CF93DF936B017C01042F83E10E94270315
:100BC0004C01BB24B394892B09F4B12CD0E0C0E0D4
:100BD00010E0C017D107B4F461E08114910409F06A
:100BE00060E083E10E945003C701B6010E949D05A9
:100BF0006B2D83E10E945003C701B6010E949D0541
:100C00002196E7CFDF91CF911F910F91FF90EF9049
:100C1000DF90CF90BF909F908F9008952FB7F8945A
:100C200060910E0370910F03809110039091110356
:100C30002FBF0895CF92DF92EF92FF920F931F93F1
:100C4000CF93DF9300D000D000D01F92CDB7DEB796
:100C500097E0E4E1F1E0DE01119601900D929A95A2
:100C6000E1F721E030E02C0F3D1F280F311DF90185
:100C700010810E940E06C090DD03D090DE03E0904C
:100C8000DF03F090E0036C197D098E099F09673935
:100C9000710581059105F0F00E940E066093DD0359
:100CA0007093DE038093DF039093E0030091DC03F5
:100CB000812F90E0202F277002C0959587952A9567
:100CC000E2F761E080FF60E083E10E9450030F5F84
:100CD0000093DC0327960FB6F894DEBF0FBECDBF9E
:100CE000DF91CF911F910F91FF90EF90DF90CF9008
:100CF00008950895AF92BF92CF92DF92EF92FF9244
:100D00000F931F93CF93DF936C017B018B01040F33
:100D1000151FEB015E01AE18BF08C017D10759F0CF
:100D20006991D601ED91FC910190F081E02DC60111
:100D30000995892B79F7C501DF91CF911F910F910B
:100D4000FF90EF90DF90CF90BF90AF90089590E02C
:100D500080E00895DC01ED91FC910480F581E02DA7
:100D60000994CF93DF93CDB7DEB72C970FB6F894E5
:100D7000DEBF0FBECDBF8CE089832CE030E041E0C8
:100D800050E0BE016F5F7F4F8AE894E00E94AA06A0
:100D900049815A812B813C818D819E81AF81B885AB
:100DA000E985FA856B857C85B093DB03A093DA0334
:100DB000F093D903E093D8037093D7036093D603DD
:100DC0005093D5034093D4033093D3032093D2039D
:100DD0009093D1038093D0032C960FB6F894DEBF86
:100DE0000FBECDBFDF91CF910895CF93DF931F92B8
:100DF000CDB7DEB7698321E030E041E050E0BE01CD
:100E00006F5F7F4F0E94AA0689810F90DF91CF917B
:100E100008956BE18AE894E00E94F50683FD07C01F
:100E200061E070E080E090E00E949D05F2CF0895BF
:100E3000CF93DF9300D0CDB7DEB769834A8330E02C
:100E400020E042E050E0BE016F5F7F4F0E94AA06A3
:100E50000F900F90DF91CF91089590E080E008957A
:100E6000EF92FF920F931F93CF93DF937C01D62FC6
:100E7000C42F122F0E94F50641E050E002C0440F3B
:100E8000551F0A95E2F741505109012E01C0440F48
:100E90000A94EAF72C2F01C0220F1A95EAF7942F33
:100EA000909589232423422F482B6D2FC701DF9172
:100EB000CF911F910F91FF90EF900C941807CF9353
:100EC000CFB7F89480916802811127C0EEE8F1E075
:100ED0008491E0E7F1E09491E82FF0E0EE0FFF1F3E
:100EE000EE52FF4FA591B491EC91E92321F461E01A
:100EF0008AE00E94500361E08AE00E94BD038CB545
:100F000080618CBD8CB580648CBD61E08DE00E94F9
:100F1000BD0361E08BE00E94BD03809168028F5F9A
:100F200080936802CFBFCF9108958F929F92AF9226
:100F3000BF92CF92DF92EF92FF926B017C0120E093
:100F400030E040E05FE30E94632D4B015C01D7017C
:100F5000C601B595A795979587953FEDC32E39E5C1
:100F6000D32E37E3E32E3FE5F32EC81AD90AEA0A57
:100F7000FB0AA5019401C701B6010E94632DA701D8
:100F800096010E94632D9B01AC0160E070E080EC53
:100F90009FE30E94A22AA70196010E94632D6B0184
:100FA0007C01A50194010E94632DA70196010E9476
:100FB000632D9B01AC0160E070E080EC9FE30E9438
:100FC000A22AA70196010E94632DFF90EF90DF9067
:100FD000CF90BF90AF909F908F900895FC01668155
:100FE00021E0622785810C94500310921005109225
:100FF0001205109213051092140510921505109207
:1010000004051092050510920605109207058091BF
:101010001105882321F083ED94E00C94EE070895E8
:101020004F925F926F927F928F929F92AF92BF92F8
:10103000CF92DF92EF92FF92CF93DF93CDB7DEB7DF
:1010400028970FB6F894DEBF0FBECDBF8091100574
:10105000882309F443C20E94EE0360930C05709349
:101060000D0580930E0590930F0520912405309176
:10107000250580911E0590911F05232B09F037C28D
:10108000892B09F467C140901605509017056090B0
:1010900018057090190520E030E040EA50E4C301E3
:1010A000B2010E94562D87FD55C180900C0590908D
:1010B0000D05A0900E05B0900F05C090F704D090DC
:1010C000F804E090F904F090FA046091EB04709158
:1010D000EC0490E080E08C189D08AE08BF088616EE
:1010E0009706A806B90608F435C1C60ED71EE81E35
:1010F000F91EC092F704D092F804E092F904F0923D
:10110000FA048090080590900905A0900A05B09017
:101110000B05C090D304D090D404E090D504F09097
:10112000D6048C189D08AE08BF08C0900405D09066
:101130000505E0900605F09007050E94492C2091D6
:10114000ED043091EE044091EF045091F0040E94C0
:10115000632D69837A838B839C83A7019601C701E2
:10116000B6010E94632D2091200530912105409108
:101170002205509123050E94632D6D837E838F830A
:101180009887C501B401B7FE07C066277727CB0152
:10119000681979098A099B090E944B2C9B01AC01B3
:1011A0006D817E818F8198850E94562D87FD0EC0AE
:1011B00020E030E0A901C701B6010E94562D87FD4D
:1011C00007C020E030E040E85FEB06C0B7FCF9CF95
:1011D00020E030E040E85FE369817A818B819C8187
:1011E0000E94632DA70196010E94A32A6B017C0136
:1011F0008090120590901305A0901405B0901505ED
:1012000020E030E0A901C501B4010E949C2B8111AE
:101210004AC053014201B7FAB094B7F8B094A5019F
:101220009401B601C7010E949C2B87FD0CC096015A
:10123000A701C301B2010E949C2B5301420187FD0B
:1012400002C0460157018092040590920505A092C4
:101250000605B0920705C0900405D0900505E09002
:101260000605F090070520E030E0A901C701B601AE
:101270000E94562D1816D4F520E030E040EA50E4E4
:10128000C701B6010E94562D1816D4F180E49DE0E6
:10129000A3E0B0E08093E7049093E804A093E9040E
:1012A000B093EA044BC02401350177FA709477F8C3
:1012B0007094A3019201B601C7010E949C2B87FD87
:1012C0000CC0A5019401B601C7010E94562D24014E
:1012D0003501181614F0260137014092040550928A
:1012E00005056092060570920705B5CF20E030E055
:1012F00040EA50ECC701B6010E949C2B87FFC6CF85
:10130000A701960160E074E284E799E40E94A12BB2
:101310004B015C0120E030E0A9010E94562D181617
:101320000CF083C0C501B4010E941A2C6093E7043D
:101330007093E8048093E9049093EA0420E030E09D
:10134000A901C701B6010E94562D87FD72C081E038
:101350008093D7044091E7045091E8046091E90438
:101360007091EA04411551056105710509F4B6C093
:1013700080910C0590910D05A0910E05B0910F057F
:10138000C0900005D0900105E0900205F0900305A3
:101390008C199D09AE09BF0984179507A607B707E1
:1013A00008F49CC080910C0590910D05A0910E054C
:1013B000B0910F058093000590930105A09302055D
:1013C000B0930305C090D304D090D404E090D5042A
:1013D000F090D6048091240590912505892BE1F5A4
:1013E0008091080590910905A0910A05B0910B051F
:1013F0008C159D05AE05BF0579F50E94F50780E0C7
:1014000028960FB6F894DEBF0FBECDBFDF91CF9107
:10141000FF90EF90DF90CF90BF90AF909F908F9014
:101420007F906F905F904F900895C501B4019058E0
:101430007BCF8FEF8DCF8FEFD8C0C501B40190580F
:10144000EAC024EB32EA41E959EBC701B6010E9438
:10145000562D87FD7FCF03C18091D704482F082EDA
:10146000000C550B660B770B4C0D5D1D6E1D7F1D23
:101470004093D3045093D4046093D5047093D6045E
:101480009091DB04891799F08093DB04E091E304E9
:10149000F091E40491E018160CF090E08091DA04E9
:1014A0009817F9F08091E6049081892B80838091D0
:1014B000E504E091E104F091E2049081892B8083BE
:1014C0008BE090E00197F1F78091E504E091E10471
:1014D000F091E204908180958923808380911005AA
:1014E0008FCF8091E604908180958923DFCF892B6F
:1014F00009F430CFC0900C05D0900D05E0900E059A
:10150000F0900F056091F1047091F2048091F30462
:101510009091F404A091F504B091F604C81AD90A88
:10152000EA0AFB0A90E080E0C616D706E806F9064C
:1015300008F410CFC0900C05D0900D05E0900E057A
:10154000F0900F05C092F304D092F404E092F504F9
:10155000F092F604C0900405D0900505E0900605D1
:10156000F09007050E94492C2091ED043091EE0483
:101570004091EF045091F0040E94632D4B015C01F7
:10158000A701960160911A0570911B0580911C05B9
:1015900090911D050E94A22A20E030E0A9010E943E
:1015A000562D20E030E040E85FE387FF04C020E0F4
:1015B00030E040E85FEBC501B4010E94632DA70154
:1015C00096010E94A32A6B017C01C0920405D0926F
:1015D0000505E0920605F092070520E030E0A9013C
:1015E0000E94562D87FD27CF81E08093D704A70165
:1015F000960160E074E284E799E40E94A12B4B011C
:101600005C0120E030E0A9010E94562D18160CF074
:1016100014CFC501B4010E941A2C6093E7047093A3
:10162000E8048093E9049093EA048091FB04882302
:1016300009F490CE20E030E0A901C701B6010E9474
:10164000562D18160CF0FDCE24EB32EA41E959E391
:10165000C701B6010E949C2B18160CF47BCE0E9489
:10166000F50778CEFC018681A82FB0E0AA0FBB1F3A
:10167000AE0FBF1F6D937C938F5F8330D0F4868352
:10168000208131814281538164817581FA0146173D
:1016900057070CF4FB01C901241735070CF4CA01E4
:1016A000E817F90741F4C901261737076CF4CB0195
:1016B00008951682E5CFC901621773070CF4CB01B8
:1016C000841795070CF4CA0108950F931F93CF93C5
:1016D000DF93EBE9F2E0A3E8B2E0CFE8D2E00191DA
:1016E000119121913191061717072807390791F0B9
:1016F0000991199129913991061717072807390778
:1017000049F00D911D912D913D910617170728075E
:10171000390769F445E064E670E080E090E00E94FB
:10172000CF0580E0DF91CF911F910F91089522E0C6
:10173000E73AF207A1F681E0F5CF8EBD00000DB4C7
:1017400007FEFDCF8EB508952F923F924F925F9284
:101750006F927F928F929F92AF92BF92CF92DF92C1
:10176000EF92FF920F931F93CF93DF93CDB7DEB726
:1017700065970FB6F894DEBF0FBECDBF0E94EE0393
:101780006B017C0180916402909165022601481AE8
:10179000590A4DEC441640E1540608F4E0C080912B
:1017A000620290916302009789F02091DC013091F0
:1017B000DD011201221A330A910137FE03C031956F
:1017C00021953109283C31050CF0C5C00196909354
:1017D000630280936202029709F0BDC09AEF692EFE
:1017E00090E0792E01E010E02090DA013090DB01EA
:1017F0003B862A8649E050E0B301CE0101960E9463
:10180000FF298B816C81681708F4682F70E0809144
:10181000DC019091DD010E94812A9B01409112011F
:1018200050911301649FC001659F900D749F900DAE
:10183000112464E670E00E94812A8985A1E0B0E06D
:10184000882311F0A2E0B0E08D81829FA001839FE8
:10185000500D11245D874C878E81829F1001839FDC
:10186000300C11243F862E868F81829FA001839F9A
:10187000500D1124598B488B8885829F1001839FBE
:10188000300C11243B8A2A8AFD01EE0FFF1FE4521F
:10189000FE4F812C912C54014A855B8541505109A2
:1018A0005D8B4C8B8C899D89A817B90708F040C0C7
:1018B000880C991CAA1CBB1C80819181AC012C84D2
:1018C0003D844219530957FF03C051954195510971
:1018D0004617570770F4428153812E843F84421982
:1018E000530957FF03C051954195510946175707B2
:1018F000E0F048895989841B950B97FF03C09195A7
:101900008195910986179707C8F4828193812A8867
:101910003B888219930997FF03C09195819591099E
:101920008617970758F4689480F812963496BACFC1
:101930004A855B854830510508F053C00F5F1F4F43
:1019400059E0650E711C0D30110509F04DCF109254
:101950006302109262021092DB011092DA01809110
:10196000DA019091DB018334910540F01092DB01A4
:101970001092DA0110926302109262028091DA01F1
:101980009091DB019C012F5F3F4F3093DB0120934F
:10199000DA01880F991FFC01E452FE4F5182408208
:1019A000C0926402D0926502E0926602F0926702F1
:1019B00065960FB6F894DEBF0FBECDBFDF91CF9115
:1019C0001F910F91FF90EF90DF90CF90BF90AF905D
:1019D0009F908F907F906F905F904F903F902F904F
:1019E00008958092960490929704A0929804B092E1
:1019F00099042C883D883694279430926A0220926C
:101A000069023093D9012093D8011093D701009334
:101A1000D6019DCFCF93DF93FC0101900020E9F721
:101A20003197AF01481B590BBC018DEE93E00E942A
:101A30007A06EC0142E050E069E471E08DEE93E05B
:101A40000E947A068C0F9D1FDF91CF910895CF934E
:101A5000DF93EC018A859B858130910529F00297FF
:101A600051F1DF91CF910895109237031092360310
:101A70001092AD031092CF030E947E0386E991E09D
:101A800090935A038093590387E991E090935E0302
:101A900080935D038E8191E09093AC038093CE039D
:101AA00081E00E94AD048823E1F28CE491E0DF91B3
:101AB000CF910C940A0D0E945F078885998597FD48
:101AC00005C061E0DF91CF910C94BD0384E791E004
:101AD000EECF85ED8093BC008091A8039091A9037F
:101AE000A091AA03B091AB030796A11DB11D23E0FD
:101AF000B695A795979587952A95D1F72091BC0023
:101B000024FD03C01092A60308954091A8035091AC
:101B1000A9036091AA037091AB03452B462B472B79
:101B200069F30097A105B10541F02AE22A95F1F782
:101B300000C00197A109B109E1CF8091A7030C94DE
:101B40009C03FF920F931F93CF93DF93EC01F62E2C
:101B500008811981C8010E94082AF81621F06F2D0A
:101B6000C8010E94102ACE01DF91CF911F910F91E1
:101B7000FF9008950F931F93CF93DF9300D0CDB7BD
:101B8000DEB78B019A838983FB016081CE010196C8
:101B90000E94A10DC8010F900F90DF91CF911F916E
:101BA0000F910895AF92BF92CF92DF92EF92FF9282
:101BB0000F931F93CF93DF9300D0CDB7DEB78B0188
:101BC0006B0124E0C20ED11C7B015C01A61AB70A8E
:101BD000C5018E0D9F1D9A838983F70161917F0155
:101BE000CE0101960E94A10DEC14FD0489F7C801F5
:101BF0000F900F90DF91CF911F910F91FF90EF9079
:101C0000DF90CF90BF90AF900895AF92BF92CF92E8
:101C1000DF92EF92FF920F931F93CF93DF9300D049
:101C2000CDB7DEB78B016B012CE0C20ED11C7B015E
:101C30005C01A61AB70AC5018E0D9F1D9A83898380
:101C4000F70161917F01CE0101960E94A10DEC1474
:101C5000FD0489F7C8010F900F90DF91CF911F917C
:101C60000F91FF90EF90DF90CF90BF90AF900895CD
:101C7000EF92FF920F931F93CF93DF9300D0CDB7D6
:101C8000DEB78C017B019A838983FB016081CE01E1
:101C900001960E94A10D0F5F1F4F1A830983F70160
:101CA0006181CE0101960E94A10DC7010F900F9096
:101CB000DF91CF911F910F91FF90EF900895CF93F7
:101CC000DF93EB010E94082A8883CE01DF91CF9138
:101CD0000895CF92DF92EF92FF920F931F93CF93CD
:101CE000DF93EB017B0124E0E20EF11C8B016C0120
:101CF000C61AD70AC601800F911F0E94082AF80150
:101D000081938F01EE15FF05A9F7CE01DF91CF91E9
:101D10001F910F91FF90EF90DF90CF900895CF9299
:101D2000DF92EF92FF920F931F93CF93DF93EB011C
:101D30007B012CE0E20EF11C8B016C01C61AD70A64
:101D4000C601800F911F0E94082AF80181938F011C
:101D5000EE15FF05A9F7CE01DF91CF911F910F91ED
:101D6000FF90EF90DF90CF9008950C94082A4F9247
:101D70005F926F927F928F929F92AF92BF92CF921B
:101D8000DF92EF92FF920F931F93CF93DF938C011B
:101D9000EB015A017901FC0182859385813091051F
:101DA000B1F0029709F40CC190E080E0DF91CF918F
:101DB0001F910F91FF90EF90DF90CF90BF90AF9069
:101DC0009F908F907F906F905F904F900895868145
:101DD00091E09093AC038093CE031092AD031092E8
:101DE000CF036B01A60EB71E4B018A149B0441F072
:101DF000F40161914F0181EE93E00E94EF01F5CF74
:101E000081E00E94AD04882321F087EB91E00E94DD
:101E10000A0DE114F10441F2F80106810E94EE037B
:101E20004B015C018091A603811169C01E2D113206
:101E300008F010E281E08093A6038093A5039FEF52
:101E40009093A4031092A303910F9093A203809305
:101E5000810380918103000F082B009381038091FF
:101E60008003813009F088C0109280030E94EE0345
:101E70004B015C01809181038093BB008091A8039A
:101E80009091A903A091AA03B091AB03892B8A2B4F
:101E90008B2BA1F00E94EE034090A8035090A90361
:101EA0006090AA037090AB03681979098A099B09AD
:101EB000461657066806790608F442C08091BC00B1
:101EC00083FDD8CF85EC8093BC000E94EE034B01CC
:101ED0005C018091A603813009F450C08091A30376
:101EE000811710F41091A303A2E8B3E0E6E1F3E058
:101EF00080E0811751F19D9191938F5FFACF80918E
:101F0000A8039091A903A091AA03B091AB03892BD8
:101F10008A2B8B2B09F486CF0E94EE034090A803F6
:101F20005090A9036090AA037090AB0368197909D7
:101F30008A099B09461657066806790608F072CF8B
:101F40008091A7030E949C0310E010923703109326
:101F50003603CE0DDF1D80913703181709F424CF07
:101F6000CC15DD0509F420CF81EE93E00E94A80195
:101F7000F60181936F01EFCF85EEA5CF8091A80385
:101F80009091A903A091AA03B091AB03892B8A2B4E
:101F90008B2B09F49ECF0E94EE034090A803509033
:101FA000A9036090AA037090AB03681979098A09A4
:101FB0009B09461657066806790608F08ACFC0CFF7
:101FC000232B19F0888180688883F80180859185AA
:101FD00097FD03C060E00E9450036E01AC0EBD1E71
:101FE0004E01A814B90461F4CE0DDF1DCC15DD053A
:101FF00069F080E00E949D0BF60181936F01F6CF9E
:10200000F40181914F010E949D0BEBCFF801808577
:10201000918597FDC9CE61E00E945003C5CE1F9205
:102020000F920FB60F9211242F933F934F935F930C
:102030006F937F938F939F93AF93BF93EF93FF9390
:102040008091B900887F803609F44AC0F0F5883263
:1020500009F4A7C018F5803109F49BC0B8F48823AF
:1020600009F4F9C0883009F494C0FF91EF91BF9151
:10207000AF919F918F917F916F915F914F913F9120
:102080002F910F900FBE0F901F901895883109F473
:1020900088C0803251F78093A40314C0803409F4BF
:1020A0009DC040F48033B9F38833F9F68093A403DC
:1020B00085ECB0C0803509F485C0883509F496C038
:1020C000883499F60E94690DD0CF883909F48CC004
:1020D00038F5883729F050F4883611F0803729F622
:1020E00083E08093A60310927F0357C0883809F4D9
:1020F0007BC0803919F0803809F0B7CF80917F0319
:10210000803208F071C0E0917F0381E08E0F8093F0
:102110007F038091BB00F0E0E15AFC4F80833DC01B
:10212000803B39F0E0F4803A09F479C0883A09F04C
:102130009CCF84E08093A60310925C0310925B0313
:10214000E0915903F0915A03099580915B03811145
:102150000FC081E080935B031092390309C0803C7B
:1021600009F4A6CF883C09F4A3CF883B09F07DCFC2
:10217000E0915C0381E08E0F80935C03F0E0E75C0C
:10218000FC4F80818093BB0090915C0380915B0346
:1021900029C0809181038093BB0085EC8093BC00B3
:1021A00064CF9091A3038091A203981758F5E09112
:1021B000A30381E08E0F8093A303F0E0EE57FC4F62
:1021C0008081E9CFE091A30381E08E0F8093A30388
:1021D0008091BB00F0E0EE57FC4F80839091A30309
:1021E0008091A2039817C8F285E8D8CFE091A303A5
:1021F00081E08E0F8093A3038091BB00F0E0EE5747
:10220000FC4F80838091A50381115CCF81E0809396
:10221000800384EA8093BC001092A60326CF85EC4D
:102220008093BC001092A60380917F03803230F42B
:10223000E0917F03F0E0E15AFC4F108260917F0350
:1022400070E0E0915D03F0915E038FE593E0099506
:1022500010927F030ACF1092A40334CF1F920F92E3
:102260000FB60F9211242F933F938F939F93AF93A9
:10227000BF9380910E0390910F03A0911003B09132
:10228000110330910D0323E0230F2D3758F50196EC
:10229000A11DB11D20930D0380930E0390930F0396
:1022A000A0931003B0931103809112039091130334
:1022B000A0911403B09115030196A11DB11D809347
:1022C000120390931303A0931403B0931503BF91CB
:1022D000AF919F918F913F912F910F900FBE0F90D3
:1022E0001F90189526E8230F0296A11DB11DD2CF8D
:1022F0001F920F920FB60F9211242F933F934F937B
:102300005F936F937F938F939F93AF93BF93EF935D
:10231000FF93E0910201F09103010995FF91EF9184
:10232000BF91AF919F918F917F916F915F914F91ED
:102330003F912F910F900FBE0F901F9018951F92F5
:102340000F920FB60F9211242F933F934F935F93E9
:102350006F937F938F939F93AF93BF93EF93FF936D
:10236000E0910001F09101010995FF91EF91BF917A
:10237000AF919F918F917F916F915F914F913F911D
:102380002F910F900FBE0F901F9018951F920F92D4
:102390000FB60F9211242F933F934F935F936F9338
:1023A0007F938F939F93AF93BF93EF93FF938DEEA4
:1023B00093E00E945B02FF91EF91BF91AF919F91DB
:1023C0008F917F916F915F914F913F912F910F90DE
:1023D0000FBE0F901F9018951F920F920FB60F927D
:1023E00011242F938F939F93EF93FF93E091FD031D
:1023F000F091FE038081E0910304F091040482FDDA
:102400001BC09081809106048F5F8F732091070419
:10241000821741F0E0910604F0E0E351FC4F958F04
:1024200080930604FF91EF919F918F912F910F90D0
:102430000FBE0F901F9018958081F4CFCF92DF923E
:10244000EF92FF920F931F93CF93DF93E1EEF3E0B0
:102450001382128288EE93E0A0E0B0E0848395833B
:10246000A683B7832FE131E031832083EDEEF3E0E3
:102470001382128284839583A683B78381E391E0DC
:102480009183808385EC90E09587848784EC90E04D
:102490009787868780EC90E0918B808B81EC90E031
:1024A000938B828B82EC90E0958B848B86EC90E012
:1024B000978B868B118E128E138E148EEAE8F4E0C1
:1024C00083E491E0918380830FEF1FEF15830483F2
:1024D0001783068311870087C3EDD4E01882198221
:1024E0001A821B8281E08C838FEF8D831E821F8274
:1024F000188619861B861A861D861C8661E086E072
:102500000E94BD03EAE8F1E0E491F0E0EE0FFF1F66
:10251000E658FE4F859194919F878E87ECE6F1E017
:10252000E491EA8B61E087E00E94BD03EBE8F1E013
:10253000E491F0E0EE0FFF1FE658FE4F8591949175
:10254000998B888BEDE6F1E0E491EB8B88E08D834D
:1025500061E00E94BD0380E197E2A0E0B0E08C8BD7
:102560009D8BAE8BBF8B88E99AE3998F888F1A8EEB
:102570001B8E1C8E1D8E9F8F8E8F18A219A21AA2E1
:102580001BA21CA21DA21EA21FA218A61DA61EA64B
:102590001FA618AA19AA1AAA1BAA1CAA1DAA1EAA13
:1025A0001FAA18AE19AE1AAE1BAE1CAE1DAE1EAEE3
:1025B0001092120510921305109214051092150531
:1025C00080E090E0A6E9B3E48093160590931705A8
:1025D000A0931805B093190510921A0510921B05C7
:1025E00010921C0510921D052EE1C22E25E0D22E60
:1025F000F6011182108230E2E32E35E0F32EF7016E
:1026000010821182128213821092250510922405E5
:10261000BC01CD010E94F7008CE291E0F6019183AC
:1026200080838EE094E7AAEDBAE3F701808391837B
:10263000A283B38382E599E4ADE9B9E38A8F9B8FE6
:10264000AC8FBD8F84EE98E3AEE8B1E489A79AA77A
:10265000ABA7BCA7C4ECD4E01B830A838AE090E05C
:102660009D838C8349E050E06AEF70E08AEC94E04F
:102670000E94FF29198308838CE390E09093130153
:10268000809312011092960410929704109298046D
:10269000109299041092C3041092BC041092B504D5
:1026A0001092AE041092A7041092A004DF91CF9173
:1026B0001F910F91FF90EF90DF90CF900895CF93EF
:1026C000DF93CDB7DEB7C855D1090FB6F894DEBF9A
:1026D0000FBECDBF789484B5826084BD84B581601F
:1026E00084BD85B5826085BD85B5816085BD8091DD
:1026F0006E00816080936E00109281008091810055
:10270000826080938100809181008160809381004C
:10271000809180008160809380008091B10084600E
:102720008093B1008091B00081608093B00080916F
:102730007A00846080937A0080917A00826080932E
:102740007A0080917A00816080937A0080917A008B
:10275000806880937A001092C10062E08EE00E944F
:10276000BD0362E08FE00E94BD0362E080E10E9451
:10277000BD0362E081E10E94BD0361E083E10E944C
:10278000BD0361E08AE00E94BD0361E08AE00E942F
:10279000500365E070E080E090E00E949D050E949B
:1027A0005F0780E00E949D0B60E08AE00E9450037A
:1027B00080E80E949D0B80E00E949D0B182F9FB720
:1027C000F89480916802882319F081508093680200
:1027D00080916802811103C08CB58F7B8CBD9FBF37
:1027E00061E08AE00E945003113D09F008C281E0D7
:1027F00080930C0380910C03882309F4CEC082E0FF
:1028000090E090939504809394048AE090E09093F4
:1028100093048093920410928F0410928E048AE89D
:1028200094E00E94270D8FE7898321E030E041E0AA
:1028300050E0BE016F5F7F4F8AE894E00E94AA06D5
:1028400046EB6EE78AE894E00E94180761E070E0CA
:1028500080E090E00E949D056FE78AE894E00E9486
:10286000F50661E070E080E090E00E949D0541E1A6
:102870006EE78AE894E00E94180761E070E080E06B
:1028800090E00E949D0563E08AE894E00E94F506CE
:1028900090E014E0959587951A95E1F78370813063
:1028A00061F745E16EE78AE894E00E94180761E06D
:1028B00070E080E090E00E949D0563E08AE894E08B
:1028C0000E94F50690E0959587959595879583707C
:1028D000813069F703E010E030E020E043E063E49A
:1028E0008AE894E00E94300704E010E030E020E045
:1028F00043E061E48AE894E00E9430074FEF65E529
:102900008AE894E00E94180740EF66E58AE894E0C0
:102910000E94180740E067E58AE894E00E941807E3
:1029200060E08AE894E00E94F50630E020E046E0AE
:1029300060E48AE894E00E94300730E020E043E061
:1029400061E48AE894E00E94300703E010E024E0AC
:1029500030E040E060E48AE894E00E94300704E060
:1029600010E030E020E046E062E48AE894E00E9473
:10297000300703E010E030E020E043E063E48AE861
:1029800094E00E94300702E010E024E030E040E0F4
:1029900062E48AE894E00E9430079091110181E09E
:1029A000892780931105992309F433C10E941304E8
:1029B00010921F0510921E051092200510922105FD
:1029C00010922205109223051092ED041092EE044D
:1029D0001092EF041092F00460E070E088EC94E450
:1029E0000E94F70083ED94E00E94EE071092C50468
:1029F0001092C404109296041092970410929804B6
:102A00001092990410926A021092690284EA9BE083
:102A10009093010180930001809169008C7F816017
:102A200080936900E89A6BE972E090E080E00E9490
:102A30008F0E6FE872E08CE090E00E948F0E63E8EA
:102A400072E088E190E00E948F0E81E10E942703EE
:102A5000892B09F0F9C080E10E942703892B09F432
:102A6000F3C081E0809300030E940E066D837E8395
:102A70008F8398870E940E064B015C0183E0809350
:102A8000FB02412C512C3201C12CD12C760110E0DB
:102A9000312C0E940E062D813E814F815885621B8C
:102AA000730B840B950B603375478105910508F016
:102AB000B5C01111B3C08091FB020E941A0681E1DA
:102AC0000E942703892B09F401C181E10E94270399
:102AD000892BE9F5209000032220C9F10E940E06FF
:102AE0002091FC023091FD024091FE025091FF02C4
:102AF000621B730B840B950B69387341810591053B
:102B000030F1109200030E940E066093FC02709355
:102B1000FD028093FE029093FF0261E083E10E9438
:102B2000500310E000E01A821982BE016F5F7F4FF0
:102B3000C8010E94380E0F5F1F4F0432110599F72C
:102B400068EB7BE080E090E00E949D05122D81E122
:102B50000E942703892B19F1809100038823F9F043
:102B60000E940E062091FC023091FD024091FE026F
:102B70005091FF02621B730B840B950B6536710538
:102B80008105910560F0109200030E940E0660938B
:102B9000FC027093FD028093FE029093FF020E945C
:102BA0000E06681979098A099B096739710581053B
:102BB000910508F46ECF0E940E064B015C018091D6
:102BC000960490919704A0919804B0919904892B50
:102BD0008A2B8B2B59F081E0381609F4B8C03816CF
:102BE00008F49AC092E0391609F4DAC010929604FB
:102BF0001092970410929804109299044ACF109260
:102C00000C034AE066E470E080E090E00E94CF05AB
:102C1000F1CD83ED94E00E94EE07CACE60E083E13F
:102C20000E9450036BE972E090E080E00E948F0EFA
:102C30006FE872E08CE090E00E948F0E63E872E033
:102C400088E190E00E948F0E81E10E94270310919D
:102C50000C03892B09F098C380E10E942703892B7C
:102C600009F092C3112309F48FC381E10E94270365
:102C7000892B09F453C14AE064EF71E080E090E0F1
:102C80000E94CF0561E083E10E94500368EE73E08B
:102C900080E090E00E949D0540E469E68AE894E0C7
:102CA0000E94180743E06EE78AE894E00E94180744
:102CB0006BE18AE894E00E94F50683FD39C161E08A
:102CC00070E080E090E00E949D05F2CF80910003CB
:102CD0008111FBCE0E940E062091FC023091FD0274
:102CE0004091FE025091FF02621B730B840B950B07
:102CF000653671058105910508F4E7CE41E0409302
:102D000000030E940E066093FC027093FD02809304
:102D1000FE029093FF02D9CE6091960470919704C1
:102D200080919804909199040E94650B882309F47E
:102D30005DCFC0909604D0909704E0909804F090F6
:102D40009904A4E0A093FB02332433944FCF609105
:102D500096047091970480919804909199040E9430
:102D6000650B882309F442CF8091960490919704D3
:102D7000A0919804B09199048C159D05AE05BF05EE
:102D800009F434CF409096045090970460909804D2
:102D900070909904B5E0B093FB02A2E03A2E26CFE2
:102DA0006091960470919704809198049091990491
:102DB0000E94650B082F882309F418CF8091960490
:102DC00090919704A0919804B09199048C159D0559
:102DD000AE05BF0509F40ACF80919604909197043F
:102DE000A0919804B091990484159505A605B7059E
:102DF00009F4FCCE8091960490919704A0919804D8
:102E0000B091990440919F025091A0026091A1025B
:102E10007091A2024093A3025093A4026093A50272
:102E20007093A60240919302509194026091950292
:102E30007091960240939702509398026093990282
:102E400070939A02409187025091880260918902A2
:102E500070918A0240938B0250938C0260938D0292
:102E600070938E0240919B0250919C0260919D0252
:102E700070919E0240939F025093A0026093A10222
:102E80007093A20240918F02509190026091910242
:102E90007091920240939302509394026093950232
:102EA0007093960240918302509184026091850252
:102EB0007091860240938702509388026093890242
:102EC00070938A02C0929B02D0929C02E0929D0273
:102ED000F0929E0240928F02509290026092910274
:102EE000709292028093830290938402A093850251
:102EF000B09386026BE972E090E080E00E94050EDC
:102F00006FE872E08CE090E00E94050E63E872E0EA
:102F100088E190E00E94050E102F68CE80E10E94AB
:102F20002703892B09F0A7CE86E00E941A069DCEC2
:102F300001E010E027E030E041E067E78AE894E054
:102F40000E94300740E369E68AE894E00E9418078F
:102F500043E06EE78AE894E00E9418070E940907A0
:102F600026E030E041E067E78AE894E00E9430071D
:102F70004CE069E68AE894E00E94180743E06EE7B7
:102F80008AE894E00E9418070E94090726E030E0D2
:102F900041E067E78AE894E00E94300741E069E693
:102FA0008AE894E00E94180743E06EE78AE894E01C
:102FB0000E9418070E94090726E030E041E067E719
:102FC0008AE894E00E94300702E310E00E94B10614
:102FD00068E270E080E090E00E949D0501501109D8
:102FE000A9F704E610E0198A1A8A1B8A1C8A1D8632
:102FF0001E861F86188A1D821E821F8218861986C9
:103000001A861B861C86412C512C3201812C912C56
:1030100054010E94B1068091DA039091DB03092EDE
:10302000000CAA0BBB0B880E991EAA1EBB1E80911A
:10303000D8039091D903092E000CAA0BBB0B480EA4
:10304000591E6A1E7B1E8091D6039091D70390541F
:10305000092E000CAA0BBB0B29853A854B855C8594
:10306000280F391F4A1F5B1F29873A874B875C87C8
:103070008091D4039091D503092E000CAA0BBB0BB1
:103080002D813E814F815885280F391F4A1F5B1FB4
:103090002D833E834F8358878091D2039091D30331
:1030A000092E000CAA0BBB0B2D853E854F85588938
:1030B000280F391F4A1F5B1F2D873E874F87588B6C
:1030C0008091D0039091D103092E000CAA0BBB0B69
:1030D00029893A894B895C89280F391F4A1F5B1F50
:1030E000298B3A8B4B8B5C8B68E270E080E090E040
:1030F0000E949D050150110909F08BCFF4E6CF2EF7
:10310000D12CE12CF12CC501B401A70196010E943C
:103110001E2A2093D802C301B201A70196010E9482
:103120001E2A2093D70269857A858B859C85A70105
:1031300096010E941E2A2093D6026D817E818F8186
:103140009885A70196010E941E2A2093D5026D85BD
:103150007E858F859889A70196010E941E2A20935B
:10316000D40269897A898B899C89A70196010E947A
:103170001E2A2093D30261E78AE894E00E94F506B4
:10318000682F880F770B880B990B0E944B2C2AE92C
:1031900039E949E750E40E94632D69837A838B8380
:1031A0009C83BE016F5F7F4F84E290E00E94D20D4E
:1031B00062E78AE894E00E94F506682F880F770B93
:1031C000880B990B0E944B2C2AE939E949E750E416
:1031D0000E94632D69837A838B839C83BE016F5F1A
:1031E0007F4F88E290E00E94D20D63E78AE894E086
:1031F0000E94F506682F880F770B880B990B0E94A9
:103200004B2C2AE939E949E750E40E94632D698390
:103210007A838B839C83BE016F5F7F4F8CE290E04B
:103220000E94D20D64E78AE894E00E94F506082F18
:1032300010E067E78AE894E00E94F5068370B80121
:10324000782B71FD7C6F072E000C880B990B0E9468
:103250004B2C23E23BED49E75DE30E94632D69833C
:103260007A838B839C83BE016F5F7F4F80E390E006
:103270000E94D20D65E78AE894E00E94F506082FC7
:1032800010E067E78AE894E00E94F50690E09595E3
:103290008795959587958370B801782B71FD7C6F24
:1032A000072E000C880B990B0E944B2C23E23BED60
:1032B00049E75DE30E94632D69837A838B839C8356
:1032C000BE016F5F7F4F84E390E00E94D20D66E7FE
:1032D0008AE894E00E94F506082F10E067E78AE884
:1032E00094E00E94F50690E074E0959587957A95B4
:1032F000E1F78370B801782B71FD7C6F072E000C0D
:10330000880B990B0E944B2C23E23BED49E75DE3D0
:103310000E94632D69837A838B839C83BE016F5FD8
:103320007F4F88E390E00E94D20D68ED72E081E467
:1033300090E00E94BA0D67ED72E082E490E00E9496
:10334000BA0D66ED72E083E490E00E94BA0D65ED7F
:1033500072E084E490E00E94BA0D64ED72E085E4CE
:1033600090E00E94BA0D63ED72E086E490E00E9466
:10337000BA0D60E083E10E94500345E066E970E029
:1033800080E090E00E94CF056FE772E084E290E079
:103390000E94690E6BE772E088E290E00E94690E7D
:1033A00067E772E08CE290E00E94690E63E772E0EA
:1033B00080E390E00E94690E6FE672E084E390E0A3
:1033C0000E94690E6BE672E088E390E00E94690E4D
:1033D00068ED72E081E490E00E945F0E67ED72E0BC
:1033E00082E490E00E945F0E66ED72E083E490E07C
:1033F0000E945F0E65ED72E084E490E00E945F0E33
:1034000064ED72E085E490E00E945F0E63ED72E08F
:1034100086E490E00E945F0E80910C03882309F4FB
:1034200074C12AE939E949E750E460917F0270915B
:10343000800280918102909182020E94A12B0E94C1
:10344000132C6038710514F06FE770E060383FEFBF
:10345000730714F460E87FEF462F61E78AE894E091
:103460000E94180782E1898322E030E041E050E0C9
:10347000BE016F5F7F4F8AE894E00E94AA0601E0D8
:1034800010E026E030E041E067E78AE894E00E943F
:1034900030072AE939E949E750E460917B027091ED
:1034A0007C0280917D0290917E020E94A12B0E945D
:1034B000132C6038710514F06FE770E060384FEF3F
:1034C000740714F460E87FEF462F62E78AE894E01F
:1034D0000E94180784E1898322E030E041E050E057
:1034E000BE016F5F7F4F8AE894E00E94AA0601E068
:1034F00010E026E030E041E067E78AE894E00E94CF
:1035000030072AE939E949E750E460917702709180
:1035100078028091790290917A020E94A12B0E94F8
:10352000132C6038710514F06FE770E060385FEFBE
:10353000750714F460E87FEF462F63E78AE894E0AC
:103540000E94180786E1898322E030E041E050E0E4
:10355000BE016F5F7F4F8AE894E00E94AA0601E0F7
:1035600010E026E030E041E067E78AE894E00E945E
:10357000300723E23BED49E75DE360917302709110
:10358000740280917502909176020E94A12B0E9494
:10359000132C611582E0780714F06FEF71E07B0166
:1035A00061157E4F1CF4E12C6EEFF62E4E2D64E774
:1035B0008AE894E00E94180702E010E030E020E082
:1035C0004F2D67E78AE894E00E9430078CE08983FA
:1035D00022E030E041E050E0BE016F5F7F4F8AE8BB
:1035E00094E00E94AA0601E010E027E030E041E00C
:1035F00067E78AE894E00E94300723E23BED49E761
:103600005DE360916F027091700280917102909100
:1036100072020E94A12B0E94132C6115A2E07A076E
:1036200014F06FEF71E07B0161157E4F1CF4E12C0B
:103630005EEFF52E4E2D65E78AE894E00E941807AC
:1036400002E010E022E030E04F2D67E78AE894E0E6
:103650000E9430078EE0898322E030E041E050E0B4
:10366000BE016F5F7F4F8AE894E00E94AA0601E0E6
:1036700010E027E030E041E067E78AE894E00E944C
:10368000300723E23BED49E75DE360916B02709107
:103690006C0280916D0290916E020E94A12B0E949B
:1036A000132C611502E0700714F06FEF71E07B01DD
:1036B00061157E4F1CF4E12C4EEFF42E4E2D66E783
:1036C0008AE894E00E94180702E010E024E030E06D
:1036D0004F2D67E78AE894E00E94300780E18983F4
:1036E00022E030E041E050E0BE016F5F7F4F8AE8AA
:1036F00094E00E94AA0601E010E027E030E041E0FB
:1037000067E78AE894E00E94300780910C038823E1
:1037100011F40C94B4258CE390E00E94B50E91E076
:10372000811101C090E09093050380911101909167
:103730000503992311F0811182E08093FB028DE350
:1037400090E00E94B50E833011F00C94B82583E20E
:1037500090E0A0E0B0E080930C0190930D01A09365
:103760000E01B0930F013324339432E0232E0E94D4
:1037700010080E940E060091A7021091A802209145
:10378000A9023091AA02601B710B820B930B67395F
:1037900071058105910508F441C00E940E066093F1
:1037A000A7027093A8028093A9029093AA02809125
:1037B000960490919704A0919804B0919904892B54
:1037C0008A2B8B2B11F40C94FB25EBE9F2E083E8B8
:1037D00092E02FE8E22E22E0F22E409196045091E2
:1037E000970460919804709199040191119121912D
:1037F0003191041715072607370711F00C94BE25E1
:103800003092F2021092F0021092EF02109296049F
:1038100010929704109298041092990480910C03CE
:10382000882311F40C94B024C090DD02D090DE0205
:10383000E090DF02F090E0020E940E069701860100
:10384000085D1F4F2F4F3F4F0617170728073907EF
:1038500010F00C94B0240E940E066C197D098E099C
:103860009F090E94492C6093D9027093DA028093D9
:10387000DB029093DC020E940E066093DD027093DF
:10388000DE028093DF029093E0020E94B1068091F5
:10389000D8026091DA037091DB03681B710987FD20
:1038A00073958DEB94E00E94320BBC01990F880B4D
:1038B000990B0E944B2C698B7A8B8B8B9C8B809104
:1038C000D7026091D8037091D903681B710987FDF5
:1038D000739586EB94E00E94320BBC01990F880B24
:1038E000990B0E944B2C6D8B7E8B8F8B988F8091C8
:1038F000D6026091D6037091D703681B710987FDCA
:1039000073958FEA94E00E94320BBC01990F880BEB
:10391000990B0E944B2C698F7A8F8B8F9C8F809193
:10392000D5026091D4037091D503681B710987FD9E
:10393000739588EA94E00E94320B8C018091D40246
:103940006091D2037091D303681B710987FD739551
:1039500081EA94E00E94320B7C018091D302609155
:10396000D0037091D103681B710987FD73958AE9B3
:1039700094E00E94320B6C012091D5028091D40317
:103980009091D503821B910927FD93950396079784
:1039900010F40C940326B801110F880B990B0E94A8
:1039A0004B2C25E33AEF4EE85CE30E94632D20E0C8
:1039B00030E043E053E40E94A12B6D837E838F832C
:1039C00098872091D4028091D2039091D303821BD7
:1039D000910927FD93950396079710F40C940926F7
:1039E000B701FF0C880B990B0E944B2C25E33AEF93
:1039F0004EE85CE30E94632D20E030E043E053E4B6
:103A00000E94A12B69877A878B879C872091D3029C
:103A10008091D0039091D103821B910927FD93954A
:103A20000396079710F40C940F26B601DD0C880B53
:103A3000990B0E944B2C25E33AEF4EE85CE30E9481
:103A4000632D20E030E043E053E40E94A12B6D871A
:103A50007E878F87988B20E030E04AE754E46091BE
:103A6000D9027091DA028091DB029091DC020E940F
:103A7000A12B6D8F7E8F8F8F98A36091BF02709165
:103A8000C0028091C1029091C2024090BB0250904E
:103A9000BC026090BD027090BE02C090B702D09090
:103AA000B802E090B902F090BA0290582D813E81A0
:103AB0004F8158850E94632D4B015C01A301920147
:103AC00069857A858B859C850E94632D9B01AC015D
:103AD000C501B4010E94A22A4B015C01A701960115
:103AE0006D857E858F8598890E94632D9B01AC0131
:103AF000C501B4010E94A22A20E030E040E05FE36B
:103B00000E94632D69A37AA38BA39CA32091080133
:103B10003091090140910A0150910B014090BB0284
:103B20005090BC026090BD027090BE02C090B7027F
:103B3000D090B802E090B902F090BA026D817E8117
:103B40008F8198850E94632D4B015C01A301920136
:103B50006D857E858F8598890E94632D9B01AC01C0
:103B6000C501B4010E94A32A4B015C01A701960183
:103B700069857A858B859C850E94632D9B01AC01AC
:103B8000C501B4010E94A22A20E030E040E05FE3DA
:103B90000E94632D6DA37EA38FA398A72091080197
:103BA0003091090140910A0150910B014090BF02F0
:103BB0005090C0026090C1027090C202C090B702E3
:103BC000D090B802E090B902F090BA0269857A8587
:103BD0008B859C850E94632D4B015C01A3019201A2
:103BE0006D857E858F8598890E94632D9B01AC0130
:103BF000C501B4010E94A22A4B015C01A7019601F4
:103C00006D817E818F8198850E94632D9B01AC011F
:103C1000C501B4010E94A32A20E030E040E05FE348
:103C20000E94632D69A77AA78BA79CA72091080102
:103C30003091090140910A0150910B018090BF021F
:103C40009090C002A090C102B090C202C090BB028E
:103C5000D090BC02E090BD02F090BE026D857E85E2
:103C60008F8598890E94632D2B013C01A501940149
:103C700069857A858B859C850E94632D9B01AC01AB
:103C8000C301B2010E94A32A4B015C01A701960166
:103C90006D817E818F8198850E94632D9B01AC018F
:103CA000C501B4010E94A22A20E030E040E05FE3B9
:103CB0000E94632D6DA77EA78FA798AB20E030E010
:103CC000A90169897A898B899C890E949C2B811121
:103CD00017C020E030E0A9016D897E898F89988D19
:103CE0000E949C2B81110CC020E030E0A901698D5D
:103CF0007A8D8B8D9C8D0E949C2B882309F4D0C3D8
:103D000029893A894B895C89CA01B9010E94632DCE
:103D10006B017C012D893E894F89588DCA01B901FB
:103D20000E94632D9B01AC01C701B6010E94A32A2A
:103D30006B017C01298D3A8D4B8D5C8DCA01B901D7
:103D40000E94632D9B01AC01C701B6010E94A32A0A
:103D50000E9495076B017C01AC019B0169897A89FE
:103D60008B899C890E94632D6D837E838F839887C6
:103D7000A70196016D897E898F89988D0E94632D98
:103D80002B013C01A7019601698D7A8D8B8D9C8D4D
:103D90000E94632D6DAB7EAB8FAB98AF6091080135
:103DA0007091090180910A0190910B019B01AC0176
:103DB0000E94A32A69AF7AAF8BAF9CAF6091BF021C
:103DC0007091C0028091C1029091C2029B01AC012E
:103DD0000E94A32A21966CAF7DAF8EAF9FAF219733
:103DE0006091BB027091BC028091BD029091BE02B5
:103DF0009B01AC010E94A32A25966CAF7DAF8EAFCC
:103E00009FAF25976091B7027091B8028091B90277
:103E10009091BA029B01AC010E94A32A29966CAF33
:103E20007DAF8EAF9FAF2997609108017091090116
:103E300080910A0190910B0120E030E040E850E4CD
:103E40000E94632D6B017C016091BF027091C002E2
:103E50008091C1029091C20220E030E040E850E43D
:103E60000E94632D698B7A8B8B8B9C8B6091BB023C
:103E70007091BC028091BD029091BE0220E030E0C2
:103E800040E850E40E94632D6D8B7E8B8F8B988F62
:103E90006091BF027091C0028091C1029091C202F4
:103EA00020E030E040E051E40E94632D2D966CAF9D
:103EB0007DAF8EAF9FAF2D976091BB027091BC021A
:103EC0008091BD029091BE0220E030E040E051E4DC
:103ED0000E94632D61966CAF7DAF8EAF9FAF6197EF
:103EE000209108013091090140910A0150910B0184
:103EF00029AB3AAB4BAB5CAB8091080190910901C7
:103F0000A0910A01B0910B0169968CAF9DAFAEAF45
:103F1000BFAF69976091BF027091C0028091C102EA
:103F20009091C2022091BF023091C0024091C10223
:103F30005091C2020E94632D69877A878B879C8784
:103F40006091BB027091BC028091BD029091BE0253
:103F50002091BB023091BC024091BD025091BE0243
:103F60000E94632D6D877E878F87988B6091B70243
:103F70007091B8028091B9029091BA022091B70273
:103F80003091B8024091B9025091BA020E94632D5B
:103F900065966CAF7DAF8EAF9FAF65972D853E85E3
:103FA0004F855889C701B6010E94632D4B015C0102
:103FB00025962CAD3DAD4EAD5FAD25976D817E81D3
:103FC0008F8198850E94632D9B01AC01C501B401CE
:103FD0000E94A32A4B015C0129853A854B855C85AB
:103FE000C701B6010E94632D9B01AC01C501B4015C
:103FF0000E94A32A6B017C0121962CAD3DAD4EADF4
:104000005FAD2197C301B2010E94632D9B01AC01FA
:10401000C701B6010E94A22A698F7A8F8B8F9C8F6D
:1040200069962CAD3DAD4EAD5FAD699769A97AA992
:104030008BA99CA90E94632D20E030E040E850E469
:104040000E94632D6B017C010091BF021091C002A0
:104050002091C1023091C20209AB1AAB2BAB3CAB31
:1040600065962CAD3DAD4EAD5FAD659769897A899A
:104070008B899C890E94632D4B015C0129962CAD94
:104080003DAD4EAD5FAD29976D817E818F81988565
:104090000E94632D9B01AC01C501B4010E94A22ABC
:1040A0004B015C0129A93AA94BA95CA9C701B6013A
:1040B0000E94632D9B01AC01C501B4010E94A32A9B
:1040C0004B015C0129AD3AAD4BAD5CADC301B20112
:1040D0000E94632D9B01AC01C501B4010E94A22A7C
:1040E00029893A894B895C890E94A22A4B015C018B
:1040F00029853A854B855C852D966CAD7DAD8EAD61
:104100009FAD2D970E94632D9B01AC01C501B401A9
:104110000E94A32A4B015C012D853E854F8558895D
:104120002D966CAD7DAD8EAD9FAD2D970E94632D0C
:104130009B01AC01C501B4010E94A32A4B015C01A3
:1041400029893A894B895C896DA97EA98FA998AD87
:104150000E94632D9B01AC01C501B4010E94A32AFA
:10416000698B7A8B8B8B9C8B2091BB023091BC022C
:104170004091BD025091BE02C701B6010E94632D5D
:104180006B017C0129AD3AAD4BAD5CAD6D817E819B
:104190008F8198850E94632D9B01AC01C701B601F8
:1041A0000E94A32A6B017C0165962CAD3DAD4EADFE
:1041B0005FAD65976D897E898F89988D0E94632D8B
:1041C0009B01AC01C701B6010E94A32A6B017C01CF
:1041D00029962CAD3DAD4EAD5FAD2997C301B2011F
:1041E0000E94632D9B01AC01C701B6010E94A22A67
:1041F0002D893E894F89588D0E94A22A6B017C012E
:1042000029853A854B855C8561966CAD7DAD8EAD1B
:104210009FAD61970E94632D9B01AC01C701B60160
:104220000E94A32A6B017C012D853E854F8558890C
:1042300061966CAD7DAD8EAD9FAD61970E94632D93
:104240009B01AC01C701B6010E94A32A6B017C014E
:104250002D893E894F89588D6DA97EA98FA998AD6A
:104260000E94632D9B01AC01C701B6010E94A32AE5
:104270006D8B7E8B8F8B988FC090B702D090B802D9
:10428000E090B902F090BA028090B7029090B80224
:10429000A090B902B090BA0220E030E040E850E4CB
:1042A00069857A858B859C850E94632DA70196017F
:1042B0000E94632D6B017C0121962CAD3DAD4EAD6E
:1042C0005FAD21976D817E818F8198850E94632DDE
:1042D0009B01AC01C701B6010E94A22A6B017C01BF
:1042E00020E030E040E850E46D857E858F85988938
:1042F0000E94632DA50194010E94632D9B01AC01D6
:10430000C701B6010E94A32A6B017C0125962CAD42
:104310003DAD4EAD5FAD2597C301B2010E94632D47
:104320009B01AC01C701B6010E94A22A4B015C01AE
:10433000298D3A8D4B8D5C8DCA01B9010E94632D88
:104340006B017C0129893A894B895C89CA01B901D1
:104350000E94632D9B01AC01C701B6010E94A32AF4
:104360006B017C012D893E894F89588DCA01B901A5
:104370000E94632D9B01AC01C701B6010E94A32AD4
:104380006B017C01A5019401C501B4010E94632D5C
:104390009B01AC01C701B6010E94A32A0E949507A8
:1043A0006B017C0140900401509005016090060172
:1043B00070900701AC019B01698D7A8D8B8D9C8D6E
:1043C0000E94632DA30192010E94632D9B01AC0109
:1043D00069A17AA18BA19CA10E94A22A69A37AA3B8
:1043E0008BA39CA3409004015090050160900601AE
:1043F00070900701A701960169897A898B899C8948
:104400000E94632DA30192010E94632D9B01AC01C8
:104410006DA17EA18FA198A50E94A22A6DA37EA363
:104420008FA398A740900401509005016090060169
:1044300070900701A70196016D897E898F89988DFB
:104440000E94632DA30192010E94632D9B01AC0188
:1044500069A57AA58BA59CA50E94A22A69A77AA71F
:104460008BA79CA740900401509005016090060125
:1044700070900701A7019601C501B4010E94632D48
:10448000A30192010E94632D9B01AC016DA57EA545
:104490008FA598A90E94A22A6DA77EA78FA798AB87
:1044A000C0900801D0900901E0900A01F0900B0142
:1044B00029A13AA14BA15CA16D8D7E8D8F8D98A114
:1044C0000E94632DA70196010E94A32A6093080110
:1044D0007093090180930A0190930B01C090BF0271
:1044E000D090C002E090C102F090C2022DA13EA186
:1044F0004FA158A56D8D7E8D8F8D98A10E94632D43
:10450000A70196010E94A32A6093BF027093C00284
:104510008093C1029093C202C090BB02D090BC02B3
:10452000E090BD02F090BE0229A53AA54BA55CA57E
:104530006D8D7E8D8F8D98A10E94632DA7019601B0
:104540000E94A32A6093BB027093BC028093BD02B9
:104550009093BE02C090B702D090B802E090B9022A
:10456000F090BA022DA53EA54FA558A96D8D7E8D60
:104570008F8D98A10E94632DA70196010E94A32A06
:104580006093B7027093B8028093B9029093BA0215
:10459000609108017091090180910A0190910B01CD
:1045A000209108013091090140910A0150910B01BD
:1045B0008090BF029090C002A090C102B090C20251
:1045C0004090BF025090C0026090C1027090C20241
:1045D000E090BB02F090BC020091BD021091BE02BF
:1045E000ED82FE820F831887E090BB02F090BC0240
:1045F0000091BD021091BE02E986FA860B871C87E6
:10460000E090B702F090B8020091B9021091BA029E
:10461000ED86FE860F87188BE090B702F090B80207
:104620000091B9021091BA02E98AFA8A0B8B1C8BAD
:104630000E94632D6B017C01A3019201C501B401AD
:104640000E94632D9B01AC01C701B6010E94A32A01
:104650006B017C0129853A854B855C856D817E8166
:104660008F8198850E94632D9B01AC01C701B60123
:104670000E94A32A6B017C0129893A894B895C89B4
:104680006D857E858F8598890E94632D9B01AC0185
:10469000C701B6010E94A32A0E9495076B017C0105
:1046A000209108013091090140910A0150910B01BC
:1046B0000E94632D609308017093090180930A01A1
:1046C00090930B012091BF023091C0024091C10232
:1046D0005091C202C701B6010E94632D6093BF02D0
:1046E0007093C0028093C1029093C2022091BB02DA
:1046F0003091BC024091BD025091BE02C701B6018B
:104700000E94632D6093BB027093BC028093BD0234
:104710009093BE022091B7023091B8024091B90245
:104720005091BA02C701B6010E94632D6093B7028F
:104730007093B8028093B9029093BA02E090080196
:10474000F090090100910A0110910B01ED82FE82A7
:104750000F831887E092C302F092C4020093C5024F
:104760001093C6024090BF025090C0026090C102F8
:104770007090C2024092C7025092C8026092C90271
:104780007092CA028090BB029090BC02A090BD02C1
:10479000B090BE028092CB029092CC02A092CD0249
:1047A000B092CE02C090B702D090B802E090B902A9
:1047B000F090BA02C092CF02D092D002E092D10221
:1047C000F092D202A5019401C501B4010E94632DAB
:1047D00069877A878B879C87A3019201C301B20105
:1047E0000E94632D29853A854B855C850E94A32A0A
:1047F0009B01AC010E94A32A9B01AC0160E070E028
:1048000080E89FE30E94A22A6D877E878F87988B1E
:10481000A7019601C501B4010E94632D698B7A8BB3
:104820008B8B9C8BA30192016D817E818F819885FA
:104830000E94632D9B01AC0169897A898B899C89CF
:104840000E94A32A9B01AC010E94A32A2D853E85CC
:104850004F8558890E943D2B6093AB027093AC0248
:104860008093AD029093AE02A7019601C301B201FD
:104870000E94632D6D877E878F87988BA501940199
:104880006D817E818F8198850E94632D9B01AC0193
:104890006D857E858F8598890E94A22A20E030E070
:1048A00040E050EC0E94632D0E940F2B6093AF02FA
:1048B0007093B0028093B1029093B202A701960167
:1048C000C701B6010E94632D29853A854B855C8519
:1048D0000E94A32A9B01AC010E94A32A9B01AC0168
:1048E00060E070E080E89FE30E94A22A69877A87EF
:1048F0008B879C87A5019401C301B2010E94632D9F
:104900004B015C01A70196016D817E818F819885A5
:104910000E94632D9B01AC01C501B4010E94A32A32
:104920009B01AC010E94A32A29853A854B855C85B1
:104930000E943D2B6093B3027093B4028093B50242
:104940009093B60225E33AEF4EE85CE30E94A12B78
:104950006093F7027093F8028093F9029093FA0241
:104960000E940E06009108031091090320910A038A
:1049700030910B03601B710B820B930B6536710535
:104980008105910508F47BC00E940E066093080320
:104990007093090380930A0390930B0397E4F92E15
:1049A000F0927C0080917A00806480937A008091FC
:1049B0007A0086FDFCCFA0917800B0917900B09389
:1049C0000703A09306031091040380910503882335
:1049D00039F080911101882319F0112309F44FC097
:1049E0002EE036E00E94952A2FEF33E040E050E0C1
:1049F0000E941E2ACA01B9016E5C7F4F8F4F9F4FE4
:104A00000E944B2C0E94F7001123C9F1A0910603CC
:104A1000B091070380910203909103038D01081B5D
:104A2000190BC80117FF03C091958195910906974D
:104A300014F0309201038091010381110CC08EE3C8
:104A400090E00E94082A89838FE390E00E94082A60
:104A50008A83A981BA812EE036E00E94952A2FEF41
:104A600033E040E050E00E941E2ACA01B9016E5CAA
:104A70007F4F8F4F9F4F0E944B2C0E94F70081E188
:104A80000E942703892BD1F480910003811116C065
:104A900080910403811112C0309200030E940E061F
:104AA0006093FC027093FD028093FE029093FF02DC
:104AB00062E370E080E090E00E949D0581E10E9449
:104AC0002703892BD1F480910403811116C00E9421
:104AD0000E060091FC021091FD022091FE02309121
:104AE000FF02601B710B820B930B613D77408105C8
:104AF000910518F026E02093FB0281E10E94270334
:104B0000892B09F4B3C080910003882309F4AEC057
:104B1000809104038111AAC0109200030E940E0626
:104B20000091FC021091FD022091FE023091FF02E3
:104B3000601B710B820B930B613D774081059105E2
:104B400020F080910C03811170C08091110111E05F
:104B5000182710931101809311051111C7C183ED1E
:104B600094E00E94EE07C4C1109205030C94951BBB
:104B700080E590E0A0E0B0E00C94AB1B409196047F
:104B8000509197046091980470919904D7010D9108
:104B90001D912D913D917D010417150726073707BB
:104BA00031F41092F2023092F0020C94041C409105
:104BB0009604509197046091980470919904DC01D7
:104BC0000D911D912D913D91CD01041715072607DB
:104BD000370741F41092F2021092F0023092EF0285
:104BE0000C94061C07EA12E00E171F0711F00C9434
:104BF000ED1B0C94061C1092F2021092F00210921F
:104C0000EF020C940E1C1D821E821F8218860C94CB
:104C1000E11C19861A861B861C860C94061D1D86AF
:104C20001E861F86188A0C942B1D8CE390E00E9430
:104C3000B50E61E0811160E0609305038CE390E0C4
:104C40000E94102A8CE390E00E94B50E91E0811141
:104C500001C090E09093050390911101882309F41D
:104C600042C1992309F43FC12092FB028EE00E94C9
:104C70002703892B21F08091F2028823E1F18091B2
:104C8000F102811138C03092F10210920503809137
:104C90000403882361F080910103882341F066E0DA
:104CA00073E08EE390E00E94380E109201031092A0
:104CB000040310921F0510921E05109220051092F9
:104CC000210510922205109223051092ED041092F6
:104CD000EE041092EF041092F00462E370E080E0C2
:104CE00090E00E949D0541E050E06FEF76EE8FEF7F
:104CF0009FEF0E9435048EE00E942703892B09F460
:104D000043C08091F20281113FC08091F002811175
:104D10003BC08091EF02811137C08091F10288235E
:104D200099F11092F1028091040381112DC00E942B
:104D3000F50780910C03882309F4FAC08CE390E016
:104D40000E94B50E91E0811101C090E0909305039F
:104D50008091110190910503992309F4ECC08823F7
:104D600009F4E9C02092FB028091F7029091F802C9
:104D7000A091F902B091FA028093F3029093F402A9
:104D8000A093F502B093F6028FE00E942703892BCF
:104D900021F08091F0028823E1F18091EE028111EF
:104DA00038C03092EE0210920503809104038823EC
:104DB00061F080910103882341F066E073E08EE3A7
:104DC00090E00E94380E109201031092040310929A
:104DD0001F0510921E0510922005109221051092B9
:104DE0002205109223051092ED041092EE04109209
:104DF000EF041092F00462E370E080E090E00E9423
:104E00009D0541E050E061E079E180E090E00E94A2
:104E100035048FE00E942703892B09F443C0809159
:104E2000F20281113FC08091F00281113BC080915C
:104E3000EF02811137C08091EE02882399F1109220
:104E4000EE028091040381112DC00E94F50780912C
:104E50000C03882309F472C08CE390E00E94B50E25
:104E600091E0811101C090E09093050380911101C0
:104E700090910503992309F464C0882309F461C063
:104E80002092FB028091F7029091F802A091F90222
:104E9000B091FA028093F3029093F402A093F5028A
:104EA000B093F6028EE00E942703892B09F44CC0D0
:104EB00080E10E942703892B09F44CC08091EF0206
:104EC000811148C08EE00E942703892B09F49AC003
:104ED00080E10E942703892B09F49AC08091EF0298
:104EE000811196C0A9C09093FB02C0CE0E9413040A
:104EF000109204030E94F507809105038823A9F00E
:104F0000112399F02092FB028091F7029091F80210
:104F1000A091F902B091FA028093F3029093F40207
:104F2000A093F502B093F602A1CE1093FB02ECCF52
:104F3000109205030DCF8093FB0216CF109205034C
:104F400095CF8093FB029ECF8FE00E942703892B91
:104F500009F0AECF8091ED028111B4CF3092ED0215
:104F60000E940E066093E9027093EA028093EB02BE
:104F70009093EC02109205030E94F50710921F0512
:104F800010921E0510922005109221051092220504
:104F9000109223051092ED041092EE041092EF048B
:104FA0001092F00480910403882309F10E94F50710
:104FB0001092D3041092D4041092D5041092D60407
:104FC000109204051092050510920605109207052F
:104FD0008DE390E00E94B50E8093FB0230921001A9
:104FE00064EF71E080E090E00E949D056BCF30920D
:104FF0000403809106039091070390930303809329
:105000000203E6CF8FE00E942703892B09F060CFCF
:105010000E940E060091E9021091EA022091EB0233
:105020003091EC02601B710B820B930B613D77405A
:105030008105910508F00DC18EE00E942703892BA0
:1050400009F44FC08FE00E942703892B09F449C05F
:1050500080E10E942703892B09F443C08091EF026D
:1050600081113FC08091ED028823D9F11092ED02A9
:105070000E940E060091E9021091EA022091EB02D3
:105080003091EC02601B710B820B930B613D7740FA
:105090008105910530F18DE390E00E94B50E64E04A
:1050A000833009F063E08DE390E00E94102A8DE3E5
:1050B00090E00E94B50E833009F0CFC013E2E12EDC
:1050C000F12C00E010E0E0920C01F0920D01009351
:1050D0000E0110930F018DE390E00E94B50E8093B6
:1050E000FB0280910403882309F446C00E94100843
:1050F000811142C01091100121E01227109310017C
:1051000064E070E080E090E00E949D05612F87E000
:105110000E94500364E070E080E090E00E949D05F2
:1051200060910C0170910D0180910E0190910F0121
:10513000112309F4A4C00E944B2C21E73DE34EE863
:1051400051E40E94632D6B017C0120E030E0A90155
:105150000E94562D20E030E040E05FE387FD8AC0EA
:10516000C701B6010E94A32A0E94132C50E040E020
:105170000E9435040E94100880910503882309F4D9
:1051800021C180911101882309F41CC180910C0375
:10519000882309F417C1C090E502D090E602E090A0
:1051A000E702F090E8023AEFC30ED11CE11CF11CBB
:1051B0000E940E06C616D706E806F90608F002C1D8
:1051C0000E940E066093E5027093E6028093E70268
:1051D0009093E8028090F7029090F802A090F90274
:1051E000B090FA024090F3025090F4026090F50201
:1051F0007090F602A3019201C501B4010E94A22A97
:105200006B017C0120E030E0A9010E94562D1816A8
:105210000CF05DC026E636E646EE5EE3C701B60159
:105220000E94562D18160CF05CC020E030E044E3DC
:1052300053E4C701B6010E94562D18160CF464C041
:10524000C092E102D092E202E092E302F092E40224
:1052500074C056E05093FB02EFCE00E510E020E072
:1052600030E000930C0110930D0120930E01309358
:105270000F0131CFC701B6010E94A22A75CF0E944B
:105280004B2C21E73DE34EE851E40E94632D6B0176
:105290007C0120E030E0A9010E94562D20E030E0A2
:1052A00040E05FE387FD0EC0C701B6010E94A32A5C
:1052B0000E94132C90958095709561957F4F8F4F2C
:1052C0009F4F54CFC701B6010E94A22AF1CF26E614
:1052D00036E646EE5EEBC701B6010E949C2B87FDC9
:1052E00009C01092E1021092E2021092E3021092C1
:1052F000E40268C020E030E044E353ECC701B601AB
:105300000E949C2B87FF9CCFA3019201C501B40191
:105310000E94562D20E030E044EB53E418160CF0C8
:1053200065C0C701B6010E94A22A6093E102709392
:10533000E2028093E3029093E4028092F30290925F
:10534000F402A092F502B092F60210921F0510929C
:105350001E05109220051092210510922205109230
:1053600023051092ED041092EE041092EF041092B7
:10537000F00421E73DE34EE851E46091E1027091D1
:10538000E2028091E3029091E4020E94632D6B019E
:105390007C0120E030E0A9010E94562D20E030E0A1
:1053A00040E950E418163CF5C701B6010E94632D90
:1053B0000E94F700C701B6010E94132C41E050E0A3
:1053C0000E9435048091FB020E941A0640E050E0E2
:1053D000452B11F40C94B71B0E94EA02882311F4A8
:1053E0000C94B51B0E9400000C94B51BC701B601BC
:1053F0000E94A32A9ACFC701B6019058D7CFFB01CC
:10540000DC0102C005900D9241505040D8F708953C
:10541000F999FECF92BD81BDF89A992780B508957C
:10542000262FF999FECF1FBA92BD81BD20BD0FB6C0
:10543000F894FA9AF99A0FBE01960895052E97FBF3
:105440001EF400940E94352A57FD07D00E94502A6E
:1054500007FC03D04EF40C94352A509540953095B6
:1054600021953F4F4F4F5F4F0895909580957095D0
:1054700061957F4F8F4F9F4F08950E94722AA59F7D
:10548000900DB49F900DA49F800D911D112408953F
:10549000B7FF0C943D2A0E943D2A821B930B08956E
:1054A000A1E21A2EAA1BBB1BFD010DC0AA1FBB1F28
:1054B000EE1FFF1FA217B307E407F50720F0A21B9A
:1054C000B30BE40BF50B661F771F881F991F1A9407
:1054D00069F760957095809590959B01AC01BD0131
:1054E000CF010895A29FB001B39FC001A39F700D8B
:1054F000811D1124911DB29F700D811D1124911DDC
:105500000895AA1BBB1B51E107C0AA1FBB1FA6170A
:10551000B70710F0A61BB70B881F991F5A95A9F75C
:1055200080959095BC01CD0108950E94722AB7FF25
:105530000895821B930B0895EE0FFF1F0590F491C1
:10554000E02D09945058BB27AA270E94BA2A0C9430
:105550001C2D0E940E2D38F00E94152D20F039F4DC
:105560009F3F19F426F40C94D02C0EF4E095E7FB41
:105570000C94CA2CE92F0E942D2D58F3BA176207FC
:1055800073078407950720F079F4A6F50C944F2D46
:105590000EF4E0950B2EBA2FA02D0B01B90190014E
:1055A0000C01CA01A0011124FF27591B99F0593F92
:1055B00050F4503E68F11A16F040A22F232F342FDA
:1055C0004427585FF3CF469537952795A795F04028
:1055D0005395C9F77EF41F16BA0B620B730B840B3D
:1055E000BAF09150A1F0FF0FBB1F661F771F881FF5
:1055F000C2F70EC0BA0F621F731F841F48F487954D
:1056000077956795B795F7959E3F08F0B0CF93953E
:10561000880F08F09927EE0F9795879508959F9327
:105620009F77EEE389379E0728F4E8E6F0E00E94D2
:10563000FA2C0CC00E94862C9058A2EA2AED3FE07A
:1056400049EC5FE30E94BA2A0E941C2D0F9007FCD0
:10565000905808950E940E2D60F080E891E009F4C2
:105660009EEF0E94152D28F040E851E071F45EEFA6
:105670000CC00C94D02C0C944F2DE92FE0780E9494
:105680002D2D40F3092E052AB1F3261737074807B9
:10569000590738F00E2E07F8E02569F0E025E064A0
:1056A0000AC0EF6307F8009407FADB01B9019D0116
:1056B000DC01CA01AD01EF930E94B82B0E941C2DA2
:1056C0000E946D2B5F91552339F02BED3FE049E4AB
:1056D00050FD49EC0C94A32A0895DF93DD27B92FE0
:1056E000BF7740E85FE31616170648075B0718F414
:1056F000D92F0E945B2D9F938F937F936F930E946E
:10570000162EECE7F0E00E94D32C0E941C2D2F9166
:105710003F914F915F910E94762DDD2351F090587B
:10572000A2EA2AED3FE049EC5FE3D0785D270E94D2
:10573000BA2ADF910C941C2D0E94A62C08F481E05B
:1057400008950E94B52B0C941C2D0E94152D58F025
:105750000E940E2D40F029F45F3F29F00C94CA2CD2
:1057600051110C94502D0C94D02C0E942D2D68F3C7
:105770009923B1F3552391F3951B550BBB27AA270A
:1057800062177307840738F09F5F5F4F220F331F44
:10579000441FAA1FA9F335D00E2E3AF0E0E832D00C
:1057A00091505040E695001CCAF72BD0FE2F29D00F
:1057B000660F771F881FBB1F261737074807AB07E1
:1057C000B0E809F0BB0B802DBF01FF2793585F4F56
:1057D0003AF09E3F510578F00C94CA2C0C94502D51
:1057E0005F3FE4F3983ED4F3869577956795B79538
:1057F000F7959F5FC9F7880F911D9695879597F943
:105800000895E1E0660F771F881FBB1F62177307BB
:105810008407BA0720F0621B730B840BBA0BEE1FD0
:1058200088F7E09508950E941A2C6894B1110C94A1
:10583000502D08950E94352D88F09F5798F0B92F6C
:105840009927B751B0F0E1F0660F771F881F991FB5
:105850001AF0BA95C9F714C0B13091F00E944F2DDB
:10586000B1E008950C944F2D672F782F8827B85FEB
:1058700039F0B93FCCF3869577956795B395D9F70D
:105880003EF490958095709561957F4F8F4F9F4F17
:105890000895E89409C097FB3EF490958095709523
:1058A00061957F4F8F4F9F4F9923A9F0F92F96E96C
:1058B000BB279395F695879577956795B795F111E1
:1058C000F8CFFAF4BB0F11F460FF1BC06F5F7F4F7E
:1058D0008F4F9F4F16C0882311F096E911C0772390
:1058E00021F09EE8872F762F05C0662371F096E899
:1058F000862F70E060E02AF09A95660F771F881F68
:10590000DAF7880F9695879597F90895DF93CF93E7
:105910001F930F938B01EC01E9EAF0E00E94D32C76
:105920000E941C2D9801AE018B01EC0160E070E03B
:1059300080E89FE30E94A22A0E94D62D9801AE0122
:105940000F911F91CF91DF910C94762D990F000844
:10595000550FAA0BE0E8FEEF16161706E807F90741
:10596000C0F012161306E407F50798F0621B730BDC
:10597000840B950B39F40A2661F0232B242B252B5D
:1059800021F408950A2609F4A140A6958FEF811D00
:10599000811D089597F99F6780E870E060E00895A1
:1059A0009FEF80EC0895DF93CF931F930F93FF92A7
:1059B000EF92DF927B018C01689406C0DA2EEF0132
:1059C0000E94762DFE01E894A5912591359145918F
:1059D0005591A6F3EF010E94BA2AFE019701A80192
:1059E000DA9469F7DF90EF90FF900F911F91CF91BC
:1059F000DF9108959F938F937F936F93FF93EF931E
:105A00009B01AC010E94632DEF91FF910E94D32C6A
:105A10002F913F914F915F910C94632D00240A9434
:105A20001616170618060906089500240A94121679
:105A30001306140605060895092E0394000C11F4AC
:105A4000882352F0BB0F40F4BF2B11F460FF04C059
:105A50006F5F7F4F8F4F9F4F089557FD9058440FB2
:105A6000551F59F05F3F71F04795880F97FB991FBD
:105A700061F09F3F79F0879508951216130614067A
:105A8000551FF2CF4695F1DF08C016161706180607
:105A9000991FF1CF86957105610508940895E894E2
:105AA000BB2766277727CB0197F908950E94A62C7C
:105AB00008F48FEF08959B01AC0160E070E080E88E
:105AC0009FE30C94A12B0E94762D0C941C2D0E9418
:105AD0000E2D38F00E94152D20F0952311F00C9416
