:100000000C9440010C94201D0C94F91C0C94680174
:100010000C9468010C9468010C9468010C946801BC
:100020000C9468010C9468010C9468010C946801AC
:100030000C9468010C9468010C9468010C9468019C
:100040000C94AF1C0C9468010C946D1D0C94471D0E
:100050000C9468010C9468010C9468010C9468017C
:100060000C94901B0C946801036EDB363D9A9999B1
:10007000993DABAAAA2A3E000000803F084AD73B20
:100080003BCE016E84BCBFFDC12F3D6C74319ABD67
:1000900056833DDA3D00C77F11BED9E4BB4C3E918B
:1000A0006BAAAABE000000803F072C7AA5BA6CC5D7
:1000B00090DA3B9365FC8BBC53F810FD3C56928361
:1000C0004DBD879D3AB63DCBC9BF5BBE73DA0FC944
:1000D0003F00090009005472696D204779726F0969
:1000E00000090009005472696D20416363656C0961
:1000F00000090009004779726F204F6666736574C6
:10010000090009000900416363656C204F6666734E
:10011000657409004E4557202020202020202020F3
:1001200009580959095A00090009005472696D20DB
:100130004779726F0900090009005472696D204106
:100140006363656C0900090009004779726F204FED
:100150006666736574090009000900416363656C94
:10016000204F66667365740900454550524F4D2017
:100170002009580959095A000920636F7272656392
:1001800074696F6E56616C756520000920416E6759
:100190006C6520494D552000524157204779726FB8
:1001A000205A200053746162696C697A6174696FC6
:1001B0006E204D6F646520000000000024002700C1
:1001C0002A0000000000230026002900000000088B
:1001D000000201000003040700000000000000000E
:1001E0005E01011F01030301008A02010A010202EC
:1001F000010064001E47040B0906007C0101060192
:1002000003030100F401060E0102020100C20117FE
:100210000101020201019600023E0106060100C82A
:100220000003820710031000C800820710071003A4
:10023000016D01120103010103010E0124010102FC
:10024000020101400124010102020101010204082E
:100250001020408001020408102001020408102030
:1002600000000000250028002B00040404040404FE
:1002700004040202020202020303030303039F1D9C
:1002800011241FBECFEFD8E0DEBFCDBF13E0A0E04A
:10029000B1E0E2E2F7E602C005900D92AA3FB10795
:1002A000D9F727E0AAEFB3E001C01D92AC34B20742
:1002B000E1F711E0C0E4D1E004C02197FE010E9403
:1002C000F72FCF33D107C9F70E94E01E0C948F336C
:1002D0000C940000CF92DF92EF92FF926B017C01B1
:1002E00020E030E0A9010E94B132181624F0F7FA9C
:1002F000F094F7F8F09424EB32EA41E959E3C701AE
:10030000B6010E94B132181644F084EBC82E82EA7E
:10031000D82E81E9E82E89E3F82EC0923C07D092CE
:100320003D07E0923E07F0923F078091440790918D
:100330004507892B51F020E030E040EA50E4C70146
:10034000B6010E94F73087FF12C0A701960160E056
:1003500074E284E799E40E94FC300E947531609356
:100360000D0770930E0780930F0790931007C70136
:10037000B6010E946E319B01770F440B550B285E2E
:10038000334041095109A0E5B9EC0E94A62F28E3AA
:100390003AE440E050E00E94792F2856354C4F4F08
:1003A0005F4F28393A4358F088EE93E09093120754
:1003B00080931107FF90EF90DF90CF90089588E928
:1003C0009AE3F4CF20918105260F3327331F213282
:1003D0003105ECF42091CC05FC0190E080E0243064
:1003E00069F082E00895A09181052191AC01415A04
:1003F0005A4FA40FB52FB11D2C930196861798F371
:1004000080918105680F6093810580E0089581E007
:100410000895089508950895E0915D0580915C0523
:10042000E81730F4F0E0E45CFA4F808190E0089542
:100430008FEF9FEF089590915D0580915C052FEF00
:100440003FEF981748F4E92FF0E0E45CFA4F208181
:1004500030E09F5F90935D05C901089580915C0530
:1004600090915D05891B990B0895CF92DF92EF92D1
:10047000FF920F931F93CF93DF937C01CB018A01EF
:100480002091D205222389F0EB016B01C40ED51E09
:10049000CC15DD0569F06991D701ED91FC910190D2
:1004A000F081E02DC7010995F3CF642F0E94E2018E
:1004B000C801DF91CF911F910F91FF90EF90DF90D6
:1004C000CF900895CF93DF931F92CDB7DEB76983A6
:1004D0002091D2052223F9F02091F505203258F021
:1004E00021E030E0FC013383228390E080E00F9034
:1004F000DF91CF9108958091D305E82FF0E0EC5281
:10050000FA4F998190838F5F8093D3058093F5058F
:1005100081E090E0ECCF61E0CE0101960E94E20123
:10052000F7CF833081F028F4813099F08230A9F040
:1005300008958730A9F08830C9F08430B1F48091F3
:1005400080008F7D03C0809180008F778093800032
:10055000089584B58F7784BD089584B58F7DFBCFD2
:100560008091B0008F778093B00008958091B000A3
:100570008F7DF9CFCF93DF93282F30E0F901E4533B
:10058000FE4F8491F901E45BFD4FD491F901E659E6
:10059000FD4FC491CC23A1F081110E949102EC2F58
:1005A000F0E0EE0FFF1FEE53FE4FA591B491EC91DA
:1005B000ED2381E090E009F480E0DF91CF91089590
:1005C00080E090E0FACF1F93CF93DF93282F30E0A5
:1005D000F901E453FE4F8491F901E45BFD4FD4919E
:1005E000F901E659FD4FC491CC23A9F0162F8111D2
:1005F0000E949102EC2FF0E0EE0FFF1FE05AFD4F3A
:10060000A591B4918FB7F894EC91111108C0D095D1
:10061000DE23DC938FBFDF91CF911F910895DE2BF6
:10062000F8CF1092CC0581E08093CB051092A605FF
:1006300061E082E10E94E30261E083E10E94E30263
:10064000E9EBF0E080818E7F808380818D7F8083E5
:1006500088E48093B80085E48093BC000895CF932C
:10066000DF9391E090935E058823B9F0C091B800C4
:10067000D091BA008091BC008A7B8093BC0060E07E
:1006800082E10E94E30260E083E10E94E3020E94B3
:100690001103D093BA00C093B800DF91CF910895B1
:1006A000CF93DF9390E0FC01E45BFD4F24918659EA
:1006B0009D4FFC0184918823D1F090E0880F991F11
:1006C000FC01E854FE4FA591B491FC01E05AFD4FA6
:1006D000C591D491623071F49FB7F8943C91822F08
:1006E000809583238C93E8812E2B28839FBFDF91F5
:1006F000CF9108958FB7F894EC912E2B2C938FBF48
:10070000F6CF3FB7F8948091380590913905A091C4
:100710003A05B0913B0526B5A89B05C02F3F19F0BF
:100720000196A11DB11D3FBFBA2FA92F982F882771
:10073000BC01CD01620F711D811D911D42E0660F4C
:10074000771F881F991F4A95D1F70895CF93DF939C
:10075000C9EFD6E081E08DAF1092380710923907CB
:1007600010923A0710923B070E9481036DA77EA763
:100770008FA798AB6CA37DA38EA39FA368A379A337
:100780008AA39BA36E818D81DF91CF910C94E302AC
:100790004F925F926F927F928F929F92AF92BF9291
:1007A000CF92DF92EF92FF926B017C018090F9066D
:1007B0009090FA06A090FB06B090FC06452B21F025
:1007C000C80CD91CEA1CFB1CC0922E07D0922F0724
:1007D000E0923007F0923107C814D904EA04FB0410
:1007E00009F441C040903C0750903D0760903E079F
:1007F00070903F078091440790914507892B51F0F5
:1008000020E030E040EA50E4C301B2010E94F7303A
:1008100087FF1BC0A301920160E074E284E799E4C2
:100820000E94FC300E94753160930D0770930E0793
:1008300080930F079093100781E08C149D04AE0401
:10084000BF040CF08FEF8093FD06FF90EF90DF90D8
:10085000CF90BF90AF909F908F907F906F905F9060
:100860004F900C94A603FF90EF90DF90CF90BF9035
:10087000AF909F908F907F906F905F904F90089572
:100880008F929F92AF92BF92CF92DF92EF92FF92A0
:100890000F931F93CF93DF93D091F505D13208F0DA
:1008A000D7C0182FC091F4050E9481036B017C0111
:1008B0008091CC0581116BC082E08093CC051093B0
:1008C000CB058FEF8093CA051092C905D093C80558
:1008D000A4EDB5E0E8EAF5E080E0D81391C010920D
:1008E000A7058091A705CC0FC82BC093A7058091C1
:1008F000A605813009F088C01092A6050E948103E8
:100900006B017C018091A7058093BB008091CE058F
:100910009091CF05A091D005B091D105892B8A2B5C
:100920008B2BA1F00E9481030091CE051091CF0581
:100930002091D0053091D1056C197D098E099F0950
:10094000061717072807390708F442C08091BC0032
:1009500083FDD8CF85EC8093BC000E9481036B019E
:100960007C018091CC05823009F450C08091CA0589
:100970008F3F09F46FC08091CA05803209F46CC0C2
:100980008091CA05803309F469C084E026C0809153
:10099000CE059091CF05A091D005B091D105892BBE
:1009A0008A2B8B2B09F484CF0E9481038090CE0583
:1009B0009090CF05A090D005B090D1056C197D091D
:1009C0008E099F0986169706A806B90608F070CF0B
:1009D0008091CD050E942F0385E01092D3051092DF
:1009E000F5051092D205DF91CF911F910F91FF90E5
:1009F000EF90DF90CF90BF90AF909F908F90089531
:100A00009D9191938F5F69CF85EEA5CF8091CE05A3
:100A10009091CF05A091D005B091D105892B8A2B5B
:100A20008B2B09F49ECF0E9481030091CE0510917B
:100A3000CF052091D0053091D1056C197D098E0923
:100A40009F09061717072807390708F08ACFC0CF74
:100A500081E0C3CF80E0C1CF82E0BFCF83E0BDCFD4
:100A60008F929F92AF92BF92CF92DF92EF92FF92BE
:100A70004B015C010E9481036B017C010E94810398
:100A80006C197D098E099F09683E734081059105A7
:100A9000A8F321E0821A9108A108B10888EEC80ED7
:100AA00083E0D81EE11CF11C81149104A104B1045F
:100AB00029F7FF90EF90DF90CF90BF90AF909F907D
:100AC0008F9008958F929F92BF92CF92DF92EF9274
:100AD000FF920F931F93CF93DF936B017C01042F41
:100AE00083E10E94BA024C01BB24B394892B09F420
:100AF000B12CD0E0C0E010E0C017D107B4F461E041
:100B00008114910409F060E083E10E94E302C701CF
:100B1000B6010E9430056B2D83E10E94E302C701FC
:100B2000B6010E9430052196E7CFDF91CF911F914A
:100B30000F91FF90EF90DF90CF90BF909F908F909C
:100B400008952FB7F8946091340570913505809120
:100B50003605909137052FBF0895CF92DF92EF921F
:100B6000FF920F931F93CF93DF9300D000D000D05C
:100B70001F92CDB7DEB797E0E4E1F1E0DE01119618
:100B800001900D929A95E1F721E030E02C0F3D1F86
:100B9000280F311DF90110810E94A105C0900306A4
:100BA000D0900406E0900506F09006066C197D09C9
:100BB0008E099F096739710581059105F0F00E9442
:100BC000A105609303067093040680930506909335
:100BD000060600910206812F90E0202F277002C0A8
:100BE000959587952A95E2F761E080FF60E083E1C3
:100BF0000E94E3020F5F0093020627960FB6F89457
:100C0000DEBF0FBECDBFDF91CF911F910F91FF903F
:100C1000EF90DF90CF9008950895AF92BF92CF925A
:100C2000DF92EF92FF920F931F93CF93DF936C01AC
:100C30007B018B01040F151FEB015E01AE18BF088D
:100C4000C017D10759F06991D601ED91FC9101903F
:100C5000F081E02DC6010995892B79F7C501DF9157
:100C6000CF911F910F91FF90EF90DF90CF90BF90A9
:100C7000AF90089590E080E00895FC01538D448D7D
:100C8000252F30E0842F90E0821B930B541710F037
:100C9000CF96089501970895FC01918D828D981744
:100CA00061F0A28DAE0FBF2FB11D5D968C91928D1C
:100CB0009F5F9F73928F90E008958FEF9FEF08954D
:100CC000FC01918D828D981731F0828DE80FF11D16
:100CD000858D90E008958FEF9FEF0895FC01918D31
:100CE000228D892F90E0805C9F4F821B91098F732A
:100CF0009927089583E196E00E946E0621E0892BF2
:100D000009F420E0822F089580E090E0892B29F0FB
:100D10000E947A0681110C9400000895FC01A48DB4
:100D2000A80FB92FB11DA35ABF4F2C91848D90E00D
:100D300001968F739927848FA689B7892C93A089F0
:100D4000B1898C91837080648C93938D848D98137A
:100D500006C00288F389E02D80818F7D808308950D
:100D6000EF92FF920F931F93CF93DF93EC0181E0FB
:100D7000888F9B8D8C8D98131AC0E889F9898081A2
:100D800085FF15C09FB7F894EE89FF896083E889D5
:100D9000F98980818370806480839FBF81E090E0C7
:100DA000DF91CF911F910F91FF90EF900895F62E54
:100DB0000B8D10E00F5F1F4F0F731127E02E8C8DEE
:100DC0008E110CC00FB607FCFACFE889F989808133
:100DD00085FFF5CFCE010E948E06F1CFEB8DEC0F93
:100DE000FD2FF11DE35AFF4FF0829FB7F8940B8F50
:100DF000EA89FB8980818062CFCF0F931F93CF93C5
:100E0000DF938C01D0E0C0E0F801EC0FFD1F64918E
:100E1000662341F083E196E00E94B006892B11F031
:100E20002196F2CFCE01DF91CF911F910F910895BE
:100E3000CF93DF93EC01888D8823B9F0AA89BB8911
:100E4000E889F9898C9185FD03C0808186FD0DC0FC
:100E50000FB607FCF7CF8C9185FFF2CF808185FF1D
:100E6000EDCFCE010E948E06E9CFDF91CF9108959C
:100E7000DC01ED91FC910480F581E02D0994CF9384
:100E8000DF93CDB7DEB72C970FB6F894DEBF0FBE59
:100E9000CDBF8CE089832CE030E041E050E0BE0122
:100EA0006F5F7F4F80EB96E00E94380749815A813F
:100EB0002B813C818D819E81AF81B885E985FA8542
:100EC0006B857C85B0930106A0930006F093FF0527
:100ED000E093FE057093FD056093FC055093FB05C0
:100EE0004093FA053093F9052093F8059093F705A0
:100EF0008093F6052C960FB6F894DEBF0FBECDBFDB
:100F0000DF91CF910895CF93DF931F92CDB7DEB7D6
:100F1000698321E030E041E050E0BE016F5F7F4F28
:100F20000E94380789810F90DF91CF910895CF9368
:100F3000DF9366E780EB96E00E948307C82FD0E03E
:100F400067E780EB96E00E94830790E024E09595A8
:100F500087952A95E1F783709E01382BC90131FDF1
:100F60009C6FDF91CF910895CF93DF9365E780EB7E
:100F700096E00E948307C82FD0E067E780EB96E0F9
:100F80000E94830790E09595879595958795837046
:100F90009E01382BC90131FD9C6FDF91CF910895DF
:100FA000CF93DF9364E780EB96E00E948307C82F1E
:100FB000D0E067E780EB96E00E94830783709E0194
:100FC000382BC90131FD9C6FDF91CF9108956BE102
:100FD00080EB96E00E94830783FD07C061E070E02C
:100FE00080E090E00E943005F2CF0895CF93DF9328
:100FF00000D0CDB7DEB769834A8330E020E042E01D
:1010000050E0BE016F5F7F4F0E9438070F900F9036
:10101000DF91CF91089590E080E00895EF92FF92E4
:101020000F931F93CF93DF937C01D62FC42F122FE2
:101030000E94830741E050E002C0440F551F0A950B
:10104000E2F741505109012E01C0440F0A94EAF71A
:101050002C2F01C0220F1A95EAF7942F909589231F
:101060002423422F482B6D2FC701DF91CF911F9171
:101070000F91FF90EF900C94F6070F931F93CF936F
:10108000DF9300D0CDB7DEB78C01CB01BA012AE9DE
:1010900039E949E750E40E94FC300E946E31603823
:1010A000710514F06FE770E0AB0160387F4F14F406
:1010B00040E85FEF0115110519F561E780EB96E057
:1010C0000E94F60782E1898322E030E041E050E0AF
:1010D000BE016F5F7F4F80EB96E00E94380701E012
:1010E00010E026E030E041E067E780EB96E00E9408
:1010F0000E080F900F90DF91CF911F910F910895DF
:101100000130110539F462E780EB96E00E94F607A2
:1011100084E1D9CF63E780EB96E00E94F60786E191
:10112000D2CFCF93CFB7F8948091BA04811127C062
:10113000E4E7F2E08491E6E5F2E09491E82FF0E054
:10114000EE0FFF1FE854FE4FA591B491EC91E923F7
:1011500021F461E08AE00E94E30261E08AE00E94FB
:1011600050038CB580618CBD8CB580648CBD61E012
:101170008DE00E94500361E08BE00E94500380915B
:10118000BA048F5F8093BA04CFBFCF9108958F9236
:101190009F92AF92BF92CF92DF92EF92FF926B013C
:1011A0007C0120E030E040E05FE30E94BE324B0172
:1011B0005C01D701C601B595A795979587953FED39
:1011C000C32E39E5D32E37E3E32E3FE5F32EC81ABD
:1011D000D90AEA0AFB0AA5019401C701B6010E94D7
:1011E000BE32A70196010E94BE329B01AC0160E0B5
:1011F00070E080EC9FE30E94FD2FA70196010E9402
:10120000BE326B017C01A50194010E94BE32A70190
:1012100096010E94BE329B01AC0160E070E080EC60
:101220009FE30E94FD2FA70196010E94BE32FF900E
:10123000EF90DF90CF90BF90AF909F908F900895E8
:10124000FC01668121E0622785810C94E302109203
:101250003607109238071092390710923A07109209
:101260003B0710922A0710922B0710922C0710921E
:101270002D0780913707882321F089EF96E00C94A1
:10128000200908954F925F926F927F928F929F9262
:10129000AF92BF92CF92DF92EF92FF92CF93DF9304
:1012A000CDB7DEB728970FB6F894DEBF0FBECDBF1F
:1012B00080913607882309F443C20E94810360931A
:1012C000320770933307809334079093350720914A
:1012D0004A0730914B078091440790914507232B93
:1012E00009F037C2892B09F467C140903C07509040
:1012F0003D0760903E0770903F0720E030E040EAF5
:1013000050E4C301B2010E94B13287FD55C1809003
:10131000320790903307A0903407B0903507C09003
:101320001D07D0901E07E0901F07F09020076091E6
:1013300011077091120790E080E08C189D08AE08AC
:10134000BF0886169706A806B90608F435C1C60E6A
:10135000D71EE81EF91EC0921D07D0921E07E0920C
:101360001F07F092200780902E0790902F07A090E3
:101370003007B0903107C090F906D090FA06E0909F
:10138000FB06F090FC068C189D08AE08BF08C090C4
:101390002A07D0902B07E0902C07F0902D070E9491
:1013A000A4312091130730911407409115075091F3
:1013B00016070E94BE3269837A838B839C83A701C0
:1013C0009601C701B6010E94BE32209146073091B6
:1013D000470740914807509149070E94BE326D83EC
:1013E0007E838F839887C501B401B7FE07C0662747
:1013F0007727CB01681979098A099B090E94A631D0
:101400009B01AC016D817E818F8198850E94B132F4
:1014100087FD0EC020E030E0A901C701B6010E949F
:10142000B13287FD07C020E030E040E85FEB06C046
:10143000B7FCF9CF20E030E040E85FE369817A81D2
:101440008B819C810E94BE32A70196010E94FE2FD3
:101450006B017C018090380790903907A0903A0783
:10146000B0903B0720E030E0A901C501B4010E9423
:10147000F73081114AC053014201B7FAB094B7F86E
:10148000B094A5019401B601C7010E94F73087FD11
:101490000CC09601A701C301B2010E94F7305301AD
:1014A000420187FD02C04601570180922A079092AF
:1014B0002B07A0922C07B0922D07C0902A07D0903E
:1014C0002B07E0902C07F0902D0720E030E0A901D9
:1014D000C701B6010E94B1321816D4F520E030E001
:1014E00040EA50E4C701B6010E94B1321816D4F1A7
:1014F00080E49DE0A3E0B0E080930D0790930E0799
:10150000A0930F07B09310074BC02401350177FA61
:10151000709477F87094A3019201B601C7010E94FC
:10152000F73087FD0CC0A5019401B601C7010E94E8
:10153000B13224013501181614F02601370140920A
:101540002A0750922B0760922C0770922D07B5CF77
:1015500020E030E040EA50ECC701B6010E94F730CD
:1015600087FFC6CFA701960160E074E284E799E4A3
:101570000E94FC304B015C0120E030E0A9010E9498
:10158000B13218160CF083C0C501B4010E94753148
:1015900060930D0770930E0780930F0790931007C9
:1015A00020E030E0A901C701B6010E94B13287FDF9
:1015B00072C081E08093FD0640910D0750910E07A7
:1015C00060910F0770911007411551056105710574
:1015D00009F4B6C08091320790913307A091340787
:1015E000B0913507C0902607D0902707E0902807D4
:1015F000F09029078C199D09AE09BF09841795073A
:10160000A607B70708F49CC0809132079091330772
:10161000A0913407B0913507809326079093270750
:10162000A0932807B0932907C090F906D090FA0636
:10163000E090FB06F090FC0680914A0790914B07E2
:10164000892BE1F580912E0790912F07A09130070B
:10165000B09131078C159D05AE05BF0579F50E9447
:10166000270980E028960FB6F894DEBF0FBECDBFE5
:10167000DF91CF91FF90EF90DF90CF90BF90AF9030
:101680009F908F907F906F905F904F900895C501CD
:10169000B40190587BCF8FEF8DCF8FEFD8C0C501AD
:1016A000B4019058EAC024EB32EA41E959EBC70192
:1016B000B6010E94B13287FD7FCF03C18091FD0644
:1016C000482F082E000C550B660B770B4C0D5D1D3B
:1016D0006E1D7F1D4093F9065093FA066093FB063A
:1016E0007093FC0690910107891799F08093010788
:1016F000E0910907F0910A0791E018160CF090E0CC
:10170000809100079817F9F080910C079081892B40
:10171000808380910B07E0910707F0910807908183
:10172000892B80838BE090E00197F1F780910B0784
:10173000E0910707F09108079081809589238083C5
:10174000809136078FCF80910C07908180958923F7
:10175000DFCF892B09F430CFC0903207D090330708
:10176000E0903407F09035076091170770911807E3
:101770008091190790911A07A0911B07B0911C073F
:10178000C81AD90AEA0AFB0A90E080E0C616D70612
:10179000E806F90608F410CFC0903207D09033075E
:1017A000E0903407F0903507C0921907D0921A07DD
:1017B000E0921B07F0921C07C0902A07D0902B07DD
:1017C000E0902C07F0902D070E94A4312091130780
:1017D0003091140740911507509116070E94BE32B0
:1017E0004B015C01A7019601609140077091410790
:1017F00080914207909143070E94FD2F20E030E046
:10180000A9010E94B13220E030E040E85FE387FFA9
:1018100004C020E030E040E85FEBC501B4010E9465
:10182000BE32A70196010E94FE2F6B017C01C0927F
:101830002A07D0922B07E0922C07F0922D0720E088
:1018400030E0A9010E94B13287FD27CF81E080936B
:10185000FD06A701960160E074E284E799E40E9426
:10186000FC304B015C0120E030E0A9010E94B13264
:1018700018160CF014CFC501B4010E9475316093A5
:101880000D0770930E0780930F07909310078091B8
:101890002107882309F490CE20E030E0A901C70198
:1018A000B6010E94B13218160CF0FDCE24EB32EADC
:1018B00041E959E3C701B6010E94F73018160CF44C
:1018C0007BCE0E94270978CEFC018681A82FB0E04C
:1018D000AA0FBB1FAE0FBF1F6D937C938F5F83302A
:1018E000D0F4868320813181428153816481758166
:1018F000FA01461757070CF4FB01C90124173507F5
:101900000CF4CA01E817F90741F4C9012617370793
:101910006CF4CB0108951682E5CFC90162177307F5
:101920000CF4CB01841795070CF4CA0108958EBD01
:1019300000000DB407FEFDCF8EB508952F923F92A3
:101940004F925F926F927F928F929F92AF92BF92CF
:10195000CF92DF92EF92FF920F931F93CF93DF937B
:10196000CDB7DEB765970FB6F894DEBF0FBECDBF1B
:101970000E9481036B017C018091B4049091B504B5
:101980002601481A590A4DEC441640E1540608F461
:10199000E0C08091B2049091B304009789F0209147
:1019A0002C0430912D041201221A330A910137FEC2
:1019B00003C0319521953109283C31050CF0C5C093
:1019C00001969093B3048093B204029709F0BDC0CE
:1019D00090EE692E91E0792E01E010E020902A042B
:1019E00030902B043B862A8649E050E0B301CE01BB
:1019F00001960E945A2F8B816C81681708F4682F1A
:101A000070E080912C0490912D040E94DC2F9B01AA
:101A10004091120150911301649FC001659F900D88
:101A2000749F900D112464E670E00E94DC2F89857C
:101A3000A1E0B0E0882311F0A2E0B0E08D81829FA8
:101A4000A001839F500D11245D874C878E81829F5A
:101A50001001839F300C11243F862E868F81829F38
:101A6000A001839F500D1124598B488B8885829F3C
:101A70001001839F300C11243B8A2A8AFD01EE0F4E
:101A8000FF1FE45DFB4F812C912C54014A855B853F
:101A9000415051095D8B4C8B8C899D89A817B907E2
:101AA00008F040C0880C991CAA1CBB1C8081918145
:101AB000AC012C843D844219530957FF03C0519552
:101AC000419551094617570770F4428153812E847E
:101AD0003F844219530957FF03C05195419551095D
:101AE00046175707E0F048895989841B950B97FFE3
:101AF00003C091958195910986179707C8F4828153
:101B000093812A883B888219930997FF03C0919596
:101B1000819591098617970758F4689480F8129672
:101B20003496BACF4A855B854830510508F053C0DA
:101B30000F5F1F4F59E0650E711C0D30110509F044
:101B40004DCF1092B3041092B20410922B04109255
:101B50002A0480912A0490912B048334910540F04B
:101B600010922B0410922A041092B3041092B20423
:101B700080912A0490912B049C012F5F3F4F30935A
:101B80002B0420932A04880F991FFC01E45DFB4F6E
:101B900051824082C092B404D092B504E092B6045F
:101BA000F092B70465960FB6F894DEBF0FBECDBFB6
:101BB000DF91CF911F910F91FF90EF90DF90CF9029
:101BC000BF90AF909F908F907F906F905F904F905D
:101BD0003F902F9008958092BC069092BD06A092EF
:101BE000BE06B092BF062C883D883694279430926A
:101BF000BC042092BB043093290420932804109342
:101C00002704009326049DCFFC0101900020E9F7F2
:101C10003197AF01481B590BBC0183E196E00C944E
:101C20000D0689E491E00C94040E8F929F92AF927E
:101C3000BF920F931F93CF93DF93CDB7DEB7A197DA
:101C40000FB6F894DEBF0FBECDBF19A2423008F424
:101C50004AE08E010F5D1F4F842E912CB12CA12CD8
:101C6000A50194010E94AB2FE62FB901CA01EA3009
:101C7000F4F4E05DD801EE938D01232B242B252B6A
:101C800079F790E080E0109719F0CD010E94040EE2
:101C9000A1960FB6F894DEBF0FBECDBFDF91CF91F6
:101CA0001F910F91BF90AF909F908F900895E95C26
:101CB000E1CFCF93DF930E94040EEC010E94110E3E
:101CC0008C0F9D1FDF91CF910895CF93DF93EC018F
:101CD0008A859B858130910529F0029751F1DF912A
:101CE000CF91089510925D0510925C051092D30576
:101CF0001092F5050E94110389E092E0909380050F
:101D000080937F058AE092E0909384058093830519
:101D10008E8191E09093D2058093F40581E00E943A
:101D200040048823E1F28CE491E0DF91CF910C94A0
:101D3000590E0E9491088885998597FD05C061E03C
:101D4000DF91CF910C94500384E791E0EECF0F9395
:101D50001F93CF93DF93E3EFF4E0ABEDB4E0C7EE76
:101D6000D4E00191119121913191061717072807AD
:101D7000390791F00991199129913991061717079F
:101D80002807390749F00D911D912D913D910617B6
:101D900017072807390789F487EB91E00E94590E4D
:101DA00045E064E670E080E090E00E94620580E03B
:101DB000DF91CF911F910F91089524E0EF3FF2073B
:101DC00081F681E0F5CFCF93DF93682F70E090E04C
:101DD00080E04AE00E94150EEC010E94110E8C0F6B
:101DE0009D1FDF91CF910895CF93DF934AE00E942A
:101DF000150EEC010E94110E8C0F9D1FDF91CF91EB
:101E00000895CF92DF92EF92FF92CF93DF936C0110
:101E1000990FEE08FF08F7FE19C06DE283E196E026
:101E20000E94B006EC0166277727CB016C197D096B
:101E30008E099F094AE00E94150E8C0F9D1FDF91AD
:101E4000CF91FF90EF90DF90CF9008954AE0C701C7
:101E5000B601DF91CF91FF90EF90DF90CF900C947F
:101E6000150ECF93DF930E94010FEC010E94110E1B
:101E70008C0F9D1FDF91CF9108954F925F926F92CB
:101E80007F928F929F92AF92BF92CF92DF92EF920A
:101E9000FF920F931F93CF936B017C01742EAC01C3
:101EA0009B010E947533882399F087EC91E0CF91D4
:101EB0001F910F91FF90EF90DF90CF90BF90AF9068
:101EC0009F908F907F906F905F904F900C94040E36
:101ED00046015701E894B7F82FEF3FEF4FE75FE770
:101EE000C501B4010E94753381110DC02FEF3FEF82
:101EF0004FE75FE7C501B4010E94F73018161CF4E4
:101F00008BEC91E0D4CF2FEF3FEF4FE75FE4C701B9
:101F1000B6010E94B13218161CF48FEC91E0C7CFC5
:101F20002FEF3FEF4FE75FECC701B6010E94F7309C
:101F300087FDF3CF20E030E0A901C701B6010E9480
:101F4000F73010E000E087FF0AC06DE283E196E021
:101F50000E94B0068C01F7FAF094F7F8F094C0E014
:101F600060E070E080E09FE37C1641F020E030E02C
:101F700040E251E40E94FC30CF5FF6CFA70196010A
:101F80000E94FE2F2B013C010E9475314B015C0128
:101F90004AE00E94150E7C01E00EF11ECC23C1F137
:101FA000C501B4010E94A4319B01AC01C301B2017F
:101FB0000E94FD2F4B015C016EE283E196E00E94DE
:101FC000B006E80EF91EC15018F120E030E040E202
:101FD00051E4C501B4010E94BE322B013C010E94B4
:101FE00075314B01B12CA12C4AE0C501B4010E940E
:101FF000150EE80EF91EC501B4010E94A4319B0123
:10200000AC01C301B2010E94FD2F4B015C01DBCF8B
:10201000C701CF911F910F91FF90EF90DF90CF906C
:10202000BF90AF909F908F907F906F905F904F90F8
:102030000895CF93DF9342E00E943D0FEC010E9490
:10204000110E8C0F9D1FDF91CF9108954F925F92DB
:102050006F927F928F929F92AF92BF92CF92DF92B8
:10206000EF92FF920F931F93CF93DF938C01EB01BD
:102070005A017901FC018285938581309105B1F087
:10208000029709F40CC190E080E0DF91CF911F919D
:102090000F91FF90EF90DF90CF90BF90AF909F9007
:1020A0008F907F906F905F904F900895868191E020
:1020B0009093D2058093F4051092D3051092F50504
:1020C0006B01A60EB71E4B018A149B0441F0F4016C
:1020D00061914F0187E096E00E946202F5CF81E0B6
:1020E0000E944004882321F083ED91E00E94590E64
:1020F000E114F10441F2F80106810E9481034B01D1
:102100005C018091CC05811169C01E2D113208F04F
:1021100010E281E08093CC058093CB059FEF9093F4
:10212000CA051092C905910F9093C8058093A70521
:102130008091A705000F082B0093A7058091A605A5
:10214000813009F088C01092A6050E9481034B01DE
:102150005C018091A7058093BB008091CE05909192
:10216000CF05A091D005B091D105892B8A2B8B2B5F
:10217000A1F00E9481034090CE055090CF05609061
:10218000D0057090D105681979098A099B0946160E
:1021900057066806790608F442C08091BC0083FDAA
:1021A000D8CF85EC8093BC000E9481034B015C0179
:1021B0008091CC05813009F450C08091C905811708
:1021C00010F41091C905A8EAB5E0ECE3F5E080E071
:1021D000811751F19D9191938F5FFACF8091CE0538
:1021E0009091CF05A091D005B091D105892B8A2B74
:1021F0008B2B09F486CF0E9481034090CE0550902E
:10220000CF056090D0057090D105681979098A09C9
:102210009B09461657066806790608F072CF80912A
:10222000CD050E942F0310E010925D0510935C0510
:10223000CE0DDF1D80915D05181709F424CFCC1554
:10224000DD0509F420CF87E096E00E941B02F6012D
:1022500081936F01EFCF85EEA5CF8091CE05909150
:10226000CF05A091D005B091D105892B8A2B8B2B5E
:1022700009F49ECF0E9481034090CE055090CF0577
:102280006090D0057090D105681979098A099B0979
:10229000461657066806790608F08ACFC0CF232B6A
:1022A00019F0888180688883F8018085918597FD81
:1022B00003C060E00E94E3026E01AC0EBD1E4E0141
:1022C000A814B90461F4CE0DDF1DCC15DD0569F04D
:1022D00080E00E94970CF60181936F01F6CFF40124
:1022E00081914F010E94970CEBCFF8018085918579
:1022F00097FDC9CE61E00E94E302C5CE85ED8093D3
:10230000BC008091CE059091CF05A091D005B091F1
:10231000D1050796A11DB11D23E0B695A795979508
:1023200087952A95D1F72091BC0024FD03C0109217
:10233000CC0508954091CE055091CF056091D00510
:102340007091D105452B462B472B69F30097A105CA
:10235000B10541F02AE22A95F1F700C00197A109E1
:10236000B109E1CF8091CD050C942F03FF920F931B
:102370001F93CF93DF93EC01F62E08811981C801DA
:102380000E94632FF81621F06F2DC8010E946B2F59
:10239000CE01DF91CF911F910F91FF9008950F9380
:1023A0001F93CF93DF9300D0CDB7DEB78B019A8315
:1023B0008983FB016081CE0101960E94B611C8019C
:1023C0000F900F90DF91CF911F910F910895AF92D1
:1023D000BF92CF92DF92EF92FF920F931F93CF9312
:1023E000DF9300D0CDB7DEB78B016B0124E0C20EC6
:1023F000D11C7B015C01A61AB70AC5018E0D9F1D79
:102400009A838983F70161917F01CE0101960E9431
:10241000B611EC14FD0489F7C8010F900F90DF91FD
:10242000CF911F910F91FF90EF90DF90CF90BF90D1
:10243000AF900895AF92BF92CF92DF92EF92FF924A
:102440000F931F93CF93DF9300D0CDB7DEB78B01EF
:102450006B012CE0C20ED11C7B015C01A61AB70AED
:10246000C5018E0D9F1D9A838983F70161917F01BC
:10247000CE0101960E94B611EC14FD0489F7C80143
:102480000F900F90DF91CF911F910F91FF90EF90E0
:10249000DF90CF90BF90AF900895EF92FF920F938F
:1024A0001F93CF93DF9300D0CDB7DEB78C017B01B4
:1024B0009A838983FB016081CE0101960E94B61147
:1024C0000F5F1F4F1A830983F7016181CE010196C7
:1024D0000E94B611C7010F900F90DF91CF911F910D
:1024E0000F91FF90EF900895CF93DF93EB010E943F
:1024F000632F8883CE01DF91CF910895CF92DF9231
:10250000EF92FF920F931F93CF93DF93EB017B0129
:1025100024E0E20EF11C8B016C01C61AD70AC60139
:10252000800F911F0E94632FF80181938F01EE1598
:10253000FF05A9F7CE01DF91CF911F910F91FF9079
:10254000EF90DF90CF900895CF92DF92EF92FF92BD
:102550000F931F93CF93DF93EB017B012CE0E20EEF
:10256000F11C8B016C01C61AD70AC601800F911F9E
:102570000E94632FF80181938F01EE15FF05A9F7E3
:10258000CE01DF91CF911F910F91FF90EF90DF90DF
:10259000CF9008950C94632F4F925F926F927F9229
:1025A0008F929F92AF92BF92CF92DF92EF92FF9263
:1025B0000F931F93CF93DF93CDB7DEB7C455D109E7
:1025C0000FB6F894DEBF0FBECDBF0E94A105C0902C
:1025D0000305D0900405E0900505F09006056C1900
:1025E0007D098E099F090E94A43160932204709393
:1025F000230480932404909325040E94A1056093F2
:1026000003057093040580930505909306050E94C9
:102610003F078091C2046091000670910106681B1B
:10262000710987FD739583EE96E00E94640CBC01EE
:10263000990F880B990B0E94A6316D877E878F8733
:10264000988B8091C1046091FE057091FF05681B15
:10265000710987FD73958CED96E00E94640CBC01B6
:10266000990F880B990B0E94A631698B7A8B8B8B03
:102670009C8B8091C0046091FC057091FD05681BE6
:10268000710987FD739585ED96E00E94640CBC018D
:10269000990F880B990B0E94A6316D8B7E8B8F8BC7
:1026A000988F8091BF046091FA057091FB05681BBB
:1026B000710987FD73958EEC96E00E94640C5C01B5
:1026C0008091BE046091F8057091F905681B71094D
:1026D00087FD739587EC96E00E94640C6C018091F5
:1026E000BD046091F6057091F705681B710987FDBF
:1026F000739580EC96E00E94640C7C012091BF04ED
:102700008091FA059091FB05821B910927FD939515
:102710000396079708F4F5C7B501BB0C880B990B16
:102720000E94A63125E33AEF4EE85CE30E94BE32F8
:1027300020E030E043E053E40E94FC3069837A8378
:102740008B839C832091BE048091F8059091F905BC
:10275000821B910927FD93950396079708F4D6C726
:10276000B601DD0C880B990B0E94A63125E33AEFE8
:102770004EE85CE30E94BE3220E030E043E053E4E8
:102780000E94FC306D837E838F8398872091BD04E7
:102790008091F6059091F705821B910927FD93958D
:1027A0000396079708F4B7C7B701FF0C880B990B7E
:1027B0000E94A63125E33AEF4EE85CE30E94BE3268
:1027C00020E030E043E053E40E94FC3069877A87E0
:1027D0008B879C8720E030E04AE754E46091220434
:1027E0007091230480912404909125040E94FC3070
:1027F000698F7A8F8B8F9C8F60910E0470910F047C
:10280000809110049091110440900A0450900B04A0
:1028100060900C0470900D04C0900604D0900704E2
:10282000E0900804F0900904905829813A814B8186
:102830005C810E94BE324B015C01A30192016D815B
:102840007E818F8198850E94BE329B01AC01C501BB
:10285000B4010E94FD2F4B015C01A701960169851F
:102860007A858B859C850E94BE329B01AC01C50197
:10287000B4010E94FD2F20E030E040E05FE30E94C1
:10288000BE326D8F7E8F8F8F98A32091040130917F
:102890000501409106015091070140900A045090B3
:1028A0000B0460900C0470900D04C0900604D0904E
:1028B0000704E0900804F090090469817A818B8113
:1028C0009C810E94BE324B015C01A301920169858B
:1028D0007A858B859C850E94BE329B01AC01C50127
:1028E000B4010E94FE2F4B015C01A70196016D818E
:1028F0007E818F8198850E94BE329B01AC01C5010B
:10290000B4010E94FD2F20E030E040E05FE30E9430
:10291000BE3269A37AA38BA39CA3209104013091BA
:102920000501409106015091070140900E0450901E
:102930000F046090100470901104C0900604D090B1
:102940000704E0900804F09009046D817E818F8176
:1029500098850E94BE324B015C01A30192016985FA
:102960007A858B859C850E94BE329B01AC01C50196
:10297000B4010E94FD2F4B015C01A7019601698102
:102980007A818B819C810E94BE329B01AC01C50182
:10299000B4010E94FE2F20E030E040E05FE30E949F
:1029A000BE326DA37EA38FA398A72091040130911E
:1029B0000501409106015091070180900E0490900E
:1029C0000F04A0901004B0901104C0900A04D0909D
:1029D0000B04E0900C04F0900D0469857A858B85DA
:1029E0009C850E94BE322B013C01A50194016D81A2
:1029F0007E818F8198850E94BE329B01AC01C3010C
:102A0000B2010E94FE2F4B015C01A7019601698172
:102A10007A818B819C810E94BE329B01AC01C501F1
:102A2000B4010E94FD2F20E030E040E05FE30E940F
:102A3000BE3269A77AA78BA79CA720E030E0A90146
:102A40006D857E858F8598890E94F730811117C02A
:102A500020E030E0A90169897A898B899C890E94EC
:102A6000F73081110CC020E030E0A9016D897E892A
:102A70008F89988D0E94F730882309F4CAC32D8569
:102A80003E854F855889CA01B9010E94BE326B014B
:102A90007C0129893A894B895C89CA01B9010E9464
:102AA000BE329B01AC01C701B6010E94FE2F6B0133
:102AB0007C012D893E894F89588DCA01B9010E9438
:102AC000BE329B01AC01C701B6010E94FE2F0E94DD
:102AD000C7086B017C01AC019B016D857E858F85EC
:102AE00098890E94BE3269837A838B839C83A70175
:102AF000960169897A898B899C890E94BE322B0153
:102B00003C01A70196016D897E898F89988D0E946D
:102B1000BE3269AB7AAB8BAB9CAB60910401709118
:102B2000050180910601909107019B01AC010E9473
:102B3000FE2F6DAB7EAB8FAB98AF60910E047091A2
:102B40000F0480911004909111049B01AC010E942C
:102B5000FE2F69AF7AAF8BAF9CAF60910A04709182
:102B60000B0480910C0490910D049B01AC010E9418
:102B7000FE2F21966CAF7DAF8EAF9FAF21976091F6
:102B800006047091070480910804909109049B0148
:102B9000AC010E94FE2F25966CAF7DAF8EAF9FAF2C
:102BA0002597609104017091050180910601909133
:102BB000070120E030E040E850E40E94BE326B01A3
:102BC0007C0160910E0470910F048091100490912B
:102BD000110420E030E040E850E40E94BE326D87EE
:102BE0007E878F87988B60910A0470910B04809187
:102BF0000C0490910D0420E030E040E850E40E9485
:102C0000BE32698B7A8B8B8B9C8B60910E0470919A
:102C10000F04809110049091110420E030E040E016
:102C200051E40E94BE3229966CAF7DAF8EAF9FAF4C
:102C3000299760910A0470910B0480910C04909183
:102C40000D0420E030E040E051E40E94BE322D96B9
:102C50006CAF7DAF8EAF9FAF2D97809104019091A7
:102C60000501A0910601B09107018DA79EA7AFA70E
:102C7000B8AB8091040190910501A0910601B0913B
:102C8000070165968CAF9DAFAEAFBFAF6597609102
:102C90000E0470910F048091100490911104209102
:102CA0000E0430910F0440911004509111040E94C1
:102CB000BE326D837E838F83988760910A04709102
:102CC0000B0480910C0490910D0420910A04309122
:102CD0000B0440910C0450910D040E94BE32698790
:102CE0007A878B879C876091060470910704809196
:102CF0000804909109042091060430910704409142
:102D00000804509109040E94BE3261966CAF7DAFF9
:102D10008EAF9FAF619729853A854B855C85C7014A
:102D2000B6010E94BE324B015C0121962CAD3DAD37
:102D30004EAD5FAD219769817A818B819C810E9424
:102D4000BE329B01AC01C501B4010E94FE2F4B01B4
:102D50005C012D813E814F815885C701B6010E94DB
:102D6000BE329B01AC01C501B4010E94FE2F6B0174
:102D70007C0129AD3AAD4BAD5CADC301B2010E94FF
:102D8000BE329B01AC01C701B6010E94FD2F6D8BC5
:102D90007E8B8F8B988F65962CAD3DAD4EAD5FAD24
:102DA00065976DA57EA58FA598A90E94BE3220E0EB
:102DB00030E040E850E40E94BE326B017C0180911B
:102DC0000E0490910F04A0911004B09111048DA7EE
:102DD0009EA7AFA7B8AB61962CAD3DAD4EAD5FAD34
:102DE00061976D857E858F8598890E94BE324B01E3
:102DF0005C0125962CAD3DAD4EAD5FAD259769814B
:102E00007A818B819C810E94BE329B01AC01C501FD
:102E1000B4010E94FD2F4B015C012DA53EA54FA5DD
:102E200058A9C701B6010E94BE329B01AC01C50181
:102E3000B4010E94FE2F4B015C012DA93EA94FA9B0
:102E400058ADC301B2010E94BE329B01AC01C50165
:102E5000B4010E94FD2F2D853E854F8558890E9423
:102E6000FD2F4B015C012D813E814F8158852996B4
:102E70006CAD7DAD8EAD9FAD29970E94BE329B019A
:102E8000AC01C501B4010E94FE2F4B015C012985F4
:102E90003A854B855C8529966CAD7DAD8EAD9FAD39
:102EA00029970E94BE329B01AC01C501B4010E946A
:102EB000FE2F4B015C012D853E854F85588969A900
:102EC0007AA98BA99CA90E94BE329B01AC01C501C5
:102ED000B4010E94FE2F6D877E878F87988B20918B
:102EE0000A0430910B0440910C0450910D04C70169
:102EF000B6010E94BE326B017C012DA93EA94FA9EB
:102F000058AD69817A818B819C810E94BE329B0180
:102F1000AC01C701B6010E94FE2F6B017C016196D6
:102F20002CAD3DAD4EAD5FAD619769897A898B89D6
:102F30009C890E94BE329B01AC01C701B6010E9470
:102F4000FE2F6B017C0125962CAD3DAD4EAD5FADE6
:102F50002597C301B2010E94BE329B01AC01C7019B
:102F6000B6010E94FD2F29893A894B895C890E940C
:102F7000FD2F6B017C012D813E814F8158852D965F
:102F80006CAD7DAD8EAD9FAD2D970E94BE329B0185
:102F9000AC01C701B6010E94FE2F6B017C0129859F
:102FA0003A854B855C852D966CAD7DAD8EAD9FAD24
:102FB0002D970E94BE329B01AC01C701B6010E9451
:102FC000FE2F6B017C0129893A894B895C8969A9AB
:102FD0007AA98BA99CA90E94BE329B01AC01C701B2
:102FE000B6010E94FE2F698B7A8B8B8B9C8BC090D5
:102FF0000604D0900704E0900804F0900904809043
:10300000060490900704A0900804B090090420E002
:1030100030E040E850E46D817E818F8198850E9488
:10302000BE32A70196010E94BE326B017C0129AD20
:103030003AAD4BAD5CAD69817A818B819C810E94F8
:10304000BE329B01AC01C701B6010E94FD2F6B018E
:103050007C0120E030E040E850E469857A858B858A
:103060009C850E94BE32A50194010E94BE329B0144
:10307000AC01C701B6010E94FE2F6B017C012196B5
:103080002CAD3DAD4EAD5FAD2197C301B2010E94A5
:10309000BE329B01AC01C701B6010E94FD2F4B015E
:1030A0005C012D893E894F89588DCA01B9010E9462
:1030B000BE326B017C012D853E854F855889CA0142
:1030C000B9010E94BE329B01AC01C701B6010E944A
:1030D000FE2F6B017C0129893A894B895C89CA01E1
:1030E000B9010E94BE329B01AC01C701B6010E942A
:1030F000FE2F6B017C01A5019401C501B4010E9462
:10310000BE329B01AC01C701B6010E94FE2F0E9496
:10311000C7086B017C014090000150900101609054
:10312000020170900301AC019B016D897E898F893A
:10313000988D0E94BE32A30192010E94BE329B0173
:10314000AC016D8D7E8D8F8D98A10E94FD2F6D8FAE
:103150007E8F8F8F98A34090000150900101609066
:10316000020170900301A70196016D857E858F8510
:1031700098890E94BE32A30192010E94BE329B0137
:10318000AC0169A17AA18BA19CA10E94FD2F69A32A
:103190007AA38BA39CA34090000150900101609002
:1031A000020170900301A701960169897A898B89D0
:1031B0009C890E94BE32A30192010E94BE329B01F3
:1031C000AC016DA17EA18FA198A50E94FD2F6DA3DA
:1031D0007EA38FA398A740900001509001016090BA
:1031E000020170900301A7019601C501B4010E947C
:1031F000BE32A30192010E94BE329B01AC0169A5BF
:103200007AA58BA59CA50E94FD2F69A77AA78BA7FD
:103210009CA7C0900401D0900501E0900601F090B9
:1032200007012D8D3E8D4F8D58A1698D7A8D8B8D27
:103230009C8D0E94BE32A70196010E94FE2F6093D2
:103240000401709305018093060190930701C090DB
:103250000E04D0900F04E0901004F090110429A106
:103260003AA14BA15CA1698D7A8D8B8D9C8D0E94BA
:10327000BE32A70196010E94FE2F60930E04709348
:103280000F048093100490931104C0900A04D0900E
:103290000B04E0900C04F0900D042DA13EA14FA171
:1032A00058A5698D7A8D8B8D9C8D0E94BE32A701A9
:1032B00096010E94FE2F60930A0470930B04809382
:1032C0000C0490930D04C0900604D0900704E09085
:1032D0000804F090090429A53AA54BA55CA5698DC1
:1032E0007A8D8B8D9C8D0E94BE32A70196010E9423
:1032F000FE2F609306047093070480930804909354
:10330000090460910401709105018091060190917A
:10331000070120910401309105014091060150916F
:10332000070180900E0490900F04A0901004B090BC
:10333000110440900E0450900F046090100470909F
:103340001104E0900A04F0900B0400910C04109119
:103350000D04E982FA820B831C83E0900A04F0904A
:103360000B0400910C0410910D04ED82FE820F837A
:103370001887E0900604F09007040091080410916B
:103380000904E986FA860B871C87E0900604F09012
:1033900007040091080410910904ED86FE860F874A
:1033A000188B0E94BE326B017C01A3019201C50102
:1033B000B4010E94BE329B01AC01C701B6010E945C
:1033C000FE2F6B017C012D813E814F8158856981E3
:1033D0007A818B819C810E94BE329B01AC01C70126
:1033E000B6010E94FE2F6B017C012D853E854F8525
:1033F000588969857A858B859C850E94BE329B01A0
:10340000AC01C701B6010E94FE2F0E94C7086B01E4
:103410007C012091040130910501409106015091F9
:1034200007010E94BE3260930401709305018093EE
:1034300006019093070120910E0430910F044091F2
:10344000100450911104C701B6010E94BE3260936E
:103450000E0470930F048093100490931104209134
:103460000A0430910B0440910C0450910D04C701E3
:10347000B6010E94BE3260930A0470930B048093DD
:103480000C0490930D0420910604309107044091A0
:10349000080450910904C701B6010E94BE3260932E
:1034A0000604709307048093080490930904E09045
:1034B0000401F09005010091060110910701E982D5
:1034C000FA820B831C83E0921204F092130400939F
:1034D00014041093150440900E0450900F04609053
:1034E00010047090110440921604509217046092D8
:1034F00018047092190480900A0490900B04A09014
:103500000C04B0900D0480921A0490921B04A092B7
:103510001C04B0921D04C0900604D0900704E090F3
:103520000804F0900904C0921E04D0921F04E09297
:103530002004F0922104A5019401C501B4010E9468
:10354000BE326D837E838F839887A3019201C3016E
:10355000B2010E94BE322D813E814F8158850E946A
:10356000FE2F9B01AC010E94FE2F9B01AC0160E08D
:1035700070E080E89FE30E94FD2F69877A878B8740
:103580009C87A7019601C501B4010E94BE326D87D8
:103590007E878F87988BA301920169817A818B81C5
:1035A0009C810E94BE329B01AC016D857E858F851A
:1035B00098890E94FE2F9B01AC010E94FE2F298555
:1035C0003A854B855C850E9498306093FA0370932E
:1035D000FB038093FC039093FD03A7019601C301B5
:1035E000B2010E94BE3269877A878B879C87A501CA
:1035F000940169817A818B819C810E94BE329B01FA
:10360000AC0169857A858B859C850E94FD2F20E021
:1036100030E040E050EC0E94BE320E946A3060937D
:10362000FE037093FF038093000490930104A701AD
:103630009601C701B6010E94BE322D813E814F81A5
:1036400058850E94FE2F9B01AC010E94FE2F9B011A
:10365000AC0160E070E080E89FE30E94FD2F6D8385
:103660007E838F839887A5019401C301B2010E94D4
:10367000BE324B015C01A701960169817A818B8181
:103680009C810E94BE329B01AC01C501B4010E9425
:10369000FE2F9B01AC010E94FE2F2D813E814F81A8
:1036A00058850E94983060930204709303048093BD
:1036B00004049093050425E33AEF4EE85CE30E948E
:1036C000FC3060931D0570931E0580931F05909339
:1036D0002005CC5ADF4F0FB6F894DEBF0FBECDBF2A
:1036E000DF91CF911F910F91FF90EF90DF90CF90DE
:1036F000BF90AF909F908F907F906F905F904F9012
:10370000089519821A821B821C821CC81D821E8287
:103710001F8218863BC819861A861B861C865AC8C3
:103720001F920F920FB60F9211242F933F934F9336
:103730005F936F937F938F939F93AF93BF93EF9319
:10374000FF938091B900887F803609F44AC0F0F574
:10375000883209F4A7C018F5803109F49BC0B8F489
:10376000882309F4F9C0883009F494C0FF91EF91DF
:10377000BF91AF919F918F917F916F915F914F9189
:103780003F912F910F900FBE0F901F901895883189
:1037900009F488C0803251F78093CA0514C0803480
:1037A00009F49DC040F48033B9F38833F9F680936F
:1037B000CA0585ECB0C0803509F485C0883509F4A8
:1037C00096C0883499F60E947E11D0CF883909F4CA
:1037D0008CC038F5883729F050F4883611F08037DE
:1037E00029F683E08093CC051092A50557C0883850
:1037F00009F47BC0803919F0803809F0B7CF809187
:10380000A505803208F071C0E091A50581E08E0F1A
:103810008093A5058091BB00F0E0EB57FA4F8083C1
:103820003DC0803B39F0E0F4803A09F479C0883A31
:1038300009F09CCF84E08093CC0510928205109211
:103840008105E0917F05F0918005099580918105C2
:1038500081110FC081E08093810510925F0509C03E
:10386000803C09F4A6CF883C09F4A3CF883B09F03B
:103870007DCFE091820581E08E0F80938205F0E09C
:10388000E15AFA4F80818093BB009091820580912C
:10389000810529C08091A7058093BB0085EC8093AA
:1038A000BC0064CF9091C9058091C805981758F560
:1038B000E091C90581E08E0F8093C905F0E0E855DD
:1038C000FA4F8081E9CFE091C90581E08E0F8093A6
:1038D000C9058091BB00F0E0E855FA4F80839091D4
:1038E000C9058091C8059817C8F285E8D8CFE0913E
:1038F000C90581E08E0F8093C9058091BB00F0E07F
:10390000E855FA4F80838091CB0581115CCF81E02F
:103910008093A60584EA8093BC001092CC0526CF44
:1039200085EC8093BC001092CC058091A505803277
:1039300030F4E091A505F0E0EB57FA4F108260916A
:10394000A50570E0E0918305F091840585E895E098
:1039500009951092A5050ACF1092CA0534CF1F927F
:103960000F920FB60F9211242F933F938F939F9333
:10397000AF93BF938091340590913505A0913605A2
:10398000B09137053091330523E0230F2D3758F5DB
:103990000196A11DB11D20933305809334059093AA
:1039A0003505A0933605B093370580913805909181
:1039B0003905A0913A05B0913B050196A11DB11DB5
:1039C0008093380590933905A0933A05B0933B0551
:1039D000BF91AF919F918F913F912F910F900FBE0B
:1039E0000F901F90189526E8230F0296A11DB11D78
:1039F000D2CF1F920F920FB60F9211242F933F93A5
:103A00004F935F936F937F938F939F93AF93BF93E6
:103A1000EF93FF93E0910A01F0910B010995FF915B
:103A2000EF91BF91AF919F918F917F916F915F9136
:103A30004F913F912F910F900FBE0F901F901895AF
:103A40001F920F920FB60F9211242F933F934F9313
:103A50005F936F937F938F939F93AF93BF93EF93F6
:103A6000FF93E0910801F09109010995FF91EF9111
:103A7000BF91AF919F918F917F916F915F914F9186
:103A80003F912F910F900FBE0F901F9018951F928E
:103A90000F920FB60F9211242F933F934F935F9382
:103AA0006F937F938F939F93AF93BF93EF93FF9306
:103AB00083E196E00E948E06FF91EF91BF91AF9156
:103AC0009F918F917F916F915F914F913F912F9136
:103AD0000F900FBE0F901F9018951F920F920FB668
:103AE0000F9211242F938F939F93EF93FF93E09165
:103AF0002306F09124068081E0912906F0912A06A0
:103B000082FD1BC0908180912C068F5F8F73209166
:103B10002D06821741F0E0912C06F0E0ED5EF94FA2
:103B2000958F80932C06FF91EF919F918F912F910C
:103B30000F900FBE0F901F9018958081F4CFCF92F9
:103B4000DF92EF92FF920F931F93CF93DF93E7E003
:103B5000F6E01382128288EE93E0A0E0B0E0848366
:103B60009583A683B7832FE131E031832083E3E19E
:103B7000F6E01382128284839583A683B78381E360
:103B800091E09183808385EC90E09587848784EC35
:103B900090E09787868780EC90E0918B808B81EC1A
:103BA00090E0938B828B82EC90E0958B848B86ECFB
:103BB00090E0978B868B118E128E138E148EE0EB15
:103BC000F6E083E491E0918380830FEF1FEF15838C
:103BD00004831783068311870087C9EFD6E0188214
:103BE00019821A821B8281E08C838FEF8D831E8263
:103BF0001F82188619861B861A861D861C8661E020
:103C000086E00E945003E0E7F2E0E491F0E0EE0F7E
:103C1000FF1FE05AFD4F859194919F878E87E2E5C3
:103C2000F2E0E491EA8B61E087E00E945003E1E773
:103C3000F2E0E491F0E0EE0FFF1FE05AFD4F8591B6
:103C40009491998B888BE3E5F2E0E491EB8B88E02B
:103C50008D8361E00E94500380E197E2A0E0B0E034
:103C60008C8B9D8BAE8BBF8B88E99AE3998F888F65
:103C70001A8E1B8E1C8E1D8E9F8F8E8F18A219A2DE
:103C80001AA21BA21CA21DA21EA21FA218A61DA63C
:103C90001EA61FA618AA19AA1AAA1BAA1CAA1DAA00
:103CA0001EAA1FAA18AE19AE1AAE1BAE1CAE1DAED0
:103CB0001EAE109238071092390710923A071092F0
:103CC0003B0780E090E0A6E9B3E480933C07909343
:103CD0003D07A0933E07B0933F0710924007109214
:103CE0004107109242071092430724E4C22E27E0B6
:103CF000D22EF6011182108236E4E32E37E0F32E45
:103D0000F701108211821282138210924B071092D7
:103D10004A07BC01CD010E946A018CE291E0F601E4
:103D2000918380838EE094E7AAEDBAE3F701808364
:103D30009183A283B38382E599E4ADE9B9E38A8FE5
:103D40009B8FAC8FBD8F84EE98E3AEE8B1E489A77A
:103D50009AA7ABA7BCA7CAEED6E01B830A838AE06A
:103D600090E09D838C8349E050E060EE71E080EF4D
:103D700096E00E945A2F198308838CE390E0909379
:103D80001301809312011092BC061092BD0610928E
:103D9000BE061092BF061092E9061092E20610923B
:103DA000DB061092D4061092CD061092C606DF9163
:103DB000CF911F910F91FF90EF90DF90CF900895DA
:103DC000CF93DF93CDB7DEB764970FB6F894DEBF1D
:103DD0000FBECDBF789484B5826084BD84B5816008
:103DE00084BD85B5826085BD85B5816085BD8091C6
:103DF0006E00816080936E0010928100809181003E
:103E00008260809381008091810081608093810035
:103E1000809180008160809380008091B1008460F7
:103E20008093B1008091B00081608093B000809158
:103E30007A00846080937A0080917A008260809317
:103E40007A0080917A00816080937A0080917A0074
:103E5000806880937A001092C100E0912306F0916F
:103E6000240682E08083E0911F06F09120061082F4
:103E7000E0912106F091220680E1808310922B06CA
:103E8000E0912706F091280686E08083E0912506E0
:103E9000F0912606808180618083E0912506F09173
:103EA0002606808188608083E0912506F0912606B1
:103EB000808180688083E0912506F09126068081CC
:103EC0008F7D808362E08EE00E94500362E08FE08D
:103ED0000E94500362E080E10E94500362E081E1B1
:103EE0000E94500361E083E10E94500361E08AE098
:103EF0000E94500360E08AE00E94E30262E370E007
:103F000080E090E00E94300561E08AE00E94E302D8
:103F10006AE070E080E090E00E94300585E292E087
:103F20000E94040E0E9491088091B904882369F0D0
:103F30008FB7F8949091B904913009F0A5C29DB360
:103F40009093B8049DB39DBB8FBF83E58CBD1DBC12
:103F500060E08AE00E94E3028FEF0E94970C80E00D
:103F60000E94970C83E290E00197F1F78EE70E94A0
:103F7000970C86EB0E94970C61E08AE00E94E302B6
:103F800061E070E080E090E00E94300560E08AE04F
:103F90000E94E30280E80E94970C80E00E94970C48
:103FA000182F61E08AE00E94E30261E070E080E0A7
:103FB00090E00E9430058091B904882359F09FB7A2
:103FC000F8942091B9048091B804213009F05FC2BF
:103FD0008DBB9FBF9FB7F8948091BA04882319F0D6
:103FE00081508093BA048091BA04811105C08CB5C8
:103FF0008F7B8CBD1092B9049FBF113D09F049C25F
:1040000081E0809332058BE392E00E94590E81E0BB
:104010008093320582E090E09093BB068093BA06CD
:104020008AE090E09093B9068093B8061092B506A6
:104030001092B40680EB96E00E94650E8FE78983AC
:1040400021E030E041E050E0BE016F5F7F4F80EB48
:1040500096E00E94380746EB6EE780EB96E00E9400
:10406000F60761E070E080E090E00E9430056FE7C5
:1040700080EB96E00E94830761E070E080E090E0D2
:104080000E94300541E16EE780EB96E00E94F60762
:1040900061E070E080E090E00E94300563E080EB3A
:1040A00096E00E94830790E014E0959587951A9515
:1040B000E1F78370813061F745E16EE780EB96E0D0
:1040C0000E94F60761E070E080E090E00E94300519
:1040D00063E080EB96E00E94830790E095958795DA
:1040E00095958795282F2370F22E31E02313EACF80
:1040F00003E010E030E020E043E063E480EB96E092
:104100000E940E0804E010E030E020E043E061E4AB
:1041100080EB96E00E940E084FEF65E580EB96E09D
:104120000E94F60740EF66E580EB96E00E94F607F6
:1041300040E067E580EB96E00E94F60760E080EBE8
:1041400096E00E94830730E020E046E060E480EBE8
:1041500096E00E940E0830E020E043E061E480EB4E
:1041600096E00E940E0803E010E024E030E040E01A
:1041700060E480EB96E00E940E088DE492E00E94DD
:10418000040E60E480EB96E00E94830790E0F4E088
:1041900095958795FA95E1F787700E94E30E04E004
:1041A00010E030E020E046E062E480EB96E00E9420
:1041B0000E0803E010E030E020E043E063E480EB31
:1041C00096E00E940E0802E010E024E030E040E0BB
:1041D00062E480EB96E00E940E088EE592E00E9479
:1041E000040E62E480EB96E00E94830790E0A4E076
:1041F00095958795AA95E1F783700E94E30E60ED8F
:1042000077E080E090E00E94300590911101892FC5
:104210008F2580933707992309F449C10E94A6038B
:1042200010924507109244071092460710924707D4
:104230001092480710924907109213071092140722
:10424000109215071092160760E070E088EC94E475
:104250000E946A0189EF96E00E9420091092EB0605
:104260001092EA061092BC061092BD061092BE068D
:104270001092BF061092BC041092BB048EE99CE021
:104280009093090180930801809169008C7F81607F
:1042900080936900E89A63EF74E090E080E00E9408
:1042A000A41267EE74E08CE090E00E94A4126BED23
:1042B00074E088E190E00E94A41281E10E94BA02B9
:1042C000892B09F00FC180E10E94BA02892B09F401
:1042D00009C181E0809326050E94A10569877A873C
:1042E0008B879C870E94A1054B015C0183E0809332
:1042F00021058EE692E00E94590E8EE792E00E9420
:10430000590E412C512C3201C12CD12C760110E0D8
:10431000312C0E94A10529853A854B855C85621B5D
:10432000730B840B950B603375478105910508F07D
:10433000C3C01111C1C0809121050E94AD0581E16A
:104340000E94BA02892B09F417C181E10E94BA02C6
:10435000892B09F041C0209026052220E9F10E9416
:10436000A10520912205309123054091240550910B
:104370002505621B730B840B950B6938734181050E
:10438000910550F1109226050E94A1056093220527
:1043900070932305809324059093250561E083E1C4
:1043A0000E94E30210E000E01A821982BE016F5FF2
:1043B0007F4FC8010E944D120F5F1F4F043211053D
:1043C00099F78FEA92E00E94590E68EB7BE080E05B
:1043D00090E00E943005122D81E10E94BA02892BE3
:1043E00019F1809126058823F9F00E94A1052091FA
:1043F0002205309123054091240550912505621B2B
:10440000730B840B950B653671058105910560F082
:10441000109226050E94A105609322057093230542
:1044200080932405909325050E94A10568197909B8
:104430008A099B09693771058105910508F469CFDF
:104440000E94A1054B015C018091BC069091BD06C4
:10445000A091BE06B091BF06892B8A2B8B2B59F0F9
:1044600081E0381609F4D5C0381608F4ABC092E0E4
:10447000391609F403C11092BC061092BD061092C1
:10448000BE061092BF0645CF8093B8045ECD8FBFA5
:10449000A1CD1092320586E492E00E94590E4AE0C6
:1044A00066E470E080E090E00E946205B0CD89EFA4
:1044B00096E00E942009B4CE60E083E10E94E3020E
:1044C00063EF74E090E080E00E94A41267EE74E075
:1044D0008CE090E00E94A4126BED74E088E190E023
:1044E0000E94A41281E10E94BA0210913205892B28
:1044F00009F078C480E10E94BA02892B09F072C4E5
:10450000112309F46FC481E10E94BA02892B09F4D6
:1045100085C18AE093E00E94590E4AE064EF71E0A1
:1045200080E090E00E94620561E083E10E94E30286
:104530008CE193E00E94590E68EE73E080E090E019
:104540000E94300540E469E680EB96E00E94F607A1
:1045500043E06EE780EB96E00E94F6076BE180EBAC
:1045600096E00E94830783FD63C161E070E080E014
:1045700090E00E943005F2CF809126058111E5CEB2
:104580000E94A10520912205309123054091240528
:1045900050912505621B730B840B950B65367105D5
:1045A0008105910508F4D1CE41E0409326050E9493
:1045B000A1056093220570932305809324059093B1
:1045C0002505C3CE6091BC067091BD068091BE06E4
:1045D0009091BF060E94A70E882309F44CCFC0908B
:1045E000BC06D090BD06E090BE06F090BF068DEBF5
:1045F00092E00E94040EC701B6010E94F40E8CECFA
:1046000092E00E94590EA4E0A09321053324339434
:1046100032CF6091BC067091BD068091BE0690912C
:10462000BF060E94A70E882309F425CF8091BC06FF
:104630009091BD06A091BE06B091BF068C159D0558
:10464000AE05BF0509F417CF4090BC065090BD06DB
:104650006090BE067090BF068CED92E00E94040E42
:10466000C301B2010E94F40E8BEE92E00E94590E3B
:10467000B5E0B0932105E2E03E2EFDCE6091BC0690
:104680007091BD068091BE069091BF060E94A70E54
:10469000082F882309F4EFCE8091BC069091BD06C7
:1046A000A091BE06B091BF068C159D05AE05BF0555
:1046B00009F4E1CE8091BC069091BD06A091BE06A2
:1046C000B091BF0684159505A605B70509F4D3CEAC
:1046D0002091BC063091BD064091BE065091BF06A8
:1046E0002D833E834F8358878BEF92E00E94040E08
:1046F0006D817E818F8198850E94F40E8091F704F0
:104700009091F804A091F904B091FA048093FB040D
:104710009093FC04A093FD04B093FE048091EB04FD
:104720009091EC04A091ED04B091EE048093EF041D
:104730009093F004A093F104B093F2048091DF040D
:104740009091E004A091E104B091E2048093E3042D
:104750009093E404A093E504B093E6048091F304FD
:104760009091F404A091F504B091F6048093F704BD
:104770009093F804A093F904B093FA048091E704AD
:104780009091E804A091E904B091EA048093EB04CD
:104790009093EC04A093ED04B093EE048091DB04BD
:1047A0009091DC04A091DD04B091DE048093DF04DD
:1047B0009093E004A093E104B093E204C092F30468
:1047C000D092F404E092F504F092F6044092E704EB
:1047D0005092E8046092E9047092EA048D819E810F
:1047E000AF81B8858093DB049093DC04A093DD0453
:1047F000B093DE0463EF74E090E080E00E941A1250
:1048000067EE74E08CE090E00E941A126BED74E0A9
:1048100088E190E00E941A12102F2DCE80E10E94B4
:10482000BA02892B09F075CE86E00E94AD056BCEE9
:1048300001E010E027E030E041E067E780EB96E040
:104840000E940E088BE593E00E94590E81E693E0EA
:104850000E94590E40E369E680EB96E00E94F6075D
:1048600043E06EE780EB96E00E94F6070E94E707C0
:1048700026E030E041E067E780EB96E00E940E081A
:104880004CE069E680EB96E00E94F60743E06EE7B5
:1048900080EB96E00E94F6070E94E70726E030E0F2
:1048A00041E067E780EB96E00E940E0841E069E690
:1048B00080EB96E00E94F60743E06EE780EB96E01F
:1048C0000E94F6070E94E70726E030E041E067E734
:1048D00080EB96E00E940E088CE593E00E94590E52
:1048E00087EA93E00E94590E02E310E00E943F071E
:1048F00068E270E080E090E00E943005015011090C
:10490000A9F704E610E0198A1A8A1B8A1C8A1D86F8
:104910001E861F86188A19861A861B861C861D828B
:104920001E821F821886412C512C3201812C912C21
:1049300054010E943F078091000690910106092EC4
:10494000000CAA0BBB0B880E991EAA1EBB1E8091E1
:10495000FE059091FF05092E000CAA0BBB0B480E1B
:10496000591E6A1E7B1E8091FC059091FD05905496
:10497000092E000CAA0BBB0B2D813E814F8158855F
:10498000280F391F4A1F5B1F2D833E834F83588793
:104990008091FA059091FB05092E000CAA0BBB0B28
:1049A00029853A854B855C85280F391F4A1F5B1F77
:1049B00029873A874B875C878091F8059091F905A4
:1049C000092E000CAA0BBB0B2D853E854F855889FF
:1049D000280F391F4A1F5B1F2D873E874F87588B33
:1049E0008091F6059091F705092E000CAA0BBB0BE0
:1049F00029893A894B895C89280F391F4A1F5B1F17
:104A0000298B3A8B4B8B5C8B68E270E080E090E006
:104A10000E9430058EEB93E00E94040E01501109B4
:104A200009F087CF74E6C72ED12CE12CF12CC501FB
:104A3000B401A70196010E94792F2093C204C301FB
:104A4000B201A70196010E94792F2093C1046D81C4
:104A50007E818F819885A70196010E94792F2093EE
:104A6000C00469857A858B859C85A70196010E9483
:104A7000792F2093BF046D857E858F859889A70146
:104A800096010E94792F2093BE0469897A898B89C7
:104A90009C89A70196010E94792F2093BD0461E7AC
:104AA00080EB96E00E948307682F880F770B880BB6
:104AB000990B0E94A6312AE939E949E750E40E949E
:104AC000BE3269837A838B839C83BE016F5F7F4F85
:104AD00084E290E00E94E71162E780EB96E00E949A
:104AE0008307682F880F770B880B990B0E94A631DC
:104AF0002AE939E949E750E40E94BE3269837A83A2
:104B00008B839C83BE016F5F7F4F88E290E00E94A1
:104B1000E71163E780EB96E00E948307682F880F18
:104B2000770B880B990B0E94A6312AE939E949E7EE
:104B300050E40E94BE3269837A838B839C83BE01DA
:104B40006F5F7F4F8CE290E00E94E7110E94D007D8
:104B5000BC01990F880B990B0E94A63123E23BED13
:104B600049E75DE30E94BE3269837A838B839C832D
:104B7000BE016F5F7F4F80E390E00E94E7110E94CB
:104B8000B407BC01990F880B990B0E94A63123E250
:104B90003BED49E75DE30E94BE3269837A838B83F4
:104BA0009C83BE016F5F7F4F84E390E00E94E7111A
:104BB0000E949707BC01990F880B990B0E94A631A0
:104BC00023E23BED49E75DE30E94BE3269837A83CD
:104BD0008B839C83BE016F5F7F4F88E390E00E94D0
:104BE000E71162EC74E081E490E00E94CF1161EC87
:104BF00074E082E490E00E94CF1160EC74E083E402
:104C000090E00E94CF116FEB74E084E490E00E948A
:104C1000CF116EEB74E085E490E00E94CF116DEB54
:104C200074E086E490E00E94CF110E94110E84E1AE
:104C300091E00E94FD060E94110E86E091E00E9424
:104C4000FD0661E780EB96E00E948307682F880FDE
:104C5000770B880B990B0E94A6312AE939E949E7BD
:104C600050E40E94BE3242E00E943D0F84E091E099
:104C70000E94FD0662E780EB96E00E948307682FA2
:104C8000880F770B880B990B0E94A6312AE939E926
:104C900049E750E40E94BE3242E00E943D0F82E0AC
:104CA00091E00E94FD0663E780EB96E00E94830797
:104CB000682F880F770B880B990B0E94A6312AE981
:104CC00039E949E750E40E94BE320E94191085EF8D
:104CD00090E00E94FD060E94D007BC01990F880B4E
:104CE000990B0E94A63123E23BED49E75DE30E9468
:104CF000BE3242E00E943D0F83EF90E00E94FD062D
:104D00000E94B407BC01990F880B990B0E94A63131
:104D100023E23BED49E75DE30E94BE3242E00E94A0
:104D20003D0F81EF90E00E94FD060E949707BC01B5
:104D3000990F880B990B0E94A63123E23BED49E7BE
:104D40005DE30E94BE320E94191085EE90E00E9441
:104D5000FD068091C204082E000C990B0E94010FE1
:104D600083EE90E00E94FD068091C104082E000CA5
:104D7000990B0E94010F81EE90E00E94FD06809148
:104D8000C004082E000C990B0E94310F86ED90E0B4
:104D90000E94FD068091BF04082E000C990B0E9412
:104DA000010F84ED90E00E94FD068091BE04082E64
:104DB000000C990B0E94010F82ED90E00E94FD060D
:104DC0008091BD04082E000C990B0E94310F60E009
:104DD00083E10E94E30245E066E970E080E090E054
:104DE0000E94620567ED74E084E290E00E947E120A
:104DF00063ED74E088E290E00E947E126FEC74E054
:104E00008CE290E00E947E126BEC74E080E390E014
:104E10000E947E1267EC74E084E390E00E947E12B0
:104E200063EC74E088E390E00E947E1262EC74E030
:104E300081E490E00E94741261EC74E082E490E0FE
:104E40000E94741260EC74E083E490E00E9474129B
:104E50006FEB74E084E490E00E9474126EEB74E0F7
:104E600085E490E00E9474126DEB74E086E490E0BB
:104E70000E94741280913205882309F4C2C14091C6
:104E8000D7045091D8046091D9047091DA0490E06D
:104E900080E00E943D084091D3045091D404609179
:104EA000D5047091D60481E090E00E943D084091C5
:104EB000CF045091D0046091D1047091D20482E06B
:104EC00090E00E943D0823E23BED49E75DE36091FD
:104ED000CB047091CC048091CD049091CE040E94BB
:104EE000FC300E946E31611532E0730714F06FEFF1
:104EF00071E07B0161157E4F1CF4E12C6EEFF62E04
:104F00004E2D64E780EB96E00E94F60702E010E089
:104F100030E020E04F2D67E780EB96E00E940E081E
:104F20008CE0898322E030E041E050E0BE016F5F19
:104F30007F4F80EB96E00E94380701E010E027E009
:104F400030E041E067E780EB96E00E940E0823E244
:104F50003BED49E75DE36091C7047091C80480911F
:104F6000C9049091CA040E94FC300E946E31611500
:104F700052E0750714F06FEF71E07B0161157E4F11
:104F80001CF4E12C5EEFF52E4E2D65E780EB96E0EC
:104F90000E94F60702E010E022E030E04F2D67E7C4
:104FA00080EB96E00E940E088EE0898322E030E0DC
:104FB00041E050E0BE016F5F7F4F80EB96E00E94C2
:104FC000380701E010E027E030E041E067E780EBE0
:104FD00096E00E940E0823E23BED49E75DE3609115
:104FE000C3047091C4048091C5049091C6040E94CA
:104FF000FC300E946E31611592E0790714F06FEF7A
:1050000071E07B0161157E4F1CF4E12C4EEFF42E14
:105010004E2D66E780EB96E00E94F60702E010E076
:1050200024E030E04F2D67E780EB96E00E940E0809
:1050300080E1898322E030E041E050E0BE016F5F13
:105040007F4F80EB96E00E94380701E010E027E0F8
:1050500030E041E067E780EB96E00E940E080E9496
:10506000110E89E691E00E94FD060E94110E8BE56B
:1050700091E00E94FD0661E780EB96E00E948307C5
:10508000682F880F770B880B990B0E94A6312AE9AD
:1050900039E949E750E40E94BE3242E00E943D0FE8
:1050A00089E591E00E94FD0662E780EB96E00E94B0
:1050B0008307682F880F770B880B990B0E94A63106
:1050C0002AE939E949E750E40E94BE3242E00E94F1
:1050D0003D0F87E591E00E94FD0663E780EB96E0D7
:1050E0000E948307682F880F770B880B990B0E940B
:1050F000A6312AE939E949E750E40E94BE320E940C
:1051000019108AE491E00E94FD060E94D007BC01BC
:10511000990F880B990B0E94A63123E23BED49E7DA
:105120005DE30E94BE3242E00E943D0F88E491E0C0
:105130000E94FD060E94B407BC01990F880B990BD1
:105140000E94A63123E23BED49E75DE30E94BE32B7
:1051500042E00E943D0F86E491E00E94FD060E941D
:105160009707BC01990F880B990B0E94A63123E287
:105170003BED49E75DE30E94BE320E9419108AE3CD
:1051800091E00E94FD068091C204082E000C990B4C
:105190000E94010F88E391E00E94FD068091C10406
:1051A000082E000C990B0E94010F86E391E00E94EB
:1051B000FD068091C004082E000C990B0E94310F4F
:1051C0008BE291E00E94FD068091BF04082E000C46
:1051D000990B0E94010F89E291E00E94FD068091E7
:1051E000BE04082E000C990B0E94010F87E291E08B
:1051F0000E94FD068091BD04082E000C990B0E94B0
:10520000310F80913205882309F4B2C18CE390E01C
:105210000E94CA1291E0811101C090E090932B0589
:105220008091110190912B05992311F0811182E059
:10523000809321058DE390E00E94CA12833009F02B
:105240009AC183E290E0A0E0B0E080930C019093DB
:105250000D01A0930E01B0930F010E94110E80EC7E
:1052600093E00E94590E44244A9433E0532E612C5B
:10527000712C11E097E4292E26E0322E02E00E94E4
:1052800042090E94A105C090FF04D0900005E09063
:105290000105F09002056C197D098E099F09673997
:1052A00071058105910508F43FC00E94A105609336
:1052B000FF0470930005809301059093020580918F
:1052C000BC069091BD06A091BE06B091BF06892B89
:1052D0008A2B8B2B09F48CC1E3EFF4E08BEDA82E25
:1052E00084E0B82E87EE94E04091BC065091BD0654
:1052F0006091BE067091BF06C190D190E190F1908F
:10530000C416D506E606F70609F03AC1109318054B
:1053100010921605109215051092BC061092BD064B
:105320001092BE061092BF06809132058823B1F01C
:10533000C0900305D0900405E0900505F0900605A7
:1053400028E2C20ED11CE11CF11C0E94A105C61668
:10535000D706E806F90610F40E94CC120E94A105B7
:10536000C0902E05D0902F05E0903005F0903105CB
:105370006C197D098E099F096536710581059105B6
:1053800008F482C00E94A10560932E0570932F053A
:10539000809330059093310520927C0080917A00B3
:1053A000806480937A0080917A0086FDFCCFA09182
:1053B0007800B0917900B0932D05A0932C05F09062
:1053C0002A0580912B05882339F0809111018823CB
:1053D00019F0FF2009F458C02EE036E00E94F02FAB
:1053E000A30192010E94792FCA01B9016E5C7F4F1F
:1053F0008F4F9F4F0E94A6310E946A01FF2009F43F
:1054000043C080912C0590912D0520912805309165
:105410002905821B930B97FF03C0919581959109F4
:10542000069764F01093270584EC93E00E94040E25
:1054300080912C0590912D050E94310F80912705B8
:10544000A0912C05B0912D0581110CC08EE390E048
:105450000E94632F89838FE390E00E94632F8A83E9
:10546000A981BA812EE036E00E94F02FA3019201BB
:105470000E94792FCA01B9016E5C7F4F8F4F9F4FF9
:105480000E94A6310E946A0181E10E94BA02892B22
:10549000D1F480912605811116C080912A058111D1
:1054A00012C0109326050E94A105609322057093F7
:1054B0002305809324059093250564E170E080E046
:1054C00090E00E94300581E10E94BA02892BC9F464
:1054D00080912A05811115C00E94A105C090220566
:1054E000D0902305E0902405F09025056C197D09E6
:1054F0008E099F09613D77408105910510F030923A
:10550000210581E10E94BA02892B09F4A3C0809190
:105510002605882309F49EC080912A0581119AC02E
:10552000109226050E94A105C0902205D090230567
:10553000E0902405F09025056C197D098E099F09DE
:10554000613D77408105910520F080913205811100
:1055500056C080911101F82EF126F092110180932E
:105560003707F1109FC189EF96E00E9420099CC186
:1055700010922B0555CE80E590E0A0E0B0E065CE1E
:105580004091BC065091BD066091BE067091BF0669
:10559000DC01CD90DD90ED90FD90CD01C416D506D7
:1055A000E606F70629F41092180510931605B2CEF8
:1055B0004091BC065091BD066091BE067091BF0639
:1055C000D501CD90DD90ED90FD905D01C416D5061E
:1055D000E606F70639F41092180510921605109396
:1055E00015059ACEB4E0EF3FFB0709F07DCE94CECF
:1055F00010921805109216051092150595CE8CE3A1
:1056000090E00E94CA1261E0811160E060932B0576
:105610008CE390E00E946B2F8CE390E00E94CA1212
:1056200091E0811101C090E090932B0590911101C0
:10563000882309F434C1992309F431C10093210569
:1056400084EA91E00E94FD068CE390E00E94CA1279
:105650000E94E30E8EE00E94BA02892B21F0809115
:105660001805882381F18091170581112CC01093B2
:10567000170510922B0580912A05882381F08091CF
:105680002705882361F06CE275E08EE390E00E94CC
:105690004D121092270582ED93E00E94590E8091E1
:1056A0002A05882309F428C110922A050E94270997
:1056B0008091110181278093370764E170E080E0D9
:1056C00090E00E9430058EE00E94BA02892B09F416
:1056D00043C08091180581113FC08091160581114A
:1056E0003BC080911505811137C080911705882333
:1056F00099F11092170580912A0581112DC00E9401
:10570000270980913205882309F413C18CE390E0C6
:105710000E94CA1291E0811101C090E090932B0584
:105720008091110190912B05992309F405C18823DB
:1057300009F402C10093210580911D0590911E0579
:10574000A0911F05B09120058093190590931A052B
:10575000A0931B05B0931C058FE00E94BA02892B11
:1057600021F080911605882381F180911405811123
:105770002CC01093140510922B0580912A058823C4
:1057800081F080912705882361F06CE275E08EE35B
:1057900090E00E944D121092270582ED93E00E9446
:1057A000590E80912A05882309F4C9C010922A0550
:1057B0000E9427098091110181278093370764E1B6
:1057C00070E080E090E00E9430058FE00E94BA0215
:1057D000892B09F443C08091180581113FC0809145
:1057E000160581113BC080911505811137C080914C
:1057F0001405882399F11092140580912A058111CE
:105800002DC00E94270980913205882309F4B4C075
:105810008CE390E00E94CA1291E0811101C090E0F7
:1058200090932B058091110190912B05992309F4F8
:10583000A6C0882309F4A3C00093210580911D050B
:1058400090911E05A0911F05B09120058093190528
:1058500090931A05A0931B05B0931C058EE00E943F
:10586000BA02892B09F48EC080E10E94BA02892B0A
:1058700009F48EC08091150581118AC08EE00E94C6
:10588000BA02892B09F4E4C080E10E94BA02892B94
:1058900009F4E4C0809115058111E0C0F3C0909334
:1058A0002105CECE0E94A60310922A050E94270948
:1058B00080912B05882339F0FF2029F000932105E2
:1058C00082EF91E006C0F09221058EEF91E0F11099
:1058D000F7CF0E94590E80911D0590911E05A09151
:1058E0001F05B09120058093190590931A05A09388
:1058F0001B05B0931C05AECE1092450710924407CD
:1059000010924607109247071092480710924907D5
:105910001092130710921407109215071092160791
:1059200041E050E06FEF76EE8FEF9FEF0E94C803EB
:10593000C4CE10922B05F4CE80932105FDCE10929B
:10594000450710924407109246071092470710929D
:1059500048071092490710921307109214071092EB
:1059600015071092160741E050E061E079E180E010
:1059700090E00E94C80323CF10922B0553CF809351
:1059800021055CCF8FE00E94BA02892B09F06CCF11
:1059900080911305811172CF109313050E94A10508
:1059A00060930F0570931005809311059093120575
:1059B00010922B050E942709109245071092440768
:1059C0001092460710924707109248071092490715
:1059D00010921307109214071092150710921607D1
:1059E00080912A05882329F10E9427091092F9063F
:1059F0001092FA061092FB061092FC0610922A07EB
:105A000010922B0710922C0710922D0782EE93E034
:105A10000E94590E8DE390E00E94CA1280932105E6
:105A20001093100164EF71E080E090E00E94300577
:105A300025CF10932A051092370780912C0590915D
:105A40002D0590932905809328058DEE93E0E0CFF6
:105A50008FE00E94BA02892B09F016CF0E94A1059F
:105A6000C0900F05D0901005E0901105F090120540
:105A70006C197D098E099F09613D7740810591056B
:105A800008F019C18EE00E94BA02892B09F45AC0AD
:105A90008FE00E94BA02892B09F454C080E10E9471
:105AA000BA02892B09F44EC08091150581114AC0B4
:105AB00080911305882309F445C0109213050E94B4
:105AC000A105C0900F05D0901005E0901105F09051
:105AD00012056C197D098E099F09613D774081058A
