:100000000C94CD000C942D110C9406110C94F50059
:100010000C94F5000C94F5000C94F5000C94F5008C
:100020000C94F5000C94F5000C94F5000C94F5007C
:100030000C94F5000C94F5000C94F5000C94F5006C
:100040000C94BC100C94F5000C947A110C9454117F
:100050000C94F5000C94F5000C94F5000C94F5004C
:100060000C949D0F0C94F500036EDB363D9A999924
:10007000993DABAAAA2A3E000000803F084AD73B20
:100080003BCE016E84BCBFFDC12F3D6C74319ABD67
:1000900056833DDA3D00C77F11BED9E4BB4C3E918B
:1000A0006BAAAABE000000803F072C7AA5BA6CC5D7
:1000B00090DA3B9365FC8BBC53F810FD3C56928361
:1000C0004DBD879D3AB63DCBC9BF5BBE73DA0FC944
:1000D0003F0000000000240027002A00000000006C
:1000E0002300260029000000000800020100000390
:1000F000040700000000000000005E01011F010372
:100100000301008A02010A010202010064001E4785
:10011000040B0906007C0101060103030100F40140
:10012000060E0102020100C20117010102020101D3
:100130009600023E0106060100C800038207100374
:100140001000C800820710071003016D011201039F
:10015000010103010E0124010102020101400124F9
:100160000101020201010102040810204080010285
:1001700004081020010204081020000000002500DF
:1001800028002B00040404040404040402020202F4
:100190000202030303030303AC1111241FBECFEFBC
:1001A000D8E0DEBFCDBF11E0A0E0B1E0E0E2F7E5CE
:1001B00002C005900D92A63DB107D9F725E0A6ED46
:1001C000B1E001C01D92A032B207E1F710E0CDEC22
:1001D000D0E004C02197FE010E94FB27CC3CD10750
:1001E000C9F70E94ED120C948E2B0C940000CF9254
:1001F000DF92EF92FF926B017C0120E030E0A901D9
:100200000E94B52A181624F0F7FAF094F7F8F09443
:1002100024EB32EA41E959E3C701B6010E94B52A4D
:10022000181644F084EBC82E82EAD82E81E9E82E15
:1002300089E3F82EC0921005D0921105E0921205C4
:10024000F09213058091180590911905892B51F0B2
:1002500020E030E040EA50E4C701B6010E94FB28EC
:1002600087FF12C0A701960160E074E284E799E479
:100270000E9400290E9479296093E1047093E204AE
:100280008093E3049093E404C701B6010E947229AD
:100290009B01770F440B550B285E334041095109F0
:1002A000A0E5B9EC0E94AA2728E33AE440E050E038
:1002B0000E947D272856354C4F4F5F4F28393A43CF
:1002C00058F088EE93E09093E6048093E504FF9065
:1002D000EF90DF90CF90089588E99AE3F4CF2091D2
:1002E0006103260F3327331F21323105ECF42091AF
:1002F000AC03FC0190E080E0243069F082E00895D6
:10030000A09161032191AC01415C5C4FA40FB52F1A
:10031000B11D2C930196861798F380916103680FA5
:100320006093610380E0089581E008950895089541
:100330000895E0913D0380913C03E81730F4F0E02C
:10034000E45EFC4F808190E008958FEF9FEF089569
:1003500090913D0380913C032FEF3FEF981748F4B5
:10036000E92FF0E0E45EFC4F208130E09F5F909346
:100370003D03C901089580913C0390913D03891B81
:10038000990B0895CF92DF92EF92FF920F931F93F4
:10039000CF93DF937C01CB018A012091B20322230A
:1003A00089F0EB016B01C40ED51ECC15DD0569F09B
:1003B0006991D701ED91FC910190F081E02DC70189
:1003C0000995F3CF642F0E946F01C801DF91CF918F
:1003D0001F910F91FF90EF90DF90CF900895CF93F2
:1003E000DF931F92CDB7DEB769832091B20322233A
:1003F000F9F02091D503203258F021E030E0FC01E3
:100400003383228390E080E00F90DF91CF910895B5
:100410008091B303E82FF0E0EC54FC4F9981908376
:100420008F5F8093B3038093D50381E090E0ECCF9E
:1004300061E0CE0101960E946F01F7CFFC01538D60
:10044000448D252F30E0842F90E0821B930B5417AE
:1004500010F0CF96089501970895FC01918D828D3B
:10046000981761F0A28DAE0FBF2FB11D5D968C91D4
:10047000928D9F5F9F73928F90E008958FEF9FEF13
:100480000895FC01918D828D981731F0828DE80FCF
:10049000F11D858D90E008958FEF9FEF0895FC0189
:1004A000918D228D892F90E0805C9F4F821B910956
:1004B0008F7399270895FC01A48DA80FB92FB11D42
:1004C000A35ABF4F2C91848D90E001968F7399278A
:1004D000848FA689B7892C93A089B1898C91837068
:1004E00080648C93938D848D981306C00288F38961
:1004F000E02D80818F7D80830895EF92FF920F938E
:100500001F93CF93DF93EC0181E0888F9B8D8C8DBF
:1005100098131AC0E889F989808185FF15C09FB7B3
:10052000F894EE89FF896083E889F9898081837076
:10053000806480839FBF81E090E0DF91CF911F9125
:100540000F91FF90EF900895F62E0B8D10E00F5F46
:100550001F4F0F731127E02E8C8D8E110CC00FB61C
:1005600007FCFACFE889F989808185FFF5CFCE01B4
:100570000E945B02F1CFEB8DEC0FFD2FF11DE35AD2
:10058000FF4FF0829FB7F8940B8FEA89FB89808137
:100590008062CFCFCF93DF93EC01888D8823B9F0B1
:1005A000AA89BB89E889F9898C9185FD03C080817E
:1005B00086FD0DC00FB607FCF7CF8C9185FFF2CFFB
:1005C000808185FFEDCFCE010E945B02E9CFDF91F4
:1005D000CF91089587EE93E00E944F0221E0892B8E
:1005E00009F420E0822F089580E090E0892B29F023
:1005F0000E94EA0281110C9400000895833081F07A
:1006000028F4813099F08230A9F008958730A9F05C
:100610008830C9F08430B1F4809180008F7D03C0B0
:10062000809180008F7780938000089584B58F77C4
:1006300084BD089584B58F7DFBCF8091B0008F7706
:100640008093B00008958091B0008F7DF9CFCF9353
:10065000DF93282F30E0F901EA51FF4F8491F9012F
:10066000EA59FE4FD491F901EC57FE4FC491CC23C7
:10067000A1F081110E94FE02EC2FF0E0EE0FFF1FAF
:10068000E452FF4FA591B491EC91ED2381E090E00D
:1006900009F480E0DF91CF91089580E090E0FACFF7
:1006A0001F93CF93DF93282F30E0F901EA51FF4FDA
:1006B0008491F901EA59FE4FD491F901EC57FE4FAC
:1006C000C491CC23A9F0162F81110E94FE02EC2FB9
:1006D000F0E0EE0FFF1FE658FE4FA591B4918FB7E3
:1006E000F894EC91111108C0D095DE23DC938FBFF4
:1006F000DF91CF911F910895DE2BF8CF10920A055C
:1007000010920C0510920D0510920E0510920F0517
:100710001092FE041092FF04109200051092010541
:1007200080910B05882341F06091D30481E0682714
:100730008091D2040C94500308951092AC0381E090
:100740008093AB031092860361E082E10E94500324
:1007500061E083E10E945003E9EBF0E080818E7F4D
:10076000808380818D7F808388E48093B80085E4D6
:100770008093BC000895CF93DF9391E090933E0364
:100780008823B9F0C091B800D091BA008091BC0024
:100790008A7B8093BC0060E082E10E94500360E0AD
:1007A00083E10E9450030E949D03D093BA00C0933E
:1007B000B800DF91CF910895CF93DF9390E0FC01D3
:1007C000EA59FE4F24918C579E4FFC018491882357
:1007D000D1F090E0880F991FFC01EE52FF4FA591D8
:1007E000B491FC01E658FE4FC591D491623071F48A
:1007F0009FB7F8943C91822F809583238C93E88156
:100800002E2B28839FBFDF91CF9108958FB7F89447
:10081000EC912E2B2C938FBFF6CF3FB7F89480919D
:10082000180390911903A0911A03B0911B0326B5E8
:10083000A89B05C02F3F19F00196A11DB11D3FBF18
:10084000BA2FA92F982F8827BC01CD01620F711DE7
:10085000811D911D42E0660F771F881F991F4A95E1
:10086000D1F70895CF93DF93CDECD4E081E08DAF45
:1008700010920C0510920D0510920E0510920F05A6
:100880000E940D046DA77EA78FA798AB6CA37DA3D4
:100890008EA39FA368A379A38AA39BA36E818D8156
:1008A000DF91CF910C9450034F925F926F927F92A1
:1008B0008F929F92AF92BF92CF92DF92EF92FF9270
:1008C0006B017C018090CD049090CE04A090CF0469
:1008D000B090D004452B21F0C80CD91CEA1CFB1C9D
:1008E000C0920205D0920305E0920405F09205053E
:1008F000C814D904EA04FB0409F441C0409010056F
:1009000050901105609012057090130580911805A4
:1009100090911905892B51F020E030E040EA50E435
:10092000C301B2010E94FB2887FF1BC0A3019201F3
:1009300060E074E284E799E40E9400290E9479292A
:100940006093E1047093E2048093E3049093E404E1
:1009500081E08C149D04AE04BF040CF08FEF8093F3
:10096000D104FF90EF90DF90CF90BF90AF909F9019
:100970008F907F906F905F904F900C943204FF9017
:10098000EF90DF90CF90BF90AF909F908F907F902F
:100990006F905F904F9008954F925F926F927F9209
:1009A0008F929F92AF92BF92CF92DF92EF92FF927F
:1009B000CF93DF93CDB7DEB728970FB6F894DEBF9D
:1009C0000FBECDBF80910A05882309F443C20E945F
:1009D0000D046093060570930705809308059093B6
:1009E000090520911E0530911F05809118059091F1
:1009F0001905232B09F037C2892B09F467C14090F0
:100A0000100550901105609012057090130520E0BC
:100A100030E040EA50E4C301B2010E94B52A87FDEC
:100A200055C18090060590900705A0900805B090EC
:100A30000905C090F104D090F204E090F304F09026
:100A4000F4046091E5047091E60490E080E08C1875
:100A50009D08AE08BF0886169706A806B90608F4D2
:100A600035C1C60ED71EE81EF91EC092F104D09201
:100A7000F204E092F304F092F40480900205909066
:100A80000305A0900405B0900505C090CD04D0905A
:100A9000CE04E090CF04F090D0048C189D08AE08EE
:100AA000BF08C090FE04D090FF04E0900005F090D5
:100AB00001050E94A8292091E7043091E8044091A3
:100AC000E9045091EA040E94C22A69837A838B83E5
:100AD0009C83A7019601C701B6010E94C22A2091FA
:100AE0001A0530911B0540911C0550911D050E946F
:100AF000C22A6D837E838F839887C501B401B7FEB8
:100B000007C066277727CB01681979098A099B09ED
:100B10000E94AA299B01AC016D817E818F819885FD
:100B20000E94B52A87FD0EC020E030E0A901C70170
:100B3000B6010E94B52A87FD07C020E030E040E8FA
:100B40005FEB06C0B7FCF9CF20E030E040E85FE3A0
:100B500069817A818B819C810E94C22AA7019601BA
:100B60000E9402286B017C0180900C0590900D057D
:100B7000A0900E05B0900F0520E030E0A901C5015E
:100B8000B4010E94FB2881114AC053014201B7FA07
:100B9000B094B7F8B094A5019401B601C7010E94C2
:100BA000FB2887FD0CC09601A701C301B2010E947A
:100BB000FB285301420187FD02C046015701809284
:100BC000FE049092FF04A0920005B0920105C0902F
:100BD000FE04D090FF04E0900005F090010520E0B5
:100BE00030E0A901C701B6010E94B52A1816D4F554
:100BF00020E030E040EA50E4C701B6010E94B52A87
:100C00001816D4F180E49DE0A3E0B0E08093E10405
:100C10009093E204A093E304B093E4044BC0240156
:100C2000350177FA709477F87094A3019201B601B8
:100C3000C7010E94FB2887FD0CC0A5019401B601E5
:100C4000C7010E94B52A24013501181614F02601A7
:100C500037014092FE045092FF04609200057092AA
:100C60000105B5CF20E030E040EA50ECC701B60105
:100C70000E94FB2887FFC6CFA701960160E074E2BF
:100C800084E799E40E9400294B015C0120E030E0F8
:100C9000A9010E94B52A18160CF083C0C501B40141
:100CA0000E9479296093E1047093E2048093E30445
:100CB0009093E40420E030E0A901C701B6010E944E
:100CC000B52A87FD72C081E08093D1044091E10490
:100CD0005091E2046091E3047091E40441155105E0
:100CE0006105710509F4B6C080910605909107056C
:100CF000A0910805B0910905C090FA04D090FB04BA
:100D0000E090FC04F090FD048C199D09AE09BF0928
:100D100084179507A607B70708F49CC080910605BD
:100D200090910705A0910805B09109058093FA04F8
:100D30009093FB04A093FC04B093FD04C090CD04F9
:100D4000D090CE04E090CF04F090D00480911E05A6
:100D500090911F05892BE1F5809102059091030583
:100D6000A0910405B09105058C159D05AE05BF0544
:100D700079F50E947E0380E028960FB6F894DEBFD6
:100D80000FBECDBFDF91CF91FF90EF90DF90CF905E
:100D9000BF90AF909F908F907F906F905F904F909B
:100DA0000895C501B40190587BCF8FEF8DCF8FEFA1
:100DB000D8C0C501B4019058EAC024EB32EA41E939
:100DC00059EBC701B6010E94B52A87FD7FCF03C149
:100DD0008091D104482F082E000C550B660B770B21
:100DE0004C0D5D1D6E1D7F1D4093CD045093CE04B0
:100DF0006093CF047093D0049091D504891799F033
:100E00008093D504E091DD04F091DE0491E01816A2
:100E10000CF090E08091D4049817F9F08091E004F0
:100E20009081892B80838091DF04E091DB04F09135
:100E3000DC049081892B80838BE090E00197F1F7AF
:100E40008091DF04E091DB04F091DC0490818095D7
:100E50008923808380910A058FCF8091E00490815F
:100E600080958923DFCF892B09F430CFC090060508
:100E7000D0900705E0900805F09009056091EB041B
:100E80007091EC048091ED049091EE04A091EF0438
:100E9000B091F004C81AD90AEA0AFB0A90E080E08F
:100EA000C616D706E806F90608F410CFC090060566
:100EB000D0900705E0900805F0900905C092ED0478
:100EC000D092EE04E092EF04F092F004C090FE04A1
:100ED000D090FF04E0900005F09001050E94A82941
:100EE0002091E7043091E8044091E9045091EA042C
:100EF0000E94C22A4B015C01A70196016091140572
:100F00007091150580911605909117050E94012892
:100F100020E030E0A9010E94B52A20E030E040E85E
:100F20005FE387FF04C020E030E040E85FEBC501ED
:100F3000B4010E94C22AA70196010E9402286B01F7
:100F40007C01C092FE04D092FF04E0920005F09272
:100F5000010520E030E0A9010E94B52A87FD27CFD6
:100F600081E08093D104A701960160E074E284E7F8
:100F700099E40E9400294B015C0120E030E0A901C6
:100F80000E94B52A18160CF014CFC501B4010E94B6
:100F900079296093E1047093E2048093E3049093D1
:100FA000E4048091F504882309F490CE20E030E039
:100FB000A901C701B6010E94B52A18160CF0FDCE92
:100FC00024EB32EA41E959E3C701B6010E94FB284C
:100FD00018160CF47BCE0E947E0378CE8F929F92DF
:100FE000AF92BF92CF92DF92EF92FF920F931F9337
:100FF000CF93DF93D091D503D13208F0D7C0182F0B
:10100000C091D4030E940D046B017C018091AC035C
:1010100081116BC082E08093AC031093AB038FEF20
:101020008093AA031092A903D093A803A4EBB3E082
:10103000E8E8F3E080E0D81391C010928703809134
:101040008703CC0FC82BC093870380918603813020
:1010500009F088C0109286030E940D046B017C0188
:10106000809187038093BB008091AE039091AF0382
:10107000A091B003B091B103892B8A2B8B2BA1F0E7
:101080000E940D040091AE031091AF032091B003B4
:101090003091B1036C197D098E099F090617170756
:1010A0002807390708F442C08091BC0083FDD8CFDF
:1010B00085EC8093BC000E940D046B017C01809143
:1010C000AC03823009F450C08091AA038F3F09F429
:1010D0006FC08091AA03803209F46CC08091AA038A
:1010E000803309F469C084E026C08091AE039091FA
:1010F000AF03A091B003B091B103892B8A2B8B2B46
:1011000009F484CF0E940D048090AE039090AF0349
:10111000A090B003B090B1036C197D098E099F09AE
:1011200086169706A806B90608F070CF8091AD0321
:101130000E94BB0385E01092B3031092D503109276
:10114000B203DF91CF911F910F91FF90EF90DF904D
:10115000CF90BF90AF909F908F9008959D91919365
:101160008F5F69CF85EEA5CF8091AE039091AF03DD
:10117000A091B003B091B103892B8A2B8B2B09F47A
:101180009ECF0E940D040091AE031091AF032091F9
:10119000B0033091B1036C197D098E099F090617C0
:1011A00017072807390708F08ACFC0CF81E0C3CFDF
:1011B00080E0C1CF82E0BFCF83E0BDCF8F929F920E
:1011C000AF92BF92CF92DF92EF92FF924B015C0100
:1011D0000E940D046B017C010E940D046C197D09B5
:1011E0008E099F09683E734081059105A8F321E0AF
:1011F000821A9108A108B10888EEC80E83E0D81EB3
:10120000E11CF11C81149104A104B10429F7FF90A1
:10121000EF90DF90CF90BF90AF909F908F90089508
:101220008F929F92BF92CF92DF92EF92FF920F9395
:101230001F93CF93DF936B017C01042F83E10E9406
:1012400027034C01BB24B394892B09F4B12CD0E0C3
:10125000C0E010E0C017D107B4F461E0811491043C
:1012600009F060E083E10E945003C701B6010E94CB
:10127000DE086B2D83E10E945003C701B6010E9476
:10128000DE082196E7CFDF91CF911F910F91FF905C
:10129000EF90DF90CF90BF909F908F9008952FB7E1
:1012A000F894609114037091150380911603909146
:1012B00017032FBF0895CF92DF92EF92FF920F9303
:1012C0001F93CF93DF9300D000D000D01F92CDB7F3
:1012D000DEB797E0E4E1F1E0DE01119601900D92B6
:1012E0009A95E1F721E030E02C0F3D1F280F311DCA
:1012F000F90110810E944F09C090D703D090D80304
:10130000E090D903F090DA036C197D098E099F09EA
:101310006739710581059105F0F00E944F096093CE
:10132000D7037093D8038093D9039093DA03009185
:10133000D603812F90E0202F277002C095958795C6
:101340002A95E2F761E080FF60E083E10E945003AC
:101350000F5F0093D60327960FB6F894DEBF0FBE3B
:10136000CDBFDF91CF911F910F91FF90EF90DF9054
:10137000CF9008950895AF92BF92CF92DF92EF92EF
:10138000FF920F931F93CF93DF936C017B018B012F
:10139000040F151FEB015E01AE18BF08C017D1077F
:1013A00059F06991D601ED91FC910190F081E02D09
:1013B000C6010995892B79F7C501DF91CF911F915E
:1013C0000F91FF90EF90DF90CF90BF90AF90089576
:1013D00090E080E00895DC01ED91FC910480F581BE
:1013E000E02D0994CF93DF931F92CDB7DEB76983C9
:1013F00021E030E041E050E0BE016F5F7F4F0E948E
:10140000EB0989810F90DF91CF9108956BE184E81A
:1014100094E00E94F20983FD07C061E070E080E083
:1014200090E00E94DE08F2CF0895CF93DF9300D0C2
:10143000CDB7DEB769834A8330E020E042E050E078
:10144000BE016F5F7F4F0E94EB090F900F90DF91FD
:10145000CF91089590E080E00895EF92FF920F936E
:101460001F93CF93DF937C01D62FC42F122F0E949E
:10147000F20941E050E002C0440F551F0A95E2F71F
:1014800041505109012E01C0440F0A94EAF72C2F54
:1014900001C0220F1A95EAF7942F909589232423EF
:1014A000422F482B6D2FC701DF91CF911F910F91D4
:1014B000FF90EF900C94150A8F929F92AF92BF927B
:1014C000CF92DF92EF92FF926B017C0120E030E03F
:1014D00040E05FE30E94C22A4B015C01D701C601D4
:1014E000B595A795979587953FEDC32E39E5D32EF2
:1014F00037E3E32E3FE5F32EC81AD90AEA0AFB0ABE
:10150000A5019401C701B6010E94C22AA701960154
:101510000E94C22A9B01AC0160E070E080EC9FE376
:101520000E940128A70196010E94C22A6B017C013A
:10153000A50194010E94C22AA70196010E94C22A15
:101540009B01AC0160E070E080EC9FE30E94012809
:10155000A70196010E94C22AFF90EF90DF90CF90E2
:10156000BF90AF909F908F900895FC018681A82F27
:10157000B0E0AA0FBB1FAE0FBF1F6D937C938F5FB0
:101580008330D0F48683208131814281538164810C
:101590007581FA01461757070CF4FB01C90124179E
:1015A00035070CF4CA01E817F90741F4C9012617F9
:1015B00037076CF4CB0108951682E5CFC901621795
:1015C00073070CF4CB01841795070CF4CA01089536
:1015D0000F931F93CF93DF93EBE9F2E0A3E8B2E020
:1015E000CFE8D2E0019111912191319106171707AF
:1015F0002807390791F00991199129913991061716
:1016000017072807390749F00D911D912D913D913C
:10161000061717072807390769F445E064E670E004
:1016200080E090E00E94100980E0DF91CF911F914F
:101630000F91089522E0E73AF207A1F681E0F5CF95
:101640002F923F924F925F926F927F928F929F92D2
:10165000AF92BF92CF92DF92EF92FF920F931F93C0
:10166000CF93DF93CDB7DEB765970FB6F894DEBFA3
:101670000FBECDBF0E940D046B017C0180916402FE
:10168000909165022601481A590A4DEC441640E132
:10169000540608F4E0C080916202909163020097C2
:1016A00089F02091DC013091DD011201221A330A08
:1016B000910137FE03C0319521953109283C310550
:1016C0000CF0C5C00196909363028093620202976A
:1016D00009F0BDC09AEF692E90E0792E01E010E08C
:1016E0002090DA013090DB013B862A8649E050E009
:1016F000B301CE0101960E945E278B816C81681731
:1017000008F4682F70E08091DC019091DD010E9467
:10171000E0279B014091120150911301649FC00189
:10172000659F900D749F900D112464E670E00E94F7
:10173000E0278985A1E0B0E0882311F0A2E0B0E0C5
:101740008D81829FA001839F500D11245D874C875E
:101750008E81829F1001839F300C11243F862E863C
:101760008F81829FA001839F500D1124598B488B3C
:101770008885829F1001839F300C11243B8A2A8A1E
:10178000FD01EE0FFF1FE452FE4F812C912C5401FE
:101790004A855B85415051095D8B4C8B8C899D89B5
:1017A000A817B90708F040C0880C991CAA1CBB1CDC
:1017B00080819181AC012C843D844219530957FFEB
:1017C00003C05195419551094617570770F442815E
:1017D00053812E843F844219530957FF03C051950A
:1017E0004195510946175707E0F048895989841BEC
:1017F000950B97FF03C091958195910986179707DF
:10180000C8F4828193812A883B888219930997FFC3
:1018100003C09195819591098617970758F46894AC
:1018200080F812963496BACF4A855B8548305105C8
:1018300008F053C00F5F1F4F59E0650E711C0D304B
:10184000110509F04DCF10926302109262021092BE
:10185000DB011092DA018091DA019091DB0183348F
:10186000910540F01092DB011092DA0110926302B0
:10187000109262028091DA019091DB019C012F5F4E
:101880003F4F3093DB012093DA01880F991FFC0151
:10189000E452FE4F51824082C0926402D0926502AF
:1018A000E0926602F092670265960FB6F894DEBF8A
:1018B0000FBECDBFDF91CF911F910F91FF90EF90A1
:1018C000DF90CF90BF90AF909F908F907F906F9060
:1018D0005F904F903F902F90089580929004909247
:1018E0009104A0929204B09293042C883D8836947F
:1018F000279430926A02209269023093D901209392
:10190000D8011093D7010093D6019DCFCF93DF93D9
:10191000FC0101900020E9F73197AF01481B590BFA
:10192000BC0187EE93E00E94BB09EC0142E050E06D
:1019300069E471E087EE93E00E94BB098C0F9D1F64
:10194000DF91CF9108951F93CF93DF93EC018A85A8
:101950009B858130910531F0029761F1DF91CF9144
:101960001F91089510923D0310923C031092B3030F
:101970001092D5030E949D0386E991E09093600345
:1019800080935F0387E991E09093640380936303FE
:101990008E8191E09093B2038093D40381E00E9402
:1019A000EE078823D9F28CE491E0DF91CF911F916B
:1019B0000C94860C1FB7F89480916802811127C09F
:1019C000EEE8F1E08491E0E7F1E09491E82FF0E0B7
:1019D000EE0FFF1FEE52FF4FA591B491EC91E9235A
:1019E00021F461E08AE00E94500361E08AE00E94F5
:1019F000DC038CB580618CBD8CB580648CBD61E0EE
:101A00008DE00E94DC0361E08BE00E94DC038091AA
:101A100068028F5F809368021FBF8885998597FD54
:101A200006C061E0DF91CF911F910C94DC0384E745
:101A300091E0BBCF85ED8093BC008091AE03909187
:101A4000AF03A091B003B091B1030796A11DB11DE2
:101A500023E0B695A795979587952A95D1F720917C
:101A6000BC0024FD03C01092AC0308954091AE0366
:101A70005091AF036091B0037091B103452B462B99
:101A8000472B69F30097A105B10541F02AE22A9599
:101A9000F1F700C00197A109B109E1CF8091AD0331
:101AA0000C94BB03FF920F931F93CF93DF93EC0132
:101AB000F62E08811981C8010E946727F81621F0C7
:101AC0006F2DC8010E946F27CE01DF91CF911F912A
:101AD0000F91FF900895AF92BF92CF92DF92EF9255
:101AE000FF920F931F93CF93DF9300D0CDB7DEB754
:101AF0008B016B0124E0C20ED11C7B015C01A61A94
:101B0000B70AC5018E0D9F1D9A838983F7016191E4
:101B10007F01CE0101960E94520DEC14FD0489F75D
:101B2000C8010F900F90DF91CF911F910F91FF90FF
:101B3000EF90DF90CF90BF90AF900895AF92BF929B
:101B4000CF92DF92EF92FF920F931F93CF93DF9389
:101B500000D0CDB7DEB78B016B012CE0C20ED11CDB
:101B60007B015C01A61AB70AC5018E0D9F1D9A83E1
:101B70008983F70161917F01CE0101960E94520D88
:101B8000EC14FD0489F7C8010F900F90DF91CF91FD
:101B90001F910F91FF90EF90DF90CF90BF90AF908B
:101BA0000895EF92FF920F931F93CF93DF9300D08E
:101BB000CDB7DEB78C017B019A838983FB016081FD
:101BC000CE0101960E94520D0F5F1F4F1A830983A9
:101BD000F7016181CE0101960E94520DC7010F905D
:101BE0000F90DF91CF911F910F91FF90EF9008958B
:101BF000CF92DF92EF92FF920F931F93CF93DF93D9
:101C0000EB017B0124E0E20EF11C8B016C01C61A92
:101C1000D70AC601800F911F0E946727F8018193A0
:101C20008F01EE15FF05A9F7CE01DF91CF911F912E
:101C30000F91FF90EF90DF90CF900895CF92DF92B9
:101C4000EF92FF920F931F93CF93DF93EB017B01F2
:101C50002CE0E20EF11C8B016C01C61AD70AC601FA
:101C6000800F911F0E946727F80181938F01EE1565
:101C7000FF05A9F7CE01DF91CF911F910F91FF9042
:101C8000EF90DF90CF9008950C9467274F925F926A
:101C90006F927F92AF92BF92CF92DF92EF92FF92BC
:101CA0000F931F93CF93DF937C01EB018A016901AE
:101CB000FC018285938581309105A1F0029709F49A
:101CC0000AC190E080E0DF91CF911F910F91FF90CA
:101CD000EF90DF90CF90BF90AF907F906F905F902C
:101CE0004F900895868191E09093B2038093D4033E
:101CF0001092B3031092D5035B01060F171F3B012F
:101D00000615170541F0F30161913F018BED93E05A
:101D10000E94EF01F5CF81E00E94EE07882321F0B9
:101D200087EB91E00E94860CC114D10451F2F701B7
:101D300006810E940D042B013C018091AC038111AE
:101D400069C01C2D113208F010E281E08093AC03D1
:101D50008093AB039FEF9093AA031092A903910F76
:101D60009093A8038093870380918703000F082B2B
:101D70000093870380918603813009F088C0109218
:101D800086030E940D042B013C0180918703809300
:101D9000BB008091AE039091AF03A091B003B091CE
:101DA000B103892B8A2B8B2BA1F00E940D0420916B
:101DB000AE033091AF034091B0035091B103641969
:101DC000750986099709261737074807590708F440
:101DD00042C08091BC0083FDD8CF85EC8093BC00CD
:101DE0000E940D042B013C018091AC03813009F469
:101DF00050C08091A903811710F41091A903E8E85D
:101E0000F3E0ACE1B3E080E0811751F191919D9353
:101E10008F5FFACF8091AE039091AF03A091B00392
:101E2000B091B103892B8A2B8B2B09F486CF0E94AA
:101E30000D042091AE033091AF034091B003509157
:101E4000B1036419750986099709261737074807EA
:101E5000590708F072CF8091AD030E94BB0310E0D8
:101E600010923D0310933C03CC0DDD1D80913D038A
:101E7000181709F426CFCA15DB0509F422CF8BED1C
:101E800093E00E94A801F50181935F01EFCF85EEF9
:101E9000A5CF8091AE039091AF03A091B003B09114
:101EA000B103892B8A2B8B2B09F49ECF0E940D0442
:101EB0002091AE033091AF034091B0035091B10334
:101EC00064197509860997092617370748075907BE
:101ED00008F08ACFC0CF232B19F0888180688883CF
:101EE000F7018085918597FD03C060E00E94500353
:101EF000FE010C0F1D1FDE010A171B0769F4CC0D34
:101F0000DD1DCE17DF0781F01EBC00000DB407FEFB
:101F1000FDCF8EB58193F5CF8D918EBD00000DB4B0
:101F200007FEFDCF8EB5E8CFF7018085918597FD3F
:101F3000C8CE61E00E945003C4CE1F920F920FB62C
:101F40000F9211242F933F934F935F936F937F933F
:101F50008F939F93AF93BF93EF93FF938091B900BB
:101F6000887F803609F44AC0F0F5883209F4A7C0AA
:101F700018F5803109F49BC0B8F4882309F4F9C03E
:101F8000883009F494C0FF91EF91BF91AF919F9178
:101F90008F917F916F915F914F913F912F910F9012
:101FA0000FBE0F901F901895883109F488C08032B9
:101FB00051F78093AA0314C0803409F49DC040F403
:101FC0008033B9F38833F9F68093AA0385ECB0C067
:101FD000803509F485C0883509F496C0883499F6AF
:101FE0000E941A0DD0CF883909F48CC038F5883793
:101FF00029F050F4883611F0803729F683E0809379
:10200000AC031092850357C0883809F47BC080392F
:1020100019F0803809F0B7CF80918503803208F03D
:1020200071C0E091850381E08E0F809385038091DC
:10203000BB00F0E0EB59FC4F80833DC0803B39F0A2
:10204000E0F4803A09F479C0883A09F09CCF84E042
:102050008093AC031092620310926103E0915F03DE
:10206000F091600309958091610381110FC081E0B7
:102070008093610310923F0309C0803C09F4A6CF0E
:10208000883C09F4A3CF883B09F07DCFE09162033F
:1020900081E08E0F80936203F0E0E15CFC4F808171
:1020A0008093BB00909162038091610329C080916D
:1020B00087038093BB0085EC8093BC0064CF909134
:1020C000A9038091A803981758F5E091A90381E02E
:1020D0008E0F8093A903F0E0E857FC4F8081E9CF91
:1020E000E091A90381E08E0F8093A9038091BB004A
:1020F000F0E0E857FC4F80839091A9038091A803FA
:102100009817C8F285E8D8CFE091A90381E08E0F37
:102110008093A9038091BB00F0E0E857FC4F8083D7
:102120008091AB0381115CCF81E08093860384EAC8
:102130008093BC001092AC0326CF85EC8093BC004A
:102140001092AC0380918503803230F4E0918503D6
:10215000F0E0EB59FC4F10826091850370E0E09154
:102160006303F091640385E693E00995109285037B
:102170000ACF1092AA0334CF1F920F920FB60F927C
:1021800011242F933F938F939F93AF93BF9380918D
:10219000140390911503A0911603B0911703309189
:1021A000130323E0230F2D3758F50196A11DB11D10
:1021B000209313038093140390931503A0931603A5
:1021C000B09317038091180390911903A0911A03FB
:1021D000B0911B030196A11DB11D8093180390932C
:1021E0001903A0931A03B0931B03BF91AF919F9162
:1021F0008F913F912F910F900FBE0F901F901895C8
:1022000026E8230F0296A11DB11DD2CF1F920F9277
:102210000FB60F9211242F933F934F935F936F93B9
:102220007F938F939F93AF93BF93EF93FF93E0912F
:102230000201F09103010995FF91EF91BF91AF91D8
:102240009F918F917F916F915F914F913F912F91CE
:102250000F900FBE0F901F9018951F920F920FB600
:102260000F9211242F933F934F935F936F937F931C
:102270008F939F93AF93BF93EF93FF93E0910001F0
:10228000F09101010995FF91EF91BF91AF919F915D
:102290008F917F916F915F914F913F912F910F900F
:1022A0000FBE0F901F9018951F920F920FB60F92AE
:1022B00011242F933F934F935F936F937F938F934B
:1022C0009F93AF93BF93EF93FF9387EE93E00E94AA
:1022D0005B02FF91EF91BF91AF919F918F917F91A1
:1022E0006F915F914F913F912F910F900FBE0F9083
:1022F0001F9018951F920F920FB60F9211242F93D3
:102300008F939F93EF93FF93E091F703F091F8037E
:102310008081E091FD03F091FE0382FD1BC090815E
:10232000809100048F5F8F7320910104821741F028
:10233000E0910004F0E0E951FC4F958F8093000498
:10234000FF91EF919F918F912F910F900FBE0F9062
:102350001F9018958081F4CFCF92DF92EF92FF9279
:102360000F931F93CF93DF93EBEDF3E01382128271
:1023700088EE93E0A0E0B0E084839583A683B783E2
:102380002FE131E031832083E7EEF3E01382128204
:1023900084839583A683B78381E391E091838083CF
:1023A00085EC90E09587848784EC90E0978786871A
:1023B00080EC90E0918B808B81EC90E0938B828B12
:1023C00082EC90E0958B848B86EC90E0978B868BEB
:1023D000118E128E138E148EE4E8F4E083E491E003
:1023E000918380830FEF1FEF158304831783068388
:1023F00011870087CDECD4E0188219821A821B82E3
:1024000081E08C838FEF8D831E821F821886198650
:102410001B861A861D861C8661E086E00E94DC030E
:10242000EAE8F1E0E491F0E0EE0FFF1FE658FE4F1E
:10243000859194919F878E87ECE6F1E0E491EA8B99
:1024400061E087E00E94DC03EBE8F1E0E491F0E07A
:10245000EE0FFF1FE658FE4F85919491998B888B64
:10246000EDE6F1E0E491EB8B88E08D8361E00E9482
:10247000DC0380E197E2A0E0B0E08C8B9D8BAE8B1B
:10248000BF8B88E99AE3998F888F1A8E1B8E1C8EDA
:102490001D8E9F8F8E8F18A219A21AA21BA21CA29A
:1024A0001DA21EA21FA218A61DA61EA61FA618AA20
:1024B00019AA1AAA1BAA1CAA1DAA1EAA1FAA18AEEC
:1024C00019AE1AAE1BAE1CAE1DAE1EAE10920C05A0
:1024D00010920D0510920E0510920F0580E090E00D
:1024E000A6E9B3E48093100590931105A09312051B
:1024F000B09313051092140510921505109216054D
:102500001092170528E1C22E25E0D22EF601118285
:1025100010823AE1E32E35E0F32EF70110821182AA
:102520001282138210921F0510921E05BC01CD016C
:102530000E94F7008CE291E0F601918380838EE0A7
:1025400094E7AAEDBAE3F70180839183A283B38372
:1025500082E599E4ADE9B9E38A8F9B8FAC8FBD8F9B
:1025600084EE98E3AEE8B1E489A79AA7ABA7BCA72D
:10257000CEEBD4E01B830A838AE090E09D838C83BA
:1025800049E050E06AEF70E084EC94E00E945E273E
:10259000198308838CE390E09093130180931201D8
:1025A000109290041092910410929204109293044D
:1025B0001092BD041092B6041092AF041092A804B9
:1025C0001092A10410929A04DF91CF911F910F9164
:1025D000FF90EF90DF90CF900895CF93DF93CDB72A
:1025E000DEB7C056D1090FB6F894DEBF0FBECDBF1F
:1025F000789484B5826084BD84B5816084BD85B5DE
:10260000826085BD85B5816085BD80916E008160E9
:1026100080936E001092810080918100826080938F
:102620008100809181008160809381008091800091
:102630008160809380008091B10084608093B100BC
:102640008091B00081608093B00080917A008460B6
:1026500080937A0080917A00826080937A008091E2
:102660007A00816080937A0080917A0080688093FC
:102670007A001092C10062E08EE00E94DC0362E00A
:102680008FE00E94DC0362E080E10E94DC0362E0F4
:1026900081E10E94DC0361E083E10E94DC0360E0F1
:1026A00084E894E00E94F209813D09F073C181E061
:1026B0008093120380911203882309F43FC060E0E5
:1026C00084E894E00E94F20904E010E030E020E0A9
:1026D00046E062E484E894E00E942D0A30E020E0C5
:1026E00046E060E484E894E00E942D0A03E010E0F4
:1026F00024E030E041E060E484E894E00E942D0AA8
:1027000004E010E030E020E043E061E484E894E09D
:102710000E942D0A03E010E030E020E043E063E493
:1027200084E894E00E942D0A02E010E024E030E00A
:1027300041E062E484E894E00E942D0A11E01093E5
:102740000B05109219051092180510921A05109297
:102750001B0510921C0510921D051092E7041092A3
:10276000E8041092E9041092EA0460E070E088EC5A
:1027700094E40E94F7006091D30461278091D20411
:102780000E9450031092BF041092BE041092900455
:1027900010929104109292041092930410926A0283
:1027A0001092690280E29BE0909301018093000106
:1027B000809169008C7F816080936900E89A6BE961
:1027C00072E090E080E00E941E0E6FE872E08CE004
:1027D00090E00E941E0E63E872E088E190E00E94A3
:1027E0001E0E81E10E942703892B09F0ECC080E1D5
:1027F0000E942703892B09F4E6C0109306030E9468
:102800004F096D877E878F87988B0E944F094B01F8
:102810005C0183E080930103412C512C3201C12CD7
:10282000D12C760110E0312C0E944F092D853E8578
:102830004F855889621B730B840B950B603375476A
:102840008105910508F0A9C01111A7C0809101036D
:102850000E945B0981E10E942703892B09F4F5C0DE
:1028600081E10E942703892BE9F5209006032220AD
:10287000C9F10E944F092091020330910303409156
:10288000040350910503621B730B840B950B69388D
:1028900073418105910530F1109206030E944F09A2
:1028A00060930203709303038093040390930503E2
:1028B00061E083E10E94500310E000E01A82198277
:1028C000BE016F5F7F4FC8010E94D10D0F5F1F4F88
:1028D0000432110599F768EB7BE080E090E00E94FC
:1028E000DE08122D81E10E942703892B19F18091C6
:1028F00006038823F9F00E944F09209102033091CA
:1029000003034091040350910503621B730B840B76
:10291000950B653671058105910560F010920603EF
:102920000E944F0960930203709303038093040392
:10293000909305030E944F09681979098A099B0938
:10294000673971058105910508F46ECF0E944F0922
:102950004B015C018091900490919104A0919204AC
:10296000B0919304892B8A2B8B2B59F081E0381678
:1029700009F4ACC0381608F48EC092E0391609F498
:10298000CEC0109290041092910410929204109272
:1029900093044ACF109212038DCE60E083E10E942F
:1029A00050036BE972E090E080E00E941E0E6FE839
:1029B00072E08CE090E00E941E0E63E872E088E115
:1029C00090E00E941E0E81E10E94270310911203E5
:1029D000892B09F09DC280E10E942703892B09F011
:1029E00097C2112309F494C281E10E942703892B25
:1029F00009F453C14AE064EF71E080E090E00E9486
:102A0000100961E083E10E94500368EE73E080E00A
:102A100090E00E94DE0840E469E684E894E00E94C9
:102A2000150A43E06EE784E894E00E94150A6BE122
:102A300084E894E00E94F20983FD39C161E070E00E
:102A400080E090E00E94DE08F2CF809106038111C1
:102A500007CF0E944F092091020330910303409158
:102A6000040350910503621B730B840B950B6536B1
:102A700071058105910508F4F3CE41E0409306030A
:102A80000E944F0960930203709303038093040331
:102A900090930503E5CE609190047091910480912C
:102AA0009204909193040E94E80A882309F469CF64
:102AB000C0909004D0909104E0909204F090930420
:102AC000A4E0A0930103332433945BCF609190047E
:102AD0007091910480919204909193040E94E80A6D
:102AE000882309F44ECF8091900490919104A09195
:102AF0009204B09193048C159D05AE05BF0509F4B1
:102B000040CF409090045090910460909204709057
:102B10009304B5E0B0930103F2E03F2E32CF609111
:102B200090047091910480919204909193040E947A
:102B3000E80A082F882309F424CF8091900490910B
:102B40009104A0919204B09193048C159D05AE055B
:102B5000BF0509F416CF8091900490919104A09143
:102B60009204B091930484159505A605B70509F460
:102B700008CF8091900490919104A0919204B0911B
:102B8000930440919F025091A0026091A102709124
:102B9000A2024093A3025093A4026093A5027093F3
:102BA000A602409193025091940260919502709117
:102BB0009602409397025093980260939902709303
:102BC0009A02409187025091880260918902709127
:102BD0008A0240938B0250938C0260938D02709313
:102BE0008E0240919B0250919C0260919D027091D7
:102BF0009E0240939F025093A0026093A1027093A3
:102C0000A20240918F0250919002609191027091C6
:102C100092024093930250939402609395027093B2
:102C200096024091830250918402609185027091D6
:102C300086024093870250938802609389027093C2
:102C40008A02C0929B02D0929C02E0929D02F09276
:102C50009E0240928F025092900260929102709276
:102C600092028093830290938402A0938502B09392
:102C700086026BE972E090E080E00E949E0D6FE8B2
:102C800072E08CE090E00E949E0D63E872E088E1C3
:102C900090E00E949E0D102F74CE80E10E942703C9
:102CA000892B09F0A7CE86E00E945B099DCE01E04A
:102CB00010E027E030E041E067E784E894E00E941C
:102CC0002D0A40E369E684E894E00E94150A43E097
:102CD0006EE784E894E00E94150A0E94060A26E046
:102CE00030E041E067E784E894E00E942D0A4CE080
:102CF00069E684E894E00E94150A43E06EE784E800
:102D000094E00E94150A0E94060A26E030E041E0A5
:102D100067E784E894E00E942D0A41E069E684E8D0
:102D200094E00E94150A43E06EE784E894E00E9474
:102D3000150A0E94060A26E030E041E067E784E8D1
:102D400094E00E942D0A61E784E894E00E94F20971
:102D5000682F880F770B880B990B0E94AA292AE904
:102D600039E949E750E40E94C22A69837A838B8358
:102D70009C83BE016F5F7F4F84E290E00E946B0DE9
:102D800062E784E894E00E94F209682F880F770BCD
:102D9000880B990B0E94AA292AE939E949E750E4EE
:102DA0000E94C22A69837A838B839C83BE016F5FF2
:102DB0007F4F88E290E00E946B0D63E784E894E027
:102DC0000E94F209682F880F770B880B990B0E94DD
:102DD000AA292AE939E949E750E40E94C22A69830D
:102DE0007A838B839C83BE016F5F7F4F8CE290E080
:102DF0000E946B0D64E784E894E00E94F209082FBA
:102E000010E067E784E894E00E94F2098370B8015B
:102E1000782B71FD7C6F072E000C880B990B0E949C
:102E2000AA2923E23BED49E75DE30E94C22A6983B8
:102E30007A838B839C83BE016F5F7F4F80E390E03A
:102E40000E946B0D65E784E894E00E94F209082F68
:102E500010E067E784E894E00E94F20990E095951D
:102E60008795959587958370B801782B71FD7C6F58
:102E7000072E000C880B990B0E94AA2923E23BED38
:102E800049E75DE30E94C22A69837A838B839C832E
:102E9000BE016F5F7F4F84E390E00E946B0D66E799
:102EA00084E894E00E94F209082F10E067E784E8C4
:102EB00094E00E94F20990E074E0959587957A95E8
:102EC000E1F78370B801782B71FD7C6F072E000C41
:102ED000880B990B0E94AA2923E23BED49E75DE3A9
:102EE0000E94C22A69837A838B839C83BE016F5FB1
:102EF0007F4F88E390E00E946B0D60E083E10E94C9
:102F0000500345E066E970E080E090E00E9410091F
:102F10006FE772E084E290E00E94F80D6BE772E0E8
:102F200088E290E00E94F80D67E772E08CE290E0A2
:102F30000E94F80D63E772E080E390E00E94F80DD4
:102F40006FE672E084E390E00E94F80D6BE672E0B9
:102F500088E390E00E94F80D80911203882309F421
:102F600074C12AE939E949E750E460917F02709120
:102F7000800280918102909182020E9400290E9429
:102F800072296038710514F06FE770E060382FEF38
:102F9000720714F460E87FEF462F61E784E894E05D
:102FA0000E94150A82E1898322E030E041E050E08E
:102FB000BE016F5F7F4F84E894E00E94EB0901E05F
:102FC00010E026E030E041E067E784E894E00E940A
:102FD0002D0A2AE939E949E750E460917B027091B2
:102FE0007C0280917D0290917E020E9400290E94C5
:102FF00072296038710514F06FE770E060383FEFB8
:10300000730714F460E87FEF462F62E784E894E0EA
:103010000E94150A84E1898322E030E041E050E01B
:10302000BE016F5F7F4F84E894E00E94EB0901E0EE
:1030300010E026E030E041E067E784E894E00E9499
:103040002D0A2AE939E949E750E460917702709145
:1030500078028091790290917A020E9400290E9460
:1030600072296038710514F06FE770E060384FEF37
:10307000740714F460E87FEF462F63E784E894E078
:103080000E94150A86E1898322E030E041E050E0A9
:10309000BE016F5F7F4F84E894E00E94EB0901E07E
:1030A00010E026E030E041E067E784E894E00E9429
:1030B0002D0A23E23BED49E75DE3609173027091D5
:1030C000740280917502909176020E9400290E94FC
:1030D0007229611552E0750714F06FEF71E07B0102
:1030E00061157E4F1CF4E12C6EEFF62E4E2D64E739
:1030F00084E894E00E94150A02E010E030E020E04D
:103100004F2D67E784E894E00E942D0A8CE08983C4
:1031100022E030E041E050E0BE016F5F7F4F84E885
:1031200094E00E94EB0901E010E027E030E041E08C
:1031300067E784E894E00E942D0A23E23BED49E72B
:103140005DE360916F0270917002809171029091C5
:1031500072020E9400290E947229611592E079078B
:1031600014F06FEF71E07B0161157E4F1CF4E12CD0
:103170005EEFF52E4E2D65E784E894E00E94150A77
:1031800002E010E022E030E04F2D67E784E894E0B1
:103190000E942D0A8EE0898322E030E041E050E079
:1031A000BE016F5F7F4F84E894E00E94EB0901E06D
:1031B00010E027E030E041E067E784E894E00E9417
:1031C0002D0A23E23BED49E75DE360916B027091CC
:1031D0006C0280916D0290916E020E9400290E9403
:1031E00072296115B2E07B0714F06FEF71E07B018B
:1031F00061157E4F1CF4E12C4EEFF42E4E2D66E748
:1032000084E894E00E94150A02E010E024E030E037
:103210004F2D67E784E894E00E942D0A80E18983BE
:1032200022E030E041E050E0BE016F5F7F4F84E874
:1032300094E00E94EB0901E010E027E030E041E07B
:1032400067E784E894E00E942D0A809112038823A6
:1032500011F40C943B238CE390E00E94440E91E027
:10326000811101C090E090930B0381E080931101E4
:1032700090910B03911182E0809301038DE390E024
:103280000E94440E833011F00C943F2383E290E0BF
:10329000A0E0B0E080930C0190930D01A0930E018B
:1032A000B0930F013324339411E036E0232E02E073
:1032B0000E94CC040E944F09C090A702D090A8029F
:1032C000E090A902F090AA026C197D098E099F096D
:1032D000673971058105910508F441C00E944F09C5
:1032E0006093A7027093A8028093A9029093AA0208
:1032F0008091900490919104A0919204B0919304D4
:10330000892B8A2B8B2B11F40C948123EBE9F2E0AF
:1033100023E8A22E22E0B22E8FE892E040919004A2
:10332000509191046091920470919304C190D19056
:10333000E190F190C416D506E606F70611F00C945C
:1033400045231093F8021092F6021092F5021092A3
:103350009004109291041092920410929304809120
:103360001203882311F40C943522C090E302D0900C
:10337000E402E090E502F090E6020E944F09460167
:1033800057012AE0820E911CA11CB11C86169706DB
:10339000A806B90610F00C9435220E944F096C194A
:1033A0007D098E099F090E94A8296093DF0270930E
:1033B000E0028093E1029093E2020E944F09609341
:1033C000E3027093E4028093E5029093E6023CE00E
:1033D00039832CE030E041E050E0BE016F5F7F4F69
:1033E00084E894E00E94EB0969817A812B813C8119
:1033F0008D819E81AF81B885E985FA854B855C8595
:10340000B093DE02A093DD02F093DC02E093DB02D6
:103410005093DA024093D9027093D8026093D70296
:103420003093D6022093D5029093D4028093D30296
:1034300082EA94E00E94B50ABC01990F880B990BAF
:103440000E94AA2925E33AEF4EE85CE30E94C22AD3
:1034500020E030E043E053E40E9400296DA37EA306
:103460008FA398A76091D5027091D6028BE994E062
:103470000E94B50ABC01990F880B990B0E94AA29DA
:1034800025E33AEF4EE85CE30E94C22A20E030E0F8
:1034900043E053E40E940029698F7A8F8B8F9C8FC1
:1034A0006091D3027091D40284E994E00E94B50A3D
:1034B000BC01990F880B990B0E94AA2925E33AEFCA
:1034C0004EE85CE30E94C22A20E030E043E053E48F
:1034D0000E9400296D8F7E8F8F8F98A36091DD02EF
:1034E0007091DE0287EB94E00E94B50ABC01990F4F
:1034F000880B990B0E94AA296D877E878F87988BEE
:103500006091DB027091DC0280EB94E00E94B50ACE
:10351000BC01990F880B990B0E94AA29698B7A8BA1
:103520008B8B9C8B6091D9027091DA0289EA94E0CE
:103530000E94B50ABC01990F880B990B0E94AA2919
:103540006D8B7E8B8F8B988F20E030E04AE754E4C0
:103550006091DF027091E0028091E1029091E202BD
:103560000E94002969A37AA38BA39CA36091BF0248
:103570007091C0028091C1029091C2024090BB0242
:103580005090BC026090BD027090BE02C090B70225
:10359000D090B802E090B902F090BA0290582DA1F4
:1035A0003EA14FA158A50E94C22A4B015C01A30174
:1035B0009201698D7A8D8B8D9C8D0E94C22A9B0110
:1035C000AC01C501B4010E9401284B015C01A701B7
:1035D00096016D8D7E8D8F8D98A10E94C22A9B01D0
:1035E000AC01C501B4010E94012820E030E040E0B8
:1035F0005FE30E94C22A69A77AA78BA79CA72091A4
:1036000008013091090140910A0150910B0140904D
:10361000BB025090BC026090BD027090BE02C09090
:10362000B702D090B802E090B902F090BA026DA152
:103630007EA18FA198A50E94C22A4B015C01A30123
:1036400092016D8D7E8D8F8D98A10E94C22A9B0163
:10365000AC01C501B4010E9402284B015C01A70125
:103660009601698D7A8D8B8D9C8D0E94C22A9B015B
:10367000AC01C501B4010E94012820E030E040E027
:103680005FE30E94C22A6DA77EA78FA798AB209107
:1036900008013091090140910A0150910B014090BD
:1036A000BF025090C0026090C1027090C202C090F0
:1036B000B702D090B802E090B902F090BA02698DDA
:1036C0007A8D8B8D9C8D0E94C22A4B015C01A301D7
:1036D00092016D8D7E8D8F8D98A10E94C22A9B01D3
:1036E000AC01C501B4010E9401284B015C01A70196
:1036F00096016DA17EA18FA198A50E94C22A9B016F
:10370000AC01C501B4010E94022820E030E040E095
:103710005FE30E94C22A69AB7AAB8BAB9CAB209172
:1037200008013091090140910A0150910B018090EC
:10373000BF029090C002A090C102B090C202C0909F
:10374000BB02D090BC02E090BD02F090BE026D8D35
:103750007E8D8F8D98A10E94C22A2B013C01A5016C
:103760009401698D7A8D8B8D9C8D0E94C22A9B015C
:10377000AC01C301B2010E9402284B015C01A70108
:1037800096016DA17EA18FA198A50E94C22A9B01DE
:10379000AC01C501B4010E94012820E030E040E006
:1037A0005FE30E94C22A6DA37EA38FA398A720E0A7
:1037B00030E0A9016D857E858F8598890E94FB2860
:1037C000811117C020E030E0A90169897A898B89CD
:1037D0009C890E94FB2881110CC020E030E0A901E7
:1037E0006D897E898F89988D0E94FB28882309F432
:1037F000DCC32D853E854F855889CA01B9010E94D9
:10380000C22A6B017C0129893A894B895C89CA01EA
:10381000B9010E94C22A9B01AC01C701B6010E94F6
:1038200002286B017C012D893E894F89588DCA0180
:10383000B9010E94C22A9B01AC01C701B6010E94D6
:1038400002280E945C0A6B017C01AC019B016D8522
:103850007E858F8598890E94C22A6D877E878F8793
:10386000988BA701960169897A898B899C890E9426
:10387000C22A2B013C01A70196016D897E898F899F
:10388000988D0E94C22A21966CAF7DAF8EAF9FAFFC
:103890002197609108017091090180910A0190912E
:1038A0000B019B01AC010E94022825966CAF7DAFF5
:1038B0008EAF9FAF25976091BF027091C00280913B
:1038C000C1029091C2029B01AC010E94022829967C
:1038D0006CAF7DAF8EAF9FAF29976091BB027091A7
:1038E000BC028091BD029091BE029B01AC010E947E
:1038F00002282D966CAF7DAF8EAF9FAF2D97609154
:10390000B7027091B8028091B9029091BA029B01FE
:10391000AC010E94022861966CAF7DAF8EAF9FAF65
:103920006197609108017091090180910A0190915D
:103930000B0120E030E040E850E40E94C22A6B0115
:103940007C016091BF027091C0028091C102909190
:10395000C20220E030E040E850E40E94C22A698FB1
:103960007A8F8B8F9C8F6091BB027091BC0280918B
:10397000BD029091BE0220E030E040E850E40E9499
:10398000C22A6D8F7E8F8F8F98A36091BF02709136
:10399000C0028091C1029091C20220E030E040E07C
:1039A00051E40E94C22A65966CAF7DAF8EAF9FAF87
:1039B00065976091BB027091BC028091BD029091AD
:1039C000BE0220E030E040E051E40E94C22A699645
:1039D0006CAF7DAF8EAF9FAF6997809108019091DA
:1039E0000901A0910A01B0910B0189AF9AAFABAF69
:1039F000BCAF209108013091090140910A0150911A
:103A00000B01A1962CAF3DAF4EAF5FAFA197609178
:103A1000BF027091C0028091C1029091C2022091B8
:103A2000BF023091C0024091C1025091C2020E9477
:103A3000C22A698B7A8B8B8B9C8B6091BB027091B5
:103A4000BC028091BD029091BE022091BB023091D8
:103A5000BC024091BD025091BE020E94C22A6D8BF1
:103A60007E8B8F8B988F6091B7027091B802809196
:103A7000B9029091BA022091B7023091B8024091F8
:103A8000B9025091BA020E94C22A6D966CAF7DAF06
:103A90008EAF9FAF6D972D893E894F89588DC70195
:103AA000B6010E94C22A4B015C012D962CAD3DADA2
:103AB0004EAD5FAD2D976D857E858F8598890E946F
:103AC000C22A9B01AC01C501B4010E9402284B012E
:103AD0005C0129893A894B895C89C701B6010E943A
:103AE000C22A9B01AC01C501B4010E9402286B01EE
:103AF0007C0129962CAD3DAD4EAD5FAD2997C3013C
:103B0000B2010E94C22A9B01AC01C701B6010E940A
:103B100001286DAB7EAB8FAB98AFA1962CAD3DADC0
:103B20004EAD5FADA19769AD7AAD8BAD9CAD0E94F6
:103B3000C22A20E030E040E850E40E94C22A6B0133
:103B40007C018091BF029091C002A091C102B0910E
:103B5000C20289AF9AAFABAFBCAF6D962CAD3DAD95
:103B60004EAD5FAD6D97698D7A8D8B8D9C8D0E946A
:103B7000C22A4B015C0161962CAD3DAD4EAD5FADEF
:103B800061976D857E858F8598890E94C22A9B01E9
:103B9000AC01C501B4010E9401284B015C0129ADB3
:103BA0003AAD4BAD5CADC701B6010E94C22A9B0184
:103BB000AC01C501B4010E9402284B015C012596AD
:103BC0002CAD3DAD4EAD5FAD2597C301B2010E9456
:103BD000C22A9B01AC01C501B4010E940128298DB4
:103BE0003A8D4B8D5C8D0E9401284B015C01298927
:103BF0003A894B895C8965966CAD7DAD8EAD9FAD84
:103C000065970E94C22A9B01AC01C501B4010E94C4
:103C100002284B015C012D893E894F89588D65969C
:103C20006CAD7DAD8EAD9FAD65970E94C22A9B01A4
:103C3000AC01C501B4010E9402284B015C01298D31
:103C40003A8D4B8D5C8D21966CAD7DAD8EAD9FAD6B
:103C500021970E94C22A9B01AC01C501B4010E94B8
:103C60000228698F7A8F8B8F9C8F2091BB023091B5
:103C7000BC024091BD025091BE02C701B6010E9434
:103C8000C22A6B017C0125962CAD3DAD4EAD5FADDA
:103C900025976D857E858F8598890E94C22A9B0114
:103CA000AC01C701B6010E9402286B017C016D9630
:103CB0002CAD3DAD4EAD5FAD6D976D8D7E8D8F8D15
:103CC00098A10E94C22A9B01AC01C701B6010E94C3
:103CD00002286B017C0161962CAD3DAD4EAD5FAD10
:103CE0006197C301B2010E94C22A9B01AC01C701C6
:103CF000B6010E9401282D8D3E8D4F8D58A10E9446
:103D000001286B017C0129893A894B895C89699674
:103D10006CAD7DAD8EAD9FAD69970E94C22A9B01AF
:103D2000AC01C701B6010E9402286B017C012D89FC
:103D30003E894F89588D69966CAD7DAD8EAD9FAD36
:103D400069970E94C22A9B01AC01C701B6010E947B
:103D500002286B017C012D8D3E8D4F8D58A121963F
:103D60006CAD7DAD8EAD9FAD21970E94C22A9B01A7
:103D7000AC01C701B6010E9402286D8F7E8F8F8F24
:103D800098A3C090B702D090B802E090B902F0902A
:103D9000BA028090B7029090B802A090B902B09099
:103DA000BA0220E030E040E850E469897A898B89E2
:103DB0009C890E94C22AA70196010E94C22A6B0117
:103DC0007C0129962CAD3DAD4EAD5FAD29976D853B
:103DD0007E858F8598890E94C22A9B01AC01C7010C
:103DE000B6010E9401286B017C0120E030E040E830
:103DF00050E46D897E898F89988D0E94C22AA50121
:103E000094010E94C22A9B01AC01C701B6010E9425
:103E100002286B017C012D962CAD3DAD4EAD5FAD02
:103E20002D97C301B2010E94C22A9B01AC01C701B8
:103E3000B6010E9401284B015C012DA93EA94FA9A2
:103E400058ADCA01B9010E94C22A6B017C01298DBB
:103E50003A8D4B8D5C8DCA01B9010E94C22A9B012B
:103E6000AC01C701B6010E9402286B017C012D8DB7
:103E70003E8D4F8D58A1CA01B9010E94C22A9B01F3
:103E8000AC01C701B6010E9402286B017C01A501AB
:103E90009401C501B4010E94C22A9B01AC01C70173
:103EA000B6010E9402280E945C0A6B017C014090CE
:103EB0000401509005016090060170900701AC016B
:103EC0009B016DA97EA98FA998AD0E94C22AA3016A
:103ED00092010E94C22A9B01AC0169A57AA58BA51B
:103EE0009CA50E94012869A77AA78BA79CA7409050
:103EF0000401509005016090060170900701A70130
:103F00009601698D7A8D8B8D9C8D0E94C22AA301AA
:103F100092010E94C22A9B01AC016DA57EA58FA5CE
:103F200098A90E9401286DA77EA78FA798AB409003
:103F30000401509005016090060170900701A701EF
:103F400096016D8D7E8D8F8D98A10E94C22AA3014E
:103F500092010E94C22A9B01AC0169A97AA98BA98E
:103F60009CA90E94012869AB7AAB8BAB9CAB4090BB
:103F70000401509005016090060170900701A701AF
:103F80009601C501B4010E94C22AA30192010E94B8
:103F9000C22A9B01AC016DA17EA18FA198A50E94B0
:103FA00001286DA37EA38FA398A7C0900801D0908D
:103FB0000901E0900A01F0900B0129A53AA54BA553
:103FC0005CA569A17AA18BA19CA10E94C22AA7012C
:103FD00096010E9402286093080170930901809362
:103FE0000A0190930B01C090BF02D090C002E090F4
:103FF000C102F090C2022DA53EA54FA558A969A106
:104000007AA18BA19CA10E94C22AA70196010E94BD
:1040100002286093BF027093C0028093C102909304
:10402000C202C090BB02D090BC02E090BD02F090F2
:10403000BE0229A93AA94BA95CA969A17AA18BA1C1
:104040009CA10E94C22AA70196010E9402286093A7
:10405000BB027093BC028093BD029093BE02C090DD
:10406000B702D090B802E090B902F090BA022DA148
:104070003EA14FA158A569A17AA18BA19CA10E9444
:10408000C22AA70196010E9402286093B70270938A
:10409000B8028093B9029093BA02609108017091BE
:1040A000090180910A0190910B0120910801309142
:1040B000090140910A0150910B018090BF0290903C
:1040C000C002A090C102B090C2024090BF025090C6
:1040D000C0026090C1027090C202C090BB02D0903A
:1040E000BC02E090BD02F090BE02CD86DE86EF8677
:1040F000F88AC090BB02D090BC02E090BD02F09064
:10410000BE02C98ADA8AEB8AFC8AC090B702D090D4
:10411000B802E090B902F090BA02CD8ADE8AEF8A46
:10412000F88EC090B702D090B802E090B902F0903B
:10413000BA02C9A2DAA2EBA2FCA20E94C22A6B01B7
:104140007C01A3019201C501B4010E94C22A9B0116
:10415000AC01C701B6010E9402286B017C012989CC
:104160003A894B895C896D857E858F8598890E9407
:10417000C22A9B01AC01C701B6010E9402286B0153
:104180007C0129A13AA14BA15CA16D897E898F890F
:10419000988D0E94C22A9B01AC01C701B6010E9402
:1041A00002280E945C0A6B017C0120910801309179
:1041B000090140910A0150910B010E94C22A6093AB
:1041C00008017093090180930A0190930B012091DB
:1041D000BF023091C0024091C1025091C202C7019A
:1041E000B6010E94C22A6093BF027093C0028093FE
:1041F000C1029093C2022091BB023091BC02409157
:10420000BD025091BE02C701B6010E94C22A60934E
:10421000BB027093BC028093BD029093BE022091BA
:10422000B7023091B8024091B9025091BA02C70169
:10423000B6010E94C22A6093B7027093B8028093BD
:10424000B9029093BA02C0900801D0900901E090A1
:104250000A01F0900B01CD86DE86EF86F88AC092C7
:10426000C302D092C402E092C502F092C60240900E
:10427000BF025090C0026090C1027090C202409292
:10428000C7025092C8026092C9027092CA0280901E
:10429000BB029090BC02A090BD02B090BE02809282
:1042A000CB029092CC02A092CD02B092CE02C090EE
:1042B000B702D090B802E090B902F090BA02C09272
:1042C000CF02D092D002E092D102F092D202A501A8
:1042D0009401C501B4010E94C22A698B7A8B8B8B31
:1042E0009C8BA3019201C301B2010E94C22A2989B9
:1042F0003A894B895C890E9402289B01AC010E948B
:1043000002289B01AC0160E070E080E89FE30E941E
:1043100001286D8B7E8B8F8B988FA7019601C5012D
:10432000B4010E94C22A69A37AA38BA39CA3A30110
:1043300092016D857E858F8598890E94C22A9B0196
:10434000AC0169A17AA18BA19CA10E9402289B01CA
:10435000AC010E9402282D893E894F89588D0E9408
:104360009C286093AB027093AC028093AD02909353
:10437000AE02A7019601C301B2010E94C22A6D8B51
:104380007E8B8F8B988FA50194016D857E858F859F
:1043900098890E94C22A9B01AC016D897E898F8910
:1043A000988D0E94012820E030E040E050EC0E940F
:1043B000C22A0E946E286093AF027093B00280936D
:1043C000B1029093B202A7019601C701B6010E9403
:1043D000C22A29893A894B895C890E9402289B015B
:1043E000AC010E9402289B01AC0160E070E080E813
:1043F0009FE30E940128698B7A8B8B8B9C8BA50194
:104400009401C301B2010E94C22A4B015C01A701C1
:1044100096016D857E858F8598890E94C22A9B01B1
:10442000AC01C501B4010E9402289B01AC010E94AD
:10443000022829893A894B895C890E949C286093CB
:10444000B3027093B4028093B5029093B60225E351
:104450003AEF4EE85CE30E9400296093FD027093FE
:10446000FE028093FF02909300030E944F09C090C8
:104470000E03D0900F03E0901003F09011036C191D
:104480007D098E099F09653671058105910508F43E
:104490007BC00E944F0960930E0370930F038093BB
:1044A00010039093110397E4D92ED0927C00809151
:1044B0007A00806480937A0080917A0086FDFCCF38
:1044C000A0917800B0917900B0930D03A0930C03F4
:1044D000F0900A0380910B03882339F08091110139
:1044E000882319F0FF2009F44FC02EE036E00E9427
:1044F000F4272FEF33E040E050E00E947D27CA010F
:10450000B9016E5C7F4F8F4F9F4F0E94AA290E9476
:10451000F700FF20C9F1A0910C03B0910D03809129
:104520000803909109037D01E81AF90AC701F7FE13
:1045300003C0919581959109069714F01093070394
:104540008091070381110CC08EE390E00E946727E1
:1045500089838FE390E00E9467278A83A981BA81CB
:104560002EE036E00E94F4272FEF33E040E050E0E9
:104570000E947D27CA01B9016E5C7F4F8F4F9F4F0C
:104580000E94AA290E94F70081E10E942703892B3B
:10459000D1F480910603811116C080910A03811124
:1045A00012C0109306030E944F0960930203709398
:1045B0000303809304039093050362E370E080E0BB
:1045C00090E00E94DE0881E10E942703892BC9F454
:1045D00080910A03811115C00E944F09C090020307
:1045E000D0900303E0900403F09005036C197D095B
:1045F0008E099F09613D77408105910510F0209259
:10460000010381E10E942703892B09F4A3C0809153
:104610000603882309F49EC080910A0381119AC081
:10462000109206030E944F09C0900203D09003032A
:10463000E0900403F09005036C197D098E099F0931
:10464000613D77408105910520F080911203811131
:1046500060C080911101F82EF324F0921101809333
:104660000B05F110B7C16091D30463258091D2048A
:104670000E945003B1C110920B030C94351980E5D0
:1046800090E0A0E0B0E00C944A1940919004509161
:1046900091046091920470919304DC01CD90DD90BF
:1046A000ED90FD90CD01C416D506E606F70631F46F
:1046B0001092F8021093F6020C94A5194091900400
:1046C000509191046091920470919304D501CD9022
:1046D000DD90ED90FD905D01C416D506E606F70667
:1046E00041F41092F8021092F6021093F5020C9425
:1046F000A719B2E0E73AFB0711F00C948E190C945D
:10470000A7191092F8021092F6021092F5020C947A
:10471000AF198CE390E00E94440E61E0811160E0EB
:1047200060930B038CE390E00E946F278CE390E092
:104730000E94440E91E0811101C090E090930B0320
:1047400090911101882309F442C1992309F43FC1D2
:10475000009301038EE00E942703892B21F08091B2
:10476000F8028823E1F18091F702811138C010939B
:10477000F70210920B0380910A03882361F0809165
:104780000703882341F06CE073E08EE390E00E9421
:10479000D10D1092070310920A031092190510927E
:1047A000180510921A0510921B0510921C05109204
:1047B0001D051092E7041092E8041092E90410928B
:1047C000EA0462E370E080E090E00E94DE0841E0ED
:1047D00050E06CEF75EE8FEF9FEF0E9454048EE077
:1047E0000E942703892B09F443C08091F8028111AC
:1047F0003FC08091F60281113BC08091F50281118A
:1048000037C08091F702882399F11092F7028091C6
:104810000A0381112DC00E947E0380911203882318
:1048200009F4FAC08CE390E00E94440E91E08111FB
:1048300001C090E090930B038091110190910B03C4
:10484000992309F4ECC0882309F4E9C0009301031B
:104850008091FD029091FE02A091FF02B0910003B1
:104860008093F9029093FA02A093FB02B093FC02AA
:104870008FE00E942703892B21F08091F602882384
:10488000E1F18091F402811138C01093F40210928A
:104890000B0380910A03882361F08091070388232A
:1048A00041F06CE073E08EE390E00E94D10D109235
:1048B000070310920A03109219051092180510921E
:1048C0001A0510921B0510921C0510921D051092DE
:1048D000E7041092E8041092E9041092EA0462E3FB
:1048E00070E080E090E00E94DE0841E050E064E08B
:1048F0007AE180E090E00E9454048FE00E94270358
:10490000892B09F443C08091F80281113FC0809146
:10491000F60281113BC08091F502811137C0809170
:10492000F402882399F11092F40280910A03811114
:104930002DC00E947E0380911203882309F472C067
:104940008CE390E00E94440E91E0811101C090E060
:1049500090930B038091110190910B03992309F41B
:1049600064C0882309F461C0009301038091FD02B3
:104970009091FE02A091FF02B09100038093F90292
:104980009093FA02A093FB02B093FC028EE00E9487
:104990002703892B09F44CC080E10E942703892B4F
:1049A00009F44CC08091F502811148C08EE00E944C
:1049B0002703892B09F49AC080E10E942703892BE1
:1049C00009F49AC08091F502811196C0A9C0909314
:1049D0000103C0CE0E94320410920A030E947E039B
:1049E00080910B038823A9F0FF2099F00093010325
:1049F0008091FD029091FE02A091FF02B091000310
:104A00008093F9029093FA02A093FB02B093FC0208
:104A1000A1CEF0920103ECCF10920B030DCF809347
:104A2000010316CF10920B0395CF809301039ECF05
:104A30008FE00E942703892B09F0AECF8091F3020B
:104A40008111B4CF1093F3020E944F096093EF02DB
:104A50007093F0028093F1029093F20210920B0394
:104A60000E947E03109219051092180510921A05E3
:104A700010921B0510921C0510921D051092E70460
:104A80001092E8041092E9041092EA0480910A035B
:104A9000882309F10E947E031092CD041092CE0467
:104AA0001092CF041092D0041092FE041092FF04D2
:104AB00010920005109201058DE390E00E94440ED3
:104AC000809301031093100164EF71E080E090E0A7
:104AD0000E94DE086BCF10930A0380910C03909123
:104AE0000D039093090380930803E6CF8FE00E94A3
:104AF0002703892B09F060CF0E944F09C090EF0275
:104B0000D090F002E090F102F090F2026C197D0971
:104B10008E099F09613D77408105910508F0F8C035
:104B20008EE00E942703892B09F44EC08FE00E947B
:104B30002703892B09F448C080E10E942703892BB1
:104B400009F442C08091F50281113EC08091F302C8
:104B50008823D1F11092F3020E944F09C090EF0216
:104B6000D090F002E090F102F090F2026C197D0911
:104B70008E099F09613D77408105910528F18DE3FC
:104B800090E00E94440E64E0833009F063E08DE31E
:104B900090E00E946F278DE390E00E94440E8330E6
:104BA00009F0B9C083E290E0A0E0B0E080930C018E
:104BB00090930D01A0930E01B0930F018DE390E04F
:104BC0000E94440E8093010380910A03882399F187
:104BD0000E94CC0481112FC0B0901001B324B09278
:104BE000100160910C0170910D0180910E01909166
:104BF0000F010E94AA2920E030E044E951E40E941C
:104C0000C22A6B017C0120E030E0A901BB2009F43D
:104C100095C00E94B52A20E030E040E05FE387FDC8
:104C200088C0C701B6010E9402280E94722950E084
:104C300040E00E94540480910B03882309F41DC1B5
:104C400080911101882309F418C1809112038823EF
:104C500009F413C1C090EB02D090EC02E090ED0299
:104C6000F090EE022AEFC20ED11CE11CF11C0E9452
:104C70004F09C616D706E806F90608F0FEC00E94DE
:104C80004F096093EB027093EC028093ED029093D6
:104C9000EE028090FD029090FE02A090FF02B09084
:104CA00000034090F9025090FA026090FB0270906D
:104CB000FC02A3019201C501B4010E9401286B010D
:104CC0007C0120E030E0A9010E94B52A18160CF002
:104CD00050C020E030E040E05FE3C701B6010E9431
:104CE000B52A18160CF04FC020E030E044E353E43E
:104CF000C701B6010E94B52A18160CF457C0C0921D
:104D0000E702D092E802E092E902F092EA0267C07C
:104D10002092010305CF80E5C82ED12CE12CF12C87
:104D2000C0920C01D0920D01E0920E01F0920F01A1
:104D300045CFC701B6010E94012877CF0E94B52A4E
:104D400020E030E040E05FE387FD0EC0C701B60120
:104D50000E9402280E947229909580957095619515
:104D60007F4F8F4F9F4F63CFC701B6010E9401282D
:104D7000F1CF20E030E040E05FEBC701B6010E94D8
:104D8000FB2887FD09C01092E7021092E8021092FA
:104D9000E9021092EA0271C020E030E044E353ECF3
:104DA000C701B6010E94FB2887FFA9CFA30192018A
:104DB000C501B4010E94B52A20E030E044EB53E481
:104DC00018160CF06EC0C701B6010E94012860934E
:104DD000E7027093E8028093E9029093EA028092DE
:104DE000F9029092FA02A092FB02B092FC02109299
:104DF00019051092180510921A0510921B051092B1
:104E00001C0510921D051092E7041092E804109200
:104E1000E9041092EA048090E7029090E802A090E2
:104E2000E902B090EA0220E030E044E951E4C50133
:104E3000B4010E94C22A6B017C0120E030E0A9018C
:104E40000E94B52A181694F520E030E040E950E4BD
:104E5000C701B6010E94C22A0E94F700C501B40131
:104E6000905820E030E044E951E40E94C22A0E94B8
:104E7000722941E050E00E945404809101030E9495
:104E80005B0940E050E0452B11F40C9458190E9446
:104E9000EA02882311F40C9455190E9400000C9426
:104EA0005519C701B6010E94022891CFC701B6016A
:104EB000905820E030E040E950E4CCCFFB01DC0129
:104EC00002C005900D9241505040D8F70895F999CD
:104ED000FECF92BD81BDF89A992780B50895262FFF
:104EE000F999FECF1FBA92BD81BD20BD0FB6F894CF
:104EF000FA9AF99A0FBE01960895052E97FB1EF4B3
:104F000000940E94942757FD07D00E94AF2707FC0A
:104F100003D04EF40C9494275095409530952195EC
:104F20003F4F4F4F5F4F08959095809570956195D5
:104F30007F4F8F4F9F4F08950E94D127A59F900DBF
:104F4000B49F900DA49F800D911D11240895B7FF6B
:104F50000C949C270E949C27821B930B0895A1E22E
:104F60001A2EAA1BBB1BFD010DC0AA1FBB1FEE1FE3
:104F7000FF1FA217B307E407F50720F0A21BB30B2E
:104F8000E40BF50B661F771F881F991F1A9469F7AA
:104F900060957095809590959B01AC01BD01CF0106
:104FA0000895A29FB001B39FC001A39F700D811D02
:104FB0001124911DB29F700D811D1124911D089522
:104FC000AA1BBB1B51E107C0AA1FBB1FA617B7072F
:104FD00010F0A61BB70B881F991F5A95A9F780954B
:104FE0009095BC01CD0108950E94D127B7FF089587
:104FF000821B930B0895EE0FFF1F0590F491E02D97
:1050000009945058BB27AA270E9419280C947B2A80
:105010000E946D2A38F00E94742A20F039F49F3FD4
:1050200019F426F40C942F2A0EF4E095E7FB0C9467
:10503000292AE92F0E948C2A58F3BA1762077307AE
:105040008407950720F079F4A6F50C94AE2A0EF4A7
:10505000E0950B2EBA2FA02D0B01B90190010C0188
:10506000CA01A0011124FF27591B99F0593F50F4A0
:10507000503E68F11A16F040A22F232F342F4427F8
:10508000585FF3CF469537952795A795F0405395F0
:10509000C9F77EF41F16BA0B620B730B840BBAF0C0
:1050A0009150A1F0FF0FBB1F661F771F881FC2F72B
:1050B0000EC0BA0F621F731F841F48F4879577953F
:1050C0006795B795F7959E3F08F0B0CF9395880FF9
:1050D00008F09927EE0F9795879508959F939F77EE
:1050E000EEE389379E0728F4E8E6F0E00E94592AAB
:1050F0000CC00E94E5299058A2EA2AED3FE049EC55
:105100005FE30E9419280E947B2A0F9007FC9058A9
:1051100008950E946D2A60F080E891E009F49EEF06
:105120000E94742A28F040E851E071F45EEF0CC050
:105130000C942F2A0C94AE2AE92FE0780E948C2A36
:1051400040F3092E052AB1F32617370748075907F8
:1051500038F00E2E07F8E02569F0E025E0640AC07B
:10516000EF6307F8009407FADB01B9019D01DC0148
:10517000CA01AD01EF930E9417290E947B2A0E9469
:10518000CC285F91552339F02BED3FE049E450FDE9
:1051900049EC0C9402280895DF93DD27B92FBF77DF
:1051A00040E85FE31616170648075B0718F4D92F87
:1051B0000E94BA2A9F938F937F936F930E94752BBF
:1051C000ECE7F0E00E94322A0E947B2A2F913F9167
:1051D0004F915F910E94D52ADD2351F09058A2EAA9
:1051E0002AED3FE049EC5FE3D0785D270E94192863
:1051F000DF910C947B2A0E94052A08F481E008952F
:105200000E9414290C947B2A0E94742A58F00E9450
:105210006D2A40F029F45F3F29F00C94292A51119E
:105220000C94AF2A0C942F2A0E948C2A68F399239D
:10523000B1F3552391F3951B550BBB27AA27621792
:105240007307840738F09F5F5F4F220F331F441F9F
:10525000AA1FA9F335D00E2E3AF0E0E832D09150D3
:105260005040E695001CCAF72BD0FE2F29D0660FC0
:10527000771F881FBB1F261737074807AB07B0E803
:1052800009F0BB0B802DBF01FF2793585F4F3AF009
:105290009E3F510578F00C94292A0C94AF2A5F3F69
:1052A000E4F3983ED4F3869577956795B795F7958F
:1052B0009F5FC9F7880F911D9695879597F9089577
:1052C000E1E0660F771F881FBB1F62177307840713
:1052D000BA0720F0621B730B840BBA0BEE1F88F722
:1052E000E09508950E9479296894B1110C94AF2A31
:1052F00008950E94942A88F09F5798F0B92F992713
:10530000B751B0F0E1F0660F771F881F991F1AF0B0
:10531000BA95C9F714C0B13091F00E94AE2AB1E03D
:1053200008950C94AE2A672F782F8827B85F39F03C
:10533000B93FCCF3869577956795B395D9F73EF449
:1053400090958095709561957F4F8F4F9F4F0895F1
:10535000E89409C097FB3EF490958095709561950F
:105360007F4F8F4F9F4F9923A9F0F92F96E9BB27C5
:105370009395F695879577956795B795F111F8CF41
:10538000FAF4BB0F11F460FF1BC06F5F7F4F8F4FAC
:105390009F4F16C0882311F096E911C0772321F0A2
:1053A0009EE8872F762F05C0662371F096E8862F3A
:1053B00070E060E02AF09A95660F771F881FDAF791
:1053C000880F9695879597F90895DF93CF931F934C
:1053D0000F938B01EC01E9EAF0E00E94322A0E946F
:1053E0007B2A9801AE018B01EC0160E070E080E85F
:1053F0009FE30E9401280E94352B9801AE010F9176
:105400001F91CF91DF910C94D52A990F0008550F69
:10541000AA0BE0E8FEEF16161706E807F907C0F03A
:1054200012161306E407F50798F0621B730B840B42
:10543000950B39F40A2661F0232B242B252B21F41C
:1054400008950A2609F4A140A6958FEF811D811DBC
:10545000089597F99F6780E870E060E008959FEFF6
:1054600080EC0895DF93CF931F930F93FF92EF92F9
:10547000DF927B018C01689406C0DA2EEF010E9456
:10548000D52AFE01E894A591259135914591559134
:10549000A6F3EF010E941928FE019701A801DA94F2
:1054A00069F7DF90EF90FF900F911F91CF91DF91FF
:1054B00008959F938F937F936F93FF93EF939B0137
:1054C000AC010E94C22AEF91FF910E94322A2F91D3
:1054D0003F914F915F910C94C22A00240A941616B2
:1054E000170618060906089500240A9412161306D2
:1054F000140605060895092E0394000C11F4882360
:1055000052F0BB0F40F4BF2B11F460FF04C06F5F7B
:105510007F4F8F4F9F4F089557FD9058440F551F51
:1055200059F05F3F71F04795880F97FB991F61F025
:105530009F3F79F087950895121613061406551F9C
:10554000F2CF4695F1DF08C0161617061806991F08
:10555000F1CF86957105610508940895E894BB27FD
:1055600066277727CB0197F908950E94052A08F44A
:105570008FEF08959B01AC0160E070E080E89FE34D
:105580000C9400290E94D52A0C947B2A0E946D2A33
:1055900038F00E94742A20F0952311F00C94292AE7
:1055A0000C942F2A11240C94AF2A0E948C2A70F399
:1055B000959FC1F3950F50E0551F629FF001729FB8
:1055C000BB27F00DB11D639FAA27F00DB11DAA1FC7
:1055D000649F6627B00DA11D661F829F2227B00D14
:1055E000A11D621F739FB00DA11D621F839FA00D9F
:1055F000611D221F749F3327A00D611D231F849FEF
:10560000600D211D822F762F6A2F11249F57504045
:105610009AF0F1F088234AF0EE0FFF1FBB1F661FC0
:10562000771F881F91505040A9F79E3F510580F089
:105630000C94292A0C94AF2A5F3FE4F3983ED4F3EC
:10564000869577956795B795F795E7959F5FC1F72D
:10565000FE2B880F911D9695879597F9089519F45B
:1056600016F40C942F2A0C94792B0E94942AB8F3E8
:105670009923C9F3B6F39F57550B87FF0E94872BD9
:105680000024A0E640EA900180585695979528F4AA
:10569000805C660F771F881F20F0261737074807A2
:1056A00030F4621B730B840B202931294A2BA695F9
:1056B00017940794202531254A2758F7660F771F3E
:1056C000881F20F026173707480730F4620B730B4A
:1056D000840B200D311D411DA09581F7B901842F48
:1056E0009158880F9695879508959B01AC010C946D
:1056F000C22A9F3F31F0915020F4879577956795A6
:10570000B795880F911D9695879597F908959150B3
:105710005040660F771F881FD2F70895F894FFCF87
:10572000BA09BA09CDCC4C3E0000803F7800000099
:1057300001013C0000FF0F0105155500000000EFBE
:1057400001C201E8099801BB01A80199010000000C
:10575000007D02BB091E02CA024F022D0241020057
:10576000000000EB09A30C460E0D0A00424D493122
:10577000363047656E436C6173733A3A6932635FE2
:10578000696E697428293A20493243206661696C40
:1057900065642E00424D4931363047656E436C6179
:1057A00073733A3A7370695F696E697428293A2095
:1057B0005741524E494E473A204E6F2063686970F8
:1057C0002073656C6563742070696E207370656307
:1057D00069666965642E00576972652E656E64544A
:1057E00072616E736D697373696F6E2829206661CB
:0657F000696C65642E00E7
:00000001FF
