:100000000C9498000C948D090C9466090C94C00013
:100010000C94C0000C94C0000C94C0000C94C00060
:100020000C94C0000C94C0000C94C0000C94C00050
:100030000C94C0000C94C0000C94C0000C94C00040
:100040000C941C090C94C0000C94C0000C94C000CB
:100050000C94C0000C94C0000C94C0000C94C00020
:100060000C94C0000C94C0005E01011F0103030149
:10007000008A02010A010202010064001E47040B0B
:100080000906007C0101060103030100F401060ECC
:100090000102020100C201170101020201019600E2
:1000A000023E0106060100C800038207100310008B
:1000B000C800820710071003016D0112010301013E
:1000C00003010E012401010202010140012401018A
:1000D0000202010100000000240027002A000000A5
:1000E0000000250028002B0000000000230026004F
:1000F00029000404040404040404020202020202AB
:1001000003030303030301020408102040800102DB
:10011000040810200102040810200000000800025A
:100120000100000304070000000000000000A10F10
:1001300011241FBECFEFD8E0DEBFCDBF11E0A0E09D
:10014000B1E0EEE3F6E202C005900D92A431B107F2
:10015000D9F722E0A4E1B1E001C01D92A835B207B1
:10016000E1F710E0C8E9D0E004C02197FE010E9449
:10017000F010C739D107C9F70E94B4090C941D13B8
:100180000C940000833081F028F4813099F08230A3
:10019000A9F008958730A9F08830C9F08430B1F40F
:1001A000809180008F7D03C0809180008F77809345
:1001B0008000089584B58F7784BD089584B58F7DC0
:1001C000FBCF8091B0008F778093B000089580912D
:1001D000B0008F7DF9CFCF93DF93282F30E0F90166
:1001E000E65EFE4F8491F901EA5FFE4FD491F9017A
:1001F000EE50FF4FC491CC23A1F081110E94C200A8
:10020000EC2FF0E0EE0FFF1FE851FF4FA591B491E6
:10021000EC91ED2381E090E009F480E0DF91CF9153
:10022000089580E090E0FACF1F93CF93DF93282FBB
:1002300030E0F901E65EFE4F8491F901EA5FFE4F7E
:10024000D491F901EE50FF4FC491CC23A9F0162FA1
:1002500081110E94C200EC2FF0E0EE0FFF1FE2526E
:10026000FF4FA591B4918FB7F894EC91111108C08C
:10027000D095DE23DC938FBFDF91CF911F9108953E
:10028000DE2BF8CF1092260280912902882341F0BC
:100290006091060281E06827809105020C941401A8
:1002A0000895CF93DF9390E0FC01EA5FFE4F249125
:1002B0008E509F4FFC0184918823D1F090E0880FED
:1002C000991FFC01EC52FF4FA591B491FC01E25241
:1002D000FF4FC591D491623071F49FB7F8943C916F
:1002E000822F809583238C93E8812E2B28839FBFB8
:1002F000DF91CF9108958FB7F894EC912E2B2C932A
:100300008FBFF6CF8E50806480937C0080917A00FE
:10031000806480937A0080917A0086FDFCCF809182
:1003200078009091790008953FB7F8948091FC018E
:100330009091FD01A091FE01B091FF0126B5A89B0F
:1003400005C02F3F19F00196A11DB11D3FBFBA2F67
:10035000A92F982F8827BC01CD01620F711D811D27
:10036000911D42E0660F771F881F991F4A95D1F7AC
:1003700008958F929F92AF92BF92CF92DF92EF92A9
:10038000FF924B015C010E9494016B017C010E9471
:1003900094016C197D098E099F09683E734081059F
:1003A0009105A8F321E0821A9108A108B10888EE0E
:1003B000C80E83E0D81EE11CF11C81149104A10435
:1003C000B10429F7FF90EF90DF90CF90BF90AF90EE
:1003D0009F908F9008952FB7F8946091F8017091D5
:1003E000F9018091FA019091FB012FBF08950895C2
:1003F000FC01668185810C9414010F931F93CF93A8
:10040000DF93E4ECF1E0ACEAB1E0C8EBD1E00191BC
:100410001191219131910617170728073907E1F04B
:10042000099119912991399106171707280739075A
:1004300099F00D911D912D913D91061717072807F1
:10044000390751F021E0E03DF20709F781E0DF9143
:10045000CF911F910F91089580E0F9CF90933402CE
:100460008093330220912602211139C090933002EB
:1004700080932F02009711F1BC0190E080E00E9470
:10048000A3119B01AC0160E070E080E090E40E9469
:10049000FB100E94C81220E03AE045E259E40E94B5
:1004A00055120E9474116093370270933802809342
:1004B000390290933A0210922802089580911C020A
:1004C00090911D02A0911E02B0911F0280933702ED
:1004D00090933802A0933902B0933A02ECCF81E0B6
:1004E0008093280208954F925F926F927F928F922D
:1004F0009F92AF92BF92CF92DF92EF92FF920F93B3
:100500001F93CF93DF93CDB7DEB764970FB6F89400
:10051000DEBF0FBECDBF6B017C015A834983809142
:100520002E028823E1F00E94420181E0809327029D
:1005300064960FB6F894DEBF0FBECDBFDF91CF91AA
:100540001F910F91FF90EF90DF90CF90BF90AF90F1
:100550009F908F907F906F905F904F9008958091C3
:100560002802882311F120912A0230912B02409118
:100570002C0250912D0220931C0230931D024093B7
:100580001E0250931F0260E472E48FE090E00E942C
:100590009410309332022093310280913302909173
:1005A00034020E942E021092280220910002309103
:1005B000010240910202509103022D833E834F833A
:1005C000588749815A814130510541F48D819E817E
:1005D000AF81B885C80ED91EEA1EFB1EC09220024C
:1005E000D0922102E0922202F09223028090200217
:1005F00090902102A0902202B09023022D813E8192
:100600004F81588582169306A406B50609F48BCF50
:100610001092570275016401C21AD30AE40AF50A5E
:10062000F7FE08C0F094E094D094C094C11CD11C93
:10063000E11CF11CC0923F02D0924002E0924102C4
:10064000F09242028D819E81AF81B885881599050F
:10065000AA05BB050CF04AC091E0998BB091260227
:10066000BD87BB2309F445C02091180230911902BF
:1006700040911A0250911B0260E472E48FE090E016
:100680000E94941029833A834B835C8300912F024C
:100690001091300220911C0230911D0240911E02E7
:1006A00050911F0229873A874B875C8701151105F6
:1006B00009F484C129813A814B815C81CA01B90165
:1006C0000E94C510980150E040E0220F331F441FE4
:1006D000551F0E94621029013A01C414D504E60492
:1006E000F704A4F03D8531110CC040C0AFEFA98BD9
:1006F000B5CF19821A821B821C82C8CF412C512C83
:100700003201809104023989831761F181E080937D
:1007100057028092530290925402A0925502B092D6
:100720005602A09104020A2E000CBB0BA3019201F9
:100730000E948C102D813E814F815885620F731F5E
:10074000841F951F609320027093210280932202E0
:100750009093230240923F025092400260924102E5
:10076000709242020115110509F42BC189859A8501
:10077000AB85BC85803E9349A440B10508F021C1FA
:1007800080913F0290914002A0914102B0914202BB
:100790008D879E87AF87B88BA0913102B0913202CE
:1007A0009D010E94B6102B013C01980150E040E0F1
:1007B00029873A874B875C8729813A814B815C8105
:1007C000CA01B9010E94C5104B015C0129853A8517
:1007D0004B855C850E946210298B3A8B4B8B5C8B1E
:1007E000C984DA84EB84FC84CC0CDD1CEE1CFF1C79
:1007F000C301B20129853A854B855C850E94621050
:1008000089899A89AB89BC89B595A795979587956C
:10081000281B390B4A0B5B0B8D859E85AF85B889EC
:1008200082179307A407B5070CF0A5C08091570263
:10083000882309F480C0109243021092440210925F
:100840004502109246028091430290914402A09189
:100850004502B09146028093470290934802A093CC
:100860004902B0934A02C501B401A70196010E9452
:10087000621020934B0230934C0240934D025093F0
:100880004E0229813A814B815C81232B242B252B1D
:1008900081F48091370290913802A0913902B09191
:1008A0003A028093180290931902A0931A02B0930F
:1008B0001B028091180290911902A0911A02B09126
:1008C0001B022AE0880F991FAA1FBB1F2A95D1F788
:1008D00080933B0290933C02A0933D02B0933E0272
:1008E00010924F0210925002109251021092520236
:1008F0008091200290912102A0912202B0912302C6
:100900002D813E814F815885281739074A075B079B
:100910000CF052C081E08093040281E080932602B3
:1009200080912902882321F080E092E00E94F80162
:1009300010922702FDCD4D855E856F85788975956E
:1009400067955795479589899A89AB89BC89E2E073
:10095000B595A79597958795EA95D1F7481B590BBB
:100960006A0B7B0B40934302509344026093450211
:100970007093460268CFC301B201681979098A09E8
:100980009B09A70196010E946210209343023093B5
:1009900044024093450250934602C301B201A701AD
:1009A00096010E9462108D859E85AF85B889821B55
:1009B000930BA40BB50B4FCF8FEFADCF4D854111EE
:1009C0009DCE10924B0210924C0210924D0210924A
:1009D0004E0210924302109244021092450210926D
:1009E000460280913F0290914002A0914102B09155
:1009F00042028093470290934802A0934902B09329
:100A00004A0289859A85AB85BC854BCF4F925F9210
:100A10006F927F928F929F92AF92BF92CF92DF920E
:100A2000EF92FF9280912602882309F47EC00E94F3
:100A30009401C0901402D0901502E0901602F0903C
:100A400017024B015C018C189D08AE08BF08C090CE
:100A50001802D0901902E0901A02F0901B028C1438
:100A60009D04AE04BF0408F460C060931402709348
:100A70001502809316029093170280912602882314
:100A800009F453C080910402C82E082E000CDD0822
:100A9000EE08FF08409100025091010260910202AD
:100AA000709103024C0D5D1D6E1D7F1D4093000271
:100AB0005093010260930202709303029091080226
:100AC000891799F080930802E0911002F0911102C9
:100AD00091E018160CF090E0809107029817C1F190
:100AE000809113029081892B808380911202E09182
:100AF0000E02F0910F029081892B80838BE090E0B1
:100B00000197F1F780911202E0910E02F0910F022D
:100B1000908180958923808330912602313028F09E
:100B20003330E0F0343009F43EC181E09091260288
:100B3000911101C080E0FF90EF90DF90CF90BF90C7
:100B4000AF909F908F907F906F905F904F9008959F
:100B500080911302908180958923C6CF40914F02E6
:100B60005091500260915102709152022A013B0152
:100B70008FEF481A580A680A780A40924F0250923A
:100B80005002609251027092520280914302909101
:100B90004402A0914502B0914602481659066A06E1
:100BA0007B060CF063C0C0903B02D0903C02E0900A
:100BB0003D02F0903E02C701B601660F771F881F05
:100BC000991F80904B0290904C02A0904D02B090E3
:100BD0004E02840C951CA61CB71CA5019401A2E032
:100BE000220F331F441F551FAA95D1F72F5F3F4F88
:100BF0004F4F5F4F0E949410D701C601821B930B89
:100C0000A40BB50B80933B0290933C02A0933D0252
:100C1000B0933E022AE0B695A795979587952A95B9
:100C2000D1F740911C0250911D0260911E027091FB
:100C30001F0284179507A607B70778F0409137027F
:100C4000509138026091390270913A0284179507E9
:100C5000A607B70710F4AC01BD01409318025093EA
:100C6000190260931A0270931B025FCF80914702B2
:100C700090914802A0914902B0914A024816590643
:100C80006A067B068CF480911C0290911D02A09153
:100C90001E02B0911F028093180290931902A09334
:100CA0001A02B0931B0241CF80913F029091400203
:100CB000A0914102B0914202481659066A067B068D
:100CC0000CF057C0C0903B02D0903C02E0903D0237
:100CD000F0903E0246015701880C991CAA1CBB1CCF
:100CE00084199509A609B7099C01AD0162E0220F9C
:100CF000331F441F551F6A95D1F72F5F3F4F4F4F4A
:100D00005F4FC501B4010E949410BA01A9014C0DB6
:100D10005D1D6E1D7F1D40933B0250933C0260930E
:100D20003D0270933E02EAE07695679557954795A8
:100D3000EA95D1F780911C0290911D02A0911E02AC
:100D4000B0911F02481759076A077B0708F4A3CF21
:100D50008091370290913802A0913902B0913A0205
:100D6000481759076A077B0708F095CFDB01CA01CE
:100D700092CF80915702882379F00E9442016091BE
:100D8000530270915402809155029091560250E0A6
:100D900040E00E947302C9CE313011F43093270233
:100DA0000E944201C2CEE0903502F090360281E00E
:100DB000E81AF108F0923602E092350280903B0288
:100DC00090903C02A0903D02B0903E02C501B4015B
:100DD000660F771F881F991F97010F2C000C440B7B
:100DE000550BE2E0220F331F441F551FEA95D1F740
:100DF0002F5F3F4F4F4F5F4F0E949410BA01A901E0
:100E0000480D591D6A1D7B1D40933B0250933C02C7
:100E100060933D0270933E02FAE076956795579590
:100E20004795FA95D1F780911C0290911D02A091EF
:100E30001E02B0911F02481759076A077B0778F016
:100E40008091370290913802A0913902B0913A0214
:100E5000481759076A077B0710F4DB01CA01809322
:100E6000180290931902A0931A02B0931B0280906B
:100E7000000290900102A0900202B0900302409103
:100E80002002509121026091220270912302841667
:100E90009506A606B70609F483CF1E141F040CF0AE
:100EA0007FCF4091370250913802609139027091A2
:100EB0003A0284179507A607B70708F071CF35CE19
:100EC000CF92DF92EF92FF920F931F93CF93DF9316
:100ED000EB017B012CE0E20EF11C8B016C01C61AC8
:100EE000D70AC601800F911F0E944C10F801819310
:100EF0008F01EE15FF05A9F7CE01DF91CF911F916C
:100F00000F91FF90EF90DF90CF9008959F92AF9256
:100F1000BF92CF92DF92EF92FF920F931F93CF93E6
:100F2000DF935C017B018B01D0E0C0E0F801919080
:100F30008F016501CC0EDD1EC6010E944C10981673
:100F400021F0692DC6010E9454102196CC30D105A4
:100F500069F7C701DF91CF911F910F91FF90EF903B
:100F6000DF90CF90BF90AF909F9008952F923F92C7
:100F70004F925F926F927F928F929F92AF92BF92A9
:100F8000CF92DF92EF92FF920F931F93CF93DF9355
:100F9000CDB7DEB765970FB6F894DEBF0FBECDBFF5
:100FA0000E9494016B017C018091A2019091A301A8
:100FB0002601481A590A4DEC441640E1540608F43B
:100FC000E0C08091A0019091A101009789F020914B
:100FD0001A0130911B011201221A330A910137FEC6
:100FE00003C0319521953109283C31050CF0C5C06D
:100FF00001969093A1018093A001029709F0BDC0D2
:1010000098E6692E90E0792E01E010E0209018011A
:10101000309019013B862A8649E050E0B301CE01A9
:1010200001960E9443108B816C81681708F4682F29
:1010300070E080911A0190911B010E94D5109B01D4
:101040004091000150910101649FC001659F900D86
:10105000749F900D112464E670E00E94D51089857C
:10106000A1E0B0E0882311F0A2E0B0E08D81829F82
:10107000A001839F500D11245D874C878E81829F34
:101080001001839F300C11243F862E868F81829F12
:10109000A001839F500D1124598B488B8885829F16
:1010A0001001839F300C11243B8A2A8AFD01EE0F28
:1010B000FF1FE65EFE4F812C912C54014A855B8513
:1010C000415051095D8B4C8B8C899D89A817B907BC
:1010D00008F040C0880C991CAA1CBB1C808191811F
:1010E000AC012C843D844219530957FF03C051952C
:1010F000419551094617570770F4428153812E8458
:101100003F844219530957FF03C051954195510936
:1011100046175707E0F048895989841B950B97FFBC
:1011200003C091958195910986179707C8F482812C
:1011300093812A883B888219930997FF03C0919570
:10114000819591098617970758F4689480F812964C
:101150003496BACF4A855B854830510508F053C0B4
:101160000F5F1F4F59E0650E711C0D30110509F01E
:101170004DCF1092A1011092A0011092190110926E
:10118000180180911801909119018334910540F064
:1011900010921901109218011092A1011092A00151
:1011A00080911801909119019C012F5F3F4F30935E
:1011B000190120931801880F991FFC01E65EFE4F6C
:1011C00051824082C092A201D092A301E092A40178
:1011D000F092A50165960FB6F894DEBF0FBECDBFA5
:1011E000DF91CF911F910F91FF90EF90DF90CF9003
:1011F000BF90AF909F908F907F906F905F904F9037
:101200003F902F9008958092A8019092A901A092FA
:10121000AA01B092AB012C883D8836942794309275
:10122000A7012092A6013093170120931601109375
:101230001501009314019DCF1F920F920FB60F92CC
:1012400011242F933F938F939F93AF93BF938091DC
:10125000F8019091F901A091FA01B091FB01309150
:10126000F70123E0230F2D3758F50196A11DB11D7D
:101270002093F7018093F8019093F901A093FA016C
:10128000B093FB018091FC019091FD01A091FE01C2
:10129000B091FF010196A11DB11D8093FC019093B7
:1012A000FD01A093FE01B093FF01BF91AF919F910B
:1012B0008F913F912F910F900FBE0F901F90189517
:1012C00026E8230F0296A11DB11DD2CF1F920F92C7
:1012D0000FB60F9211242F933F934F935F936F9309
:1012E0007F938F939F93AF93BF93EF93FF93E0917F
:1012F0000401F09105010995FF91EF91BF91AF9124
:101300009F918F917F916F915F914F913F912F911D
:101310000F900FBE0F901F9018951F920F920FB64F
:101320000F9211242F933F934F935F936F937F936B
:101330008F939F93AF93BF93EF93FF93E09102013D
:10134000F09103010995FF91EF91BF91AF919F91AA
:101350008F917F916F915F914F913F912F910F905E
:101360000FBE0F901F901895CF93DF93CDB7DEB7C8
:1013700062970FB6F894DEBF0FBECDBF789484B5E8
:10138000826084BD84B5816084BD85B5826085BD81
:1013900085B5816085BD80916E00816080936E000F
:1013A0001092810080918100826080938100809101
:1013B00081008160809381008091800081608093B2
:1013C00080008091B10084608093B1008091B00072
:1013D00081608093B00080917A00846080937A006D
:1013E00080917A00826080937A0080917A00816097
:1013F00080937A0080917A00806880937A001092BE
:10140000C10062E08EE00E94510162E08FE00E9424
:10141000510162E080E10E94510162E081E10E949D
:10142000510161E08DE00E94510111E01093290209
:1014300084EF91E00E942E0210922E0288EE93E03B
:10144000A0E0B0E080932A0290932B02A0932C029C
:10145000B0932D0220912602211187C180931C0296
:1014600090931D02A0931E02B0931F02909332022C
:101470008093310280912F02909130020E942E02BF
:10148000109228026091060211E061278091050206
:101490000E9414011092D1011092D0011092A80163
:1014A0001092A9011092AA011092AB011092A7010B
:1014B0001092A60186EB97E09093030180930201BE
:1014C000809169008C7F816080936900E89A64EC68
:1014D00071E090E080E00E94600768EB71E08CE0D2
:1014E00090E00E9460076CEA71E088E190E00E9461
:1014F000600781E10E94EB00892B09F04FC1109336
:10150000EE0187E0ECE0F1E08E010F5F1F4FD801A4
:1015100001900D928A95E1F70E94EB016B877C8721
:101520008D879E870E94EB016F87788B898B9A8BC2
:101530000E94EB014B015C01C12CD12C7601412CA6
:10154000512C3201312C18861A8623E029870E94FB
:10155000EB012F85388949895A89621B730B840BEB
:10156000950B603375478105910508F001C1311075
:10157000FFC0E1E0F0E0EC0FFD1F4985E40FF11D35
:1015800010810E94EB012B853C854D855E85621B99
:10159000730B840B950B6739710581059105C0F0BC
:1015A0000E94EB016B877C878D879E87812F90E05F
:1015B0002A85277002C0959587952A95E2F761E004
:1015C00080FF60E08DE00E9414013A853F5F3A871A
:1015D00081E10E94EB00892B21F58091EE018111C0
:1015E00020C00E94EB010091EA011091EB012091D3
:1015F000EC013091ED01601B710B820B930B653692
:1016000071058105910568F081E08093EE010E94EB
:10161000EB016093EA017093EB018093EC019093EE
:10162000ED0181E10E94EB00892B09F048C0209078
:10163000EE01222009F443C00E94EB010091EA016F
:101640001091EB012091EC013091ED01601B710BC9
:10165000820B930B693873418105910580F11092DB
:10166000EE010E94EB016093EA017093EB0180931D
:10167000EC019093ED0161E08DE00E94140110E017
:1016800000E0C8010E944C10882321F060E0C801EE
:101690000E9454100F5F1F4FC8010E944C108823F6
:1016A00021F060E0C8010E9454100432110549F78E
:1016B00068EB7BE080E090E00E94B901322C81E190
:1016C0000E94EB00892B19F18091EE018823F9F03B
:1016D0000E94EB010091EA011091EB012091EC01D5
:1016E0003091ED01601B710B820B930B6536710518
:1016F0008105910560F01092EE010E94EB0160936C
:10170000EA017093EB018093EC019093ED010E944C
:10171000EB01681979098A099B0967397105810507
:10172000910508F414CF0E94EB014B015C018091FC
:10173000A8019091A901A091AA01B091AB01892BB8
:101740008A2B8B2B49F05885513009F437C208F4A5
:101750001BC2523009F45AC21092A8011092A9017A
:101760001092AA011092AB01F2CE109328028ACEF9
:1017700060E08DE00E94140164EC71E090E080E094
:101780000E94600768EB71E08CE090E00E946007C7
:101790006CEA71E088E190E00E94600701E0882433
:1017A0008A9483E0982EA12CB12C98E6492E5524DA
:1017B0005394612C712C20E0222E20E0322E11E077
:1017C0000E9406050E94EB01C090DF01D090E0016D
:1017D000E090E101F090E2016C197D098E099F090A
:1017E000673971058105910508F43FC00E94EB013E
:1017F0006093DF017093E0018093E1019093E20137
:101800008091A8019091A901A091AA01B091AB018A
:10181000892B8A2B8B2B09F4F1C2E4ECF1E02CEA42
:1018200031E03C872B8788EB91E04091A8015091F3
:10183000A9016091AA017091AB01C190D190E19092
:10184000F190C416D506E606F70609F09DC210937E
:10185000E8011092E4011092E3011092A8011092A5
:10186000A9011092AA011092AB010E94EB01C09055
:10187000F301D090F401E090F501F090F6016C19BD
:101880007D098E099F09633371058105910548F132
:101890000E94EB016093F3017093F4018093F501D2
:1018A0009093F60185E10E94820124ED33E0DC0192
:1018B0000E94E910A50194010E946210CA01B901B9
:1018C0006C5E7F4F8F4F9F4F0E94A5116B017C0173
:1018D00020E030E0A9010E94F610811196C2109319
:1018E0002E020E94EB01C090EF01D090F001E09039
:1018F000F101F090F2016C197D098E099F096333A3
:1019000071058105910510F10E94EB016093EF01D3
:101910007093F0018093F1019093F20184E10E94B1
:1019200082012EE531E0DC010E94E910A50194015D
:101930000E946210265F3F4F4F4F5F4F2093080178
:101940003093090140930A0150930B0181E10E94F9
:10195000EB00892BE1F58091EE01811138C00E94E6
:10196000EB01C090EA01D090EB01E090EC01F09027
:10197000ED016C197D098E099F0965367105810598
:10198000910528F11093EE010E94EB016093EA01AA
:101990007093EB018093EC019093ED018091E9014C
:1019A000F82EF026F092E9018093290264E670E0B7
:1019B00080E090E00E94B901FF2009F45AC280E063
:1019C00092E00E94F8016F2D8DE00E94140181E1E8
:1019D0000E94EB00892B19F18091EE018823F9F028
:1019E0000E94EB01C090EA01D090EB01E090EC0185
:1019F000F090ED016C197D098E099F09653671051E
:101A00008105910560F01092EE010E94EB01609358
:101A1000EA017093EB018093EC019093ED018EE06D
:101A20000E94EB00892B21F08091E801882361F16D
:101A30008091E701811128C08091E601811124C0C5
:101A40001093E7011092E5011093070180E092E006
:101A50000E94F801609124027091250290E080E0DC
:101A60000E94A31120E030E044EB53EC0E94551299
:101A700020E030E044EB53E40E94FB100E946D1123
:101A800041E050E00E9473028EE00E94EB00892B3F
:101A9000C1F08091E801811114C08091E4018111AD
:101AA00010C08091E30181110CC08091E70188236F
:101AB00041F01092E7018091E501811102C00E947E
:101AC00042018FE00E94EB00892B21F08091E4011C
:101AD000882361F18091E601811128C08091E7019E
:101AE000811124C01093E6011092E50110930701C3
:101AF00080E092E00E94F80160912402709125023A
:101B000090E080E00E94A31120E030E044EB53E439
:101B10000E94551220E030E044EB53E40E94FB1099
:101B20000E946D1141E050E00E9473028FE00E941C
:101B3000EB00892BC1F08091E801811114C08091E4
:101B4000E401811110C08091E30181110CC08091EA
:101B5000E601882341F01092E6018091E5018111B0
:101B600002C00E9442018EE00E94EB00892B09F422
:101B700088C180E10E94EB00892B09F488C1809123
:101B8000E301811184C18FC16091A8017091A90105
:101B90008091AA019091AB010E94FD01882309F474
:101BA000DBCD4090A8015090A9016090AA017090EF
:101BB000AB0181E0888794E09987CECD6091A80140
:101BC0007091A9018091AA019091AB010E94FD0141
:101BD000882309F4C1CD8091A8019091A901A09119
:101BE000AA01B091AB01481659066A067B0609F4B2
:101BF000B3CDC090A801D090A901E090AA01F090C7
:101C0000AB01A2E0A887B5E0B987A6CD6091A80195
:101C10007091A9018091AA019091AB010E94FD01F0
:101C2000182F882309F498CD8091A8019091A901DB
:101C3000A091AA01B091AB01481659066A067B062D
:101C400009F48ACD8091A8019091A901A091AA01DF
:101C5000B091AB018C159D05AE05BF0509F47CCD97
:101C60008091A8019091A901A091AA01B091AB0126
:101C70004091C8015091C9016091CA017091CB0196
:101C80004093CC015093CD016093CE017093CF016E
:101C90004091BC015091BD016091BE017091BF01A6
:101CA0004093C0015093C1016093C2017093C3017E
:101CB0004091B0015091B1016091B2017091B301B6
:101CC0004093B4015093B5016093B6017093B7018E
:101CD0004091C4015091C5016091C6017091C70146
:101CE0004093C8015093C9016093CA017093CB011E
:101CF0004091B8015091B9016091BA017091BB0156
:101D00004093BC015093BD016093BE017093BF012D
:101D10004091AC015091AD016091AE017091AF0165
:101D20004093B0015093B1016093B2017093B3013D
:101D30004092C4015092C5016092C6017092C701E1
:101D4000C092B801D092B901E092BA01F092BB0101
:101D50008093AC019093AD01A093AE01B093AF011D
:101D600064EC71E090E080E00E94860768EB71E02F
:101D70008CE090E00E9486076CEA71E088E190E0D8
:101D80000E948607312EE8CC4091A8015091A9010C
:101D90006091AA017091AB01DC01CD90DD90ED90D6
:101DA000FD90CD01C416D506E606F70629F410927B
:101DB000E8011093E4014FCD4091A8015091A90191
:101DC0006091AA017091AB01AB85BC85CD90DD908F
:101DD000ED90FD90BC87AB87C416D506E606F706E6
:101DE00039F41092E8011092E4011093E30135CD2B
:101DF000B1E0E03DFB0709F018CD2FCD1092E801CE
:101E00001092E4011092E30130CD10922E02A7014E
:101E1000960160E074E284E799E40E94FB100E945E
:101E2000741160932A0270932B0280932C0290937A
:101E30002D0220912602211119C060931C0270937B
:101E40001D0280931E0290931F02C701B6010E94DB
:101E50007411709332026093310280912F0290913D
:101E600030020E942E02109228023BCD10932802CD
:101E700038CD609106026027809105020E9414010E
:101E8000A2CD8FE00E94EB00892B09F072CE109357
:101E9000E501109307011093060164E670E080E00D
:101EA00090E00E94B9018091E501882341F1809181
:101EB0000701882359F11092070180E092E00E9407
:101EC000F801609108017091090180910A019091D7
:101ED0000B0122E030E040E050E00E946210A0914F
:101EE0002402B09125020E948110A30192010E9458
:101EF0006210CA01B90141E050E00E94730221144E
:101F0000310409F45DCC0E9400005ACC0E94060501
:101F10008111F5CF809106018027809306012091E1
:101F200008013091090140910A0150910B01811182
:101F3000D6CF50954095309521953F4F4F4F5F4FED
:101F4000CECF0F931F93CF93DF93C0E0D2E01882E0
:101F500019821A821B8281E08C838FEF8D831E820F
:101F60001F82188619861B861A861D861C8661E0CC
:101F700088E00E945101EAEFF0E0E491F0E0EE0F1A
:101F8000FF1FE252FF4F859194919F878E87EEE06D
:101F9000F1E0E491EA8B61E087E00E945101E9EF12
:101FA000F0E0E491F0E0EE0FFF1FE252FF4F859169
:101FB0009491998B888BEDE0F1E0E491EB8B86E0D6
:101FC0008D8361E00E9451011C8A1D8A1E8A1F8A2E
:101FD00080E197E2A0E0B0E0888F998FAA8FBB8F55
:101FE0008C8F9D8FAE8FBF8F18A219A21AA21BA231
:101FF0001EA21FA218A619A61EA610925302109286
:10200000540210925502109256021092570220E884
:102010003CE03DA32CA38AA79BA7ACA7BDA784E661
:1020200090E09AAB89AB8FA598A90E942E0218A6C2
:1020300088EC90E00E942E02C0EDD1E00FEF1FEF80
:102040001B830A838AE090E09D838C8349E050E003
:1020500068E670E086ED91E00E94431019830883E2
:102060008CE390E090930101809300011092A8010D
:102070001092A9011092AA011092AB01DF91CF91A9
:102080001F910F910895FB01DC0102C005900D9294
:1020900041505040D8F70895F999FECF92BD81BDC7
:1020A000F89A992780B50895262FF999FECF1FBA7F
:1020B00092BD81BD20BD0FB6F894FA9AF99A0FBE71
:1020C00001960895052E97FB1EF400940E94791046
:1020D00057FD07D00E94941007FC03D04EF40C94D7
:1020E000791050954095309521953F4F4F4F5F4F58
:1020F000089590958095709561957F4F8F4F9F4F74
:1021000008950E94B610A59F900DB49F900DA49FB6
:10211000800D911D11240895B7FF0C9481100E9429
:102120008110821B930B0895A1E21A2EAA1BBB1BE0
:10213000FD010DC0AA1FBB1FEE1FFF1FA217B30793
:10214000E407F50720F0A21BB30BE40BF50B661FA9
:10215000771F881F991F1A9469F76095709580956D
:1021600090959B01AC01BD01CF010895A29FB001E4
:10217000B39FC001A39F700D811D1124911DB29FBB
:10218000700D811D1124911D0895DB018F939F9384
:102190000E948110BF91AF91A29F800D911DA39FBE
:1021A000900DB29F900D11240895AA1BBB1B51E105
:1021B00007C0AA1FBB1FA617B70710F0A61BB70BB7
:1021C000881F991F5A95A9F780959095BC01CD015C
:1021D00008950E94B610B7FF0895821B930B0895CF
:1021E000EE0FFF1F0590F491E02D09940E94E0117D
:1021F00008F481E008950E940F110C941B120E94B4
:10220000141258F00E940D1240F029F45F3F29F09B
:102210000C94041251110C944F120C940A120E9447
:102220002C1268F39923B1F3552391F3951B550BA9
:10223000BB27AA2762177307840738F09F5F5F4F99
:10224000220F331F441FAA1FA9F335D00E2E3AF0D8
:10225000E0E832D091505040E695001CCAF72BD0F0
:10226000FE2F29D0660F771F881FBB1F2617370741
:102270004807AB07B0E809F0BB0B802DBF01FF2773
:1022800093585F4F3AF09E3F510578F00C9404123A
:102290000C944F125F3FE4F3983ED4F38695779504
:1022A0006795B795F7959F5FC9F7880F911D96952C
:1022B000879597F90895E1E0660F771F881FBB1F88
:1022C000621773078407BA0720F0621B730B840B35
:1022D000BA0BEE1F88F7E09508950E947411689478
:1022E000B1110C944F1208950E94341288F09F5738
:1022F00098F0B92F9927B751B0F0E1F0660F771F2A
:10230000881F991F1AF0BA95C9F714C0B13091F01F
:102310000E944E12B1E008950C944E12672F782F50
:102320008827B85F39F0B93FCCF3869577956795E4
:10233000B395D9F73EF490958095709561957F4F50
:102340008F4F9F4F0895E89409C097FB3EF49095F6
:102350008095709561957F4F8F4F9F4F9923A9F07E
:10236000F92F96E9BB279395F6958795779567950D
:10237000B795F111F8CFFAF4BB0F11F460FF1BC051
:102380006F5F7F4F8F4F9F4F16C0882311F096E9E4
:1023900011C0772321F09EE8872F762F05C0662392
:1023A00071F096E8862F70E060E02AF09A95660F4B
:1023B000771F881FDAF7880F9695879597F9089504
:1023C000990F0008550FAA0BE0E8FEEF1616170646
:1023D000E807F907C0F012161306E407F50798F0AE
:1023E000621B730B840B950B39F40A2661F0232BC7
:1023F000242B252B21F408950A2609F4A140A69543
:102400008FEF811D811D089597F99F6780E870E027
:1024100060E008959FEF80EC089500240A9416165A
:10242000170618060906089500240A9412161306C2
:10243000140605060895092E0394000C11F4882350
:1024400052F0BB0F40F4BF2B11F460FF04C06F5F6C
:102450007F4F8F4F9F4F089557FD9058440F551F42
:1024600059F05F3F71F04795880F97FB991F61F016
:102470009F3F79F087950895121613061406551F8D
:10248000F2CF4695F1DF08C0161617061806991FF9
:10249000F1CF86957105610508940895E894BB27EE
:1024A00066277727CB0197F908950E9468120C944C
:1024B0001B120E940D1238F00E94141220F0952376
:1024C00011F00C9404120C940A1211240C944F1263
:1024D0000E942C1270F3959FC1F3950F50E0551F89
:1024E000629FF001729FBB27F00DB11D639FAA2769
:1024F000F00DB11DAA1F649F6627B00DA11D661FB8
:10250000829F2227B00DA11D621F739FB00DA11DD8
:10251000621F839FA00D611D221F749F3327A00D92
:10252000611D231F849F600D211D822F762F6A2F2E
:1025300011249F5750409AF0F1F088234AF0EE0F93
:10254000FF1FBB1F661F771F881F91505040A9F7C0
:102550009E3F510580F00C9404120C944F125F3F83
:10256000E4F3983ED4F3869577956795B795F795FC
:10257000E7959F5FC1F7FE2B880F911D9695879574
:1025800097F9089519F416F40C940A120C94081390
:102590000E943412B8F39923C9F3B6F39F57550B31
:1025A00087FF0E9416130024A0E640EA900180589D
:1025B0005695979528F4805C660F771F881F20F04A
:1025C00026173707480730F4621B730B840B20294A
:1025D00031294A2BA69517940794202531254A279F
:1025E00058F7660F771F881F20F026173707480710
:1025F00030F4620B730B840B200D311D411DA0952F
:1026000081F7B901842F9158880F96958795089581
:102610009F3F31F0915020F4879577956795B79556
:10262000880F911D9695879597F908959150504080
:0E263000660F771F881FD2F70895F894FFCF2A
:10263E003C00F701F70101017800000000FF0F01D7
:04264E000515550019
:00000001FF
