:100000000C9498000C94BB050C9494050C94C000BF
:100010000C94C0000C94C0000C94C0000C94C00060
:100020000C94C0000C94C0000C94C0000C94C00050
:100030000C94C0000C94C0000C94C0000C94C00040
:100040000C944A050C94C0000C9408060C94E2052C
:100050000C94C0000C94C0000C94C0000C94C00020
:100060000C94C0000C94C000000000002400270085
:100070002A0000000000250028002B0000000000DE
:1000800023002600290004040404040404040202DA
:100090000202020203030303030301020408102007
:1000A0004080010204081020010204081020000012
:1000B0000008000201000003040700000000000027
:1000C00000005E01011F01030301008A02010A0111
:1000D0000202010064001E47040B0906007C0101B6
:1000E000060103030100F401060E0102020100C231
:1000F00001170101020201019600023E01060601FC
:1001000000C80003820710031000C8008207100710
:100110001003016D01120103010103010E0124010D
:1001200001020201014001240101020201013A061B
:1001300011241FBECFEFD8E0DEBFCDBF11E0A0E09D
:10014000B1E0ECE2F2E102C005900D92AE31B107F0
:10015000D9F722E0AEE1B1E001C01D92AC37B207A1
:10016000E1F710E0C8E9D0E004C02197FE010E9449
:100170000E09C739D107C9F70E9491060C941409DA
:100180000C940000833081F028F4813099F08230A3
:10019000A9F008958730A9F08830C9F08430B1F40F
:1001A000809180008F7D03C0809180008F77809345
:1001B0008000089584B58F7784BD089584B58F7DC0
:1001C000FBCF8091B0008F778093B000089580912D
:1001D000B0008F7DF9CFCF93DF93282F30E0F90166
:1001E000E255FF4F8491F901E656FF4FD491F90192
:1001F000EA57FF4FC491CC23A1F081110E94C200A5
:10020000EC2FF0E0EE0FFF1FE458FF4FA591B491E3
:10021000EC91ED2381E090E009F480E0DF91CF9153
:10022000089580E090E0FACF1F93CF93DF93282FBB
:1002300030E0F901E255FF4F8491F901E656FF4F96
:10024000D491F901EA57FF4FC491CC23A9F0162F9E
:1002500081110E94C200EC2FF0E0EE0FFF1FEE585C
:10026000FF4FA591B4918FB7F894EC91111108C08C
:10027000D095DE23DC938FBFDF91CF911F9108953E
:10028000DE2BF8CFCF93DF9390E0FC01E656FF4FD3
:1002900024918A579F4FFC0184918823D1F090E0EC
:1002A000880F991FFC01E859FF4FA591B491FC01FB
:1002B000EE58FF4FC591D491623071F49FB7F89416
:1002C0003C91822F809583238C93E8812E2B288369
:1002D0009FBFDF91CF9108958FB7F894EC912E2BAB
:1002E0002C938FBFF6CF3FB7F8948091C8019091BF
:1002F000C901A091CA01B091CB0126B5A89B05C048
:100300002F3F19F00196A11DB11D3FBFBA2FA92F94
:10031000982F8827BC01CD01620F711D811D911D91
:1003200042E0660F771F881F991F4A95D1F70895FD
:100330008F929F92AF92BF92CF92DF92EF92FF92F5
:100340000F931F93CF93DF936B017C0160E087E0F5
:100350000E9414010E9473014B015C0110E0D0E087
:10036000C0E001E0C430D105B1F00E94730168190A
:1003700079098A099B09C616D706E806F90690F797
:100380001027612F87E00E94140121960E947301BB
:100390004B015C01E7CFDF91CF911F910F91FF904F
:1003A000EF90DF90CF90BF90AF909F908F90089587
:1003B0008F929F92AF92BF92CF92DF92EF92FF9275
:1003C0000E9473014B015C0185E0C82ED12CE12C09
:1003D000F12C0E947301681979098A099B09683E0A
:1003E000734081059105A8F321E0C21AD108E10804
:1003F000F10888EE880E83E0981EA11CB11CC11480
:10040000D104E104F10429F7FF90EF90DF90CF9041
:10041000BF90AF909F908F9008950895AF92BF9234
:10042000CF92DF92EF92FF920F931F93CF93DF93C0
:100430006C017B018B01040F151FEB015E01AE18EF
:10044000BF08C017D10759F06991D601ED91FC9111
:100450000190F081E02DC6010995892B79F7C5013E
:10046000DF91CF911F910F91FF90EF90DF90CF9090
:10047000BF90AF900895FC01538D448D252F30E03F
:10048000842F90E0821B930B541710F0CF960895A1
:1004900001970895FC01918D828D981761F0A28DCE
:1004A000AE0FBF2FB11D5D968C91928D9F5F9F7394
:1004B000928F90E008958FEF9FEF0895FC01918D4A
:1004C000828D981731F0828DE80FF11D858D90E0B7
:1004D00008958FEF9FEF0895FC01918D228D892F54
:1004E00090E0805C9F4F821B91098F73992708953C
:1004F0008CEC91E00E946C0221E0892B09F420E051
:10050000822F089580E090E0892B29F00E947802E4
:1005100081110C9400000895FC01A48DA80FB92F3F
:10052000B11DA35ABF4F2C91848D90E001968F731B
:100530009927848FA689B7892C93A089B1898C913A
:10054000837080648C93938D848D981306C0028889
:10055000F389E02D80818F7D80830895EF92FF9253
:100560000F931F93CF93DF93EC0181E0888F9B8DD6
:100570008C8D98131AC0E889F989808185FF15C090
:100580009FB7F894EE89FF896083E889F9898081B3
:100590008370806480839FBF81E090E0DF91CF9182
:1005A0001F910F91FF90EF900895F62E0B8D10E0A4
:1005B0000F5F1F4F0F731127E02E8C8D8E110CC013
:1005C0000FB607FCFACFE889F989808185FFF5CF5E
:1005D000CE010E948C02F1CFEB8DEC0FFD2FF11DAF
:1005E000E35AFF4FF0829FB7F8940B8FEA89FB899B
:1005F00080818062CFCFCF93DF93EC01888D8823F9
:10060000B9F0AA89BB89E889F9898C9185FD03C075
:10061000808186FD0DC00FB607FCF7CF8C9185FF5A
:10062000F2CF808185FFEDCFCE010E948C02E9CF11
:10063000DF91CF91089586E00E94EB00892B21F491
:100640001092B20181E0089585E00E94EB00892BB1
:10065000B9F389E00E94EB00892B91F38091690244
:1006600090916A02A0916B02B0916C02803C95451A
:10067000A545B10529F38091690290916A02A09184
:100680006B02B0916C028C309545A545B105C1F265
:1006900080E008954F925F926F927F928F929F9227
:1006A000AF92BF92EF92FF920F931F93CF93DF937E
:1006B0002B013C01EA0160E087E00E9414010E94E6
:1006C00073014B015C01CC0FDD1FF12C10E000E049
:1006D000EE24E3940E947301681979098A099B0941
:1006E000461657066806790658F4FE246F2D87E0F3
:1006F0000E9414010F5F1F4F0E9473014B015C01A8
:100700000E941B03811103C00C171D071CF3DF910E
:10071000CF911F910F91FF90EF90BF90AF909F905E
:100720008F907F906F905F904F9008952F923F929F
:100730004F925F926F927F928F929F92AF92BF92F1
:10074000CF92DF92EF92FF920F931F93CF93DF939D
:10075000CDB7DEB765970FB6F894DEBF0FBECDBF3D
:100760000E9473016B017C018091AC019091AD01FD
:100770002601481A590A4DEC441640E1540608F483
:10078000E0C08091AA019091AB01009789F020917F
:100790002401309125011201221A330A910137FEFA
:1007A00003C0319521953109283C31050CF0C5C0B5
:1007B00001969093AB018093AA01029709F0BDC006
:1007C00092EC692E90E0792E01E010E02090220159
:1007D000309023013B862A8649E050E0B301CE01E8
:1007E00001960E94CF088B816C81681708F4682FEE
:1007F00070E080912401909125010E94FA089B01EC
:100800004091060150910701649FC001659F900DC2
:10081000749F900D112464E670E00E94FA088985A7
:10082000A1E0B0E0882311F0A2E0B0E08D81829FCA
:10083000A001839F500D11245D874C878E81829F7C
:100840001001839F300C11243F862E868F81829F5A
:10085000A001839F500D1124598B488B8885829F5E
:100860001001839F300C11243B8A2A8AFD01EE0F70
:10087000FF1FEC5DFE4F812C912C54014A855B8556
:10088000415051095D8B4C8B8C899D89A817B90704
:1008900008F040C0880C991CAA1CBB1C8081918167
:1008A000AC012C843D844219530957FF03C0519574
:1008B000419551094617570770F4428153812E84A0
:1008C0003F844219530957FF03C05195419551097F
:1008D00046175707E0F048895989841B950B97FF05
:1008E00003C091958195910986179707C8F4828175
:1008F00093812A883B888219930997FF03C09195B9
:10090000819591098617970758F4689480F8129694
:100910003496BACF4A855B854830510508F053C0FC
:100920000F5F1F4F59E0650E711C0D30110509F066
:100930004DCF1092AB011092AA0110922301109298
:10094000220180912201909123018334910540F08E
:1009500010922301109222011092AB011092AA0171
:1009600080912201909123019C012F5F3F4F309392
:10097000230120932201880F991FFC01EC5DFE4F9B
:1009800051824082C092AC01D092AD01E092AE01A2
:10099000F092AF0165960FB6F894DEBF0FBECDBFE3
:1009A000DF91CF911F910F91FF90EF90DF90CF904B
:1009B000BF90AF909F908F907F906F905F904F907F
:1009C0003F902F9008958092690290926A02A092BF
:1009D0006B02B0926C022C883D883694279430923A
:1009E000B1012092B0013093210120932001109396
:1009F0001F0100931E019DCF8F929F92AF92BF92D5
:100A00000F931F93CF93DF93CDB7DEB7A1970FB6A8
:100A1000F894DEBF0FBECDBF19A2423008F44AE001
:100A20008E010F5D1F4F842E912CB12CA12CA5019E
:100A300094010E94D808E62FB901CA01EA3044F5B2
:100A4000E05DD801EE938D01232B242B252B79F724
:100A500090E080E0109769F0FD0101900020E9F737
:100A60003197AF014A1B5B0BBD018CEC91E00E94FA
:100A70000E02A1960FB6F894DEBF0FBECDBFDF9178
:100A8000CF911F910F91BF90AF909F908F9008953D
:100A9000E95CD7CF1F920F920FB60F9211242F93BC
:100AA0003F938F939F93AF93BF938091C401909195
:100AB000C501A091C601B091C7013091C30123E0E7
:100AC000230F2D3758F50196A11DB11D2093C301A9
:100AD0008093C4019093C501A093C601B093C70150
:100AE0008091C8019091C901A091CA01B091CB0138
:100AF0000196A11DB11D8093C8019093C901A093D7
:100B0000CA01B093CB01BF91AF919F918F913F915B
:100B10002F910F900FBE0F901F90189526E8230F6E
:100B20000296A11DB11DD2CF1F920F920FB60F9248
:100B300011242F933F934F935F936F937F938F93E2
:100B40009F93AF93BF93EF93FF93E0910201F091D6
:100B500003010995FF91EF91BF91AF919F918F9103
:100B60007F916F915F914F913F912F910F900FBEA9
:100B70000F901F9018951F920F920FB60F9211248D
:100B80002F933F934F935F936F937F938F939F9395
:100B9000AF93BF93EF93FF93E0910001F0910101B8
:100BA0000995FF91EF91BF91AF919F918F917F91A7
:100BB0006F915F914F913F912F910F900FBE0F90CA
:100BC0001F9018951F920F920FB60F9211242F931A
:100BD0003F934F935F936F937F938F939F93AF93C5
:100BE000BF93EF93FF938CEC91E00E948C02FF91F6
:100BF000EF91BF91AF919F918F917F916F915F9195
:100C00004F913F912F910F900FBE0F901F9018950D
:100C10001F920F920FB60F9211242F938F939F93D1
:100C2000EF93FF93E091DC01F091DD018081E09191
:100C3000E201F091E30182FD1BC090818091E5010A
:100C40008F5F8F732091E601821741F0E091E501FB
:100C5000F0E0E453FE4F958F8093E501FF91EF9113
:100C60009F918F912F910F900FBE0F901F9018950D
:100C70008081F4CF0F931F93CF93DF93ECECF1E0DF
:100C80001382128288EE93E0A0E0B0E08483958323
:100C9000A683B7838CE091E09183808385EC90E01C
:100CA0009587848784EC90E09787868780EC90E036
:100CB000918B808B81EC90E0938B828B82EC90E027
:100CC000958B848B86EC90E0978B868B118E128EA1
:100CD000138E148ECDE6D2E00FEF1FEF1B830A8335
:100CE0008AE090E09D838C8349E050E062EC70E004
:100CF00083E792E00E94CF08198308838CE390E099
:100D000090930701809306011092690210926A0283
:100D100010926B0210926C02DF91CF911F910F9194
:100D20000895789484B5826084BD84B5816084BD63
:100D300085B5826085BD85B5816085BD80916E0079
:100D4000816080936E0010928100809181008260AA
:100D500080938100809181008160809381008091E7
:100D600080008160809380008091B10084608093D6
:100D7000B1008091B00081608093B00080917A00D2
:100D8000846080937A0080917A00826080937A00F8
:100D900080917A00816080937A0080917A008068E7
:100DA00080937A001092C100E091DC01F091DD01A6
:100DB00082E08083E091D801F091D9011082E09126
:100DC000DA01F091DB0180E180831092E401E0918F
:100DD000E001F091E10186E08083E091DE01F09195
:100DE000DF01808180618083E091DE01F091DF018D
:100DF000808188608083E091DE01F091DF01808155
:100E000080688083E091DE01F091DF0180818F7D39
:100E1000808362E086E00E94420162E085E00E94F9
:100E2000420162E08AE00E94420162E089E00E94A1
:100E3000420161E08DE00E94420161E08CE00E948D
:100E4000420161E087E00E94420161E08BE00E9484
:100E5000420161E08CE00E94140161E087E00E94A1
:100E6000140160E08BE00E94140110926E02109257
:100E70006D021092690210926A0210926B02109237
:100E80006C021092B1011092B00186E993E0909348
:100E9000010180930001809169008C7F81608093C3
:100EA0006900E89ABB24B394C0E2D3E000E010E00C
:100EB000AA24A3942FB7F8948091C4019091C501FE
:100EC000A091C601B091C7012FBF4091BF015091C1
:100ED000C0016091C1017091C201841B950BA60BEA
:100EE000B70B87399105A105B105D0F18091690251
:100EF00090916A02A0916B02B0916C02892B8A2BAF
:100F00008B2B09F49DC08091690290916A02A09197
:100F10006B02B0916C028093BB019093BC01A093D3
:100F2000BD01B093BE01A092BA0110926902109265
:100F30006A0210926B0210926C022FB7F8948091A3
:100F4000C4019091C501A091C601B091C7012FBF06
:100F50008093BF019093C001A093C101B093C201DF
:100F6000D093B901C093B80189E00E94EB00FF243F
:100F7000F394009709F4F12C20910501F21699F0F1
:100F80002FB7F8944091C4015091C5016091C601FA
:100F90007091C7012FBF4093B4015093B501609386
:100FA000B6017093B7012FB7F8944091C4015091E6
:100FB000C5016091C6017091C7012FBF4090B40177
:100FC0005090B5016090B6017090B7014419550971
:100FD00066097709433351056105710590F0209149
:100FE0000401F21671F0F0920401892B51F48BE0A8
:100FF0000E94EB0061E0892B09F060E08BE00E9429
:101000001401F092050186E00E94EB00892B19F192
:101010004090BB015090BC016090BD017090BE013A
:1010200020EC421625E5520662067104A1F0F0900C
:10103000B20185E00E94EB00892BE1F461E00CC075
:101040001092BB011092BC011092BD011092BE0122
:101050001092BA0172CF60E08CE00E94140160919E
:10106000B8017091B901072E000C880B990B0E94F2
:1010700098010DC08CE0481685E558066806710495
:10108000E9F28AE00E94EB00892B09F057C08AE060
:101090000E94EB0021E0892B09F420E02093B301AA
:1010A0008091B20181110EC08091BB019091BC0171
:1010B000A091BD01B091BE018C3C9545A545B105FF
:1010C00009F044C061E08CE00E9414010E94D80144
:1010D000C090B801D090B9010D2C000CEE08FF08AB
:1010E00040E456E0C701B6010E944A0360E08CE08C
:1010F0000E9414010E94D80140E85CE0C701B601DB
:101100000E944A0361E08CE00E9414010E94D80111
:1011100040E85CE0C701B6010E944A030E941B033D
:10112000882321F30115110509F4C4CE0E94780229
:10113000882309F4BFCE0E940000BCCE8091B30189
:101140008111A5CFFB24F092B201A1CF6091BA0129
:101150008DE00E94140186E00E94EB006C01990F63
:10116000EE08FF084AE0C701B601F7FE0DC06DE2C8
:101170008CEC91E00E94AE0266277727CB016C19B8
:101180007D098E099F094AE00E94FC0442E050E07C
:101190006AE171E08CEC91E00E940E02C3CFFB018A
:1011A000DC0102C005900D9241505040D8F70895DF
:1011B000A1E21A2EAA1BBB1BFD010DC0AA1FBB1F5B
:1011C000EE1FFF1FA217B307E407F50720F0A21BCD
:1011D000B30BE40BF50B661F771F881F991F1A943A
:1011E00069F760957095809590959B01AC01BD0164
:1011F000CF010895AA1BBB1B51E107C0AA1FBB1F4B
:10120000A617B70710F0A61BB70B881F991F5A9592
:10121000A9F780959095BC01CD010895EE0FFF1FB1
:0C1220000590F491E02D0994F894FFCFA4
:10122C000D020D0201013C0000000000AE020E0296
:0E123C003B02FB026C024A025E020D0A000039
:00000001FF
