:020000040000FA
:100000000C9462000C948A000C948A000C948A0070
:100010000C948A000C948A000C948A000C948A0038
:100020000C948A000C948A000C948A000C948A0028
:100030000C948A000C948A000C948A000C948A0018
:100040000C94FB060C948A000C948A000C948A0091
:100050000C948A000C948A000C948A000C948A00F8
:100060000C948A000C948A000000000024002700F1
:100070002A0000000000250028002B0000000000DE
:1000800023002600290004040404040404040202DA
:100090000202020203030303030301020408102007
:1000A0004080010204081020010204081020000012
:1000B0000008000201000003040700000000000027
:1000C0000000E30911241FBECFEFD8E0DEBFCDBF93
:1000D00011E0A0E0B1E0EEE0FAE102C005900D927F
:1000E000A630B107D9F721E0A6E0B1E001C01D922A
:1000F000A837B207E1F710E0C2E6D0E004C02197CC
:10010000FE010E94FF0CC136D107C9F70E944507C6
:100110000C94050D0C940000833081F028F481309C
:1001200099F08230A9F008958730A9F08830C9F09D
:100130008430B1F4809180008F7D03C08091800075
:100140008F7780938000089584B58F7784BD08955C
:1001500084B58F7DFBCF8091B0008F778093B00006
:1001600008958091B0008F7DF9CFCF93DF93282F32
:1001700030E0F901E255FF4F8491F901E656FF4F57
:10018000D491F901EA57FF4FC491CC23A1F081111A
:100190000E948C00EC2FF0E0EE0FFF1FE458FF4FA1
:1001A000A591B491EC91ED2381E090E009F480E019
:1001B000DF91CF91089580E090E0FACF1F93CF9325
:1001C000DF93282F30E0F901E255FF4F8491F901C8
:1001D000E656FF4FD491F901EA57FF4FC491CC2363
:1001E000A9F0162F81110E948C00EC2FF0E0EE0F89
:1001F000FF1FEE58FF4FA591B4918FB7F894EC9183
:10020000111108C0D095DE23DC938FBFDF91CF9111
:100210001F910895DE2BF8CF10924601809149017D
:10022000882341F06091260181E0682780912501B3
:100230000C94DE000895CF93DF9390E0FC01E65626
:10024000FF4F24918A579F4FFC0184918823D1F05E
:1002500090E0880F991FFC01E859FF4FA591B491D8
:10026000FC01EE58FF4FC591D491623071F49FB7F5
:10027000F8943C91822F809583238C93E8812E2BD8
:1002800028839FBFDF91CF9108958FB7F894EC91A9
:100290002E2B2C938FBFF6CF8E50806480937C00E2
:1002A00080917A00806480937A0080917A0086FD44
:1002B000FCCF809178009091790008953FB7F89431
:1002C00080910B0190910C01A0910D01B0910E0154
:1002D00026B5A89B05C02F3F19F00196A11DB11DA1
:1002E0003FBFBA2FA92F982F8827BC01CD01620FDD
:1002F000711D811D911D42E0660F771F881F991F98
:100300004A95D1F708958F929F92AF92BF92CF9264
:10031000DF92EF92FF920E945E014B015C0184E646
:10032000C82ED12CE12CF12C0E945E0168197909AC
:100330008A099B09683E734081059105A8F321E075
:10034000C21AD108E108F10888EE880E83E0981EF1
:10035000A11CB11CC114D104E104F10429F7FF90E0
:10036000EF90DF90CF90BF90AF909F908F900895C7
:100370002FB7F894609107017091080180910901ED
:1003800090910A012FBF0895FC01668185810C942C
:10039000DE00909354018093530120914601211176
:1003A00039C09093500180934F01009711F1BC0127
:1003B00090E080E00E946E0B9B01AC0160E070E079
:1003C00080E090E40E94C60A0E94930C20E03AE08C
:1003D00045E259E40E94200C0E943F0B60935701B4
:1003E000709358018093590190935A0110924801DB
:1003F000089580913C0190913D01A0913E01B09102
:100400003F018093570190935801A0935901B093F5
:100410005A01ECCF81E08093480108954F925F929A
:100420006F927F928F929F92AF92BF92CF92DF9204
:10043000EF92FF920F931F93CF93DF93CDB7DEB769
:1004400064970FB6F894DEBF0FBECDBF6B017C0181
:100450005A83498380914E018823E1F00E940C0168
:1004600081E08093470164960FB6F894DEBF0FBE1B
:10047000CDBFDF91CF911F910F91FF90EF90DF9053
:10048000CF90BF90AF909F908F907F906F905F9034
:100490004F90089580914801882311F120914A01DD
:1004A00030914B0140914C0150914D0120933C0102
:1004B00030933D0140933E0150933F0160E472E46C
:1004C0008FE090E00E94900A3093520120935101F6
:1004D00080915301909154010E94C90110924801EA
:1004E000209120013091210140912201509123015E
:1004F0002D833E834F83588749815A81413051056E
:1005000041F48D819E81AF81B885C80ED91EEA1E47
:10051000FB1EC0924001D0924101E0924201F09254
:1005200043018090400190904101A0904201B09021
:1005300043012D813E814F81588582169306A40682
:10054000B50609F48BCF1092770175016401C21AC8
:10055000D30AE40AF50AF7FE08C0F094E094D094B8
:10056000C094C11CD11CE11CF11CC0925F01D0924F
:100570006001E0926101F09262018D819E81AF8104
:10058000B88588159905AA05BB050CF04AC091E00D
:10059000998BB0914601BD87BB2309F445C02091DA
:1005A00038013091390140913A0150913B0160E4AA
:1005B00072E48FE090E00E94900A29833A834B8393
:1005C0005C8300914F011091500120913C013091CA
:1005D0003D0140913E0150913F0129873A874B8769
:1005E0005C870115110509F484C129813A814B8189
:1005F0005C81CA01B9010E94E80C980150E040E01A
:10060000220F331F441F551F0E945E0A29013A0121
:10061000C414D504E604F704A4F03D8531110CC0E0
:1006200040C0AFEFA98BB5CF19821A821B821C8202
:10063000C8CF412C512C3201809124013989831774
:1006400061F181E08093770180927301909274014F
:10065000A0927501B0927601A09124010A2E000C9F
:10066000BB0BA30192010E94880A2D813E814F811C
:100670005885620F731F841F951F6093400170930C
:100680004101809342019093430140925F01509257
:10069000600160926101709262010115110509F417
:1006A0002BC189859A85AB85BC85803E9349A44042
:1006B000B10508F021C180915F0190916001A09186
:1006C0006101B09162018D879E87AF87B88BA09141
:1006D0005101B09152019D010E94B20A2B013C01CF
:1006E000980150E040E029873A874B875C87298151
:1006F0003A814B815C81CA01B9010E94E80C4B012F
:100700005C0129853A854B855C850E945E0A298BB0
:100710003A8B4B8B5C8BC984DA84EB84FC84CC0CE5
:10072000DD1CEE1CFF1CC301B20129853A854B85F7
:100730005C850E945E0A89899A89AB89BC89B595D6
:10074000A79597958795281B390B4A0B5B0B8D85D1
:100750009E85AF85B88982179307A407B5070CF06B
:10076000A5C080917701882309F480C010926301AD
:1007700010926401109265011092660180916301EC
:1007800090916401A0916501B09166018093670129
:1007900090936801A0936901B0936A01C501B40107
:1007A000A70196010E945E0A20936B0130936C01B1
:1007B00040936D0150936E0129813A814B815C8198
:1007C000232B242B252B81F48091570190915801E4
:1007D000A0915901B0915A01809338019093390149
:1007E000A0933A01B0933B01809138019091390177
:1007F000A0913A01B0913B012AE0880F991FAA1FEE
:10080000BB1F2A95D1F780935B0190935C01A09365
:100810005D01B0935E0110926F0110927001109211
:100820007101109272018091400190914101A0915B
:100830004201B09143012D813E814F815885281797
:1008400039074A075B070CF052C081E0809324010E
:1008500081E08093460180914901882321F080E264
:1008600091E00E94C40110924701FDCD4D855E8547
:100870006F857889759567955795479589899A8980
:10088000AB89BC89E2E0B595A79597958795EA95E0
:10089000D1F7481B590B6A0B7B0B409363015093B4
:1008A0006401609365017093660168CFC301B20172
:1008B000681979098A099B09A70196010E945E0AB5
:1008C0002093630130936401409365015093660166
:1008D000C301B201A70196010E945E0A8D859E8523
:1008E000AF85B889821B930BA40BB50B4FCF8FEF4D
:1008F000ADCF4D8541119DCE10926B0110926C01D0
:1009000010926D0110926E011092630110926401B9
:10091000109265011092660180915F0190916001D3
:10092000A0916101B0916201809367019093680189
:10093000A0936901B0936A0189859A85AB85BC85CE
:100940004BCF4F925F926F927F928F929F92AF9216
:10095000BF92CF92DF92EF92FF928091460188235F
:1009600009F47EC00E945E01C0903401D090350130
:10097000E0903601F09037014B015C018C189D0826
:10098000AE08BF08C0903801D0903901E0903A011C
:10099000F0903B018C149D04AE04BF0408F460C0C9
:1009A0006093340170933501809336019093370141
:1009B00080914601882309F453C080912401C82EF8
:1009C000082E000CDD08EE08FF0840912001509130
:1009D000210160912201709123014C0D5D1D6E1D5E
:1009E0007F1D409320015093210160932201709359
:1009F000230190912801891799F080932801E091B3
:100A00003001F091310191E018160CF090E08091E6
:100A100027019817C1F1809133019081892B808340
:100A200080913201E0912E01F0912F019081892B6C
:100A300080838BE090E00197F1F780913201E091A3
:100A40002E01F0912F019081809589238083309130
:100A50004601313028F03330E0F0343009F43EC143
:100A600081E090914601911101C080E0FF90EF90EC
:100A7000DF90CF90BF90AF909F908F907F906F90BE
:100A80005F904F90089580913301908180958923E4
:100A9000C6CF40916F0150917001609171017091CA
:100AA00072012A013B018FEF481A580A680A780A36
:100AB00040926F01509270016092710170927201C8
:100AC0008091630190916401A0916501B0916601EC
:100AD000481659066A067B060CF063C0C0905B019D
:100AE000D0905C01E0905D01F0905E01C701B6011D
:100AF000660F771F881F991F80906B0190906C0183
:100B0000A0906D01B0906E01840C951CA61CB71CC2
:100B1000A5019401A2E0220F331F441F551FAA957F
:100B2000D1F72F5F3F4F4F4F5F4F0E94900AD70181
:100B3000C601821B930BA40BB50B80935B019093B2
:100B40005C01A0935D01B0935E012AE0B695A79584
:100B5000979587952A95D1F740913C0150913D0199
:100B600060913E0170913F0184179507A607B70772
:100B700078F040915701509158016091590170915E
:100B80005A0184179507A607B70710F4AC01BD01F9
:100B9000409338015093390160933A0170933B01BF
:100BA0005FCF8091670190916801A0916901B09138
:100BB0006A01481659066A067B068CF480913C014E
:100BC00090913D01A0913E01B0913F018093380189
:100BD00090933901A0933A01B0933B0141CF8091AA
:100BE0005F0190916001A0916101B091620148168E
:100BF00059066A067B060CF057C0C0905B01D09086
:100C00005C01E0905D01F0905E0146015701880CA7
:100C1000991CAA1CBB1C84199509A609B7099C013B
:100C2000AD0162E0220F331F441F551F6A95D1F7B3
:100C30002F5F3F4F4F4F5F4FC501B4010E94900A95
:100C4000BA01A9014C0D5D1D6E1D7F1D40935B0116
:100C500050935C0160935D0170935E01EAE07695CC
:100C6000679557954795EA95D1F780913C0190910A
:100C70003D01A0913E01B0913F01481759076A0715
:100C80007B0708F4A3CF8091570190915801A09160
:100C90005901B0915A01481759076A077B0708F0B4
:100CA00095CFDB01CA0192CF80917701882379F03B
:100CB0000E940C0160917301709174018091750123
:100CC0009091760150E040E00E940E02C9CE313092
:100CD00011F4309347010E940C01C2CEE0905501FF
:100CE000F090560181E0E81AF108F0925601E09286
:100CF000550180905B0190905C01A0905D01B090E7
:100D00005E01C501B401660F771F881F991F970107
:100D10000F2C000C440B550BE2E0220F331F441F35
:100D2000551FEA95D1F72F5F3F4F4F4F5F4F0E94FE
:100D3000900ABA01A901480D591D6A1D7B1D4093F7
:100D40005B0150935C0160935D0170935E01FAE07A
:100D50007695679557954795FA95D1F780913C011F
:100D600090913D01A0913E01B0913F014817590774
:100D70006A077B0778F08091570190915801A09104
:100D80005901B0915A01481759076A077B0710F4B7
:100D9000DB01CA018093380190933901A0933A0195
:100DA000B0933B018090200190902101A0902201FE
:100DB000B090230140914001509141016091420166
:100DC0007091430184169506A606B70609F483CFF1
:100DD0001E141F040CF07FCF409157015091580111
:100DE0006091590170915A0184179507A607B707BA
:100DF00008F071CF35CE1F920F920FB60F921124CB
:100E00002F933F938F939F93AF93BF93809107014D
:100E100090910801A0910901B0910A013091060159
:100E200023E0230F2D3758F50196A11DB11D209306
:100E300006018093070190930801A0930901B093E4
:100E40000A0180910B0190910C01A0910D01B091CC
:100E50000E010196A11DB11D80930B0190930C0111
:100E6000A0930D01B0930E01BF91AF919F918F910F
:100E70003F912F910F900FBE0F901F90189526E86D
:100E8000230F0296A11DB11DD2CF789484B5826044
:100E900084BD84B5816084BD85B5826085BD85B51E
:100EA000816085BD80916E00816080936E0010929C
:100EB0008100809181008260809381008091810017
:100EC00081608093810080918000816080938000A8
:100ED0008091B10084608093B1008091B000816006
:100EE0008093B00080917A00846080937A00809132
:100EF0007A00826080937A0080917A00816080938A
:100F00007A0080917A00806880937A001092C10004
:100F100062E08EE00E941B0162E08FE00E941B01F4
:100F200062E080E10E941B0162E081E10E941B01FE
:100F300061E08DE00E941B01C1E0C093490186E998
:100F400090E00E94C90110924E0188EE93E0A0E06B
:100F5000B0E080934A0190934B01A0934C01B09371
:100F60004D01209146012111C7C180933C0190930E
:100F70003D01A0933E01B0933F01909352018093B5
:100F8000510180914F01909150010E94C90110922E
:100F900048016091260181E06827809125010E9427
:100FA000DE0088248A9483E0982EA12CB12C01E0E5
:100FB00098E6492E55245394612C712CC0E0D0E062
:100FC00011E00E94A1040E94B801C0901C01D090C1
:100FD0001D01E0901E01F0901F016C197D098E0922
:100FE0009F09633371058105910548F10E94B8019D
:100FF00060931C0170931D0180931E0190931F014B
:1010000085E10E944C0124ED33E0DC010E94F80CE4
:10101000A50194010E945E0ACA01B9016C5E7F4F6E
:101020008F4F9F4F0E94700B6B017C0120E030E0DE
:10103000A9010E94C10A811162C110934E010E9450
:10104000B801C0901801D0901901E0901A01F090F9
:101050001B016C197D098E099F0963337105810598
:10106000910510F10E94B801609318017093190165
:1010700080931A0190931B0184E10E944C012EE59C
:1010800031E0DC010E94F80CA50194010E945E0A87
:10109000265F3F4F4F4F5F4F209302013093030174
:1010A000409304015093050181E10E94B500892B12
:1010B000C1F580911701811134C00E94B801C09020
:1010C0001301D0901401E0901501F09016016C19F5
:1010D0007D098E099F09653671058105910508F125
:1010E000109317010E94B8016093130170931401CB
:1010F000809315019093160180911201F82EF0262D
:10110000F0921201809349010E948301FF2009F4AB
:101110002AC180E291E00E94C4016F2D8DE00E94FF
:10112000DE0081E10E94B500892B19F18091170141
:101130008823F9F00E94B801C0901301D0901401E7
:10114000E0901501F09016016C197D098E099F0938
:10115000653671058105910560F0109217010E94B6
:10116000B80160931301709314018093150190935B
:1011700016018EE00E94B500892B61F58091110166
:10118000811128C080911001811124C01093110198
:1011900010920F011093010180E291E00E94C401BE
:1011A000609144017091450190E080E00E946E0BD7
:1011B00020E030E044EB53EC0E94200C20E030E0D3
:1011C00044EB53E40E94C60A0E94380B41E050E011
:1011D0000E940E028EE00E94B500892B61F0809182
:1011E0001101882341F01092110180910F018111AA
:1011F00002C00E940C018FE00E94B500892B61F5AE
:1012000080911001811128C080911101811124C0A9
:101210001093100110920F011093010180E291E0F0
:101220000E94C401609144017091450190E080E00A
:101230000E946E0B20E030E044EB53E40E94200C4F
:1012400020E030E044EB53E40E94C60A0E94380BD1
:1012500041E050E00E940E028FE00E94B500892B11
:1012600061F080911001882341F01092100180916B
:101270000F01811102C00E940C018EE00E94B50096
:10128000892B09F478C080E10E94B500892B09F40C
:1012900078C080910F01882349F180910101882352
:1012A00009F478C01092010180E291E00E94C4012B
:1012B00060910201709103018091040190910501F8
:1012C00022E030E040E050E00E945E0AA09144013C
:1012D000B09145010E947D0AA30192010E945E0A1D
:1012E000CA01B90141E050E00E940E02209709F4C2
:1012F00068CE0E94000065CEC09348014ACE10928D
:101300004E01A701960160E074E284E799E40E942F
:10131000C60A0E943F0B60934A0170934B01809371
:101320004C0190934D0120914601211119C0609309
:101330003C0170933D0180933E0190933F01C701B2
:10134000B6010E943F0B709352016093510180914E
:101350004F01909150010E94C901109248016FCE37
:10136000109348016CCE6091260160278091250181
:101370000E94DE00D2CE8FE00E94B500892B09F0DA
:1013800082CF10930F0110930101109300010E946E
:1013900083017FCF0E94A1048111A8CFA0910001F9
:1013A000A195A09300012091020130910301409189
:1013B0000401509105010A2E000CBB0B0E94880A03
:1013C0009B01AC0183CFCF93DF93C0E2D1E01882C1
:1013D00019821A821B8281E08C838FEF8D831E829B
:1013E0001F82188619861B861A861D861C8661E058
:1013F00088E00E941B01EEE8F0E0E491F0E0EE0FDF
:10140000FF1FEE58FF4F859194919F878E87E2EAE8
:10141000F0E0E491EA8B61E087E00E941B01EDE8D7
:10142000F0E0E491F0E0EE0FFF1FEE58FF4F8591E2
:101430009491998B888BE1EAF0E0E491EB8B86E064
:101440008D8361E00E941B011C8A1D8A1E8A1F8AEF
:1014500080E197E2A0E0B0E0888F998FAA8FBB8FE0
:101460008C8F9D8FAE8FBF8F18A219A21AA21BA2BC
:101470001EA21FA218A619A61EA6109273011092F2
:10148000740110927501109276011092770120E894
:101490003CE03DA32CA38AA79BA7ACA7BDA784E6ED
:1014A00090E09AAB89AB8FA598A90E94C90118A6B4
:1014B00088EC90E0DF91CF910C94C901052E97FB49
:1014C0001EF400940E94750A57FD07D00E94900AEE
:1014D00007FC03D04EF40C94750A50954095309556
:1014E00021953F4F4F4F5F4F089590958095709590
:1014F00061957F4F8F4F9F4F08950E94B20AA59F1D
:10150000900DB49F900DA49F800D911D11240895FE
:10151000B7FF0C947D0A0E947D0A821B930B0895ED
:10152000A1E21A2EAA1BBB1BFD010DC0AA1FBB1FE7
:10153000EE1FFF1FA217B307E407F50720F0A21B59
:10154000B30BE40BF50B661F771F881F991F1A94C6
:1015500069F760957095809590959B01AC01BD01F0
:10156000CF010895A29FB001B39FC001A39F700D4A
:10157000811D1124911DB29F700D811D1124911D9B
:1015800008950E94AB0B08F481E008950E94DA0AE6
:101590000C94E60B0E94DF0B58F00E94D80B40F031
:1015A00029F45F3F29F00C94CF0B51110C941A0CC5
:1015B0000C94D50B0E94F70B68F39923B1F35523D4
:1015C00091F3951B550BBB27AA2762177307840756
:1015D00038F09F5F5F4F220F331F441FAA1FA9F3EC
:1015E00035D00E2E3AF0E0E832D091505040E695DA
:1015F000001CCAF72BD0FE2F29D0660F771F881F3B
:10160000BB1F261737074807AB07B0E809F0BB0B2D
:10161000802DBF01FF2793585F4F3AF09E3F510541
:1016200078F00C94CF0B0C941A0C5F3FE4F3983EC7
:10163000D4F3869577956795B795F7959F5FC9F72A
:10164000880F911D9695879597F90895E1E0660FAB
:10165000771F881FBB1F621773078407BA0720F024
:10166000621B730B840BBA0BEE1F88F7E09508958D
:101670000E943F0B6894B1110C941A0C08950E94BB
:10168000FF0B88F09F5798F0B92F9927B751B0F00A
:10169000E1F0660F771F881F991F1AF0BA95C9F7F6
:1016A00014C0B13091F00E94190CB1E008950C946F
:1016B000190C672F782F8827B85F39F0B93FCCF322
:1016C000869577956795B395D9F73EF49095809573
:1016D000709561957F4F8F4F9F4F0895E89409C093
:1016E00097FB3EF490958095709561957F4F8F4F55
:1016F0009F4F9923A9F0F92F96E9BB279395F6956B
:10170000879577956795B795F111F8CFFAF4BB0FE8
:1017100011F460FF1BC06F5F7F4F8F4F9F4F16C04C
:10172000882311F096E911C0772321F09EE8872FD6
:10173000762F05C0662371F096E8862F70E060E092
:101740002AF09A95660F771F881FDAF7880F96950B
:10175000879597F90895990F0008550FAA0BE0E8AF
:10176000FEEF16161706E807F907C0F01216130663
:10177000E407F50798F0621B730B840B950B39F4A3
:101780000A2661F0232B242B252B21F408950A2609
:1017900009F4A140A6958FEF811D811D089597F949
:1017A0009F6780E870E060E008959FEF80EC089507
:1017B00000240A9416161706180609060895002430
:1017C0000A9412161306140605060895092E0394AA
:1017D000000C11F4882352F0BB0F40F4BF2B11F41E
:1017E00060FF04C06F5F7F4F8F4F9F4F089557FD7D
:1017F0009058440F551F59F05F3F71F04795880F7F
:1018000097FB991F61F09F3F79F087950895121615
:1018100013061406551FF2CF4695F1DF08C01616C1
:1018200017061806991FF1CF869571056105089472
:101830000895E894BB2766277727CB0197F9089589
:101840000E94330C0C94E60B0E94D80B38F00E94D7
:10185000DF0B20F0952311F00C94CF0B0C94D50BDB
:1018600011240C941A0C0E94F70B70F3959FC1F38E
:10187000950F50E0551F629FF001729FBB27F00D3E
:10188000B11D639FAA27F00DB11DAA1F649F662793
:10189000B00DA11D661F829F2227B00DA11D621FE2
:1018A000739FB00DA11D621F839FA00D611D221F9C
:1018B000749F3327A00D611D231F849F600D211D80
:1018C000822F762F6A2F11249F5750409AF0F1F003
:1018D00088234AF0EE0FFF1FBB1F661F771F881F6C
:1018E00091505040A9F79E3F510580F00C94CF0BCA
:1018F0000C941A0C5F3FE4F3983ED4F386957795E9
:101900006795B795F795E7959F5FC1F7FE2B880F11
:10191000911D9695879597F9089519F416F40C94EE
:10192000D50B0C94D30C0E94FF0BB8F39923C9F389
:10193000B6F39F57550B87FF0E94E10C0024A0E6E9
:1019400040EA900180585695979528F4805C660F80
:10195000771F881F20F026173707480730F4621BCF
:10196000730B840B202931294A2BA69517940794D1
:10197000202531254A2758F7660F771F881F20F04A
:1019800026173707480730F4620B730B840B200DC2
:10199000311D411DA09581F7B901842F9158880F01
:1019A0009695879508959F3F31F0915020F4879543
:1019B00077956795B795880F911D9695879597F9B7
:1019C000089591505040660F771F881FD2F70895F1
:1019D000DB018F939F930E947D0ABF91AF91A29FDD
:1019E000800D911DA39F900DB29F900D112408951D
:1019F0000E94B20AB7FF0895821B930B0895EE0F61
:101A0000FF1F0590F491E02D0994F894FFCF010198
:041A1000780000005A
:107E0000112484B714BE81FFF0D085E080938100F7
:107E100082E08093C00088E18093C10086E0809377
:107E2000C20080E18093C4008EE0C9D0259A86E02C
:107E300020E33CEF91E0309385002093840096BBD3
:107E4000B09BFECF1D9AA8958150A9F7CC24DD24C4
:107E500088248394B5E0AB2EA1E19A2EF3E0BF2EE7
:107E6000A2D0813461F49FD0082FAFD0023811F036
:107E7000013811F484E001C083E08DD089C08234E0
:107E800011F484E103C0853419F485E0A6D080C0E4
:107E9000853579F488D0E82EFF2485D0082F10E0AE
:107EA000102F00270E291F29000F111F8ED06801E7
:107EB0006FC0863521F484E090D080E0DECF843638
:107EC00009F040C070D06FD0082F6DD080E0C81688
:107ED00080E7D80618F4F601B7BEE895C0E0D1E017
:107EE00062D089930C17E1F7F0E0CF16F0E7DF06D8
:107EF00018F0F601B7BEE89568D007B600FCFDCFD4
:107F0000A601A0E0B1E02C9130E011968C91119780
:107F100090E0982F8827822B932B1296FA010C0160
:107F200087BEE89511244E5F5F4FF1E0A038BF0790
:107F300051F7F601A7BEE89507B600FCFDCF97BE46
:107F4000E89526C08437B1F42ED02DD0F82E2BD052
:107F50003CD0F601EF2C8F010F5F1F4F84911BD097
:107F6000EA94F801C1F70894C11CD11CFA94CF0C13
:107F7000D11C0EC0853739F428D08EE10CD085E9AC
:107F80000AD08FE07ACF813511F488E018D01DD067
:107F900080E101D065CF982F8091C00085FFFCCF94
:107FA0009093C60008958091C00087FFFCCF809118
:107FB000C00084FD01C0A8958091C6000895E0E648
:107FC000F0E098E1908380830895EDDF803219F02E
:107FD00088E0F5DFFFCF84E1DECF1F93182FE3DFCA
:107FE0001150E9F7F2DF1F91089580E0E8DFEE27F6
:047FF000FF270994CA
:027FFE00040479
:00000001FF
